{
  "contractName": "AirDrop",
  "abi": [
    {
      "inputs": [
        {
          "internalType": "address",
          "name": "_owner",
          "type": "address"
        }
      ],
      "stateMutability": "nonpayable",
      "type": "constructor"
    },
    {
      "inputs": [],
      "name": "NIRVANA_MULTIPLIER",
      "outputs": [
        {
          "internalType": "uint256",
          "name": "",
          "type": "uint256"
        }
      ],
      "stateMutability": "view",
      "type": "function"
    },
    {
      "inputs": [],
      "name": "chillToken",
      "outputs": [
        {
          "internalType": "contract IERC20",
          "name": "",
          "type": "address"
        }
      ],
      "stateMutability": "view",
      "type": "function"
    },
    {
      "inputs": [],
      "name": "claimSchedule",
      "outputs": [
        {
          "internalType": "uint256",
          "name": "",
          "type": "uint256"
        }
      ],
      "stateMutability": "view",
      "type": "function"
    },
    {
      "inputs": [],
      "name": "claimTimeStamp",
      "outputs": [
        {
          "internalType": "uint256",
          "name": "",
          "type": "uint256"
        }
      ],
      "stateMutability": "view",
      "type": "function"
    },
    {
      "inputs": [],
      "name": "iChillFiinance",
      "outputs": [
        {
          "internalType": "contract IChillFinance",
          "name": "",
          "type": "address"
        }
      ],
      "stateMutability": "view",
      "type": "function"
    },
    {
      "inputs": [
        {
          "internalType": "uint256",
          "name": "",
          "type": "uint256"
        },
        {
          "internalType": "address",
          "name": "",
          "type": "address"
        }
      ],
      "name": "isNewRewardGiven",
      "outputs": [
        {
          "internalType": "bool",
          "name": "",
          "type": "bool"
        }
      ],
      "stateMutability": "view",
      "type": "function"
    },
    {
      "inputs": [],
      "name": "nirwanaReward",
      "outputs": [
        {
          "internalType": "uint256",
          "name": "",
          "type": "uint256"
        }
      ],
      "stateMutability": "view",
      "type": "function"
    },
    {
      "inputs": [],
      "name": "owner",
      "outputs": [
        {
          "internalType": "address",
          "name": "",
          "type": "address"
        }
      ],
      "stateMutability": "view",
      "type": "function"
    },
    {
      "inputs": [],
      "name": "rewardAmount",
      "outputs": [
        {
          "internalType": "uint256",
          "name": "",
          "type": "uint256"
        }
      ],
      "stateMutability": "view",
      "type": "function"
    },
    {
      "inputs": [],
      "name": "scheduleCount",
      "outputs": [
        {
          "internalType": "uint256",
          "name": "",
          "type": "uint256"
        }
      ],
      "stateMutability": "view",
      "type": "function"
    },
    {
      "inputs": [],
      "name": "timeSchedule",
      "outputs": [
        {
          "internalType": "uint256",
          "name": "",
          "type": "uint256"
        }
      ],
      "stateMutability": "view",
      "type": "function"
    },
    {
      "inputs": [],
      "name": "timeStamp",
      "outputs": [
        {
          "internalType": "uint256",
          "name": "",
          "type": "uint256"
        }
      ],
      "stateMutability": "view",
      "type": "function"
    },
    {
      "inputs": [
        {
          "internalType": "uint256",
          "name": "_timeSchedule",
          "type": "uint256"
        },
        {
          "internalType": "uint256",
          "name": "_claimSchedule",
          "type": "uint256"
        },
        {
          "internalType": "uint256",
          "name": "_nirvanaReward",
          "type": "uint256"
        }
      ],
      "name": "startPool",
      "outputs": [],
      "stateMutability": "nonpayable",
      "type": "function"
    },
    {
      "inputs": [
        {
          "internalType": "uint256",
          "name": "_pid",
          "type": "uint256"
        }
      ],
      "name": "getNirvana",
      "outputs": [
        {
          "internalType": "uint256",
          "name": "",
          "type": "uint256"
        }
      ],
      "stateMutability": "view",
      "type": "function"
    },
    {
      "inputs": [
        {
          "internalType": "uint256",
          "name": "_pid",
          "type": "uint256"
        }
      ],
      "name": "claimNirvanaReward",
      "outputs": [
        {
          "internalType": "bool",
          "name": "",
          "type": "bool"
        }
      ],
      "stateMutability": "nonpayable",
      "type": "function"
    },
    {
      "inputs": [
        {
          "internalType": "uint256",
          "name": "_pid",
          "type": "uint256"
        }
      ],
      "name": "getAllUsers",
      "outputs": [
        {
          "internalType": "address[]",
          "name": "",
          "type": "address[]"
        },
        {
          "internalType": "uint256",
          "name": "",
          "type": "uint256"
        }
      ],
      "stateMutability": "view",
      "type": "function"
    },
    {
      "inputs": [
        {
          "internalType": "uint256",
          "name": "_rewards",
          "type": "uint256"
        }
      ],
      "name": "setNirvanaReward",
      "outputs": [],
      "stateMutability": "nonpayable",
      "type": "function"
    },
    {
      "inputs": [
        {
          "internalType": "uint256",
          "name": "_timeSchedule",
          "type": "uint256"
        }
      ],
      "name": "setTimeSchedule",
      "outputs": [],
      "stateMutability": "nonpayable",
      "type": "function"
    },
    {
      "inputs": [
        {
          "internalType": "uint256",
          "name": "_claimSchedule",
          "type": "uint256"
        }
      ],
      "name": "setClaimTimeSchedule",
      "outputs": [],
      "stateMutability": "nonpayable",
      "type": "function"
    },
    {
      "inputs": [
        {
          "internalType": "uint256",
          "name": "_nirvanaMultiplier",
          "type": "uint256"
        }
      ],
      "name": "setNirVanaMultiplier",
      "outputs": [],
      "stateMutability": "nonpayable",
      "type": "function"
    },
    {
      "inputs": [
        {
          "internalType": "uint256",
          "name": "_pid",
          "type": "uint256"
        },
        {
          "internalType": "address",
          "name": "_user",
          "type": "address"
        }
      ],
      "name": "getUsersInfo",
      "outputs": [
        {
          "internalType": "uint256",
          "name": "",
          "type": "uint256"
        },
        {
          "internalType": "uint256",
          "name": "",
          "type": "uint256"
        },
        {
          "internalType": "uint256",
          "name": "",
          "type": "uint256"
        }
      ],
      "stateMutability": "view",
      "type": "function"
    },
    {
      "inputs": [
        {
          "internalType": "uint256",
          "name": "_pid",
          "type": "uint256"
        }
      ],
      "name": "getPoolInfo",
      "outputs": [
        {
          "internalType": "contract IERC20",
          "name": "",
          "type": "address"
        },
        {
          "internalType": "uint256",
          "name": "",
          "type": "uint256"
        },
        {
          "internalType": "uint256",
          "name": "",
          "type": "uint256"
        },
        {
          "internalType": "uint256",
          "name": "",
          "type": "uint256"
        },
        {
          "internalType": "uint256",
          "name": "",
          "type": "uint256"
        },
        {
          "internalType": "address",
          "name": "",
          "type": "address"
        },
        {
          "internalType": "uint256",
          "name": "",
          "type": "uint256"
        }
      ],
      "stateMutability": "view",
      "type": "function"
    },
    {
      "inputs": [
        {
          "internalType": "address",
          "name": "_chillFinance",
          "type": "address"
        }
      ],
      "name": "setChillFinance",
      "outputs": [],
      "stateMutability": "nonpayable",
      "type": "function"
    },
    {
      "inputs": [
        {
          "internalType": "address",
          "name": "_chillToken",
          "type": "address"
        }
      ],
      "name": "setChillToken",
      "outputs": [],
      "stateMutability": "nonpayable",
      "type": "function"
    },
    {
      "inputs": [],
      "name": "getCurrentTimeStamp",
      "outputs": [
        {
          "internalType": "uint256",
          "name": "",
          "type": "uint256"
        }
      ],
      "stateMutability": "view",
      "type": "function"
    },
    {
      "inputs": [
        {
          "internalType": "address",
          "name": "_owner",
          "type": "address"
        }
      ],
      "name": "transferOwnership",
      "outputs": [],
      "stateMutability": "nonpayable",
      "type": "function"
    }
  ],
  "bytecode": "0x608060405260006009556032600a553480156200001b57600080fd5b50604051620021fb380380620021fb833981810160405260208110156200004157600080fd5b810190808051906020019092919050505073a15e697806711003e635bee08ca049130c4917fd600160006101000a81548173ffffffffffffffffffffffffffffffffffffffff021916908373ffffffffffffffffffffffffffffffffffffffff16021790555073c059ab991c99d2c08a511f8e04ee5ea85a2e97bf6000806101000a81548173ffffffffffffffffffffffffffffffffffffffff021916908373ffffffffffffffffffffffffffffffffffffffff16021790555080600260006101000a81548173ffffffffffffffffffffffffffffffffffffffff021916908373ffffffffffffffffffffffffffffffffffffffff160217905550600a600381905550617080600481905550616978600581905550600062000168620001d160201b60201c565b90506200018660045482620001d960201b62001b511790919060201c565b600681905550620001c3600554620001af60045484620001d960201b62001b511790919060201c565b620001d960201b62001b511790919060201c565b600781905550505062000262565b600042905090565b60008082840190508381101562000258576040517f08c379a000000000000000000000000000000000000000000000000000000000815260040180806020018281038252601b8152602001807f536166654d6174683a206164646974696f6e206f766572666c6f77000000000081525060200191505060405180910390fd5b8091505092915050565b611f8980620002726000396000f3fe608060405234801561001057600080fd5b506004361061018e5760003560e01c80637e5e219c116100de578063c978802711610097578063dac9472411610071578063dac94724146106a5578063e197bcae146106d9578063f2fde38b1461071d578063f7b2a7be146107615761018e565b8063c97880271461062b578063d0c7443414610659578063d42aecab146106775761018e565b80637e5e219c146104c7578063884ec6ee146104e55780638da5cb5b146105275780639a736e631461055b578063b7ef81e1146105cb578063bf823571146105e95761018e565b806335f6f8e11161014b5780634d6694a6116101255780634d6694a6146104035780635edf738c14610421578063710227e31461046557806378775aac146104835761018e565b806335f6f8e1146103735780633a5099ee146103a757806347144e0f146103d55761018e565b806304fb3344146101935780630562e0c31461021d5780630ab0df87146102815780632815da931461029f5780632dde1701146102bd5780632f380b35146102db575b600080fd5b6101bf600480360360208110156101a957600080fd5b810190808035906020019092919050505061077f565b6040518080602001838152602001828103825284818151815260200191508051906020019060200280838360005b838110156102085780820151818401526020810190506101ed565b50505050905001935050505060405180910390f35b6102696004803603604081101561023357600080fd5b8101908080359060200190929190803573ffffffffffffffffffffffffffffffffffffffff169060200190929190505050610a92565b60405180821515815260200191505060405180910390f35b610289610ac1565b6040518082815260200191505060405180910390f35b6102a7610ac7565b6040518082815260200191505060405180910390f35b6102c5610acd565b6040518082815260200191505060405180910390f35b610307600480360360208110156102f157600080fd5b8101908080359060200190929190505050610ad3565b604051808873ffffffffffffffffffffffffffffffffffffffff1681526020018781526020018681526020018581526020018481526020018373ffffffffffffffffffffffffffffffffffffffff16815260200182815260200197505050505050505060405180910390f35b61037b610be1565b604051808273ffffffffffffffffffffffffffffffffffffffff16815260200191505060405180910390f35b6103d3600480360360208110156103bd57600080fd5b8101908080359060200190929190505050610c05565b005b610401600480360360208110156103eb57600080fd5b8101908080359060200190929190505050610cd2565b005b61040b610d9f565b6040518082815260200191505060405180910390f35b6104636004803603602081101561043757600080fd5b81019080803573ffffffffffffffffffffffffffffffffffffffff169060200190929190505050610da5565b005b61046d610eab565b6040518082815260200191505060405180910390f35b6104c56004803603602081101561049957600080fd5b81019080803573ffffffffffffffffffffffffffffffffffffffff169060200190929190505050610eb1565b005b6104cf610fb8565b6040518082815260200191505060405180910390f35b610525600480360360608110156104fb57600080fd5b81019080803590602001909291908035906020019092919080359060200190929190505050610fc0565b005b61052f6111f0565b604051808273ffffffffffffffffffffffffffffffffffffffff16815260200191505060405180910390f35b6105a76004803603604081101561057157600080fd5b8101908080359060200190929190803573ffffffffffffffffffffffffffffffffffffffff169060200190929190505050611216565b60405180848152602001838152602001828152602001935050505060405180910390f35b6105d3611308565b6040518082815260200191505060405180910390f35b610615600480360360208110156105ff57600080fd5b810190808035906020019092919050505061130e565b6040518082815260200191505060405180910390f35b6106576004803603602081101561064157600080fd5b81019080803590602001909291905050506113db565b005b6106616114a8565b6040518082815260200191505060405180910390f35b6106a36004803603602081101561068d57600080fd5b81019080803590602001909291905050506114ae565b005b6106ad61157b565b604051808273ffffffffffffffffffffffffffffffffffffffff16815260200191505060405180910390f35b610705600480360360208110156106ef57600080fd5b81019080803590602001909291905050506115a1565b60405180821515815260200191505060405180910390f35b61075f6004803603602081101561073357600080fd5b81019080803573ffffffffffffffffffffffffffffffffffffffff169060200190929190505050611a44565b005b610769611b4b565b6040518082815260200191505060405180910390f35b6060600080600160009054906101000a900473ffffffffffffffffffffffffffffffffffffffff1673ffffffffffffffffffffffffffffffffffffffff1663506e72ce856040518263ffffffff1660e01b81526004018082815260200191505060206040518083038186803b1580156107f757600080fd5b505afa15801561080b573d6000803e3d6000fd5b505050506040513d602081101561082157600080fd5b8101908080519060200190929190505050905060608167ffffffffffffffff8111801561084d57600080fd5b5060405190808252806020026020018201604052801561087c5781602001602082028036833780820191505090505b5090506000806000905060005b84811015610a8257600160009054906101000a900473ffffffffffffffffffffffffffffffffffffffff1673ffffffffffffffffffffffffffffffffffffffff16630f2b7cc989836040518363ffffffff1660e01b8152600401808381526020018281526020019250505060206040518083038186803b15801561090c57600080fd5b505afa158015610920573d6000803e3d6000fd5b505050506040513d602081101561093657600080fd5b8101908080519060200190929190505050925060006109558985611216565b925050506000600160009054906101000a900473ffffffffffffffffffffffffffffffffffffffff1673ffffffffffffffffffffffffffffffffffffffff166348852fc4836040518263ffffffff1660e01b81526004018082815260200191505060206040518083038186803b1580156109ce57600080fd5b505afa1580156109e2573d6000803e3d6000fd5b505050506040513d60208110156109f857600080fd5b81019080805190602001909291905050509050600a54811415610a735784868581518110610a2257fe5b602002602001019073ffffffffffffffffffffffffffffffffffffffff16908173ffffffffffffffffffffffffffffffffffffffff1681525050610a70600185611b5190919063ffffffff16565b93505b50508080600101915050610889565b5082819550955050505050915091565b600b6020528160005260406000206020528060005260406000206000915091509054906101000a900460ff1681565b60065481565b600a5481565b60055481565b6000806000806000806000600160009054906101000a900473ffffffffffffffffffffffffffffffffffffffff1673ffffffffffffffffffffffffffffffffffffffff16631526fe27896040518263ffffffff1660e01b81526004018082815260200191505060e06040518083038186803b158015610b5157600080fd5b505afa158015610b65573d6000803e3d6000fd5b505050506040513d60e0811015610b7b57600080fd5b81019080805190602001909291908051906020019092919080519060200190929190805190602001909291908051906020019092919080519060200190929190805190602001909291905050509650965096509650965096509650919395979092949650565b60008054906101000a900473ffffffffffffffffffffffffffffffffffffffff1681565b3373ffffffffffffffffffffffffffffffffffffffff16600260009054906101000a900473ffffffffffffffffffffffffffffffffffffffff1673ffffffffffffffffffffffffffffffffffffffff1614610cc8576040517f08c379a000000000000000000000000000000000000000000000000000000000815260040180806020018281038252601b8152602001807f4572726f723a2041646472657373206973206e6f74206f776e6572000000000081525060200191505060405180910390fd5b80600a8190555050565b3373ffffffffffffffffffffffffffffffffffffffff16600260009054906101000a900473ffffffffffffffffffffffffffffffffffffffff1673ffffffffffffffffffffffffffffffffffffffff1614610d95576040517f08c379a000000000000000000000000000000000000000000000000000000000815260040180806020018281038252601b8152602001807f4572726f723a2041646472657373206973206e6f74206f776e6572000000000081525060200191505060405180910390fd5b8060038190555050565b60075481565b3373ffffffffffffffffffffffffffffffffffffffff16600260009054906101000a900473ffffffffffffffffffffffffffffffffffffffff1673ffffffffffffffffffffffffffffffffffffffff1614610e68576040517f08c379a000000000000000000000000000000000000000000000000000000000815260040180806020018281038252601b8152602001807f4572726f723a2041646472657373206973206e6f74206f776e6572000000000081525060200191505060405180910390fd5b806000806101000a81548173ffffffffffffffffffffffffffffffffffffffff021916908373ffffffffffffffffffffffffffffffffffffffff16021790555050565b60045481565b3373ffffffffffffffffffffffffffffffffffffffff16600260009054906101000a900473ffffffffffffffffffffffffffffffffffffffff1673ffffffffffffffffffffffffffffffffffffffff1614610f74576040517f08c379a000000000000000000000000000000000000000000000000000000000815260040180806020018281038252601b8152602001807f4572726f723a2041646472657373206973206e6f74206f776e6572000000000081525060200191505060405180910390fd5b80600160006101000a81548173ffffffffffffffffffffffffffffffffffffffff021916908373ffffffffffffffffffffffffffffffffffffffff16021790555050565b600042905090565b3373ffffffffffffffffffffffffffffffffffffffff16600260009054906101000a900473ffffffffffffffffffffffffffffffffffffffff1673ffffffffffffffffffffffffffffffffffffffff1614611083576040517f08c379a000000000000000000000000000000000000000000000000000000000815260040180806020018281038252601b8152602001807f4572726f723a2041646472657373206973206e6f74206f776e6572000000000081525060200191505060405180910390fd5b80600381905550826004819055508160058190555060006110a2610fb8565b90506110b960045482611b5190919063ffffffff16565b6006819055506110e86005546110da60045484611b5190919063ffffffff16565b611b5190919063ffffffff16565b60078190555060008060009054906101000a900473ffffffffffffffffffffffffffffffffffffffff1673ffffffffffffffffffffffffffffffffffffffff166370a08231306040518263ffffffff1660e01b8152600401808273ffffffffffffffffffffffffffffffffffffffff16815260200191505060206040518083038186803b15801561117857600080fd5b505afa15801561118c573d6000803e3d6000fd5b505050506040513d60208110156111a257600080fd5b8101908080519060200190929190505050905060006111df60646111d160035485611bd990919063ffffffff16565b611c5f90919063ffffffff16565b905080600881905550505050505050565b600260009054906101000a900473ffffffffffffffffffffffffffffffffffffffff1681565b6000806000600160009054906101000a900473ffffffffffffffffffffffffffffffffffffffff1673ffffffffffffffffffffffffffffffffffffffff166393f1a40b86866040518363ffffffff1660e01b8152600401808381526020018273ffffffffffffffffffffffffffffffffffffffff1681526020019250505060606040518083038186803b1580156112ac57600080fd5b505afa1580156112c0573d6000803e3d6000fd5b505050506040513d60608110156112d657600080fd5b810190808051906020019092919080519060200190929190805190602001909291905050509250925092509250925092565b60095481565b60008061131b8333611216565b925050506000600160009054906101000a900473ffffffffffffffffffffffffffffffffffffffff1673ffffffffffffffffffffffffffffffffffffffff166348852fc4836040518263ffffffff1660e01b81526004018082815260200191505060206040518083038186803b15801561139457600080fd5b505afa1580156113a8573d6000803e3d6000fd5b505050506040513d60208110156113be57600080fd5b810190808051906020019092919050505090508092505050919050565b3373ffffffffffffffffffffffffffffffffffffffff16600260009054906101000a900473ffffffffffffffffffffffffffffffffffffffff1673ffffffffffffffffffffffffffffffffffffffff161461149e576040517f08c379a000000000000000000000000000000000000000000000000000000000815260040180806020018281038252601b8152602001807f4572726f723a2041646472657373206973206e6f74206f776e6572000000000081525060200191505060405180910390fd5b8060048190555050565b60035481565b3373ffffffffffffffffffffffffffffffffffffffff16600260009054906101000a900473ffffffffffffffffffffffffffffffffffffffff1673ffffffffffffffffffffffffffffffffffffffff1614611571576040517f08c379a000000000000000000000000000000000000000000000000000000000815260040180806020018281038252601b8152602001807f4572726f723a2041646472657373206973206e6f74206f776e6572000000000081525060200191505060405180910390fd5b8060058190555050565b600160009054906101000a900473ffffffffffffffffffffffffffffffffffffffff1681565b6000600a546115af8361130e565b14611622576040517f08c379a000000000000000000000000000000000000000000000000000000000815260040180806020018281038252601a8152602001807f596f7520617265206e6f74204e69726176616e6120757365722e00000000000081525060200191505060405180910390fd5b61162a611ca9565b6000600954116116a2576040517f08c379a00000000000000000000000000000000000000000000000000000000081526004018080602001828103825260188152602001807f436c61696d2077696e646f77206973206e6f74206f70656e000000000000000081525060200191505060405180910390fd5b600b6000600954815260200190815260200160002060003373ffffffffffffffffffffffffffffffffffffffff1673ffffffffffffffffffffffffffffffffffffffff16815260200190815260200160002060009054906101000a900460ff161580156117175750600754611715610fb8565b105b61176c576040517f08c379a0000000000000000000000000000000000000000000000000000000008152600401808060200182810382526031815260200180611edf6031913960400191505060405180910390fd5b6001600b6000600954815260200190815260200160002060003373ffffffffffffffffffffffffffffffffffffffff1673ffffffffffffffffffffffffffffffffffffffff16815260200190815260200160002060006101000a81548160ff02191690831515021790555060006117e283610ad3565b505094505050505060006117f68433611216565b50509050600061182283611814606485611bd990919063ffffffff16565b611c5f90919063ffffffff16565b9050600061184e606461184060085485611bd990919063ffffffff16565b611c5f90919063ffffffff16565b90508060008054906101000a900473ffffffffffffffffffffffffffffffffffffffff1673ffffffffffffffffffffffffffffffffffffffff166370a08231306040518263ffffffff1660e01b8152600401808273ffffffffffffffffffffffffffffffffffffffff16815260200191505060206040518083038186803b1580156118d857600080fd5b505afa1580156118ec573d6000803e3d6000fd5b505050506040513d602081101561190257600080fd5b8101908080519060200190929190505050101561196a576040517f08c379a0000000000000000000000000000000000000000000000000000000008152600401808060200182810382526023815260200180611f316023913960400191505060405180910390fd5b60008054906101000a900473ffffffffffffffffffffffffffffffffffffffff1673ffffffffffffffffffffffffffffffffffffffff1663a9059cbb33836040518363ffffffff1660e01b8152600401808373ffffffffffffffffffffffffffffffffffffffff16815260200182815260200192505050602060405180830381600087803b1580156119fb57600080fd5b505af1158015611a0f573d6000803e3d6000fd5b505050506040513d6020811015611a2557600080fd5b8101908080519060200190929190505050506001945050505050919050565b3373ffffffffffffffffffffffffffffffffffffffff16600260009054906101000a900473ffffffffffffffffffffffffffffffffffffffff1673ffffffffffffffffffffffffffffffffffffffff1614611b07576040517f08c379a000000000000000000000000000000000000000000000000000000000815260040180806020018281038252601b8152602001807f4572726f723a2041646472657373206973206e6f74206f776e6572000000000081525060200191505060405180910390fd5b80600260006101000a81548173ffffffffffffffffffffffffffffffffffffffff021916908373ffffffffffffffffffffffffffffffffffffffff16021790555050565b60085481565b600080828401905083811015611bcf576040517f08c379a000000000000000000000000000000000000000000000000000000000815260040180806020018281038252601b8152602001807f536166654d6174683a206164646974696f6e206f766572666c6f77000000000081525060200191505060405180910390fd5b8091505092915050565b600080831415611bec5760009050611c59565b6000828402905082848281611bfd57fe5b0414611c54576040517f08c379a0000000000000000000000000000000000000000000000000000000008152600401808060200182810382526021815260200180611f106021913960400191505060405180910390fd5b809150505b92915050565b6000611ca183836040518060400160405280601a81526020017f536166654d6174683a206469766973696f6e206279207a65726f000000000000815250611e18565b905092915050565b600654611cb4610fb8565b1115611e16576000611cc4610fb8565b9050611cdb60045482611b5190919063ffffffff16565b60068190555060008060009054906101000a900473ffffffffffffffffffffffffffffffffffffffff1673ffffffffffffffffffffffffffffffffffffffff166370a08231306040518263ffffffff1660e01b8152600401808273ffffffffffffffffffffffffffffffffffffffff16815260200191505060206040518083038186803b158015611d6b57600080fd5b505afa158015611d7f573d6000803e3d6000fd5b505050506040513d6020811015611d9557600080fd5b810190808051906020019092919050505090506000611dd26064611dc460035485611bd990919063ffffffff16565b611c5f90919063ffffffff16565b905080600881905550611df16001600954611b5190919063ffffffff16565b600981905550611e0c60055484611b5190919063ffffffff16565b6007819055505050505b565b60008083118290611ec4576040517f08c379a00000000000000000000000000000000000000000000000000000000081526004018080602001828103825283818151815260200191508051906020019080838360005b83811015611e89578082015181840152602081019050611e6e565b50505050905090810190601f168015611eb65780820380516001836020036101000a031916815260200191505b509250505060405180910390fd5b506000838581611ed057fe5b04905080915050939250505056fe416c72656164792052657761726420697320436c61696d65642c205761697420666f72204e65787420536e617073686f74536166654d6174683a206d756c7469706c69636174696f6e206f766572666c6f774e6f7420456e6f7567682042616c616e636520696e204e697276616e6120506f6f6c2ea26469706673582212208f58e9f1074ec0e7512f796cd5f8c0564bc73d093651b64f91ec6a38b08ba2d164736f6c634300060c0033",
  "immutableReferences": {},
  "source": "pragma solidity ^0.6.0;\r\n\r\nimport \"../interfaces/IChillFinance.sol\";\r\nimport \"../interfaces/IERC20.sol\";\r\nimport \"../helper/SafeMath.sol\";\r\n\r\ncontract AirDrop {\r\n    using SafeMath for uint256;\r\n    IERC20 public chillToken;\r\n    IChillFinance public iChillFiinance;\r\n    address public owner;\r\n    uint256 public nirwanaReward;\r\n    uint256 public timeSchedule;\r\n    uint256 public claimSchedule;\r\n    uint256 public timeStamp;\r\n    uint256 public claimTimeStamp;\r\n    uint256 public rewardAmount;\r\n    uint256 public scheduleCount = 0;\r\n    uint256 public NIRVANA_MULTIPLIER = 50;\r\n    mapping (uint256 => mapping(address => bool)) public isNewRewardGiven;\r\n\r\n    modifier isOwner {\r\n        require(owner == msg.sender, \"Error: Address is not owner\");\r\n        _;\r\n    }\r\n    \r\n    constructor(address _owner) public {\r\n        iChillFiinance = IChillFinance(0xa15E697806711003E635bEe08CA049130C4917fd);\r\n        chillToken = IERC20(0xC059Ab991c99D2c08A511F8e04EE5EA85a2e97bf);\r\n        owner = _owner;\r\n        nirwanaReward = 10; // Nirvana Reward Percentage\r\n        timeSchedule = 28800; // 8 hours\r\n        claimSchedule = 27000; // 15 hours 30 mins\r\n        uint256 currentTimeStamp = getCurrentTimeStamp();\r\n        timeStamp = currentTimeStamp.add(timeSchedule);\r\n        claimTimeStamp = currentTimeStamp.add(timeSchedule).add(claimSchedule);\r\n    }\r\n    \r\n    function startPool(uint256 _timeSchedule, uint256 _claimSchedule, uint256 _nirvanaReward) public isOwner {\r\n        nirwanaReward = _nirvanaReward; // Nirvana Reward Percentage\r\n        timeSchedule = _timeSchedule; // 8 hours\r\n        claimSchedule = _claimSchedule; // 15 hours 30 mins\r\n        uint256 currentTimeStamp = getCurrentTimeStamp();\r\n        timeStamp = currentTimeStamp.add(timeSchedule);\r\n        claimTimeStamp = currentTimeStamp.add(timeSchedule).add(claimSchedule);\r\n        uint256 chillBalance = chillToken.balanceOf(address(this));\r\n        uint256 chillReward = chillBalance.mul(nirwanaReward).div(100);\r\n        rewardAmount = chillReward;\r\n    }\r\n    \r\n    function setNewScheduler() internal {\r\n        if (getCurrentTimeStamp() > timeStamp) {\r\n            uint256 currentTimeStamp = getCurrentTimeStamp();\r\n            timeStamp = currentTimeStamp.add(timeSchedule); // increase by 8 hours\r\n            uint256 chillBalance = chillToken.balanceOf(address(this));\r\n            uint256 chillReward = chillBalance.mul(nirwanaReward).div(100);\r\n            rewardAmount = chillReward;\r\n            scheduleCount = scheduleCount.add(1);\r\n            claimTimeStamp = currentTimeStamp.add(claimSchedule); // 7 hours 30 mins\r\n        }\r\n    }\r\n\r\n    function getNirvana(uint256 _pid) public view returns(uint256) {\r\n        (,,uint256 startedBlock) = getUsersInfo(_pid, msg.sender);\r\n        uint256 nirvanMultiplier = iChillFiinance.getNirvanaStatus(startedBlock);\r\n        return nirvanMultiplier;\r\n    }\r\n    \r\n    function claimNirvanaReward(uint256 _pid) public returns(bool) {\r\n        require(getNirvana(_pid) == NIRVANA_MULTIPLIER, \"You are not Niravana user.\");\r\n        setNewScheduler();\r\n        require(scheduleCount > 0, \"Claim window is not open\");\r\n        require(!isNewRewardGiven[scheduleCount][msg.sender] && getCurrentTimeStamp() < claimTimeStamp, \"Already Reward is Claimed, Wait for Next Snapshot\");\r\n        isNewRewardGiven[scheduleCount][msg.sender] = true;\r\n        (,,,,uint256 poolBalance,,) = getPoolInfo(_pid);\r\n        (uint256 userBalance,,) = getUsersInfo(_pid, msg.sender);\r\n        uint256 transferBalancePercent = userBalance.mul(100).div(poolBalance);\r\n        uint256 transferBalance = transferBalancePercent.mul(rewardAmount).div(100);\r\n        require(chillToken.balanceOf(address(this)) >= transferBalance, \"Not Enough Balance in Nirvana Pool.\");\r\n        chillToken.transfer(msg.sender, transferBalance);\r\n        return true;\r\n    }\r\n    \r\n    function getAllUsers(uint256 _pid) public view returns(address[] memory, uint256) {\r\n        uint256 userLength = iChillFiinance.userPoollength(_pid);\r\n        address[] memory nirvanaAddresses = new address[](userLength);\r\n        address poolUser;\r\n        uint256 count = 0;\r\n        for (uint i = 0; i < userLength; i++) {\r\n            poolUser = iChillFiinance.poolUsers(_pid, i);\r\n            (,,uint256 startedBlock) = getUsersInfo(_pid, poolUser);\r\n            uint256 nirvanMultiplier = iChillFiinance.getNirvanaStatus(startedBlock);\r\n            if (nirvanMultiplier == NIRVANA_MULTIPLIER) {\r\n                nirvanaAddresses[count] = poolUser;\r\n                count = count.add(1);\r\n            }\r\n        }\r\n        return (nirvanaAddresses, count);\r\n    }\r\n    \r\n    function setNirvanaReward(uint256 _rewards) public isOwner {\r\n        nirwanaReward = _rewards;\r\n    }\r\n    \r\n    function setTimeSchedule(uint256 _timeSchedule) public isOwner {\r\n        timeSchedule = _timeSchedule;\r\n    }\r\n    \r\n    function setClaimTimeSchedule(uint256 _claimSchedule) public isOwner {\r\n        claimSchedule = _claimSchedule;\r\n    }\r\n    \r\n    function setNirVanaMultiplier(uint256 _nirvanaMultiplier) public isOwner {\r\n        NIRVANA_MULTIPLIER = _nirvanaMultiplier;\r\n    }\r\n    \r\n    function getUsersInfo(uint256 _pid, address _user) public view returns (uint256, uint256, uint256) {\r\n        return iChillFiinance.userInfo(_pid, _user);\r\n    }\r\n    \r\n    function getPoolInfo(uint256 _pid) public view returns (IERC20, uint256, uint256, uint256, uint256, address, uint256) {\r\n        return iChillFiinance.poolInfo(_pid);\r\n    }\r\n    \r\n    function setChillFinance(address _chillFinance) public isOwner {\r\n        iChillFiinance = IChillFinance(_chillFinance);\r\n    }\r\n\r\n    function setChillToken(address _chillToken) public isOwner {\r\n        chillToken = IERC20(_chillToken);\r\n    }\r\n    \r\n    function getCurrentTimeStamp() public view returns(uint256) {\r\n        return block.timestamp;\r\n    }\r\n\r\n    function transferOwnership(address _owner) public isOwner {\r\n        owner = _owner;\r\n    }\r\n}\r\n",
  "sourcePath": "C:\\AComputer\\freelancer\\formefreelance\\chillfinance\\chill_backend\\contracts\\chill\\AirDrop.sol",
  "compiler": {
    "name": "solc",
    "version": "0.6.12+commit.27d51765.Emscripten.clang"
  },
  "schemaVersion": "3.3.2",
  "updatedAt": "2020-12-04T06:37:43.811Z",
  "devdoc": {
    "kind": "dev",
    "methods": {},
    "version": 1
  },
  "userdoc": {
    "kind": "user",
    "methods": {},
    "version": 1
  }
}