{
  "contractName": "AirDropFactory",
  "abi": [
    {
      "inputs": [],
      "stateMutability": "nonpayable",
      "type": "constructor"
    },
    {
      "anonymous": false,
      "inputs": [
        {
          "indexed": true,
          "internalType": "address",
          "name": "previousOwner",
          "type": "address"
        },
        {
          "indexed": true,
          "internalType": "address",
          "name": "newOwner",
          "type": "address"
        }
      ],
      "name": "OwnershipTransferred",
      "type": "event"
    },
    {
      "inputs": [
        {
          "internalType": "address",
          "name": "",
          "type": "address"
        }
      ],
      "name": "_airDropNirvanaAddress",
      "outputs": [
        {
          "internalType": "address",
          "name": "",
          "type": "address"
        }
      ],
      "stateMutability": "view",
      "type": "function"
    },
    {
      "inputs": [
        {
          "internalType": "uint256",
          "name": "",
          "type": "uint256"
        }
      ],
      "name": "lpPoolArray",
      "outputs": [
        {
          "internalType": "address",
          "name": "",
          "type": "address"
        }
      ],
      "stateMutability": "view",
      "type": "function"
    },
    {
      "inputs": [],
      "name": "owner",
      "outputs": [
        {
          "internalType": "address",
          "name": "",
          "type": "address"
        }
      ],
      "stateMutability": "view",
      "type": "function"
    },
    {
      "inputs": [],
      "name": "renounceOwnership",
      "outputs": [],
      "stateMutability": "nonpayable",
      "type": "function"
    },
    {
      "inputs": [
        {
          "internalType": "address",
          "name": "newOwner",
          "type": "address"
        }
      ],
      "name": "transferOwnership",
      "outputs": [],
      "stateMutability": "nonpayable",
      "type": "function"
    },
    {
      "inputs": [
        {
          "internalType": "address",
          "name": "_lpPool",
          "type": "address"
        }
      ],
      "name": "createNiravanaIncentivePool",
      "outputs": [],
      "stateMutability": "nonpayable",
      "type": "function"
    },
    {
      "inputs": [
        {
          "internalType": "address",
          "name": "_lpPool",
          "type": "address"
        }
      ],
      "name": "getAirDropAddressByPool",
      "outputs": [
        {
          "internalType": "address",
          "name": "",
          "type": "address"
        }
      ],
      "stateMutability": "view",
      "type": "function"
    },
    {
      "inputs": [],
      "name": "getLpPoolArray",
      "outputs": [
        {
          "internalType": "address[]",
          "name": "",
          "type": "address[]"
        }
      ],
      "stateMutability": "view",
      "type": "function"
    },
    {
      "inputs": [],
      "name": "getLpPoolArrayLength",
      "outputs": [
        {
          "internalType": "uint256",
          "name": "",
          "type": "uint256"
        }
      ],
      "stateMutability": "view",
      "type": "function"
    }
  ],
  "bytecode": "0x608060405234801561001057600080fd5b5060006100216100c460201b60201c565b9050806000806101000a81548173ffffffffffffffffffffffffffffffffffffffff021916908373ffffffffffffffffffffffffffffffffffffffff1602179055508073ffffffffffffffffffffffffffffffffffffffff16600073ffffffffffffffffffffffffffffffffffffffff167f8be0079c531659141344cd1fd0a4f28419497f9722a3daafe3b4186f6b6457e060405160405180910390a3506100cc565b600033905090565b612ca3806100db6000396000f3fe608060405234801561001057600080fd5b50600436106100935760003560e01c80638da5cb5b116100665780638da5cb5b1461018d578063a75a231c146101c1578063bc8f031914610205578063d61225661461025d578063f2fde38b146102cb57610093565b80630edff393146100985780633b33ebab146100f75780634670654314610115578063715018a614610183575b600080fd5b6100a061030f565b6040518080602001828103825283818151815260200191508051906020019060200280838360005b838110156100e35780820151818401526020810190506100c8565b505050509050019250505060405180910390f35b6100ff61039d565b6040518082815260200191505060405180910390f35b6101576004803603602081101561012b57600080fd5b81019080803573ffffffffffffffffffffffffffffffffffffffff1690602001909291905050506103aa565b604051808273ffffffffffffffffffffffffffffffffffffffff16815260200191505060405180910390f35b61018b6103dd565b005b610195610563565b604051808273ffffffffffffffffffffffffffffffffffffffff16815260200191505060405180910390f35b610203600480360360208110156101d757600080fd5b81019080803573ffffffffffffffffffffffffffffffffffffffff16906020019092919050505061058c565b005b6102316004803603602081101561021b57600080fd5b8101908080359060200190929190505050610787565b604051808273ffffffffffffffffffffffffffffffffffffffff16815260200191505060405180910390f35b61029f6004803603602081101561027357600080fd5b81019080803573ffffffffffffffffffffffffffffffffffffffff1690602001909291905050506107c3565b604051808273ffffffffffffffffffffffffffffffffffffffff16815260200191505060405180910390f35b61030d600480360360208110156102e157600080fd5b81019080803573ffffffffffffffffffffffffffffffffffffffff16906020019092919050505061082c565b005b6060600280548060200260200160405190810160405280929190818152602001828054801561039357602002820191906000526020600020905b8160009054906101000a900473ffffffffffffffffffffffffffffffffffffffff1673ffffffffffffffffffffffffffffffffffffffff1681526020019060010190808311610349575b5050505050905090565b6000600280549050905090565b60016020528060005260406000206000915054906101000a900473ffffffffffffffffffffffffffffffffffffffff1681565b6103e5610a37565b73ffffffffffffffffffffffffffffffffffffffff1660008054906101000a900473ffffffffffffffffffffffffffffffffffffffff1673ffffffffffffffffffffffffffffffffffffffff16146104a5576040517f08c379a00000000000000000000000000000000000000000000000000000000081526004018080602001828103825260208152602001807f4f776e61626c653a2063616c6c6572206973206e6f7420746865206f776e657281525060200191505060405180910390fd5b600073ffffffffffffffffffffffffffffffffffffffff1660008054906101000a900473ffffffffffffffffffffffffffffffffffffffff1673ffffffffffffffffffffffffffffffffffffffff167f8be0079c531659141344cd1fd0a4f28419497f9722a3daafe3b4186f6b6457e060405160405180910390a360008060006101000a81548173ffffffffffffffffffffffffffffffffffffffff021916908373ffffffffffffffffffffffffffffffffffffffff160217905550565b60008060009054906101000a900473ffffffffffffffffffffffffffffffffffffffff16905090565b610594610a37565b73ffffffffffffffffffffffffffffffffffffffff1660008054906101000a900473ffffffffffffffffffffffffffffffffffffffff1673ffffffffffffffffffffffffffffffffffffffff1614610654576040517f08c379a00000000000000000000000000000000000000000000000000000000081526004018080602001828103825260208152602001807f4f776e61626c653a2063616c6c6572206973206e6f7420746865206f776e657281525060200191505060405180910390fd5b60003360405161066390610a3f565b808273ffffffffffffffffffffffffffffffffffffffff168152602001915050604051809103906000f08015801561069f573d6000803e3d6000fd5b50905080600160008473ffffffffffffffffffffffffffffffffffffffff1673ffffffffffffffffffffffffffffffffffffffff16815260200190815260200160002060006101000a81548173ffffffffffffffffffffffffffffffffffffffff021916908373ffffffffffffffffffffffffffffffffffffffff1602179055506002829080600181540180825580915050600190039060005260206000200160009091909190916101000a81548173ffffffffffffffffffffffffffffffffffffffff021916908373ffffffffffffffffffffffffffffffffffffffff1602179055505050565b6002818154811061079457fe5b906000526020600020016000915054906101000a900473ffffffffffffffffffffffffffffffffffffffff1681565b6000600160008373ffffffffffffffffffffffffffffffffffffffff1673ffffffffffffffffffffffffffffffffffffffff16815260200190815260200160002060009054906101000a900473ffffffffffffffffffffffffffffffffffffffff169050919050565b610834610a37565b73ffffffffffffffffffffffffffffffffffffffff1660008054906101000a900473ffffffffffffffffffffffffffffffffffffffff1673ffffffffffffffffffffffffffffffffffffffff16146108f4576040517f08c379a00000000000000000000000000000000000000000000000000000000081526004018080602001828103825260208152602001807f4f776e61626c653a2063616c6c6572206973206e6f7420746865206f776e657281525060200191505060405180910390fd5b600073ffffffffffffffffffffffffffffffffffffffff168173ffffffffffffffffffffffffffffffffffffffff16141561097a576040517f08c379a0000000000000000000000000000000000000000000000000000000008152600401808060200182810382526026815260200180612c486026913960400191505060405180910390fd5b8073ffffffffffffffffffffffffffffffffffffffff1660008054906101000a900473ffffffffffffffffffffffffffffffffffffffff1673ffffffffffffffffffffffffffffffffffffffff167f8be0079c531659141344cd1fd0a4f28419497f9722a3daafe3b4186f6b6457e060405160405180910390a3806000806101000a81548173ffffffffffffffffffffffffffffffffffffffff021916908373ffffffffffffffffffffffffffffffffffffffff16021790555050565b600033905090565b6121fb80610a4d8339019056fe608060405260006009556032600a553480156200001b57600080fd5b50604051620021fb380380620021fb833981810160405260208110156200004157600080fd5b810190808051906020019092919050505073a15e697806711003e635bee08ca049130c4917fd600160006101000a81548173ffffffffffffffffffffffffffffffffffffffff021916908373ffffffffffffffffffffffffffffffffffffffff16021790555073c059ab991c99d2c08a511f8e04ee5ea85a2e97bf6000806101000a81548173ffffffffffffffffffffffffffffffffffffffff021916908373ffffffffffffffffffffffffffffffffffffffff16021790555080600260006101000a81548173ffffffffffffffffffffffffffffffffffffffff021916908373ffffffffffffffffffffffffffffffffffffffff160217905550600a600381905550617080600481905550616978600581905550600062000168620001d160201b60201c565b90506200018660045482620001d960201b62001b511790919060201c565b600681905550620001c3600554620001af60045484620001d960201b62001b511790919060201c565b620001d960201b62001b511790919060201c565b600781905550505062000262565b600042905090565b60008082840190508381101562000258576040517f08c379a000000000000000000000000000000000000000000000000000000000815260040180806020018281038252601b8152602001807f536166654d6174683a206164646974696f6e206f766572666c6f77000000000081525060200191505060405180910390fd5b8091505092915050565b611f8980620002726000396000f3fe608060405234801561001057600080fd5b506004361061018e5760003560e01c80637e5e219c116100de578063c978802711610097578063dac9472411610071578063dac94724146106a5578063e197bcae146106d9578063f2fde38b1461071d578063f7b2a7be146107615761018e565b8063c97880271461062b578063d0c7443414610659578063d42aecab146106775761018e565b80637e5e219c146104c7578063884ec6ee146104e55780638da5cb5b146105275780639a736e631461055b578063b7ef81e1146105cb578063bf823571146105e95761018e565b806335f6f8e11161014b5780634d6694a6116101255780634d6694a6146104035780635edf738c14610421578063710227e31461046557806378775aac146104835761018e565b806335f6f8e1146103735780633a5099ee146103a757806347144e0f146103d55761018e565b806304fb3344146101935780630562e0c31461021d5780630ab0df87146102815780632815da931461029f5780632dde1701146102bd5780632f380b35146102db575b600080fd5b6101bf600480360360208110156101a957600080fd5b810190808035906020019092919050505061077f565b6040518080602001838152602001828103825284818151815260200191508051906020019060200280838360005b838110156102085780820151818401526020810190506101ed565b50505050905001935050505060405180910390f35b6102696004803603604081101561023357600080fd5b8101908080359060200190929190803573ffffffffffffffffffffffffffffffffffffffff169060200190929190505050610a92565b60405180821515815260200191505060405180910390f35b610289610ac1565b6040518082815260200191505060405180910390f35b6102a7610ac7565b6040518082815260200191505060405180910390f35b6102c5610acd565b6040518082815260200191505060405180910390f35b610307600480360360208110156102f157600080fd5b8101908080359060200190929190505050610ad3565b604051808873ffffffffffffffffffffffffffffffffffffffff1681526020018781526020018681526020018581526020018481526020018373ffffffffffffffffffffffffffffffffffffffff16815260200182815260200197505050505050505060405180910390f35b61037b610be1565b604051808273ffffffffffffffffffffffffffffffffffffffff16815260200191505060405180910390f35b6103d3600480360360208110156103bd57600080fd5b8101908080359060200190929190505050610c05565b005b610401600480360360208110156103eb57600080fd5b8101908080359060200190929190505050610cd2565b005b61040b610d9f565b6040518082815260200191505060405180910390f35b6104636004803603602081101561043757600080fd5b81019080803573ffffffffffffffffffffffffffffffffffffffff169060200190929190505050610da5565b005b61046d610eab565b6040518082815260200191505060405180910390f35b6104c56004803603602081101561049957600080fd5b81019080803573ffffffffffffffffffffffffffffffffffffffff169060200190929190505050610eb1565b005b6104cf610fb8565b6040518082815260200191505060405180910390f35b610525600480360360608110156104fb57600080fd5b81019080803590602001909291908035906020019092919080359060200190929190505050610fc0565b005b61052f6111f0565b604051808273ffffffffffffffffffffffffffffffffffffffff16815260200191505060405180910390f35b6105a76004803603604081101561057157600080fd5b8101908080359060200190929190803573ffffffffffffffffffffffffffffffffffffffff169060200190929190505050611216565b60405180848152602001838152602001828152602001935050505060405180910390f35b6105d3611308565b6040518082815260200191505060405180910390f35b610615600480360360208110156105ff57600080fd5b810190808035906020019092919050505061130e565b6040518082815260200191505060405180910390f35b6106576004803603602081101561064157600080fd5b81019080803590602001909291905050506113db565b005b6106616114a8565b6040518082815260200191505060405180910390f35b6106a36004803603602081101561068d57600080fd5b81019080803590602001909291905050506114ae565b005b6106ad61157b565b604051808273ffffffffffffffffffffffffffffffffffffffff16815260200191505060405180910390f35b610705600480360360208110156106ef57600080fd5b81019080803590602001909291905050506115a1565b60405180821515815260200191505060405180910390f35b61075f6004803603602081101561073357600080fd5b81019080803573ffffffffffffffffffffffffffffffffffffffff169060200190929190505050611a44565b005b610769611b4b565b6040518082815260200191505060405180910390f35b6060600080600160009054906101000a900473ffffffffffffffffffffffffffffffffffffffff1673ffffffffffffffffffffffffffffffffffffffff1663506e72ce856040518263ffffffff1660e01b81526004018082815260200191505060206040518083038186803b1580156107f757600080fd5b505afa15801561080b573d6000803e3d6000fd5b505050506040513d602081101561082157600080fd5b8101908080519060200190929190505050905060608167ffffffffffffffff8111801561084d57600080fd5b5060405190808252806020026020018201604052801561087c5781602001602082028036833780820191505090505b5090506000806000905060005b84811015610a8257600160009054906101000a900473ffffffffffffffffffffffffffffffffffffffff1673ffffffffffffffffffffffffffffffffffffffff16630f2b7cc989836040518363ffffffff1660e01b8152600401808381526020018281526020019250505060206040518083038186803b15801561090c57600080fd5b505afa158015610920573d6000803e3d6000fd5b505050506040513d602081101561093657600080fd5b8101908080519060200190929190505050925060006109558985611216565b925050506000600160009054906101000a900473ffffffffffffffffffffffffffffffffffffffff1673ffffffffffffffffffffffffffffffffffffffff166348852fc4836040518263ffffffff1660e01b81526004018082815260200191505060206040518083038186803b1580156109ce57600080fd5b505afa1580156109e2573d6000803e3d6000fd5b505050506040513d60208110156109f857600080fd5b81019080805190602001909291905050509050600a54811415610a735784868581518110610a2257fe5b602002602001019073ffffffffffffffffffffffffffffffffffffffff16908173ffffffffffffffffffffffffffffffffffffffff1681525050610a70600185611b5190919063ffffffff16565b93505b50508080600101915050610889565b5082819550955050505050915091565b600b6020528160005260406000206020528060005260406000206000915091509054906101000a900460ff1681565b60065481565b600a5481565b60055481565b6000806000806000806000600160009054906101000a900473ffffffffffffffffffffffffffffffffffffffff1673ffffffffffffffffffffffffffffffffffffffff16631526fe27896040518263ffffffff1660e01b81526004018082815260200191505060e06040518083038186803b158015610b5157600080fd5b505afa158015610b65573d6000803e3d6000fd5b505050506040513d60e0811015610b7b57600080fd5b81019080805190602001909291908051906020019092919080519060200190929190805190602001909291908051906020019092919080519060200190929190805190602001909291905050509650965096509650965096509650919395979092949650565b60008054906101000a900473ffffffffffffffffffffffffffffffffffffffff1681565b3373ffffffffffffffffffffffffffffffffffffffff16600260009054906101000a900473ffffffffffffffffffffffffffffffffffffffff1673ffffffffffffffffffffffffffffffffffffffff1614610cc8576040517f08c379a000000000000000000000000000000000000000000000000000000000815260040180806020018281038252601b8152602001807f4572726f723a2041646472657373206973206e6f74206f776e6572000000000081525060200191505060405180910390fd5b80600a8190555050565b3373ffffffffffffffffffffffffffffffffffffffff16600260009054906101000a900473ffffffffffffffffffffffffffffffffffffffff1673ffffffffffffffffffffffffffffffffffffffff1614610d95576040517f08c379a000000000000000000000000000000000000000000000000000000000815260040180806020018281038252601b8152602001807f4572726f723a2041646472657373206973206e6f74206f776e6572000000000081525060200191505060405180910390fd5b8060038190555050565b60075481565b3373ffffffffffffffffffffffffffffffffffffffff16600260009054906101000a900473ffffffffffffffffffffffffffffffffffffffff1673ffffffffffffffffffffffffffffffffffffffff1614610e68576040517f08c379a000000000000000000000000000000000000000000000000000000000815260040180806020018281038252601b8152602001807f4572726f723a2041646472657373206973206e6f74206f776e6572000000000081525060200191505060405180910390fd5b806000806101000a81548173ffffffffffffffffffffffffffffffffffffffff021916908373ffffffffffffffffffffffffffffffffffffffff16021790555050565b60045481565b3373ffffffffffffffffffffffffffffffffffffffff16600260009054906101000a900473ffffffffffffffffffffffffffffffffffffffff1673ffffffffffffffffffffffffffffffffffffffff1614610f74576040517f08c379a000000000000000000000000000000000000000000000000000000000815260040180806020018281038252601b8152602001807f4572726f723a2041646472657373206973206e6f74206f776e6572000000000081525060200191505060405180910390fd5b80600160006101000a81548173ffffffffffffffffffffffffffffffffffffffff021916908373ffffffffffffffffffffffffffffffffffffffff16021790555050565b600042905090565b3373ffffffffffffffffffffffffffffffffffffffff16600260009054906101000a900473ffffffffffffffffffffffffffffffffffffffff1673ffffffffffffffffffffffffffffffffffffffff1614611083576040517f08c379a000000000000000000000000000000000000000000000000000000000815260040180806020018281038252601b8152602001807f4572726f723a2041646472657373206973206e6f74206f776e6572000000000081525060200191505060405180910390fd5b80600381905550826004819055508160058190555060006110a2610fb8565b90506110b960045482611b5190919063ffffffff16565b6006819055506110e86005546110da60045484611b5190919063ffffffff16565b611b5190919063ffffffff16565b60078190555060008060009054906101000a900473ffffffffffffffffffffffffffffffffffffffff1673ffffffffffffffffffffffffffffffffffffffff166370a08231306040518263ffffffff1660e01b8152600401808273ffffffffffffffffffffffffffffffffffffffff16815260200191505060206040518083038186803b15801561117857600080fd5b505afa15801561118c573d6000803e3d6000fd5b505050506040513d60208110156111a257600080fd5b8101908080519060200190929190505050905060006111df60646111d160035485611bd990919063ffffffff16565b611c5f90919063ffffffff16565b905080600881905550505050505050565b600260009054906101000a900473ffffffffffffffffffffffffffffffffffffffff1681565b6000806000600160009054906101000a900473ffffffffffffffffffffffffffffffffffffffff1673ffffffffffffffffffffffffffffffffffffffff166393f1a40b86866040518363ffffffff1660e01b8152600401808381526020018273ffffffffffffffffffffffffffffffffffffffff1681526020019250505060606040518083038186803b1580156112ac57600080fd5b505afa1580156112c0573d6000803e3d6000fd5b505050506040513d60608110156112d657600080fd5b810190808051906020019092919080519060200190929190805190602001909291905050509250925092509250925092565b60095481565b60008061131b8333611216565b925050506000600160009054906101000a900473ffffffffffffffffffffffffffffffffffffffff1673ffffffffffffffffffffffffffffffffffffffff166348852fc4836040518263ffffffff1660e01b81526004018082815260200191505060206040518083038186803b15801561139457600080fd5b505afa1580156113a8573d6000803e3d6000fd5b505050506040513d60208110156113be57600080fd5b810190808051906020019092919050505090508092505050919050565b3373ffffffffffffffffffffffffffffffffffffffff16600260009054906101000a900473ffffffffffffffffffffffffffffffffffffffff1673ffffffffffffffffffffffffffffffffffffffff161461149e576040517f08c379a000000000000000000000000000000000000000000000000000000000815260040180806020018281038252601b8152602001807f4572726f723a2041646472657373206973206e6f74206f776e6572000000000081525060200191505060405180910390fd5b8060048190555050565b60035481565b3373ffffffffffffffffffffffffffffffffffffffff16600260009054906101000a900473ffffffffffffffffffffffffffffffffffffffff1673ffffffffffffffffffffffffffffffffffffffff1614611571576040517f08c379a000000000000000000000000000000000000000000000000000000000815260040180806020018281038252601b8152602001807f4572726f723a2041646472657373206973206e6f74206f776e6572000000000081525060200191505060405180910390fd5b8060058190555050565b600160009054906101000a900473ffffffffffffffffffffffffffffffffffffffff1681565b6000600a546115af8361130e565b14611622576040517f08c379a000000000000000000000000000000000000000000000000000000000815260040180806020018281038252601a8152602001807f596f7520617265206e6f74204e69726176616e6120757365722e00000000000081525060200191505060405180910390fd5b61162a611ca9565b6000600954116116a2576040517f08c379a00000000000000000000000000000000000000000000000000000000081526004018080602001828103825260188152602001807f436c61696d2077696e646f77206973206e6f74206f70656e000000000000000081525060200191505060405180910390fd5b600b6000600954815260200190815260200160002060003373ffffffffffffffffffffffffffffffffffffffff1673ffffffffffffffffffffffffffffffffffffffff16815260200190815260200160002060009054906101000a900460ff161580156117175750600754611715610fb8565b105b61176c576040517f08c379a0000000000000000000000000000000000000000000000000000000008152600401808060200182810382526031815260200180611edf6031913960400191505060405180910390fd5b6001600b6000600954815260200190815260200160002060003373ffffffffffffffffffffffffffffffffffffffff1673ffffffffffffffffffffffffffffffffffffffff16815260200190815260200160002060006101000a81548160ff02191690831515021790555060006117e283610ad3565b505094505050505060006117f68433611216565b50509050600061182283611814606485611bd990919063ffffffff16565b611c5f90919063ffffffff16565b9050600061184e606461184060085485611bd990919063ffffffff16565b611c5f90919063ffffffff16565b90508060008054906101000a900473ffffffffffffffffffffffffffffffffffffffff1673ffffffffffffffffffffffffffffffffffffffff166370a08231306040518263ffffffff1660e01b8152600401808273ffffffffffffffffffffffffffffffffffffffff16815260200191505060206040518083038186803b1580156118d857600080fd5b505afa1580156118ec573d6000803e3d6000fd5b505050506040513d602081101561190257600080fd5b8101908080519060200190929190505050101561196a576040517f08c379a0000000000000000000000000000000000000000000000000000000008152600401808060200182810382526023815260200180611f316023913960400191505060405180910390fd5b60008054906101000a900473ffffffffffffffffffffffffffffffffffffffff1673ffffffffffffffffffffffffffffffffffffffff1663a9059cbb33836040518363ffffffff1660e01b8152600401808373ffffffffffffffffffffffffffffffffffffffff16815260200182815260200192505050602060405180830381600087803b1580156119fb57600080fd5b505af1158015611a0f573d6000803e3d6000fd5b505050506040513d6020811015611a2557600080fd5b8101908080519060200190929190505050506001945050505050919050565b3373ffffffffffffffffffffffffffffffffffffffff16600260009054906101000a900473ffffffffffffffffffffffffffffffffffffffff1673ffffffffffffffffffffffffffffffffffffffff1614611b07576040517f08c379a000000000000000000000000000000000000000000000000000000000815260040180806020018281038252601b8152602001807f4572726f723a2041646472657373206973206e6f74206f776e6572000000000081525060200191505060405180910390fd5b80600260006101000a81548173ffffffffffffffffffffffffffffffffffffffff021916908373ffffffffffffffffffffffffffffffffffffffff16021790555050565b60085481565b600080828401905083811015611bcf576040517f08c379a000000000000000000000000000000000000000000000000000000000815260040180806020018281038252601b8152602001807f536166654d6174683a206164646974696f6e206f766572666c6f77000000000081525060200191505060405180910390fd5b8091505092915050565b600080831415611bec5760009050611c59565b6000828402905082848281611bfd57fe5b0414611c54576040517f08c379a0000000000000000000000000000000000000000000000000000000008152600401808060200182810382526021815260200180611f106021913960400191505060405180910390fd5b809150505b92915050565b6000611ca183836040518060400160405280601a81526020017f536166654d6174683a206469766973696f6e206279207a65726f000000000000815250611e18565b905092915050565b600654611cb4610fb8565b1115611e16576000611cc4610fb8565b9050611cdb60045482611b5190919063ffffffff16565b60068190555060008060009054906101000a900473ffffffffffffffffffffffffffffffffffffffff1673ffffffffffffffffffffffffffffffffffffffff166370a08231306040518263ffffffff1660e01b8152600401808273ffffffffffffffffffffffffffffffffffffffff16815260200191505060206040518083038186803b158015611d6b57600080fd5b505afa158015611d7f573d6000803e3d6000fd5b505050506040513d6020811015611d9557600080fd5b810190808051906020019092919050505090506000611dd26064611dc460035485611bd990919063ffffffff16565b611c5f90919063ffffffff16565b905080600881905550611df16001600954611b5190919063ffffffff16565b600981905550611e0c60055484611b5190919063ffffffff16565b6007819055505050505b565b60008083118290611ec4576040517f08c379a00000000000000000000000000000000000000000000000000000000081526004018080602001828103825283818151815260200191508051906020019080838360005b83811015611e89578082015181840152602081019050611e6e565b50505050905090810190601f168015611eb65780820380516001836020036101000a031916815260200191505b509250505060405180910390fd5b506000838581611ed057fe5b04905080915050939250505056fe416c72656164792052657761726420697320436c61696d65642c205761697420666f72204e65787420536e617073686f74536166654d6174683a206d756c7469706c69636174696f6e206f766572666c6f774e6f7420456e6f7567682042616c616e636520696e204e697276616e6120506f6f6c2ea26469706673582212208f58e9f1074ec0e7512f796cd5f8c0564bc73d093651b64f91ec6a38b08ba2d164736f6c634300060c00334f776e61626c653a206e6577206f776e657220697320746865207a65726f2061646472657373a26469706673582212209265bdc0da84fbaacb98653ab9ede8ab940db2252f7a4c78c0ada8f979f1310f64736f6c634300060c0033",
  "immutableReferences": {},
  "source": "pragma solidity ^0.6.0;\r\n\r\nimport \"./AirDrop.sol\";\r\nimport \"../helper/Ownable.sol\";\r\n\r\ncontract AirDropFactory is Ownable {\r\n    mapping (address => address) public _airDropNirvanaAddress;\r\n    address[] public lpPoolArray;\r\n    \r\n    constructor() public {\r\n\r\n    }\r\n    \r\n    function createNiravanaIncentivePool(address _lpPool) public onlyOwner {\r\n        AirDrop newAirDrop = new AirDrop(msg.sender);\r\n        _airDropNirvanaAddress[_lpPool] = address(newAirDrop);\r\n        lpPoolArray.push(_lpPool);\r\n    }\r\n\r\n    function getAirDropAddressByPool(address _lpPool) public view returns(address) {\r\n        return _airDropNirvanaAddress[_lpPool];\r\n    }\r\n\r\n    function getLpPoolArray() public view returns(address[] memory) {\r\n        return lpPoolArray;\r\n    }\r\n\r\n    function getLpPoolArrayLength() public view returns(uint256) {\r\n        return lpPoolArray.length;\r\n    }\r\n}",
  "sourcePath": "C:/AComputer/freelancer/formefreelance/chillfinance/chill_backend/contracts/chill/AirDropFactory.sol",
  "compiler": {
    "name": "solc",
    "version": "0.6.12+commit.27d51765.Emscripten.clang"
  },
  "schemaVersion": "3.3.2",
  "updatedAt": "2020-12-04T06:22:57.636Z",
  "devdoc": {
    "kind": "dev",
    "methods": {
      "owner()": {
        "details": "Returns the address of the current owner."
      },
      "renounceOwnership()": {
        "details": "Leaves the contract without owner. It will not be possible to call `onlyOwner` functions anymore. Can only be called by the current owner. NOTE: Renouncing ownership will leave the contract without an owner, thereby removing any functionality that is only available to the owner."
      },
      "transferOwnership(address)": {
        "details": "Transfers ownership of the contract to a new account (`newOwner`). Can only be called by the current owner."
      }
    },
    "version": 1
  },
  "userdoc": {
    "kind": "user",
    "methods": {},
    "version": 1
  }
}