{
  "contractName": "ChillFinance",
  "abi": [
    {
      "inputs": [
        {
          "internalType": "contract ChillToken",
          "name": "_chill",
          "type": "address"
        },
        {
          "internalType": "address",
          "name": "_devaddr",
          "type": "address"
        },
        {
          "internalType": "address",
          "name": "_stablePair",
          "type": "address"
        }
      ],
      "stateMutability": "nonpayable",
      "type": "constructor"
    },
    {
      "anonymous": false,
      "inputs": [
        {
          "indexed": true,
          "internalType": "address",
          "name": "user",
          "type": "address"
        },
        {
          "indexed": true,
          "internalType": "uint256",
          "name": "pid",
          "type": "uint256"
        },
        {
          "indexed": false,
          "internalType": "uint256",
          "name": "amount",
          "type": "uint256"
        }
      ],
      "name": "Deposit",
      "type": "event"
    },
    {
      "anonymous": false,
      "inputs": [
        {
          "indexed": true,
          "internalType": "address",
          "name": "user",
          "type": "address"
        },
        {
          "indexed": true,
          "internalType": "uint256",
          "name": "pid",
          "type": "uint256"
        },
        {
          "indexed": false,
          "internalType": "uint256",
          "name": "amount",
          "type": "uint256"
        }
      ],
      "name": "EmergencyWithdraw",
      "type": "event"
    },
    {
      "anonymous": false,
      "inputs": [
        {
          "indexed": true,
          "internalType": "address",
          "name": "previousOwner",
          "type": "address"
        },
        {
          "indexed": true,
          "internalType": "address",
          "name": "newOwner",
          "type": "address"
        }
      ],
      "name": "OwnershipTransferred",
      "type": "event"
    },
    {
      "anonymous": false,
      "inputs": [
        {
          "indexed": true,
          "internalType": "address",
          "name": "user",
          "type": "address"
        },
        {
          "indexed": true,
          "internalType": "uint256",
          "name": "pid",
          "type": "uint256"
        },
        {
          "indexed": false,
          "internalType": "uint256",
          "name": "amount",
          "type": "uint256"
        }
      ],
      "name": "Withdraw",
      "type": "event"
    },
    {
      "inputs": [],
      "name": "BONUS_MULTIPLIER",
      "outputs": [
        {
          "internalType": "uint256",
          "name": "",
          "type": "uint256"
        }
      ],
      "stateMutability": "view",
      "type": "function"
    },
    {
      "inputs": [],
      "name": "DEV_FEE",
      "outputs": [
        {
          "internalType": "uint256",
          "name": "",
          "type": "uint256"
        }
      ],
      "stateMutability": "view",
      "type": "function"
    },
    {
      "inputs": [],
      "name": "DEV_TAX_FEE",
      "outputs": [
        {
          "internalType": "uint256",
          "name": "",
          "type": "uint256"
        }
      ],
      "stateMutability": "view",
      "type": "function"
    },
    {
      "inputs": [
        {
          "internalType": "uint256",
          "name": "",
          "type": "uint256"
        }
      ],
      "name": "blockPerPhase",
      "outputs": [
        {
          "internalType": "uint256",
          "name": "",
          "type": "uint256"
        }
      ],
      "stateMutability": "view",
      "type": "function"
    },
    {
      "inputs": [],
      "name": "bonusEndBlock",
      "outputs": [
        {
          "internalType": "uint256",
          "name": "",
          "type": "uint256"
        }
      ],
      "stateMutability": "view",
      "type": "function"
    },
    {
      "inputs": [],
      "name": "chill",
      "outputs": [
        {
          "internalType": "contract ChillToken",
          "name": "",
          "type": "address"
        }
      ],
      "stateMutability": "view",
      "type": "function"
    },
    {
      "inputs": [],
      "name": "devaddr",
      "outputs": [
        {
          "internalType": "address",
          "name": "",
          "type": "address"
        }
      ],
      "stateMutability": "view",
      "type": "function"
    },
    {
      "inputs": [
        {
          "internalType": "uint256",
          "name": "",
          "type": "uint256"
        }
      ],
      "name": "isCheckInitialPeriod",
      "outputs": [
        {
          "internalType": "bool",
          "name": "",
          "type": "bool"
        }
      ],
      "stateMutability": "view",
      "type": "function"
    },
    {
      "inputs": [
        {
          "internalType": "uint256",
          "name": "",
          "type": "uint256"
        },
        {
          "internalType": "address",
          "name": "",
          "type": "address"
        }
      ],
      "name": "isUserExist",
      "outputs": [
        {
          "internalType": "bool",
          "name": "",
          "type": "bool"
        }
      ],
      "stateMutability": "view",
      "type": "function"
    },
    {
      "inputs": [],
      "name": "owner",
      "outputs": [
        {
          "internalType": "address",
          "name": "",
          "type": "address"
        }
      ],
      "stateMutability": "view",
      "type": "function"
    },
    {
      "inputs": [],
      "name": "phase1time",
      "outputs": [
        {
          "internalType": "uint256",
          "name": "",
          "type": "uint256"
        }
      ],
      "stateMutability": "view",
      "type": "function"
    },
    {
      "inputs": [],
      "name": "phase2time",
      "outputs": [
        {
          "internalType": "uint256",
          "name": "",
          "type": "uint256"
        }
      ],
      "stateMutability": "view",
      "type": "function"
    },
    {
      "inputs": [],
      "name": "phase3time",
      "outputs": [
        {
          "internalType": "uint256",
          "name": "",
          "type": "uint256"
        }
      ],
      "stateMutability": "view",
      "type": "function"
    },
    {
      "inputs": [],
      "name": "phase4time",
      "outputs": [
        {
          "internalType": "uint256",
          "name": "",
          "type": "uint256"
        }
      ],
      "stateMutability": "view",
      "type": "function"
    },
    {
      "inputs": [],
      "name": "phase5time",
      "outputs": [
        {
          "internalType": "uint256",
          "name": "",
          "type": "uint256"
        }
      ],
      "stateMutability": "view",
      "type": "function"
    },
    {
      "inputs": [
        {
          "internalType": "uint256",
          "name": "",
          "type": "uint256"
        }
      ],
      "name": "poolInfo",
      "outputs": [
        {
          "internalType": "contract IERC20",
          "name": "lpToken",
          "type": "address"
        },
        {
          "internalType": "uint256",
          "name": "allocPoint",
          "type": "uint256"
        },
        {
          "internalType": "uint256",
          "name": "lastRewardBlock",
          "type": "uint256"
        },
        {
          "internalType": "uint256",
          "name": "accChillPerShare",
          "type": "uint256"
        },
        {
          "internalType": "uint256",
          "name": "totalPoolBalance",
          "type": "uint256"
        },
        {
          "internalType": "address",
          "name": "nirvanaRewardAddress",
          "type": "address"
        },
        {
          "internalType": "uint256",
          "name": "nirvanaFee",
          "type": "uint256"
        }
      ],
      "stateMutability": "view",
      "type": "function"
    },
    {
      "inputs": [
        {
          "internalType": "uint256",
          "name": "",
          "type": "uint256"
        },
        {
          "internalType": "uint256",
          "name": "",
          "type": "uint256"
        }
      ],
      "name": "poolUsers",
      "outputs": [
        {
          "internalType": "address",
          "name": "",
          "type": "address"
        }
      ],
      "stateMutability": "view",
      "type": "function"
    },
    {
      "inputs": [],
      "name": "renounceOwnership",
      "outputs": [],
      "stateMutability": "nonpayable",
      "type": "function"
    },
    {
      "inputs": [
        {
          "internalType": "address",
          "name": "",
          "type": "address"
        }
      ],
      "name": "stakingUniPools",
      "outputs": [
        {
          "internalType": "bool",
          "name": "",
          "type": "bool"
        }
      ],
      "stateMutability": "view",
      "type": "function"
    },
    {
      "inputs": [],
      "name": "startBlockOfChill",
      "outputs": [
        {
          "internalType": "uint256",
          "name": "",
          "type": "uint256"
        }
      ],
      "stateMutability": "view",
      "type": "function"
    },
    {
      "inputs": [],
      "name": "totalAllocPoint",
      "outputs": [
        {
          "internalType": "uint256",
          "name": "",
          "type": "uint256"
        }
      ],
      "stateMutability": "view",
      "type": "function"
    },
    {
      "inputs": [
        {
          "internalType": "address",
          "name": "newOwner",
          "type": "address"
        }
      ],
      "name": "transferOwnership",
      "outputs": [],
      "stateMutability": "nonpayable",
      "type": "function"
    },
    {
      "inputs": [
        {
          "internalType": "address",
          "name": "",
          "type": "address"
        }
      ],
      "name": "uniRewardAddresses",
      "outputs": [
        {
          "internalType": "address",
          "name": "",
          "type": "address"
        }
      ],
      "stateMutability": "view",
      "type": "function"
    },
    {
      "inputs": [
        {
          "internalType": "uint256",
          "name": "",
          "type": "uint256"
        },
        {
          "internalType": "address",
          "name": "",
          "type": "address"
        }
      ],
      "name": "userInfo",
      "outputs": [
        {
          "internalType": "uint256",
          "name": "amount",
          "type": "uint256"
        },
        {
          "internalType": "uint256",
          "name": "rewardDebt",
          "type": "uint256"
        },
        {
          "internalType": "uint256",
          "name": "startedBlock",
          "type": "uint256"
        }
      ],
      "stateMutability": "view",
      "type": "function"
    },
    {
      "inputs": [],
      "name": "poolLength",
      "outputs": [
        {
          "internalType": "uint256",
          "name": "",
          "type": "uint256"
        }
      ],
      "stateMutability": "view",
      "type": "function"
    },
    {
      "inputs": [
        {
          "internalType": "uint256",
          "name": "_pid",
          "type": "uint256"
        }
      ],
      "name": "userPoollength",
      "outputs": [
        {
          "internalType": "uint256",
          "name": "",
          "type": "uint256"
        }
      ],
      "stateMutability": "view",
      "type": "function"
    },
    {
      "inputs": [
        {
          "internalType": "uint256",
          "name": "_allocPoint",
          "type": "uint256"
        },
        {
          "internalType": "contract IERC20",
          "name": "_lpToken",
          "type": "address"
        },
        {
          "internalType": "bool",
          "name": "_withUpdate",
          "type": "bool"
        }
      ],
      "name": "add",
      "outputs": [],
      "stateMutability": "nonpayable",
      "type": "function"
    },
    {
      "inputs": [
        {
          "internalType": "uint256",
          "name": "_pid",
          "type": "uint256"
        },
        {
          "internalType": "uint256",
          "name": "_allocPoint",
          "type": "uint256"
        },
        {
          "internalType": "bool",
          "name": "_withUpdate",
          "type": "bool"
        }
      ],
      "name": "set",
      "outputs": [],
      "stateMutability": "nonpayable",
      "type": "function"
    },
    {
      "inputs": [
        {
          "internalType": "uint256",
          "name": "_pid",
          "type": "uint256"
        },
        {
          "internalType": "uint256",
          "name": "_nirvanaFee",
          "type": "uint256"
        },
        {
          "internalType": "address",
          "name": "_nirvanaRewardAddress",
          "type": "address"
        }
      ],
      "name": "setNirvanaDetails",
      "outputs": [],
      "stateMutability": "nonpayable",
      "type": "function"
    },
    {
      "inputs": [],
      "name": "massUpdatePools",
      "outputs": [],
      "stateMutability": "nonpayable",
      "type": "function"
    },
    {
      "inputs": [
        {
          "internalType": "uint256",
          "name": "_pid",
          "type": "uint256"
        },
        {
          "internalType": "uint256",
          "name": "_amount",
          "type": "uint256"
        }
      ],
      "name": "deposit",
      "outputs": [],
      "stateMutability": "nonpayable",
      "type": "function"
    },
    {
      "inputs": [
        {
          "internalType": "uint256",
          "name": "_pid",
          "type": "uint256"
        },
        {
          "internalType": "uint256",
          "name": "_amount",
          "type": "uint256"
        }
      ],
      "name": "withdraw",
      "outputs": [],
      "stateMutability": "nonpayable",
      "type": "function"
    },
    {
      "inputs": [
        {
          "internalType": "uint256",
          "name": "_pid",
          "type": "uint256"
        }
      ],
      "name": "updatePool",
      "outputs": [],
      "stateMutability": "nonpayable",
      "type": "function"
    },
    {
      "inputs": [],
      "name": "getBurnedDetails",
      "outputs": [
        {
          "internalType": "uint256",
          "name": "",
          "type": "uint256"
        },
        {
          "internalType": "uint256",
          "name": "",
          "type": "uint256"
        },
        {
          "internalType": "uint256",
          "name": "",
          "type": "uint256"
        },
        {
          "internalType": "uint256",
          "name": "",
          "type": "uint256"
        }
      ],
      "stateMutability": "view",
      "type": "function"
    },
    {
      "inputs": [
        {
          "internalType": "uint256",
          "name": "_pid",
          "type": "uint256"
        },
        {
          "internalType": "address",
          "name": "_user",
          "type": "address"
        }
      ],
      "name": "pendingChill",
      "outputs": [
        {
          "internalType": "uint256",
          "name": "",
          "type": "uint256"
        }
      ],
      "stateMutability": "view",
      "type": "function"
    },
    {
      "inputs": [
        {
          "internalType": "uint256",
          "name": "_from",
          "type": "uint256"
        },
        {
          "internalType": "uint256",
          "name": "_to",
          "type": "uint256"
        }
      ],
      "name": "getMultiplier",
      "outputs": [
        {
          "internalType": "uint256",
          "name": "",
          "type": "uint256"
        }
      ],
      "stateMutability": "view",
      "type": "function"
    },
    {
      "inputs": [
        {
          "internalType": "uint256",
          "name": "_from",
          "type": "uint256"
        },
        {
          "internalType": "uint256",
          "name": "currentblock",
          "type": "uint256"
        }
      ],
      "name": "getCrossMultiplier",
      "outputs": [
        {
          "internalType": "uint256",
          "name": "",
          "type": "uint256"
        }
      ],
      "stateMutability": "view",
      "type": "function"
    },
    {
      "inputs": [
        {
          "internalType": "uint256",
          "name": "_from",
          "type": "uint256"
        }
      ],
      "name": "getNirvanaStatus",
      "outputs": [
        {
          "internalType": "uint256",
          "name": "",
          "type": "uint256"
        }
      ],
      "stateMutability": "view",
      "type": "function"
    },
    {
      "inputs": [
        {
          "internalType": "address",
          "name": "_countPair",
          "type": "address"
        },
        {
          "internalType": "address",
          "name": "_stablePair",
          "type": "address"
        },
        {
          "internalType": "uint256",
          "name": "_liquiditybalance",
          "type": "uint256"
        }
      ],
      "name": "countStakeAmount",
      "outputs": [
        {
          "internalType": "uint256",
          "name": "",
          "type": "uint256"
        }
      ],
      "stateMutability": "view",
      "type": "function"
    },
    {
      "inputs": [
        {
          "internalType": "address",
          "name": "_stakeAddress",
          "type": "address"
        }
      ],
      "name": "getUniReward",
      "outputs": [],
      "stateMutability": "nonpayable",
      "type": "function"
    },
    {
      "inputs": [
        {
          "internalType": "address",
          "name": "_uniAddress",
          "type": "address"
        },
        {
          "internalType": "address",
          "name": "_to",
          "type": "address"
        },
        {
          "internalType": "uint256",
          "name": "_amount",
          "type": "uint256"
        }
      ],
      "name": "accessReward",
      "outputs": [],
      "stateMutability": "nonpayable",
      "type": "function"
    },
    {
      "inputs": [
        {
          "internalType": "address",
          "name": "_stakeAddress",
          "type": "address"
        }
      ],
      "name": "getUniRewardAndExit",
      "outputs": [],
      "stateMutability": "nonpayable",
      "type": "function"
    },
    {
      "inputs": [
        {
          "internalType": "address",
          "name": "_uniV2Pool",
          "type": "address"
        },
        {
          "internalType": "address",
          "name": "_stakingRewardAddress",
          "type": "address"
        }
      ],
      "name": "addStakeUniPool",
      "outputs": [],
      "stateMutability": "nonpayable",
      "type": "function"
    },
    {
      "inputs": [
        {
          "internalType": "address",
          "name": "_uniV2Pool",
          "type": "address"
        }
      ],
      "name": "removeStakeUniPool",
      "outputs": [],
      "stateMutability": "nonpayable",
      "type": "function"
    },
    {
      "inputs": [
        {
          "internalType": "address",
          "name": "_devaddr",
          "type": "address"
        },
        {
          "internalType": "uint256",
          "name": "_devFee",
          "type": "uint256"
        },
        {
          "internalType": "uint256",
          "name": "_devTaxFee",
          "type": "uint256"
        }
      ],
      "name": "dev",
      "outputs": [],
      "stateMutability": "nonpayable",
      "type": "function"
    },
    {
      "inputs": [
        {
          "internalType": "uint256",
          "name": "_pid",
          "type": "uint256"
        },
        {
          "internalType": "bool",
          "name": "_isCheck",
          "type": "bool"
        }
      ],
      "name": "setCheckInitialPeriod",
      "outputs": [],
      "stateMutability": "nonpayable",
      "type": "function"
    },
    {
      "inputs": [
        {
          "internalType": "bool",
          "name": "_isCheck",
          "type": "bool"
        }
      ],
      "name": "setCheckInitialPeriodAllPool",
      "outputs": [],
      "stateMutability": "nonpayable",
      "type": "function"
    },
    {
      "inputs": [
        {
          "internalType": "uint256",
          "name": "_pid",
          "type": "uint256"
        }
      ],
      "name": "getCheckInitialPeriod",
      "outputs": [
        {
          "internalType": "bool",
          "name": "",
          "type": "bool"
        }
      ],
      "stateMutability": "view",
      "type": "function"
    },
    {
      "inputs": [
        {
          "internalType": "address",
          "name": "_stablePair",
          "type": "address"
        },
        {
          "internalType": "uint256",
          "name": "_stableDivider",
          "type": "uint256"
        }
      ],
      "name": "setStablePairAddress",
      "outputs": [],
      "stateMutability": "nonpayable",
      "type": "function"
    },
    {
      "inputs": [],
      "name": "getStablePairAddress",
      "outputs": [
        {
          "internalType": "address",
          "name": "",
          "type": "address"
        }
      ],
      "stateMutability": "view",
      "type": "function"
    },
    {
      "inputs": [],
      "name": "getStableDivider",
      "outputs": [
        {
          "internalType": "uint256",
          "name": "",
          "type": "uint256"
        }
      ],
      "stateMutability": "view",
      "type": "function"
    },
    {
      "inputs": [
        {
          "internalType": "uint256",
          "name": "_ethDivider",
          "type": "uint256"
        }
      ],
      "name": "setEthDivider",
      "outputs": [],
      "stateMutability": "nonpayable",
      "type": "function"
    },
    {
      "inputs": [],
      "name": "getEthDivider",
      "outputs": [
        {
          "internalType": "uint256",
          "name": "",
          "type": "uint256"
        }
      ],
      "stateMutability": "view",
      "type": "function"
    },
    {
      "inputs": [
        {
          "internalType": "uint256",
          "name": "_index",
          "type": "uint256"
        },
        {
          "internalType": "uint256",
          "name": "_chillPerBlock",
          "type": "uint256"
        }
      ],
      "name": "setBlockPerPhaseByIndex",
      "outputs": [],
      "stateMutability": "nonpayable",
      "type": "function"
    },
    {
      "inputs": [
        {
          "internalType": "uint256",
          "name": "_index",
          "type": "uint256"
        }
      ],
      "name": "getBlockPerPhaseByIndex",
      "outputs": [
        {
          "internalType": "uint256",
          "name": "",
          "type": "uint256"
        }
      ],
      "stateMutability": "view",
      "type": "function"
    },
    {
      "inputs": [
        {
          "internalType": "uint256",
          "name": "_index",
          "type": "uint256"
        },
        {
          "internalType": "uint256",
          "name": "_time",
          "type": "uint256"
        }
      ],
      "name": "setAndEditPhaseTime",
      "outputs": [],
      "stateMutability": "nonpayable",
      "type": "function"
    },
    {
      "inputs": [],
      "name": "getPhaseTimeAndBlocks",
      "outputs": [
        {
          "internalType": "uint256",
          "name": "",
          "type": "uint256"
        },
        {
          "internalType": "uint256",
          "name": "",
          "type": "uint256"
        }
      ],
      "stateMutability": "view",
      "type": "function"
    },
    {
      "inputs": [
        {
          "internalType": "address",
          "name": "_distributor",
          "type": "address"
        },
        {
          "internalType": "bool",
          "name": "_isdistributor",
          "type": "bool"
        }
      ],
      "name": "setRewardDistributor",
      "outputs": [],
      "stateMutability": "nonpayable",
      "type": "function"
    }
  ],
  "bytecode": "0x60806040526000600355601460045560006007556000601a556000601b556000601c553480156200002f57600080fd5b506040516200624b3803806200624b833981810160405260608110156200005557600080fd5b8101908080519060200190929190805190602001909291908051906020019092919050505060006200008c6200043560201b60201c565b9050806000806101000a81548173ffffffffffffffffffffffffffffffffffffffff021916908373ffffffffffffffffffffffffffffffffffffffff1602179055508073ffffffffffffffffffffffffffffffffffffffff16600073ffffffffffffffffffffffffffffffffffffffff167f8be0079c531659141344cd1fd0a4f28419497f9722a3daafe3b4186f6b6457e060405160405180910390a35082600160006101000a81548173ffffffffffffffffffffffffffffffffffffffff021916908373ffffffffffffffffffffffffffffffffffffffff16021790555081600260006101000a81548173ffffffffffffffffffffffffffffffffffffffff021916908373ffffffffffffffffffffffffffffffffffffffff16021790555080601060006101000a81548173ffffffffffffffffffffffffffffffffffffffff021916908373ffffffffffffffffffffffffffffffffffffffff160217905550620002086000436200043d60201b620044f11790919060201c565b600881905550620002296000436200043d60201b620044f11790919060201c565b6006819055506200024b617080436200043d60201b620044f11790919060201c565b6011819055506012680410d586a20a4c00009080600181540180825580915050600190039060005260206000200160009091909190915055601268056bc75e2d63100000908060018154018082558091505060019003906000526020600020016000909190919091505560126802b5e3af16b18800009080600181540180825580915050600190039060005260206000200160009091909190915055601268015af1d78b58c4000090806001815401808255809150506001900390600052602060002001600090919091909150556012600090806001815401808255809150506001900390600052602060002001600090919091909150556200036062013b00436200043d60201b620044f11790919060201c565b601581905550620003836203de00436200043d60201b620044f11790919060201c565b601681905550620003a662068100436200043d60201b620044f11790919060201c565b601781905550620003c9620bc700436200043d60201b620044f11790919060201c565b601881905550620003ea6000436200043d60201b620044f11790919060201c565b6019819055506200040d62015180426200043d60201b620044f11790919060201c565b601d81905550620f4240601481905550670de0b6b3a7640000601381905550505050620004c6565b600033905090565b600080828401905083811015620004bc576040517f08c379a000000000000000000000000000000000000000000000000000000000815260040180806020018281038252601b8152602001807f536166654d6174683a206164646974696f6e206f766572666c6f77000000000081525060200191505060405180910390fd5b8091505092915050565b615d7580620004d66000396000f3fe608060405234801561001057600080fd5b506004361061038e5760003560e01c806377559a60116101de578063b51b676c1161010f578063e074f6bd116100ad578063eed011391161007c578063eed011391461109b578063ef181294146110b9578063f2fde38b14611127578063ff3ab3c61461116b5761038e565b8063e074f6bd14610f8e578063e1b6b3d414610fda578063e2bbb1581461103e578063ebbb4627146110765761038e565b8063c4a9bf9f116100e9578063c4a9bf9f14610e82578063c8d2262014610edc578063ce7e939014610f16578063d49e77cd14610f5a5761038e565b8063b51b676c14610de4578063b74e5a4214610e02578063c24cdaff14610e645761038e565b80638e5844071161017c578063afa6d11e11610156578063afa6d11e14610d1e578063b15abece14610d62578063b236b4a214610d80578063b44e49f314610db45761038e565b80638e58440714610c7257806393f1a40b14610c90578063942d2ddf14610d005761038e565b80638aa28550116101b85780638aa2855014610b905780638c94e54914610bae5780638da5cb5b14610bf25780638dbb1e3a14610c265761038e565b806377559a6014610aa45780637e3c45e214610afc57806380e59f8d14610b405761038e565b80632c1b4b31116102c357806351eb05a61161026157806366aa11a71161023057806366aa11a714610a00578063715018a614610a38578063719175d514610a42578063746c10cd14610a605761038e565b806351eb05a61461092c5780635a70b3871461095a578063630b5ba1146109b257806364482f79146109bc5761038e565b8063441a3e701161029d578063441a3e701461082e57806348852fc414610866578063505a4c28146108a8578063506e72ce146108ea5761038e565b80632c1b4b311461076057806337edc9e8146107e2578063436a88c1146108105761038e565b8063192092e911610330578063271e48c81161030a578063271e48c814610642578063280ad59a1461067a578063289f6197146106c85780632b8a3ae61461072c5761038e565b8063192092e9146105975780631aed6553146105ca5780631eaaa045146105e85761038e565b80630f2b7cc91161036c5780630f2b7cc91461043d5780630f9040161461049f5780631526fe27146104e157806317caf6f1146105795761038e565b8063066e953414610393578063081e3eda146103b15780630c6c3856146103cf575b600080fd5b61039b611189565b6040518082815260200191505060405180910390f35b6103b961118f565b6040518082815260200191505060405180910390f35b610411600480360360208110156103e557600080fd5b81019080803573ffffffffffffffffffffffffffffffffffffffff16906020019092919050505061119c565b604051808273ffffffffffffffffffffffffffffffffffffffff16815260200191505060405180910390f35b6104736004803603604081101561045357600080fd5b8101908080359060200190929190803590602001909291905050506111cf565b604051808273ffffffffffffffffffffffffffffffffffffffff16815260200191505060405180910390f35b6104cb600480360360208110156104b557600080fd5b810190808035906020019092919050505061121a565b6040518082815260200191505060405180910390f35b61050d600480360360208110156104f757600080fd5b810190808035906020019092919050505061123b565b604051808873ffffffffffffffffffffffffffffffffffffffff1681526020018781526020018681526020018581526020018481526020018373ffffffffffffffffffffffffffffffffffffffff16815260200182815260200197505050505050505060405180910390f35b6105816112ca565b6040518082815260200191505060405180910390f35b61059f6112d0565b6040518085815260200184815260200183815260200182815260200194505050505060405180910390f35b6105d26112f0565b6040518082815260200191505060405180910390f35b610640600480360360608110156105fe57600080fd5b8101908080359060200190929190803573ffffffffffffffffffffffffffffffffffffffff1690602001909291908035151590602001909291905050506112f6565b005b6106786004803603604081101561065857600080fd5b810190808035906020019092919080359060200190929190505050611555565b005b6106c66004803603604081101561069057600080fd5b81019080803573ffffffffffffffffffffffffffffffffffffffff169060200190929190803590602001909291905050506116ee565b005b610714600480360360408110156106de57600080fd5b8101908080359060200190929190803573ffffffffffffffffffffffffffffffffffffffff169060200190929190505050611802565b60405180821515815260200191505060405180910390f35b610734611831565b604051808273ffffffffffffffffffffffffffffffffffffffff16815260200191505060405180910390f35b6107cc6004803603606081101561077657600080fd5b81019080803573ffffffffffffffffffffffffffffffffffffffff169060200190929190803573ffffffffffffffffffffffffffffffffffffffff16906020019092919080359060200190929190505050611857565b6040518082815260200191505060405180910390f35b61080e600480360360208110156107f857600080fd5b810190808035906020019092919050505061186d565b005b61081861193f565b6040518082815260200191505060405180910390f35b6108646004803603604081101561084457600080fd5b810190808035906020019092919080359060200190929190505050611945565b005b6108926004803603602081101561087c57600080fd5b8101908080359060200190929190505050611c92565b6040518082815260200191505060405180910390f35b6108d4600480360360208110156108be57600080fd5b8101908080359060200190929190505050611cb8565b6040518082815260200191505060405180910390f35b6109166004803603602081101561090057600080fd5b8101908080359060200190929190505050611cd9565b6040518082815260200191505060405180910390f35b6109586004803603602081101561094257600080fd5b8101908080359060200190929190505050611cf9565b005b6109b06004803603606081101561097057600080fd5b81019080803573ffffffffffffffffffffffffffffffffffffffff1690602001909291908035906020019092919080359060200190929190505050612158565b005b6109ba61226f565b005b6109fe600480360360608110156109d257600080fd5b81019080803590602001909291908035906020019092919080351515906020019092919050505061229c565b005b610a3660048036036040811015610a1657600080fd5b8101908080359060200190929190803590602001909291905050506123e6565b005b610a406124ce565b005b610a4a612654565b6040518082815260200191505060405180910390f35b610aa260048036036020811015610a7657600080fd5b81019080803573ffffffffffffffffffffffffffffffffffffffff16906020019092919050505061265a565b005b610afa60048036036060811015610aba57600080fd5b810190808035906020019092919080359060200190929190803573ffffffffffffffffffffffffffffffffffffffff169060200190929190505050612785565b005b610b3e60048036036020811015610b1257600080fd5b81019080803573ffffffffffffffffffffffffffffffffffffffff1690602001909291905050506128d2565b005b610b8e60048036036040811015610b5657600080fd5b81019080803573ffffffffffffffffffffffffffffffffffffffff1690602001909291908035151590602001909291905050506129fd565b005b610b98612b20565b6040518082815260200191505060405180910390f35b610bda60048036036020811015610bc457600080fd5b8101908080359060200190929190505050612b25565b60405180821515815260200191505060405180910390f35b610bfa612b4f565b604051808273ffffffffffffffffffffffffffffffffffffffff16815260200191505060405180910390f35b610c5c60048036036040811015610c3c57600080fd5b810190808035906020019092919080359060200190929190505050612b78565b6040518082815260200191505060405180910390f35b610c7a612c2a565b6040518082815260200191505060405180910390f35b610cdc60048036036040811015610ca657600080fd5b8101908080359060200190929190803573ffffffffffffffffffffffffffffffffffffffff169060200190929190505050612c30565b60405180848152602001838152602001828152602001935050505060405180910390f35b610d08612c67565b6040518082815260200191505060405180910390f35b610d6060048036036020811015610d3457600080fd5b81019080803573ffffffffffffffffffffffffffffffffffffffff169060200190929190505050612c6d565b005b610d6a6130a8565b6040518082815260200191505060405180910390f35b610d886130ae565b604051808273ffffffffffffffffffffffffffffffffffffffff16815260200191505060405180910390f35b610de260048036036020811015610dca57600080fd5b810190808035151590602001909291905050506130d8565b005b610dec6131f0565b6040518082815260200191505060405180910390f35b610e4e60048036036040811015610e1857600080fd5b8101908080359060200190929190803573ffffffffffffffffffffffffffffffffffffffff1690602001909291905050506131f6565b6040518082815260200191505060405180910390f35b610e6c613585565b6040518082815260200191505060405180910390f35b610ec460048036036020811015610e9857600080fd5b81019080803573ffffffffffffffffffffffffffffffffffffffff16906020019092919050505061358f565b60405180821515815260200191505060405180910390f35b610f1460048036036040811015610ef257600080fd5b81019080803590602001909291908035151590602001909291905050506135af565b005b610f4260048036036020811015610f2c57600080fd5b81019080803590602001909291905050506136a6565b60405180821515815260200191505060405180910390f35b610f626136c6565b604051808273ffffffffffffffffffffffffffffffffffffffff16815260200191505060405180910390f35b610fc460048036036040811015610fa457600080fd5b8101908080359060200190929190803590602001909291905050506136ec565b6040518082815260200191505060405180910390f35b61103c60048036036040811015610ff057600080fd5b81019080803573ffffffffffffffffffffffffffffffffffffffff169060200190929190803573ffffffffffffffffffffffffffffffffffffffff169060200190929190505050613731565b005b6110746004803603604081101561105457600080fd5b810190808035906020019092919080359060200190929190505050613a4f565b005b61107e613fb4565b604051808381526020018281526020019250505060405180910390f35b6110a3614094565b6040518082815260200191505060405180910390f35b611125600480360360608110156110cf57600080fd5b81019080803573ffffffffffffffffffffffffffffffffffffffff169060200190929190803573ffffffffffffffffffffffffffffffffffffffff1690602001909291908035906020019092919050505061409a565b005b6111696004803603602081101561113d57600080fd5b81019080803573ffffffffffffffffffffffffffffffffffffffff1690602001909291905050506142dc565b005b6111736144e7565b6040518082815260200191505060405180910390f35b60155481565b6000600580549050905090565b600d6020528060005260406000206000915054906101000a900473ffffffffffffffffffffffffffffffffffffffff1681565b600a60205281600052604060002081815481106111e857fe5b906000526020600020016000915091509054906101000a900473ffffffffffffffffffffffffffffffffffffffff1681565b60006012828154811061122957fe5b90600052602060002001549050919050565b6005818154811061124857fe5b90600052602060002090600702016000915090508060000160009054906101000a900473ffffffffffffffffffffffffffffffffffffffff16908060010154908060020154908060030154908060040154908060050160009054906101000a900473ffffffffffffffffffffffffffffffffffffffff16908060060154905087565b60075481565b600080600080601a54601b54601c54601e54935093509350935090919293565b60065481565b6112fe614579565b73ffffffffffffffffffffffffffffffffffffffff1660008054906101000a900473ffffffffffffffffffffffffffffffffffffffff1673ffffffffffffffffffffffffffffffffffffffff16146113be576040517f08c379a00000000000000000000000000000000000000000000000000000000081526004018080602001828103825260208152602001807f4f776e61626c653a2063616c6c6572206973206e6f7420746865206f776e657281525060200191505060405180910390fd5b80156113cd576113cc61226f565b5b600060085443116113e0576008546113e2565b435b90506113f9846007546144f190919063ffffffff16565b60078190555060056040518060e001604052808573ffffffffffffffffffffffffffffffffffffffff1681526020018681526020018381526020016000815260200160008152602001600073ffffffffffffffffffffffffffffffffffffffff1681526020016000815250908060018154018082558091505060019003906000526020600020906007020160009091909190915060008201518160000160006101000a81548173ffffffffffffffffffffffffffffffffffffffff021916908373ffffffffffffffffffffffffffffffffffffffff1602179055506020820151816001015560408201518160020155606082015181600301556080820151816004015560a08201518160050160006101000a81548173ffffffffffffffffffffffffffffffffffffffff021916908373ffffffffffffffffffffffffffffffffffffffff16021790555060c08201518160060155505050505050565b61155d614579565b73ffffffffffffffffffffffffffffffffffffffff1660008054906101000a900473ffffffffffffffffffffffffffffffffffffffff1673ffffffffffffffffffffffffffffffffffffffff161461161d576040517f08c379a00000000000000000000000000000000000000000000000000000000081526004018080602001828103825260208152602001807f4f776e61626c653a2063616c6c6572206973206e6f7420746865206f776e657281525060200191505060405180910390fd5b60008214156116465761163b816015546144f190919063ffffffff16565b6015819055506116ea565b600182141561166f57611664816016546144f190919063ffffffff16565b6016819055506116e9565b60028214156116985761168d816017546144f190919063ffffffff16565b6017819055506116e8565b60038214156116c1576116b6816018546144f190919063ffffffff16565b6018819055506116e7565b60048214156116e6576116df816019546144f190919063ffffffff16565b6019819055505b5b5b5b5b5050565b6116f6614579565b73ffffffffffffffffffffffffffffffffffffffff1660008054906101000a900473ffffffffffffffffffffffffffffffffffffffff1673ffffffffffffffffffffffffffffffffffffffff16146117b6576040517f08c379a00000000000000000000000000000000000000000000000000000000081526004018080602001828103825260208152602001807f4f776e61626c653a2063616c6c6572206973206e6f7420746865206f776e657281525060200191505060405180910390fd5b81601060006101000a81548173ffffffffffffffffffffffffffffffffffffffff021916908373ffffffffffffffffffffffffffffffffffffffff160217905550806014819055505050565b600b6020528160005260406000206020528060005260406000206000915091509054906101000a900460ff1681565b600160009054906101000a900473ffffffffffffffffffffffffffffffffffffffff1681565b6000611864848484614581565b90509392505050565b611875614579565b73ffffffffffffffffffffffffffffffffffffffff1660008054906101000a900473ffffffffffffffffffffffffffffffffffffffff1673ffffffffffffffffffffffffffffffffffffffff1614611935576040517f08c379a00000000000000000000000000000000000000000000000000000000081526004018080602001828103825260208152602001807f4f776e61626c653a2063616c6c6572206973206e6f7420746865206f776e657281525060200191505060405180910390fd5b8060138190555050565b60035481565b60006005838154811061195457fe5b9060005260206000209060070201905060006009600085815260200190815260200160002060003373ffffffffffffffffffffffffffffffffffffffff1673ffffffffffffffffffffffffffffffffffffffff16815260200190815260200160002090508281600001541015611a32576040517f08c379a00000000000000000000000000000000000000000000000000000000081526004018080602001828103825260158152602001807f7769746864726177206973206e6f742076616c6964000000000000000000000081525060200191505060405180910390fd5b6000816002015411611a48574381600201819055505b600c60008360000160009054906101000a900473ffffffffffffffffffffffffffffffffffffffff1673ffffffffffffffffffffffffffffffffffffffff1673ffffffffffffffffffffffffffffffffffffffff16815260200190815260200160002060009054906101000a900460ff168015611ac55750600083115b15611b5857611b57600d60008460000160009054906101000a900473ffffffffffffffffffffffffffffffffffffffff1673ffffffffffffffffffffffffffffffffffffffff1673ffffffffffffffffffffffffffffffffffffffff16815260200190815260200160002060009054906101000a900473ffffffffffffffffffffffffffffffffffffffff1684614878565b5b611b6184611cf9565b611b6d828260016148e7565b611b84838260000154614c9290919063ffffffff16565b8160000181905550611bbe64e8d4a51000611bb084600301548460000154614cdc90919063ffffffff16565b614d6290919063ffffffff16565b8160010181905550438160020181905550611be6838360040154614c9290919063ffffffff16565b8260040181905550611c3d33848460000160009054906101000a900473ffffffffffffffffffffffffffffffffffffffff1673ffffffffffffffffffffffffffffffffffffffff16614dac9092919063ffffffff16565b833373ffffffffffffffffffffffffffffffffffffffff167ff279e6a1f5e320cca91135676d9cb6e44ca8a08c0b88342bcdb1144f6511b568856040518082815260200191505060405180910390a350505050565b600080611c9f83436136ec565b90506000611cac82614e4e565b90508092505050919050565b60128181548110611cc557fe5b906000526020600020016000915090505481565b6000600a6000838152602001908152602001600020805490509050919050565b600060058281548110611d0857fe5b9060005260206000209060070201905080600201544311611d295750612155565b600081600401541415611d455743816002018190555050612155565b600080611d56836002015443612b78565b90506015544311611dbd57611db6600754611da88560010154611d9a6012600081548110611d8057fe5b906000526020600020015486614cdc90919063ffffffff16565b614cdc90919063ffffffff16565b614d6290919063ffffffff16565b9150611f47565b6016544311611e2257611e1b600754611e0d8560010154611dff6012600181548110611de557fe5b906000526020600020015486614cdc90919063ffffffff16565b614cdc90919063ffffffff16565b614d6290919063ffffffff16565b9150611f46565b6017544311611e8757611e80600754611e728560010154611e646012600281548110611e4a57fe5b906000526020600020015486614cdc90919063ffffffff16565b614cdc90919063ffffffff16565b614d6290919063ffffffff16565b9150611f45565b6018544311611eec57611ee5600754611ed78560010154611ec96012600381548110611eaf57fe5b906000526020600020015486614cdc90919063ffffffff16565b614cdc90919063ffffffff16565b614d6290919063ffffffff16565b9150611f44565b611f41600754611f338560010154611f256012600481548110611f0b57fe5b906000526020600020015486614cdc90919063ffffffff16565b614cdc90919063ffffffff16565b614d6290919063ffffffff16565b91505b5b5b5b60008211156120fc576000600354111561205057600160009054906101000a900473ffffffffffffffffffffffffffffffffffffffff1673ffffffffffffffffffffffffffffffffffffffff166340c10f19600260009054906101000a900473ffffffffffffffffffffffffffffffffffffffff16611fe46064611fd660035488614cdc90919063ffffffff16565b614d6290919063ffffffff16565b6040518363ffffffff1660e01b8152600401808373ffffffffffffffffffffffffffffffffffffffff16815260200182815260200192505050600060405180830381600087803b15801561203757600080fd5b505af115801561204b573d6000803e3d6000fd5b505050505b600160009054906101000a900473ffffffffffffffffffffffffffffffffffffffff1673ffffffffffffffffffffffffffffffffffffffff166340c10f1930846040518363ffffffff1660e01b8152600401808373ffffffffffffffffffffffffffffffffffffffff16815260200182815260200192505050600060405180830381600087803b1580156120e357600080fd5b505af11580156120f7573d6000803e3d6000fd5b505050505b61214061212d846004015461211f64e8d4a5100086614cdc90919063ffffffff16565b614d6290919063ffffffff16565b84600301546144f190919063ffffffff16565b83600301819055504383600201819055505050505b50565b600260009054906101000a900473ffffffffffffffffffffffffffffffffffffffff1673ffffffffffffffffffffffffffffffffffffffff163373ffffffffffffffffffffffffffffffffffffffff161461221b576040517f08c379a00000000000000000000000000000000000000000000000000000000081526004018080602001828103825260198152602001807f646576206164646472657373206973206e6f742076616c69640000000000000081525060200191505060405180910390fd5b82600260006101000a81548173ffffffffffffffffffffffffffffffffffffffff021916908373ffffffffffffffffffffffffffffffffffffffff1602179055508160038190555080600481905550505050565b6000600580549050905060005b818110156122985761228d81611cf9565b80600101905061227c565b5050565b6122a4614579565b73ffffffffffffffffffffffffffffffffffffffff1660008054906101000a900473ffffffffffffffffffffffffffffffffffffffff1673ffffffffffffffffffffffffffffffffffffffff1614612364576040517f08c379a00000000000000000000000000000000000000000000000000000000081526004018080602001828103825260208152602001807f4f776e61626c653a2063616c6c6572206973206e6f7420746865206f776e657281525060200191505060405180910390fd5b80156123735761237261226f565b5b6123b8826123aa6005868154811061238757fe5b906000526020600020906007020160010154600754614c9290919063ffffffff16565b6144f190919063ffffffff16565b60078190555081600584815481106123cc57fe5b906000526020600020906007020160010181905550505050565b6123ee614579565b73ffffffffffffffffffffffffffffffffffffffff1660008054906101000a900473ffffffffffffffffffffffffffffffffffffffff1673ffffffffffffffffffffffffffffffffffffffff16146124ae576040517f08c379a00000000000000000000000000000000000000000000000000000000081526004018080602001828103825260208152602001807f4f776e61626c653a2063616c6c6572206973206e6f7420746865206f776e657281525060200191505060405180910390fd5b80601283815481106124bc57fe5b90600052602060002001819055505050565b6124d6614579565b73ffffffffffffffffffffffffffffffffffffffff1660008054906101000a900473ffffffffffffffffffffffffffffffffffffffff1673ffffffffffffffffffffffffffffffffffffffff1614612596576040517f08c379a00000000000000000000000000000000000000000000000000000000081526004018080602001828103825260208152602001807f4f776e61626c653a2063616c6c6572206973206e6f7420746865206f776e657281525060200191505060405180910390fd5b600073ffffffffffffffffffffffffffffffffffffffff1660008054906101000a900473ffffffffffffffffffffffffffffffffffffffff1673ffffffffffffffffffffffffffffffffffffffff167f8be0079c531659141344cd1fd0a4f28419497f9722a3daafe3b4186f6b6457e060405160405180910390a360008060006101000a81548173ffffffffffffffffffffffffffffffffffffffff021916908373ffffffffffffffffffffffffffffffffffffffff160217905550565b60195481565b612662614579565b73ffffffffffffffffffffffffffffffffffffffff1660008054906101000a900473ffffffffffffffffffffffffffffffffffffffff1673ffffffffffffffffffffffffffffffffffffffff1614612722576040517f08c379a00000000000000000000000000000000000000000000000000000000081526004018080602001828103825260208152602001807f4f776e61626c653a2063616c6c6572206973206e6f7420746865206f776e657281525060200191505060405180910390fd5b8073ffffffffffffffffffffffffffffffffffffffff1663e9fad8ee6040518163ffffffff1660e01b8152600401600060405180830381600087803b15801561276a57600080fd5b505af115801561277e573d6000803e3d6000fd5b5050505050565b61278d614579565b73ffffffffffffffffffffffffffffffffffffffff1660008054906101000a900473ffffffffffffffffffffffffffffffffffffffff1673ffffffffffffffffffffffffffffffffffffffff161461284d576040517f08c379a00000000000000000000000000000000000000000000000000000000081526004018080602001828103825260208152602001807f4f776e61626c653a2063616c6c6572206973206e6f7420746865206f776e657281525060200191505060405180910390fd5b806005848154811061285b57fe5b906000526020600020906007020160050160006101000a81548173ffffffffffffffffffffffffffffffffffffffff021916908373ffffffffffffffffffffffffffffffffffffffff16021790555081600584815481106128b857fe5b906000526020600020906007020160060181905550505050565b6128da614579565b73ffffffffffffffffffffffffffffffffffffffff1660008054906101000a900473ffffffffffffffffffffffffffffffffffffffff1673ffffffffffffffffffffffffffffffffffffffff161461299a576040517f08c379a00000000000000000000000000000000000000000000000000000000081526004018080602001828103825260208152602001807f4f776e61626c653a2063616c6c6572206973206e6f7420746865206f776e657281525060200191505060405180910390fd5b8073ffffffffffffffffffffffffffffffffffffffff16633d18b9126040518163ffffffff1660e01b8152600401600060405180830381600087803b1580156129e257600080fd5b505af11580156129f6573d6000803e3d6000fd5b5050505050565b612a05614579565b73ffffffffffffffffffffffffffffffffffffffff1660008054906101000a900473ffffffffffffffffffffffffffffffffffffffff1673ffffffffffffffffffffffffffffffffffffffff1614612ac5576040517f08c379a00000000000000000000000000000000000000000000000000000000081526004018080602001828103825260208152602001807f4f776e61626c653a2063616c6c6572206973206e6f7420746865206f776e657281525060200191505060405180910390fd5b80600f60008473ffffffffffffffffffffffffffffffffffffffff1673ffffffffffffffffffffffffffffffffffffffff16815260200190815260200160002060006101000a81548160ff0219169083151502179055505050565b600a81565b6000600e600083815260200190815260200160002060009054906101000a900460ff169050919050565b60008060009054906101000a900473ffffffffffffffffffffffffffffffffffffffff16905090565b60006006548211612bb057612ba9600a612b9b8585614c9290919063ffffffff16565b614cdc90919063ffffffff16565b9050612c24565b6006548310612bd357612bcc8383614c9290919063ffffffff16565b9050612c24565b612c21612beb60065484614c9290919063ffffffff16565b612c13600a612c0587600654614c9290919063ffffffff16565b614cdc90919063ffffffff16565b6144f190919063ffffffff16565b90505b92915050565b60185481565b6009602052816000526040600020602052806000526040600020600091509150508060000154908060010154908060020154905083565b60175481565b612c75614579565b73ffffffffffffffffffffffffffffffffffffffff1660008054906101000a900473ffffffffffffffffffffffffffffffffffffffff1673ffffffffffffffffffffffffffffffffffffffff1614612d35576040517f08c379a00000000000000000000000000000000000000000000000000000000081526004018080602001828103825260208152602001807f4f776e61626c653a2063616c6c6572206973206e6f7420746865206f776e657281525060200191505060405180910390fd5b600c60008273ffffffffffffffffffffffffffffffffffffffff1673ffffffffffffffffffffffffffffffffffffffff16815260200190815260200160002060009054906101000a900460ff16612df4576040517f08c379a00000000000000000000000000000000000000000000000000000000081526004018080602001828103825260178152602001807f5468697320706f6f6c206973206e6f742065786973742e00000000000000000081525060200191505060405180910390fd5b6000600d60008373ffffffffffffffffffffffffffffffffffffffff1673ffffffffffffffffffffffffffffffffffffffff16815260200190815260200160002060009054906101000a900473ffffffffffffffffffffffffffffffffffffffff1673ffffffffffffffffffffffffffffffffffffffff166370a08231306040518263ffffffff1660e01b8152600401808273ffffffffffffffffffffffffffffffffffffffff16815260200191505060206040518083038186803b158015612ebc57600080fd5b505afa158015612ed0573d6000803e3d6000fd5b505050506040513d6020811015612ee657600080fd5b810190808051906020019092919050505090506000811115612fcd57600d60008373ffffffffffffffffffffffffffffffffffffffff1673ffffffffffffffffffffffffffffffffffffffff16815260200190815260200160002060009054906101000a900473ffffffffffffffffffffffffffffffffffffffff1673ffffffffffffffffffffffffffffffffffffffff16632e1a7d4d826040518263ffffffff1660e01b815260040180828152602001915050600060405180830381600087803b158015612fb457600080fd5b505af1158015612fc8573d6000803e3d6000fd5b505050505b6000600c60008473ffffffffffffffffffffffffffffffffffffffff1673ffffffffffffffffffffffffffffffffffffffff16815260200190815260200160002060006101000a81548160ff0219169083151502179055506000600d60008473ffffffffffffffffffffffffffffffffffffffff1673ffffffffffffffffffffffffffffffffffffffff16815260200190815260200160002060006101000a81548173ffffffffffffffffffffffffffffffffffffffff021916908373ffffffffffffffffffffffffffffffffffffffff1602179055505050565b60165481565b6000601060009054906101000a900473ffffffffffffffffffffffffffffffffffffffff16905090565b6130e0614579565b73ffffffffffffffffffffffffffffffffffffffff1660008054906101000a900473ffffffffffffffffffffffffffffffffffffffff1673ffffffffffffffffffffffffffffffffffffffff16146131a0576040517f08c379a00000000000000000000000000000000000000000000000000000000081526004018080602001828103825260208152602001807f4f776e61626c653a2063616c6c6572206973206e6f7420746865206f776e657281525060200191505060405180910390fd5b6000600580549050905060005b818110156131eb5782600e600083815260200190815260200160002060006101000a81548160ff0219169083151502179055508060010190506131ad565b505050565b60045481565b6000806005848154811061320657fe5b9060005260206000209060070201905060006009600086815260200190815260200160002060008573ffffffffffffffffffffffffffffffffffffffff1673ffffffffffffffffffffffffffffffffffffffff1681526020019081526020016000209050600080836003015490506000846004015490506000811461357757600080613296876002015443612b78565b905060155443116132fd576132f66007546132e889600101546132da60126000815481106132c057fe5b906000526020600020015486614cdc90919063ffffffff16565b614cdc90919063ffffffff16565b614d6290919063ffffffff16565b9150613487565b60165443116133625761335b60075461334d896001015461333f601260018154811061332557fe5b906000526020600020015486614cdc90919063ffffffff16565b614cdc90919063ffffffff16565b614d6290919063ffffffff16565b9150613486565b60175443116133c7576133c06007546133b289600101546133a4601260028154811061338a57fe5b906000526020600020015486614cdc90919063ffffffff16565b614cdc90919063ffffffff16565b614d6290919063ffffffff16565b9150613485565b601854431161342c57613425600754613417896001015461340960126003815481106133ef57fe5b906000526020600020015486614cdc90919063ffffffff16565b614cdc90919063ffffffff16565b614d6290919063ffffffff16565b9150613484565b6134816007546134738960010154613465601260048154811061344b57fe5b906000526020600020015486614cdc90919063ffffffff16565b614cdc90919063ffffffff16565b614d6290919063ffffffff16565b91505b5b5b5b6134c76134b888600401546134aa64e8d4a5100086614cdc90919063ffffffff16565b614d6290919063ffffffff16565b856144f190919063ffffffff16565b935061350d86600101546134ff64e8d4a510006134f1888b60000154614cdc90919063ffffffff16565b614d6290919063ffffffff16565b614c9290919063ffffffff16565b945060006135276135228860020154436136ec565b614eb4565b9050600081111561357357600061355a606461354c848a614cdc90919063ffffffff16565b614d6290919063ffffffff16565b905061356f8188614c9290919063ffffffff16565b9650505b5050505b829550505050505092915050565b6000601454905090565b600c6020528060005260406000206000915054906101000a900460ff1681565b6135b7614579565b73ffffffffffffffffffffffffffffffffffffffff1660008054906101000a900473ffffffffffffffffffffffffffffffffffffffff1673ffffffffffffffffffffffffffffffffffffffff1614613677576040517f08c379a00000000000000000000000000000000000000000000000000000000081526004018080602001828103825260208152602001807f4f776e61626c653a2063616c6c6572206973206e6f7420746865206f776e657281525060200191505060405180910390fd5b80600e600084815260200190815260200160002060006101000a81548160ff0219169083151502179055505050565b600e6020528060005260406000206000915054906101000a900460ff1681565b600260009054906101000a900473ffffffffffffffffffffffffffffffffffffffff1681565b600080838311156137115761370a8484614c9290919063ffffffff16565b9050613727565b6137248385614c9290919063ffffffff16565b90505b8091505092915050565b613739614579565b73ffffffffffffffffffffffffffffffffffffffff1660008054906101000a900473ffffffffffffffffffffffffffffffffffffffff1673ffffffffffffffffffffffffffffffffffffffff16146137f9576040517f08c379a00000000000000000000000000000000000000000000000000000000081526004018080602001828103825260208152602001807f4f776e61626c653a2063616c6c6572206973206e6f7420746865206f776e657281525060200191505060405180910390fd5b600c60008373ffffffffffffffffffffffffffffffffffffffff1673ffffffffffffffffffffffffffffffffffffffff16815260200190815260200160002060009054906101000a900460ff16156138b9576040517f08c379a000000000000000000000000000000000000000000000000000000000815260040180806020018281038252601b8152602001807f5468697320706f6f6c20697320616c72656164792065786973742e000000000081525060200191505060405180910390fd5b60008273ffffffffffffffffffffffffffffffffffffffff166370a08231306040518263ffffffff1660e01b8152600401808273ffffffffffffffffffffffffffffffffffffffff16815260200191505060206040518083038186803b15801561392257600080fd5b505afa158015613936573d6000803e3d6000fd5b505050506040513d602081101561394c57600080fd5b81019080805190602001909291905050509050600081111561397457613973818484614f1a565b5b6001600c60008573ffffffffffffffffffffffffffffffffffffffff1673ffffffffffffffffffffffffffffffffffffffff16815260200190815260200160002060006101000a81548160ff02191690831515021790555081600d60008573ffffffffffffffffffffffffffffffffffffffff1673ffffffffffffffffffffffffffffffffffffffff16815260200190815260200160002060006101000a81548173ffffffffffffffffffffffffffffffffffffffff021916908373ffffffffffffffffffffffffffffffffffffffff160217905550505050565b600060058381548110613a5e57fe5b9060005260206000209060070201905060006009600085815260200190815260200160002060003373ffffffffffffffffffffffffffffffffffffffff1673ffffffffffffffffffffffffffffffffffffffff1681526020019081526020016000209050600e600085815260200190815260200160002060009054906101000a900460ff1615613bb4576011544311613b8657614e20613b2a8360000160009054906101000a900473ffffffffffffffffffffffffffffffffffffffff16613b246130ae565b86611857565b1115613b81576040517f08c379a0000000000000000000000000000000000000000000000000000000008152600401808060200182810382526033815260200180615c6f6033913960400191505060405180910390fd5b613bb3565b6000600e600086815260200190815260200160002060006101000a81548160ff0219169083151502179055505b5b6000816002015411613bca574381600201819055505b613bd384611cf9565b60008160000154118015613be75750600083115b15613bfd57613bf8828260006148e7565b613c18565b600081600001541115613c1757613c16828260016148e7565b5b5b613c693330858560000160009054906101000a900473ffffffffffffffffffffffffffffffffffffffff1673ffffffffffffffffffffffffffffffffffffffff16615037909392919063ffffffff16565b613c808383600401546144f190919063ffffffff16565b8260040181905550613c9f8382600001546144f190919063ffffffff16565b8160000181905550613cd964e8d4a51000613ccb84600301548460000154614cdc90919063ffffffff16565b614d6290919063ffffffff16565b8160010181905550438160020181905550600c60008360000160009054906101000a900473ffffffffffffffffffffffffffffffffffffffff1673ffffffffffffffffffffffffffffffffffffffff1673ffffffffffffffffffffffffffffffffffffffff16815260200190815260200160002060009054906101000a900460ff168015613d675750600083115b15613e1f57613e1e838360000160009054906101000a900473ffffffffffffffffffffffffffffffffffffffff16600d60008660000160009054906101000a900473ffffffffffffffffffffffffffffffffffffffff1673ffffffffffffffffffffffffffffffffffffffff1673ffffffffffffffffffffffffffffffffffffffff16815260200190815260200160002060009054906101000a900473ffffffffffffffffffffffffffffffffffffffff16614f1a565b5b600b600085815260200190815260200160002060003373ffffffffffffffffffffffffffffffffffffffff1673ffffffffffffffffffffffffffffffffffffffff16815260200190815260200160002060009054906101000a900460ff16613f5f576001600b600086815260200190815260200160002060003373ffffffffffffffffffffffffffffffffffffffff1673ffffffffffffffffffffffffffffffffffffffff16815260200190815260200160002060006101000a81548160ff021916908315150217905550600a6000858152602001908152602001600020339080600181540180825580915050600190039060005260206000200160009091909190916101000a81548173ffffffffffffffffffffffffffffffffffffffff021916908373ffffffffffffffffffffffffffffffffffffffff1602179055505b833373ffffffffffffffffffffffffffffffffffffffff167f90890809c654f11d6e72a28fa60149770a0d11ec6c92319d6ceb2bb0a4ea1a15856040518082815260200191505060405180910390a350505050565b6000806015544311613fe5576015546012600081548110613fd157fe5b906000526020600020015491509150614090565b6016544311614013576016546012600181548110613fff57fe5b906000526020600020015491509150614090565b601754431161404157601754601260028154811061402d57fe5b906000526020600020015491509150614090565b601854431161406f57601854601260038154811061405b57fe5b906000526020600020015491509150614090565b601954601260048154811061408057fe5b9060005260206000200154915091505b9091565b60085481565b33600f60008273ffffffffffffffffffffffffffffffffffffffff1673ffffffffffffffffffffffffffffffffffffffff16815260200190815260200160002060009054906101000a900460ff166140f157600080fd5b8373ffffffffffffffffffffffffffffffffffffffff166370a08231306040518263ffffffff1660e01b8152600401808273ffffffffffffffffffffffffffffffffffffffff16815260200191505060206040518083038186803b15801561415857600080fd5b505afa15801561416c573d6000803e3d6000fd5b505050506040513d602081101561418257600080fd5b8101908080519060200190929190505050821115614208576040517f08c379a000000000000000000000000000000000000000000000000000000000815260040180806020018281038252601c8152602001807f4e6f7420456e6f75676820556e6920546f6b656e2042616c616e63650000000081525060200191505060405180910390fd5b600073ffffffffffffffffffffffffffffffffffffffff168373ffffffffffffffffffffffffffffffffffffffff1614156142ab576040517f08c379a00000000000000000000000000000000000000000000000000000000081526004018080602001828103825260118152602001807f4e6f74205661696c64204164647265737300000000000000000000000000000081525060200191505060405180910390fd5b6142d683838673ffffffffffffffffffffffffffffffffffffffff16614dac9092919063ffffffff16565b50505050565b6142e4614579565b73ffffffffffffffffffffffffffffffffffffffff1660008054906101000a900473ffffffffffffffffffffffffffffffffffffffff1673ffffffffffffffffffffffffffffffffffffffff16146143a4576040517f08c379a00000000000000000000000000000000000000000000000000000000081526004018080602001828103825260208152602001807f4f776e61626c653a2063616c6c6572206973206e6f7420746865206f776e657281525060200191505060405180910390fd5b600073ffffffffffffffffffffffffffffffffffffffff168173ffffffffffffffffffffffffffffffffffffffff16141561442a576040517f08c379a0000000000000000000000000000000000000000000000000000000008152600401808060200182810382526026815260200180615c496026913960400191505060405180910390fd5b8073ffffffffffffffffffffffffffffffffffffffff1660008054906101000a900473ffffffffffffffffffffffffffffffffffffffff1673ffffffffffffffffffffffffffffffffffffffff167f8be0079c531659141344cd1fd0a4f28419497f9722a3daafe3b4186f6b6457e060405160405180910390a3806000806101000a81548173ffffffffffffffffffffffffffffffffffffffff021916908373ffffffffffffffffffffffffffffffffffffffff16021790555050565b6000601354905090565b60008082840190508381101561456f576040517f08c379a000000000000000000000000000000000000000000000000000000000815260040180806020018281038252601b8152602001807f536166654d6174683a206164646974696f6e206f766572666c6f77000000000081525060200191505060405180910390fd5b8091505092915050565b600033905090565b6000808473ffffffffffffffffffffffffffffffffffffffff16630dfe16816040518163ffffffff1660e01b815260040160206040518083038186803b1580156145ca57600080fd5b505afa1580156145de573d6000803e3d6000fd5b505050506040513d60208110156145f457600080fd5b810190808051906020019092919050505090506000808673ffffffffffffffffffffffffffffffffffffffff16630902f1ac6040518163ffffffff1660e01b815260040160606040518083038186803b15801561465057600080fd5b505afa158015614664573d6000803e3d6000fd5b505050506040513d606081101561467a57600080fd5b81019080805190602001909291908051906020019092919080519060200190929190505050509150915060008773ffffffffffffffffffffffffffffffffffffffff166318160ddd6040518163ffffffff1660e01b815260040160206040518083038186803b1580156146ec57600080fd5b505afa158015614700573d6000803e3d6000fd5b505050506040513d602081101561471657600080fd5b81019080805190602001909291905050509050600080600083111561484f5773c02aaa39b223fe8d0a0e5c4f27ead9083c756cc273ffffffffffffffffffffffffffffffffffffffff168673ffffffffffffffffffffffffffffffffffffffff16146147e5576147b1836147a3876dffffffffffffffffffffffffffff168b614cdc90919063ffffffff16565b614d6290919063ffffffff16565b90506147de81866dffffffffffffffffffffffffffff16866dffffffffffffffffffffffffffff166150f8565b915061484a565b61481a8361480c866dffffffffffffffffffffffffffff168b614cdc90919063ffffffff16565b614d6290919063ffffffff16565b905061484781856dffffffffffffffffffffffffffff16876dffffffffffffffffffffffffffff166150f8565b91505b61485e565b60009650505050505050614871565b614868828a615228565b96505050505050505b9392505050565b8173ffffffffffffffffffffffffffffffffffffffff16632e1a7d4d826040518263ffffffff1660e01b815260040180828152602001915050600060405180830381600087803b1580156148cb57600080fd5b505af11580156148df573d6000803e3d6000fd5b505050505050565b6000614931836001015461492364e8d4a5100061491588600301548860000154614cdc90919063ffffffff16565b614d6290919063ffffffff16565b614c9290919063ffffffff16565b9050600061494b6149468560020154436136ec565b614eb4565b905060008111801561495a5750825b15614c7657600061498760646149798486614cdc90919063ffffffff16565b614d6290919063ffffffff16565b905060006149b360646149a560045485614cdc90919063ffffffff16565b614d6290919063ffffffff16565b90506149e1600260009054906101000a900473ffffffffffffffffffffffffffffffffffffffff168261546d565b600087600601541115614b7a576000614a1a6064614a0c8a6006015486614cdc90919063ffffffff16565b614d6290919063ffffffff16565b9050614a4a8860050160009054906101000a900473ffffffffffffffffffffffffffffffffffffffff168261546d565b614a7833614a7383614a65868a614c9290919063ffffffff16565b614c9290919063ffffffff16565b61546d565b600160009054906101000a900473ffffffffffffffffffffffffffffffffffffffff1673ffffffffffffffffffffffffffffffffffffffff16639dc29fac33614adc84614ace8789614c9290919063ffffffff16565b614c9290919063ffffffff16565b6040518363ffffffff1660e01b8152600401808373ffffffffffffffffffffffffffffffffffffffff16815260200182815260200192505050600060405180830381600087803b158015614b2f57600080fd5b505af1158015614b43573d6000803e3d6000fd5b50505050614b74614b6f82614b618587614c9290919063ffffffff16565b614c9290919063ffffffff16565b6156e6565b50614c6f565b614b9633614b918387614c9290919063ffffffff16565b61546d565b600160009054906101000a900473ffffffffffffffffffffffffffffffffffffffff1673ffffffffffffffffffffffffffffffffffffffff16639dc29fac33614be88486614c9290919063ffffffff16565b6040518363ffffffff1660e01b8152600401808373ffffffffffffffffffffffffffffffffffffffff16815260200182815260200192505050600060405180830381600087803b158015614c3b57600080fd5b505af1158015614c4f573d6000803e3d6000fd5b50505050614c6e614c698284614c9290919063ffffffff16565b6156e6565b5b5050614c8b565b614c80338361546d565b614c8a60006156e6565b5b5050505050565b6000614cd483836040518060400160405280601e81526020017f536166654d6174683a207375627472616374696f6e206f766572666c6f7700008152506157a2565b905092915050565b600080831415614cef5760009050614d5c565b6000828402905082848281614d0057fe5b0414614d57576040517f08c379a0000000000000000000000000000000000000000000000000000000008152600401808060200182810382526021815260200180615cca6021913960400191505060405180910390fd5b809150505b92915050565b6000614da483836040518060400160405280601a81526020017f536166654d6174683a206469766973696f6e206279207a65726f000000000000815250615862565b905092915050565b614e498363a9059cbb60e01b8484604051602401808373ffffffffffffffffffffffffffffffffffffffff16815260200182815260200192505050604051602081830303815290604052907bffffffffffffffffffffffffffffffffffffffffffffffffffffffff19166020820180517bffffffffffffffffffffffffffffffffffffffffffffffffffffffff8381831617835250505050615928565b505050565b60006125808210614e625760329050614eaf565b611e008210614e745760289050614eaf565b6116808210614e8657601e9050614eaf565b610f008210614e985760149050614eaf565b6107808210614eaa57600a9050614eaf565b600090505b919050565b60006107808211614ec85760329050614f15565b610f008211614eda5760289050614f15565b6116808211614eec57601e9050614f15565b611e008211614efe5760149050614f15565b6125808211614f1057600a9050614f15565b600090505b919050565b8173ffffffffffffffffffffffffffffffffffffffff1663095ea7b382856040518363ffffffff1660e01b8152600401808373ffffffffffffffffffffffffffffffffffffffff16815260200182815260200192505050602060405180830381600087803b158015614f8b57600080fd5b505af1158015614f9f573d6000803e3d6000fd5b505050506040513d6020811015614fb557600080fd5b8101908080519060200190929190505050508073ffffffffffffffffffffffffffffffffffffffff1663a694fc3a846040518263ffffffff1660e01b815260040180828152602001915050600060405180830381600087803b15801561501a57600080fd5b505af115801561502e573d6000803e3d6000fd5b50505050505050565b6150f2846323b872dd60e01b858585604051602401808473ffffffffffffffffffffffffffffffffffffffff1681526020018373ffffffffffffffffffffffffffffffffffffffff1681526020018281526020019350505050604051602081830303815290604052907bffffffffffffffffffffffffffffffffffffffffffffffffffffffff19166020820180517bffffffffffffffffffffffffffffffffffffffffffffffffffffffff8381831617835250505050615928565b50505050565b6000808411615152576040517f08c379a000000000000000000000000000000000000000000000000000000000815260040180806020018281038252602b815260200180615d15602b913960400191505060405180910390fd5b6000831180156151625750600082115b6151b7576040517f08c379a0000000000000000000000000000000000000000000000000000000008152600401808060200182810382526028815260200180615ca26028913960400191505060405180910390fd5b60006151ce6103e586614cdc90919063ffffffff16565b905060006151e58483614cdc90919063ffffffff16565b90506000615210836152026103e889614cdc90919063ffffffff16565b6144f190919063ffffffff16565b905080828161521b57fe5b0493505050509392505050565b6000808273ffffffffffffffffffffffffffffffffffffffff16630dfe16816040518163ffffffff1660e01b815260040160206040518083038186803b15801561527157600080fd5b505afa158015615285573d6000803e3d6000fd5b505050506040513d602081101561529b57600080fd5b810190808051906020019092919050505090506000808473ffffffffffffffffffffffffffffffffffffffff16630902f1ac6040518163ffffffff1660e01b815260040160606040518083038186803b1580156152f757600080fd5b505afa15801561530b573d6000803e3d6000fd5b505050506040513d606081101561532157600080fd5b810190808051906020019092919080519060200190929190805190602001909291905050505091509150600073c02aaa39b223fe8d0a0e5c4f27ead9083c756cc273ffffffffffffffffffffffffffffffffffffffff168473ffffffffffffffffffffffffffffffffffffffff1614156153ce576153c76153a06144e7565b846dffffffffffffffffffffffffffff16846dffffffffffffffffffffffffffff166150f8565b9050615403565b6154006153d96144e7565b836dffffffffffffffffffffffffffff16856dffffffffffffffffffffffffffff166150f8565b90505b600061545d600261544f615427615418613585565b86614d6290919063ffffffff16565b6154416154326144e7565b8d614d6290919063ffffffff16565b614cdc90919063ffffffff16565b614cdc90919063ffffffff16565b9050809550505050505092915050565b6000600160009054906101000a900473ffffffffffffffffffffffffffffffffffffffff1673ffffffffffffffffffffffffffffffffffffffff166370a08231306040518263ffffffff1660e01b8152600401808273ffffffffffffffffffffffffffffffffffffffff16815260200191505060206040518083038186803b1580156154f857600080fd5b505afa15801561550c573d6000803e3d6000fd5b505050506040513d602081101561552257600080fd5b810190808051906020019092919050505090508082111561561157600160009054906101000a900473ffffffffffffffffffffffffffffffffffffffff1673ffffffffffffffffffffffffffffffffffffffff1663a9059cbb84836040518363ffffffff1660e01b8152600401808373ffffffffffffffffffffffffffffffffffffffff16815260200182815260200192505050602060405180830381600087803b1580156155d057600080fd5b505af11580156155e4573d6000803e3d6000fd5b505050506040513d60208110156155fa57600080fd5b8101908080519060200190929190505050506156e1565b600160009054906101000a900473ffffffffffffffffffffffffffffffffffffffff1673ffffffffffffffffffffffffffffffffffffffff1663a9059cbb84846040518363ffffffff1660e01b8152600401808373ffffffffffffffffffffffffffffffffffffffff16815260200182815260200192505050602060405180830381600087803b1580156156a457600080fd5b505af11580156156b8573d6000803e3d6000fd5b505050506040513d60208110156156ce57600080fd5b8101908080519060200190929190505050505b505050565b601d54421061573d576000601a54141561570f576001601a819055506000601b81905550615720565b6000601a819055506000601c819055505b61573662015180426144f190919063ffffffff16565b601d819055505b61575281601e546144f190919063ffffffff16565b601e819055506000601a5414156157835761577881601c546144f190919063ffffffff16565b601c8190555061579f565b61579881601b546144f190919063ffffffff16565b601b819055505b50565b600083831115829061584f576040517f08c379a00000000000000000000000000000000000000000000000000000000081526004018080602001828103825283818151815260200191508051906020019080838360005b838110156158145780820151818401526020810190506157f9565b50505050905090810190601f1680156158415780820380516001836020036101000a031916815260200191505b509250505060405180910390fd5b5060008385039050809150509392505050565b6000808311829061590e576040517f08c379a00000000000000000000000000000000000000000000000000000000081526004018080602001828103825283818151815260200191508051906020019080838360005b838110156158d35780820151818401526020810190506158b8565b50505050905090810190601f1680156159005780820380516001836020036101000a031916815260200191505b509250505060405180910390fd5b50600083858161591a57fe5b049050809150509392505050565b606061598a826040518060400160405280602081526020017f5361666545524332303a206c6f772d6c6576656c2063616c6c206661696c65648152508573ffffffffffffffffffffffffffffffffffffffff16615a179092919063ffffffff16565b9050600081511115615a12578080602001905160208110156159ab57600080fd5b8101908080519060200190929190505050615a11576040517f08c379a000000000000000000000000000000000000000000000000000000000815260040180806020018281038252602a815260200180615ceb602a913960400191505060405180910390fd5b5b505050565b6060615a268484600085615a2f565b90509392505050565b6060615a3a85615c35565b615aac576040517f08c379a000000000000000000000000000000000000000000000000000000000815260040180806020018281038252601d8152602001807f416464726573733a2063616c6c20746f206e6f6e2d636f6e747261637400000081525060200191505060405180910390fd5b600060608673ffffffffffffffffffffffffffffffffffffffff1685876040518082805190602001908083835b60208310615afc5780518252602082019150602081019050602083039250615ad9565b6001836020036101000a03801982511681845116808217855250505050505090500191505060006040518083038185875af1925050503d8060008114615b5e576040519150601f19603f3d011682016040523d82523d6000602084013e615b63565b606091505b50915091508115615b78578092505050615c2d565b600081511115615b8b5780518082602001fd5b836040517f08c379a00000000000000000000000000000000000000000000000000000000081526004018080602001828103825283818151815260200191508051906020019080838360005b83811015615bf2578082015181840152602081019050615bd7565b50505050905090810190601f168015615c1f5780820380516001836020036101000a031916815260200191505b509250505060405180910390fd5b949350505050565b600080823b90506000811191505091905056fe4f776e61626c653a206e6577206f776e657220697320746865207a65726f2061646472657373416d6f756e74206d757374206265206c657373207468616e206f7220657175616c20746f20323030303020646f6c6c6172732e556e697377617056324c6962726172793a20494e53554646494349454e545f4c4951554944495459536166654d6174683a206d756c7469706c69636174696f6e206f766572666c6f775361666545524332303a204552433230206f7065726174696f6e20646964206e6f742073756363656564556e697377617056324c6962726172793a20494e53554646494349454e545f494e5055545f414d4f554e54a26469706673582212206c43fea6ec14faac1d69ab047c897498f63e640d52643185e4e02f07a0994d6f64736f6c634300060c0033",
  "immutableReferences": {},
  "source": "pragma solidity ^0.6.0;\r\n\r\nimport \"../helper/SafeERC20.sol\";\r\nimport \"../helper/SafeMath.sol\";\r\nimport \"../helper/Ownable.sol\";\r\nimport \"./ChillToken.sol\";\r\nimport \"../uniswap/UniswapV2Library.sol\";\r\nimport \"../interfaces/IUniswapV2Pair.sol\";\r\nimport \"../interfaces/IUniStakingRewards.sol\";\r\n\r\n// eth-dai 0xBbB8eeA618861940FaDEf3071e79458d4c2B42e3\r\ncontract ChillFinance is Ownable {\r\n    \r\n    using SafeMath for uint256;\r\n    using SafeERC20 for IERC20;\r\n\r\n    struct UserInfo {\r\n        uint256 amount;\r\n        uint256 rewardDebt;\r\n        uint256 startedBlock;\r\n    }\r\n    \r\n    struct PoolInfo {\r\n        IERC20 lpToken;           \r\n        uint256 allocPoint;       \r\n        uint256 lastRewardBlock;  \r\n        uint256 accChillPerShare;\r\n        uint256 totalPoolBalance;\r\n        address nirvanaRewardAddress;\r\n        uint256 nirvanaFee;\r\n    }\r\n\r\n    ChillToken public chill;\r\n    address public devaddr;\r\n    uint256 public DEV_FEE = 0;\r\n    uint256 public DEV_TAX_FEE = 20;\r\n    PoolInfo[] public poolInfo;\r\n    uint256 public bonusEndBlock;\r\n    uint256 public constant BONUS_MULTIPLIER = 10;\r\n    uint256 public totalAllocPoint = 0;\r\n    uint256 public startBlockOfChill;\r\n    mapping (uint256 => mapping (address => UserInfo)) public userInfo;\r\n    mapping (uint256 => address[]) public poolUsers;\r\n    mapping (uint256 => mapping(address => bool)) public isUserExist;\r\n    mapping (address => bool) public stakingUniPools;\r\n    mapping (address => address) public uniRewardAddresses;\r\n    mapping (uint256 => bool) public isCheckInitialPeriod;\r\n    mapping (address => bool) private distributors;\r\n    \r\n    address stablePair;    \r\n    uint256 initialPeriod;\r\n    uint256[] public blockPerPhase;\r\n    uint256 private ethDivider;\r\n    uint256 private stableDivider;\r\n\r\n    uint256 public phase1time;\r\n    uint256 public phase2time;\r\n    uint256 public phase3time;\r\n    uint256 public phase4time;\r\n    uint256 public phase5time;\r\n\r\n    uint256 burnFlag = 0;\r\n    uint256 lastBurnedPhase1 = 0;\r\n    uint256 lastBurnedPhase2 = 0;\r\n    uint256 lastTimeOfBurn;\r\n    uint256 totalBurnedAmount;\r\n\r\n    event Deposit(address indexed user, uint256 indexed pid, uint256 amount);\r\n    event Withdraw(address indexed user, uint256 indexed pid, uint256 amount);\r\n    event EmergencyWithdraw(address indexed user, uint256 indexed pid, uint256 amount);\r\n\r\n    modifier isDistributor(address _isDistributor) {\r\n        require(distributors[_isDistributor]);\r\n        _;\r\n    }\r\n\r\n    constructor(\r\n        ChillToken _chill,\r\n        address _devaddr,\r\n        address _stablePair\r\n    ) public {\r\n        chill = _chill;\r\n        devaddr = _devaddr;\r\n        stablePair = _stablePair;\r\n        \r\n        startBlockOfChill = block.number.add(0);\r\n        bonusEndBlock = block.number.add(0);\r\n        initialPeriod = block.number.add(28800); // 5 days (5*24*60*60)/15\r\n        \r\n        blockPerPhase.push(75e18);\r\n        blockPerPhase.push(100e18);\r\n        blockPerPhase.push(50e18);\r\n        blockPerPhase.push(25e18);\r\n        blockPerPhase.push(0);\r\n\r\n        phase1time = block.number.add(80640); // 14 days (14*24*60*60)/15\r\n        phase2time = block.number.add(253440); // 44 - 14 = 30 days (44*24*60*60)/15 \r\n        phase3time = block.number.add(426240); // 74 - 44 = 30 days (74*24*60*60)/15\r\n        phase4time = block.number.add(771840); // 134 - 74 = 60 days (134*24*60*60)/15\r\n        phase5time = block.number.add(0); // 134 - 74 = 60 days (134*24*60*60)/15\r\n        lastTimeOfBurn = block.timestamp.add(1 days);\r\n        stableDivider = 1e6;\r\n        ethDivider = 1e18;\r\n    }\r\n\r\n    function poolLength() external view returns (uint256) {\r\n        return poolInfo.length;\r\n    }\r\n    \r\n    function userPoollength(uint256 _pid) external view returns (uint256) {\r\n        return poolUsers[_pid].length;\r\n    }\r\n\r\n    // Add Function to give support new uniswap lp pool by only owner\r\n    // for allocpoint will be 100 and if you want to generate more chill for specific pool then you need to increase allocpoint\r\n    // like for, 1x=>100, 2x=>200, 3x=>300 etc.\r\n    function add(uint256 _allocPoint, IERC20 _lpToken, bool _withUpdate) public onlyOwner {\r\n        if (_withUpdate) {\r\n            massUpdatePools();\r\n        }\r\n        uint256 _lastRewardBlock = block.number > startBlockOfChill ? block.number : startBlockOfChill;\r\n        totalAllocPoint = totalAllocPoint.add(_allocPoint);\r\n        poolInfo.push(PoolInfo({\r\n            lpToken: _lpToken,\r\n            allocPoint: _allocPoint,\r\n            lastRewardBlock: _lastRewardBlock,\r\n            accChillPerShare: 0,\r\n            totalPoolBalance: 0,\r\n            nirvanaRewardAddress: address(0),\r\n            nirvanaFee: 0\r\n        }));\r\n    }\r\n    \r\n    // increase alloc point for specific pool\r\n    function set(uint256 _pid, uint256 _allocPoint, bool _withUpdate) public onlyOwner {\r\n        if (_withUpdate) {\r\n            massUpdatePools();\r\n        }\r\n        totalAllocPoint = totalAllocPoint.sub(poolInfo[_pid].allocPoint).add(_allocPoint);\r\n        poolInfo[_pid].allocPoint = _allocPoint;\r\n    }\r\n\r\n    // nirvana fee and address for specific pool\r\n    function setNirvanaDetails(uint256 _pid, uint256 _nirvanaFee, address _nirvanaRewardAddress) public onlyOwner {\r\n        poolInfo[_pid].nirvanaRewardAddress = _nirvanaRewardAddress;\r\n        poolInfo[_pid].nirvanaFee = _nirvanaFee;\r\n    }\r\n    \r\n    function massUpdatePools() public {\r\n        uint256 length = poolInfo.length;\r\n        for (uint256 pid = 0; pid < length; ++pid) {\r\n            updatePool(pid);\r\n        }\r\n    }\r\n    \r\n    // user can deposit lp for specific pool\r\n    function deposit(uint256 _pid, uint256 _amount) public {\r\n        PoolInfo storage pool = poolInfo[_pid];\r\n        UserInfo storage user = userInfo[_pid][msg.sender];\r\n\r\n        if (isCheckInitialPeriod[_pid]) {\r\n            if (block.number <= initialPeriod) {\r\n                // calculate id lp token amount less than $20000 and only applicable to eth pair\r\n                require(countStakeAmount(address(pool.lpToken), getStablePairAddress(), _amount) <= 20000, \"Amount must be less than or equal to 20000 dollars.\");\r\n            } else {\r\n                isCheckInitialPeriod[_pid] = false;\r\n            }\r\n        }\r\n        \r\n        if (user.startedBlock <= 0) {\r\n            user.startedBlock = block.number;\r\n        }\r\n        \r\n        updatePool(_pid);\r\n        if (user.amount > 0 && _amount > 0) {\r\n            userRewardAndTaxes(pool, user, false);\r\n        } else if (user.amount > 0) {\r\n            userRewardAndTaxes(pool, user, true);\r\n        }\r\n\r\n        pool.lpToken.safeTransferFrom(address(msg.sender), address(this), _amount);\r\n        pool.totalPoolBalance = pool.totalPoolBalance.add(_amount);\r\n        user.amount = user.amount.add(_amount);\r\n        user.rewardDebt = user.amount.mul(pool.accChillPerShare).div(1e12);\r\n        user.startedBlock = block.number;\r\n\r\n        if (stakingUniPools[address(pool.lpToken)] && _amount > 0) {\r\n            stakeInUni(_amount, address(pool.lpToken), uniRewardAddresses[address(pool.lpToken)]);\r\n        }\r\n\r\n        if (!isUserExist[_pid][msg.sender]) {\r\n            isUserExist[_pid][msg.sender] = true;\r\n            poolUsers[_pid].push(msg.sender);\r\n        }\r\n        emit Deposit(msg.sender, _pid, _amount);\r\n    }\r\n    \r\n    // it will be call if spicific pool uniswap uni pool supported in chill finance\r\n    // and if you want to support uniswap pool then you need to add in addStakeUniPool\r\n    function stakeInUni(uint256 amount, address v2address, address _stakeAddress) private {\r\n        IERC20(v2address).approve(address(_stakeAddress), amount);\r\n        IUniStakingRewards(_stakeAddress).stake(amount);\r\n    }\r\n\r\n    // user can withdraw their lp token from specific pool \r\n    function withdraw(uint256 _pid, uint256 _amount) public {\r\n        PoolInfo storage pool = poolInfo[_pid];\r\n        UserInfo storage user = userInfo[_pid][msg.sender];\r\n        require(user.amount >= _amount, \"withdraw is not valid\");\r\n        \r\n        if (user.startedBlock <= 0) {\r\n            user.startedBlock = block.number;\r\n        }\r\n        \r\n        if (stakingUniPools[address(pool.lpToken)]  && _amount > 0) {\r\n            withdrawUni(uniRewardAddresses[address(pool.lpToken)], _amount);\r\n        }\r\n\r\n        updatePool(_pid);\r\n        userRewardAndTaxes(pool, user, true);\r\n\r\n        user.amount = user.amount.sub(_amount);\r\n        user.rewardDebt = user.amount.mul(pool.accChillPerShare).div(1e12);\r\n        user.startedBlock = block.number;\r\n        pool.totalPoolBalance = pool.totalPoolBalance.sub(_amount);\r\n        pool.lpToken.safeTransfer(address(msg.sender), _amount);\r\n        emit Withdraw(msg.sender, _pid, _amount);\r\n    }\r\n\r\n    // withdraw lp token from uniswap uni farm pool  \r\n    function withdrawUni(address _stakeAddress, uint256 _amount) private {\r\n        IUniStakingRewards(_stakeAddress).withdraw(_amount);\r\n    }\r\n    \r\n    // Reward will genrate in update pool function and call will be happen internally by deposit and withdraw function\r\n    function updatePool(uint256 _pid) public {\r\n        PoolInfo storage pool = poolInfo[_pid];\r\n\r\n        if (block.number <= pool.lastRewardBlock) {\r\n            return;\r\n        }\r\n\r\n        if (pool.totalPoolBalance == 0) {\r\n            pool.lastRewardBlock = block.number;\r\n            return;\r\n        }\r\n        \r\n        uint256 chillReward;\r\n        uint256 multiplier = getMultiplier(pool.lastRewardBlock, block.number);\r\n        if (block.number <= phase1time) {\r\n            chillReward = multiplier.mul(blockPerPhase[0]).mul(pool.allocPoint).div(totalAllocPoint);\r\n        } else if (block.number <= phase2time) {\r\n            chillReward = multiplier.mul(blockPerPhase[1]).mul(pool.allocPoint).div(totalAllocPoint);\r\n        } else if (block.number <= phase3time) {\r\n            chillReward = multiplier.mul(blockPerPhase[2]).mul(pool.allocPoint).div(totalAllocPoint);\r\n        } else if (block.number <= phase4time) {\r\n            chillReward = multiplier.mul(blockPerPhase[3]).mul(pool.allocPoint).div(totalAllocPoint);\r\n        } else {\r\n            chillReward = multiplier.mul(blockPerPhase[4]).mul(pool.allocPoint).div(totalAllocPoint);\r\n        }\r\n        \r\n        if (chillReward > 0) {\r\n            if (DEV_FEE > 0) {\r\n                chill.mint(devaddr, chillReward.mul(DEV_FEE).div(100));\r\n            }\r\n            chill.mint(address(this), chillReward);\r\n        }\r\n        pool.accChillPerShare = pool.accChillPerShare.add(chillReward.mul(1e12).div(pool.totalPoolBalance));\r\n        pool.lastRewardBlock = block.number;\r\n    }\r\n    \r\n    // User's extra reward and taxes will be handle in this internal funation\r\n    function userRewardAndTaxes(PoolInfo storage pool, UserInfo storage user, bool isDeductTax) internal {\r\n        uint256 pending =  user.amount.mul(pool.accChillPerShare).div(1e12).sub(user.rewardDebt);\r\n        uint256 tax = deductTaxByBlock(getCrossMultiplier(user.startedBlock, block.number));\r\n        if (tax > 0 && isDeductTax) {\r\n            uint256 pendingTax = pending.mul(tax).div(100);\r\n            uint256 devReward = pendingTax.mul(DEV_TAX_FEE).div(100);\r\n            safeChillTransfer(devaddr, devReward);\r\n            if (pool.nirvanaFee > 0) {\r\n                uint256 nirvanaReward = pendingTax.mul(pool.nirvanaFee).div(100);\r\n                safeChillTransfer(pool.nirvanaRewardAddress, nirvanaReward);\r\n                safeChillTransfer(msg.sender, pending.sub(devReward).sub(nirvanaReward));\r\n                chill.burn(msg.sender, pendingTax.sub(devReward).sub(nirvanaReward));\r\n                lastDayBurned(pendingTax.sub(devReward).sub(nirvanaReward));\r\n            } else {\r\n                safeChillTransfer(msg.sender, pending.sub(devReward));\r\n                chill.burn(msg.sender, pendingTax.sub(devReward));\r\n                lastDayBurned(pendingTax.sub(devReward));\r\n            }\r\n        } else {\r\n            safeChillTransfer(msg.sender, pending);\r\n            lastDayBurned(0);\r\n        }\r\n    }\r\n    \r\n    function lastDayBurned(uint256 burnedAmount) internal {\r\n        if (block.timestamp >= lastTimeOfBurn) {\r\n            if (burnFlag == 0) {\r\n                burnFlag = 1;\r\n                lastBurnedPhase1 = 0;\r\n            } else {\r\n                burnFlag = 0;\r\n                lastBurnedPhase2 = 0;\r\n            }\r\n            lastTimeOfBurn = block.timestamp.add(1 days);\r\n        }\r\n        totalBurnedAmount = totalBurnedAmount.add(burnedAmount);\r\n        if (burnFlag == 0) {\r\n            lastBurnedPhase2 = lastBurnedPhase2.add(burnedAmount);\r\n            // return lastBurnedPhase1;\r\n        } else {\r\n            lastBurnedPhase1 = lastBurnedPhase1.add(burnedAmount);\r\n            // return lastBurnedPhase2;\r\n        }\r\n    }\r\n    \r\n    function getBurnedDetails() public view returns (uint256, uint256, uint256, uint256) {\r\n        return (burnFlag, lastBurnedPhase1, lastBurnedPhase2, totalBurnedAmount);\r\n    }\r\n\r\n    // For user interface to claimable token\r\n    function pendingChill(uint256 _pid, address _user) external view returns (uint256) {\r\n        PoolInfo storage pool = poolInfo[_pid];\r\n        UserInfo storage user = userInfo[_pid][_user];\r\n        uint256 pending;\r\n        uint256 accChillPerShare = pool.accChillPerShare;\r\n        uint256 lpSupply = pool.totalPoolBalance;\r\n        if (lpSupply != 0) {\r\n            uint256 chillReward;\r\n            uint256 multiplier = getMultiplier(pool.lastRewardBlock, block.number);\r\n            if (block.number <= phase1time) {\r\n                chillReward = multiplier.mul(blockPerPhase[0]).mul(pool.allocPoint).div(totalAllocPoint);\r\n            } else if (block.number <= phase2time) {\r\n                chillReward = multiplier.mul(blockPerPhase[1]).mul(pool.allocPoint).div(totalAllocPoint);\r\n            } else if (block.number <= phase3time) {\r\n                chillReward = multiplier.mul(blockPerPhase[2]).mul(pool.allocPoint).div(totalAllocPoint);\r\n            } else if (block.number <= phase4time) {\r\n                chillReward = multiplier.mul(blockPerPhase[3]).mul(pool.allocPoint).div(totalAllocPoint);\r\n            } else {\r\n                chillReward = multiplier.mul(blockPerPhase[4]).mul(pool.allocPoint).div(totalAllocPoint);\r\n            }\r\n            accChillPerShare = accChillPerShare.add(chillReward.mul(1e12).div(pool.totalPoolBalance));\r\n            pending =  user.amount.mul(accChillPerShare).div(1e12).sub(user.rewardDebt);\r\n            uint256 tax = deductTaxByBlock(getCrossMultiplier(user.startedBlock, block.number));\r\n            if (tax > 0) {\r\n                uint256 pendingTax = pending.mul(tax).div(100);\r\n                pending = pending.sub(pendingTax);\r\n            }\r\n        }\r\n        return pending;\r\n    }\r\n\r\n    // Return reward multiplier over the given _from to _to block.\r\n    function getMultiplier(uint256 _from, uint256 _to) public view returns (uint256) {\r\n        if (_to <= bonusEndBlock) {\r\n            return _to.sub(_from).mul(BONUS_MULTIPLIER);\r\n        } else if (_from >= bonusEndBlock) {\r\n            return _to.sub(_from);\r\n        } else {\r\n            return bonusEndBlock.sub(_from).mul(BONUS_MULTIPLIER).add(\r\n                _to.sub(bonusEndBlock)\r\n            );\r\n        }\r\n    }\r\n\r\n    // Return reward multiplier over the given _from to _to block.\r\n    function getCrossMultiplier(uint256 _from, uint256 currentblock) public view returns (uint256) {\r\n        uint256 multiplier;\r\n        if (currentblock > _from) {\r\n            multiplier = currentblock.sub(_from);\r\n        } else {\r\n            multiplier = _from.sub(currentblock);\r\n        }\r\n        return multiplier;\r\n    }\r\n    \r\n    // get if nirvana\r\n    function getNirvanaStatus(uint256 _from) public view returns (uint256) {\r\n        uint256 multiplier = getCrossMultiplier(_from, block.number);\r\n        uint256 isNirvana = getTotalBlocksCovered(multiplier);\r\n        return isNirvana;\r\n    }\r\n    \r\n    // Set extra reward after each 8 hours(1920 block)\r\n    function getTotalBlocksCovered(uint256 _block) internal pure returns(uint256) {\r\n        if (_block >= 9600) {\r\n            return 50;\r\n        } else if (_block >= 7680) {\r\n            return 40;\r\n        } else if (_block >= 5760) {\r\n            return 30;\r\n        } else if (_block >= 3840) {\r\n            return 20;\r\n        } else if (_block >= 1920) {\r\n            return 10;\r\n        } else {\r\n            return 0;\r\n        }\r\n    }\r\n    \r\n    // Deduct tax if user withdraw before nirvana at different stage\r\n    function deductTaxByBlock(uint256 _block) internal pure returns(uint256) {\r\n        if (_block <= 1920) {\r\n            return 50;\r\n        } else if (_block <= 3840) {\r\n            return 40;\r\n        } else if (_block <= 5760) {\r\n            return 30;\r\n        } else if (_block <= 7680) {\r\n            return 20;\r\n        } else if (_block <= 9600) {\r\n            return 10;\r\n        }  else {\r\n            return 0;\r\n        }\r\n    }\r\n    \r\n    // Check if amount of lp tokens is less than $20000\r\n    function countStakeAmount(address _countPair, address _stablePair, uint256 _liquiditybalance) public view returns(uint256) {\r\n        return countEthAmount(_countPair, _stablePair, _liquiditybalance);\r\n    }\r\n    \r\n    function countEthAmount(address _countPair, address _stablePair, uint256 _liquiditybalance) internal view returns(uint256) {\r\n        address countToken0 = IUniswapV2Pair(_countPair).token0();\r\n        (uint112 countReserves0, uint112 countReserves1, ) = IUniswapV2Pair(_countPair).getReserves();\r\n        uint256 countTotalSupply = IERC20(_countPair).totalSupply();\r\n        uint256 ethAmount;\r\n        uint256 tokenbalance;\r\n\r\n        if(countTotalSupply > 0) {\r\n            if(countToken0 != 0xC02aaA39b223FE8D0A0e5C4F27eAD9083C756Cc2) {\r\n                tokenbalance = _liquiditybalance.mul(countReserves0).div(countTotalSupply);\r\n                ethAmount = UniswapV2Library.getAmountOut(tokenbalance, countReserves0, countReserves1);\r\n            } else {\r\n                tokenbalance = _liquiditybalance.mul(countReserves1).div(countTotalSupply);\r\n                ethAmount = UniswapV2Library.getAmountOut(tokenbalance, countReserves1, countReserves0);\r\n            }\r\n        } else {\r\n            return 0;\r\n        }\r\n        return countUsdtAmount(ethAmount, _stablePair);\r\n    }\r\n\r\n    function countUsdtAmount(uint256 ethAmount, address _stablePair) internal view returns(uint256) {\r\n        address usdttoken0 = IUniswapV2Pair(_stablePair).token0();\r\n        (uint112 stableReserves0, uint112 stableReserves1, ) = IUniswapV2Pair(_stablePair).getReserves();\r\n\r\n        uint256 stableOutAmount;\r\n        if (usdttoken0 == 0xC02aaA39b223FE8D0A0e5C4F27eAD9083C756Cc2) { // WETH Mainnet\r\n            stableOutAmount = UniswapV2Library.getAmountOut(getEthDivider(), stableReserves0, stableReserves1);\r\n        } else {\r\n            stableOutAmount = UniswapV2Library.getAmountOut(getEthDivider(), stableReserves1, stableReserves0);\r\n        }\r\n        uint256 totalAmount = ((ethAmount.div(getEthDivider())).mul(stableOutAmount.div(getStableDivider()))).mul(2);\r\n        return totalAmount;\r\n    }\r\n    \r\n    // Safe chill transfer function, just in case if rounding error causes pool to not have enough CHILLs.\r\n    function safeChillTransfer(address _to, uint256 _amount) internal {\r\n        uint256 chillBal = chill.balanceOf(address(this));\r\n        if (_amount > chillBal) {\r\n            chill.transfer(_to, chillBal);\r\n        } else {\r\n            chill.transfer(_to, _amount);\r\n        }\r\n    }\r\n    \r\n    // if specific lp pool is supported in uniswap uni pool the deposited lp token in chill finance will again deposit in uni pool and earn double reward in uni token\r\n    // and owner can withdraw extra reward from uni pool\r\n    function getUniReward(address _stakeAddress) public onlyOwner {\r\n        IUniStakingRewards(_stakeAddress).getReward();\r\n    }\r\n    \r\n    // extra uni reward only access by distributor\r\n    // distributor can be single user or any other contracts as well \r\n    function accessReward(address _uniAddress, address _to, uint256 _amount) public isDistributor(msg.sender) {\r\n        require(_amount <= IERC20(_uniAddress).balanceOf(address(this)), \"Not Enough Uni Token Balance\");\r\n        require(_to != address(0), \"Not Vaild Address\");\r\n        IERC20(_uniAddress).safeTransfer(_to, _amount);\r\n    }\r\n    \r\n    // withdraw extra uni reward and lp token as well from uni pool\r\n    function getUniRewardAndExit(address _stakeAddress) public onlyOwner {\r\n        IUniStakingRewards(_stakeAddress).exit();\r\n    }\r\n    \r\n    // to give support to specific pool to deposit again in uni pool to generate extra reward in uni token \r\n    function addStakeUniPool(address _uniV2Pool, address _stakingRewardAddress) public onlyOwner {\r\n        require(!stakingUniPools[_uniV2Pool], \"This pool is already exist.\");\r\n        uint256 _amount = IERC20(_uniV2Pool).balanceOf(address(this));\r\n        if(_amount > 0) {\r\n            stakeInUni(_amount, address(_uniV2Pool), address(_stakingRewardAddress));\r\n        }\r\n        stakingUniPools[_uniV2Pool] = true;\r\n        uniRewardAddresses[_uniV2Pool] = _stakingRewardAddress;\r\n    }\r\n\r\n    // to remove support of uni pool for specific pool\r\n    function removeStakeUniPool(address _uniV2Pool) public onlyOwner {\r\n        require(stakingUniPools[_uniV2Pool], \"This pool is not exist.\");\r\n        uint256 _amount = IUniStakingRewards(uniRewardAddresses[address(_uniV2Pool)]).balanceOf(address(this));\r\n        if (_amount > 0) {\r\n            IUniStakingRewards(uniRewardAddresses[address(_uniV2Pool)]).withdraw(_amount);\r\n        }\r\n        stakingUniPools[_uniV2Pool] = false;\r\n        uniRewardAddresses[_uniV2Pool] = address(0);\r\n    }\r\n    \r\n    // dev adderess can only change by dev\r\n    function dev(address _devaddr, uint256 _devFee, uint256 _devTaxFee) public {\r\n        require(msg.sender == devaddr, \"dev adddress is not valid\");\r\n        devaddr = _devaddr;\r\n        DEV_FEE = _devFee;\r\n        DEV_TAX_FEE = _devTaxFee;\r\n    }\r\n\r\n    // to set flag for count $20000 worth asset for specific pool\r\n    function setCheckInitialPeriod(uint256 _pid, bool _isCheck) public onlyOwner {\r\n        isCheckInitialPeriod[_pid] = _isCheck;\r\n    }\r\n\r\n    // to set flag for count $20000 worth asset for all pool\r\n    function setCheckInitialPeriodAllPool(bool _isCheck) public onlyOwner {\r\n        uint256 length = poolInfo.length;\r\n        for (uint256 pid = 0; pid < length; ++pid) {\r\n            isCheckInitialPeriod[pid] = _isCheck;\r\n        }\r\n    }\r\n\r\n    // to get flag is enabled for to check is asset is worth of $20000\r\n    function getCheckInitialPeriod(uint256 _pid) public view returns(bool) {\r\n        return isCheckInitialPeriod[_pid];\r\n    }\r\n\r\n    // to set any stable reference address to caluclate $20000\r\n    // usdt pair has 6 decimals so divider will be 1000000 or 1e6 \r\n    function setStablePairAddress(address _stablePair, uint256 _stableDivider) public onlyOwner {\r\n        stablePair = _stablePair;\r\n        stableDivider = _stableDivider;\r\n    }\r\n\r\n    // to get stable pair\r\n    function getStablePairAddress() public view returns(address) {\r\n        return stablePair;\r\n    }\r\n\r\n    // to get stable devider\r\n    function getStableDivider() public view returns(uint256) {\r\n        return stableDivider;\r\n    }\r\n    \r\n    // to set stable eth divider like 1e18\r\n    function setEthDivider(uint256 _ethDivider) public onlyOwner {\r\n        ethDivider = _ethDivider;\r\n    }\r\n\r\n    // to get stable eth divider \r\n    function getEthDivider() public view returns(uint256) {\r\n        return ethDivider;\r\n    }\r\n\r\n    // set chill per block for particular phase\r\n    function setBlockPerPhaseByIndex(uint256 _index, uint256 _chillPerBlock) public onlyOwner {\r\n        blockPerPhase[_index] = _chillPerBlock;\r\n    }\r\n\r\n    // get chill per block for particular phase\r\n    function getBlockPerPhaseByIndex(uint256 _index) public view returns(uint256) {\r\n        return blockPerPhase[_index];\r\n    }\r\n\r\n    // increase any phase time by its index\r\n    function setAndEditPhaseTime(uint256 _index, uint256 _time) public onlyOwner {\r\n        if(_index == 0) {\r\n            phase1time = phase1time.add(_time);\r\n        } else if(_index == 1) {\r\n            phase2time = phase2time.add(_time);\r\n        } else if(_index == 2) {\r\n            phase3time = phase3time.add(_time);\r\n        } else if(_index == 3) {\r\n            phase4time = phase4time.add(_time);\r\n        } else if(_index == 4) {\r\n            phase5time = phase5time.add(_time);\r\n        }\r\n    }\r\n\r\n    // get current phase with its chill per block\r\n    function getPhaseTimeAndBlocks() public view returns(uint256, uint256) {\r\n        if (block.number <= phase1time) {\r\n            return ( phase1time, blockPerPhase[0] );\r\n        } else if (block.number <= phase2time) {\r\n            return ( phase2time, blockPerPhase[1] );\r\n        } else if (block.number <= phase3time) {\r\n            return ( phase3time, blockPerPhase[2] );\r\n        } else if (block.number <= phase4time) {\r\n            return ( phase4time, blockPerPhase[3] );\r\n        } else {\r\n            return ( phase5time, blockPerPhase[4] );\r\n        }\r\n    }\r\n\r\n    // to set reward distibutor for extra uni token\r\n    function setRewardDistributor(address _distributor, bool _isdistributor) public onlyOwner {\r\n        distributors[_distributor] = _isdistributor;\r\n    }\r\n}\r\n ",
  "sourcePath": "C:/AComputer/freelancer/formefreelance/chillfinance/chill_backend/contracts/chill/ChillFinance.sol",
  "compiler": {
    "name": "solc",
    "version": "0.6.12+commit.27d51765.Emscripten.clang"
  },
  "schemaVersion": "3.3.2",
  "updatedAt": "2020-11-09T04:02:59.706Z",
  "devdoc": {
    "kind": "dev",
    "methods": {
      "owner()": {
        "details": "Returns the address of the current owner."
      },
      "renounceOwnership()": {
        "details": "Leaves the contract without owner. It will not be possible to call `onlyOwner` functions anymore. Can only be called by the current owner. NOTE: Renouncing ownership will leave the contract without an owner, thereby removing any functionality that is only available to the owner."
      },
      "transferOwnership(address)": {
        "details": "Transfers ownership of the contract to a new account (`newOwner`). Can only be called by the current owner."
      }
    },
    "version": 1
  },
  "userdoc": {
    "kind": "user",
    "methods": {},
    "version": 1
  }
}