{
  "contractName": "ChillFinance",
  "abi": [
    {
      "inputs": [
        {
          "internalType": "contract ChillToken",
          "name": "_chill",
          "type": "address"
        },
        {
          "internalType": "address",
          "name": "_devaddr",
          "type": "address"
        },
        {
          "internalType": "address",
          "name": "_stablePair",
          "type": "address"
        }
      ],
      "stateMutability": "nonpayable",
      "type": "constructor"
    },
    {
      "anonymous": false,
      "inputs": [
        {
          "indexed": true,
          "internalType": "address",
          "name": "user",
          "type": "address"
        },
        {
          "indexed": true,
          "internalType": "uint256",
          "name": "pid",
          "type": "uint256"
        },
        {
          "indexed": false,
          "internalType": "uint256",
          "name": "amount",
          "type": "uint256"
        }
      ],
      "name": "Deposit",
      "type": "event"
    },
    {
      "anonymous": false,
      "inputs": [
        {
          "indexed": true,
          "internalType": "address",
          "name": "user",
          "type": "address"
        },
        {
          "indexed": true,
          "internalType": "uint256",
          "name": "pid",
          "type": "uint256"
        },
        {
          "indexed": false,
          "internalType": "uint256",
          "name": "amount",
          "type": "uint256"
        }
      ],
      "name": "EmergencyWithdraw",
      "type": "event"
    },
    {
      "anonymous": false,
      "inputs": [
        {
          "indexed": true,
          "internalType": "address",
          "name": "previousOwner",
          "type": "address"
        },
        {
          "indexed": true,
          "internalType": "address",
          "name": "newOwner",
          "type": "address"
        }
      ],
      "name": "OwnershipTransferred",
      "type": "event"
    },
    {
      "anonymous": false,
      "inputs": [
        {
          "indexed": true,
          "internalType": "address",
          "name": "user",
          "type": "address"
        },
        {
          "indexed": true,
          "internalType": "uint256",
          "name": "pid",
          "type": "uint256"
        },
        {
          "indexed": false,
          "internalType": "uint256",
          "name": "amount",
          "type": "uint256"
        }
      ],
      "name": "Withdraw",
      "type": "event"
    },
    {
      "inputs": [],
      "name": "BONUS_MULTIPLIER",
      "outputs": [
        {
          "internalType": "uint256",
          "name": "",
          "type": "uint256"
        }
      ],
      "stateMutability": "view",
      "type": "function"
    },
    {
      "inputs": [],
      "name": "DEV_FEE",
      "outputs": [
        {
          "internalType": "uint256",
          "name": "",
          "type": "uint256"
        }
      ],
      "stateMutability": "view",
      "type": "function"
    },
    {
      "inputs": [],
      "name": "DEV_TAX_FEE",
      "outputs": [
        {
          "internalType": "uint256",
          "name": "",
          "type": "uint256"
        }
      ],
      "stateMutability": "view",
      "type": "function"
    },
    {
      "inputs": [
        {
          "internalType": "uint256",
          "name": "",
          "type": "uint256"
        }
      ],
      "name": "blockPerPhase",
      "outputs": [
        {
          "internalType": "uint256",
          "name": "",
          "type": "uint256"
        }
      ],
      "stateMutability": "view",
      "type": "function"
    },
    {
      "inputs": [],
      "name": "bonusEndBlock",
      "outputs": [
        {
          "internalType": "uint256",
          "name": "",
          "type": "uint256"
        }
      ],
      "stateMutability": "view",
      "type": "function"
    },
    {
      "inputs": [],
      "name": "chill",
      "outputs": [
        {
          "internalType": "contract ChillToken",
          "name": "",
          "type": "address"
        }
      ],
      "stateMutability": "view",
      "type": "function"
    },
    {
      "inputs": [],
      "name": "devaddr",
      "outputs": [
        {
          "internalType": "address",
          "name": "",
          "type": "address"
        }
      ],
      "stateMutability": "view",
      "type": "function"
    },
    {
      "inputs": [
        {
          "internalType": "uint256",
          "name": "",
          "type": "uint256"
        }
      ],
      "name": "isCheckInitialPeriod",
      "outputs": [
        {
          "internalType": "bool",
          "name": "",
          "type": "bool"
        }
      ],
      "stateMutability": "view",
      "type": "function"
    },
    {
      "inputs": [
        {
          "internalType": "uint256",
          "name": "",
          "type": "uint256"
        },
        {
          "internalType": "address",
          "name": "",
          "type": "address"
        }
      ],
      "name": "isUserExist",
      "outputs": [
        {
          "internalType": "bool",
          "name": "",
          "type": "bool"
        }
      ],
      "stateMutability": "view",
      "type": "function"
    },
    {
      "inputs": [],
      "name": "owner",
      "outputs": [
        {
          "internalType": "address",
          "name": "",
          "type": "address"
        }
      ],
      "stateMutability": "view",
      "type": "function"
    },
    {
      "inputs": [],
      "name": "phase1time",
      "outputs": [
        {
          "internalType": "uint256",
          "name": "",
          "type": "uint256"
        }
      ],
      "stateMutability": "view",
      "type": "function"
    },
    {
      "inputs": [],
      "name": "phase2time",
      "outputs": [
        {
          "internalType": "uint256",
          "name": "",
          "type": "uint256"
        }
      ],
      "stateMutability": "view",
      "type": "function"
    },
    {
      "inputs": [],
      "name": "phase3time",
      "outputs": [
        {
          "internalType": "uint256",
          "name": "",
          "type": "uint256"
        }
      ],
      "stateMutability": "view",
      "type": "function"
    },
    {
      "inputs": [],
      "name": "phase4time",
      "outputs": [
        {
          "internalType": "uint256",
          "name": "",
          "type": "uint256"
        }
      ],
      "stateMutability": "view",
      "type": "function"
    },
    {
      "inputs": [],
      "name": "phase5time",
      "outputs": [
        {
          "internalType": "uint256",
          "name": "",
          "type": "uint256"
        }
      ],
      "stateMutability": "view",
      "type": "function"
    },
    {
      "inputs": [
        {
          "internalType": "uint256",
          "name": "",
          "type": "uint256"
        }
      ],
      "name": "poolInfo",
      "outputs": [
        {
          "internalType": "contract IERC20",
          "name": "lpToken",
          "type": "address"
        },
        {
          "internalType": "uint256",
          "name": "allocPoint",
          "type": "uint256"
        },
        {
          "internalType": "uint256",
          "name": "lastRewardBlock",
          "type": "uint256"
        },
        {
          "internalType": "uint256",
          "name": "accChillPerShare",
          "type": "uint256"
        },
        {
          "internalType": "uint256",
          "name": "totalPoolBalance",
          "type": "uint256"
        },
        {
          "internalType": "address",
          "name": "nirvanaRewardAddress",
          "type": "address"
        },
        {
          "internalType": "uint256",
          "name": "nirvanaFee",
          "type": "uint256"
        }
      ],
      "stateMutability": "view",
      "type": "function"
    },
    {
      "inputs": [
        {
          "internalType": "uint256",
          "name": "",
          "type": "uint256"
        },
        {
          "internalType": "uint256",
          "name": "",
          "type": "uint256"
        }
      ],
      "name": "poolUsers",
      "outputs": [
        {
          "internalType": "address",
          "name": "",
          "type": "address"
        }
      ],
      "stateMutability": "view",
      "type": "function"
    },
    {
      "inputs": [],
      "name": "renounceOwnership",
      "outputs": [],
      "stateMutability": "nonpayable",
      "type": "function"
    },
    {
      "inputs": [
        {
          "internalType": "address",
          "name": "",
          "type": "address"
        }
      ],
      "name": "stakingUniPools",
      "outputs": [
        {
          "internalType": "bool",
          "name": "",
          "type": "bool"
        }
      ],
      "stateMutability": "view",
      "type": "function"
    },
    {
      "inputs": [],
      "name": "startBlockOfChill",
      "outputs": [
        {
          "internalType": "uint256",
          "name": "",
          "type": "uint256"
        }
      ],
      "stateMutability": "view",
      "type": "function"
    },
    {
      "inputs": [],
      "name": "totalAllocPoint",
      "outputs": [
        {
          "internalType": "uint256",
          "name": "",
          "type": "uint256"
        }
      ],
      "stateMutability": "view",
      "type": "function"
    },
    {
      "inputs": [
        {
          "internalType": "address",
          "name": "newOwner",
          "type": "address"
        }
      ],
      "name": "transferOwnership",
      "outputs": [],
      "stateMutability": "nonpayable",
      "type": "function"
    },
    {
      "inputs": [
        {
          "internalType": "address",
          "name": "",
          "type": "address"
        }
      ],
      "name": "uniRewardAddresses",
      "outputs": [
        {
          "internalType": "address",
          "name": "",
          "type": "address"
        }
      ],
      "stateMutability": "view",
      "type": "function"
    },
    {
      "inputs": [
        {
          "internalType": "uint256",
          "name": "",
          "type": "uint256"
        },
        {
          "internalType": "address",
          "name": "",
          "type": "address"
        }
      ],
      "name": "userInfo",
      "outputs": [
        {
          "internalType": "uint256",
          "name": "amount",
          "type": "uint256"
        },
        {
          "internalType": "uint256",
          "name": "rewardDebt",
          "type": "uint256"
        },
        {
          "internalType": "uint256",
          "name": "startedBlock",
          "type": "uint256"
        }
      ],
      "stateMutability": "view",
      "type": "function"
    },
    {
      "inputs": [],
      "name": "poolLength",
      "outputs": [
        {
          "internalType": "uint256",
          "name": "",
          "type": "uint256"
        }
      ],
      "stateMutability": "view",
      "type": "function"
    },
    {
      "inputs": [
        {
          "internalType": "uint256",
          "name": "_pid",
          "type": "uint256"
        }
      ],
      "name": "userPoollength",
      "outputs": [
        {
          "internalType": "uint256",
          "name": "",
          "type": "uint256"
        }
      ],
      "stateMutability": "view",
      "type": "function"
    },
    {
      "inputs": [
        {
          "internalType": "uint256",
          "name": "_allocPoint",
          "type": "uint256"
        },
        {
          "internalType": "contract IERC20",
          "name": "_lpToken",
          "type": "address"
        },
        {
          "internalType": "bool",
          "name": "_withUpdate",
          "type": "bool"
        }
      ],
      "name": "add",
      "outputs": [],
      "stateMutability": "nonpayable",
      "type": "function"
    },
    {
      "inputs": [
        {
          "internalType": "uint256",
          "name": "_pid",
          "type": "uint256"
        },
        {
          "internalType": "uint256",
          "name": "_allocPoint",
          "type": "uint256"
        },
        {
          "internalType": "bool",
          "name": "_withUpdate",
          "type": "bool"
        }
      ],
      "name": "set",
      "outputs": [],
      "stateMutability": "nonpayable",
      "type": "function"
    },
    {
      "inputs": [
        {
          "internalType": "uint256",
          "name": "_pid",
          "type": "uint256"
        },
        {
          "internalType": "uint256",
          "name": "_nirvanaFee",
          "type": "uint256"
        },
        {
          "internalType": "address",
          "name": "_nirvanaRewardAddress",
          "type": "address"
        }
      ],
      "name": "setNirvanaDetails",
      "outputs": [],
      "stateMutability": "nonpayable",
      "type": "function"
    },
    {
      "inputs": [],
      "name": "massUpdatePools",
      "outputs": [],
      "stateMutability": "nonpayable",
      "type": "function"
    },
    {
      "inputs": [
        {
          "internalType": "uint256",
          "name": "_pid",
          "type": "uint256"
        },
        {
          "internalType": "uint256",
          "name": "_amount",
          "type": "uint256"
        }
      ],
      "name": "deposit",
      "outputs": [],
      "stateMutability": "nonpayable",
      "type": "function"
    },
    {
      "inputs": [
        {
          "internalType": "uint256",
          "name": "_pid",
          "type": "uint256"
        },
        {
          "internalType": "uint256",
          "name": "_amount",
          "type": "uint256"
        }
      ],
      "name": "withdraw",
      "outputs": [],
      "stateMutability": "nonpayable",
      "type": "function"
    },
    {
      "inputs": [
        {
          "internalType": "uint256",
          "name": "_pid",
          "type": "uint256"
        }
      ],
      "name": "updatePool",
      "outputs": [],
      "stateMutability": "nonpayable",
      "type": "function"
    },
    {
      "inputs": [],
      "name": "getBurnedDetails",
      "outputs": [
        {
          "internalType": "uint256",
          "name": "",
          "type": "uint256"
        },
        {
          "internalType": "uint256",
          "name": "",
          "type": "uint256"
        },
        {
          "internalType": "uint256",
          "name": "",
          "type": "uint256"
        },
        {
          "internalType": "uint256",
          "name": "",
          "type": "uint256"
        }
      ],
      "stateMutability": "view",
      "type": "function"
    },
    {
      "inputs": [
        {
          "internalType": "uint256",
          "name": "_pid",
          "type": "uint256"
        },
        {
          "internalType": "address",
          "name": "_user",
          "type": "address"
        }
      ],
      "name": "pendingChill",
      "outputs": [
        {
          "internalType": "uint256",
          "name": "",
          "type": "uint256"
        }
      ],
      "stateMutability": "view",
      "type": "function"
    },
    {
      "inputs": [
        {
          "internalType": "uint256",
          "name": "_from",
          "type": "uint256"
        },
        {
          "internalType": "uint256",
          "name": "_to",
          "type": "uint256"
        }
      ],
      "name": "getMultiplier",
      "outputs": [
        {
          "internalType": "uint256",
          "name": "",
          "type": "uint256"
        }
      ],
      "stateMutability": "view",
      "type": "function"
    },
    {
      "inputs": [
        {
          "internalType": "uint256",
          "name": "_from",
          "type": "uint256"
        },
        {
          "internalType": "uint256",
          "name": "currentblock",
          "type": "uint256"
        }
      ],
      "name": "getCrossMultiplier",
      "outputs": [
        {
          "internalType": "uint256",
          "name": "",
          "type": "uint256"
        }
      ],
      "stateMutability": "view",
      "type": "function"
    },
    {
      "inputs": [
        {
          "internalType": "uint256",
          "name": "_from",
          "type": "uint256"
        }
      ],
      "name": "getNirvanaStatus",
      "outputs": [
        {
          "internalType": "uint256",
          "name": "",
          "type": "uint256"
        }
      ],
      "stateMutability": "view",
      "type": "function"
    },
    {
      "inputs": [
        {
          "internalType": "address",
          "name": "_countPair",
          "type": "address"
        },
        {
          "internalType": "address",
          "name": "_stablePair",
          "type": "address"
        },
        {
          "internalType": "uint256",
          "name": "_liquiditybalance",
          "type": "uint256"
        }
      ],
      "name": "countStakeAmount",
      "outputs": [
        {
          "internalType": "uint256",
          "name": "",
          "type": "uint256"
        }
      ],
      "stateMutability": "view",
      "type": "function"
    },
    {
      "inputs": [
        {
          "internalType": "address",
          "name": "_stakeAddress",
          "type": "address"
        }
      ],
      "name": "getUniReward",
      "outputs": [],
      "stateMutability": "nonpayable",
      "type": "function"
    },
    {
      "inputs": [
        {
          "internalType": "address",
          "name": "_uniAddress",
          "type": "address"
        },
        {
          "internalType": "address",
          "name": "_to",
          "type": "address"
        },
        {
          "internalType": "uint256",
          "name": "_amount",
          "type": "uint256"
        }
      ],
      "name": "accessReward",
      "outputs": [],
      "stateMutability": "nonpayable",
      "type": "function"
    },
    {
      "inputs": [
        {
          "internalType": "address",
          "name": "_stakeAddress",
          "type": "address"
        }
      ],
      "name": "getUniRewardAndExit",
      "outputs": [],
      "stateMutability": "nonpayable",
      "type": "function"
    },
    {
      "inputs": [
        {
          "internalType": "address",
          "name": "_uniV2Pool",
          "type": "address"
        },
        {
          "internalType": "address",
          "name": "_stakingRewardAddress",
          "type": "address"
        }
      ],
      "name": "addStakeUniPool",
      "outputs": [],
      "stateMutability": "nonpayable",
      "type": "function"
    },
    {
      "inputs": [
        {
          "internalType": "address",
          "name": "_uniV2Pool",
          "type": "address"
        }
      ],
      "name": "removeStakeUniPool",
      "outputs": [],
      "stateMutability": "nonpayable",
      "type": "function"
    },
    {
      "inputs": [
        {
          "internalType": "address",
          "name": "_devaddr",
          "type": "address"
        },
        {
          "internalType": "uint256",
          "name": "_devFee",
          "type": "uint256"
        },
        {
          "internalType": "uint256",
          "name": "_devTaxFee",
          "type": "uint256"
        }
      ],
      "name": "dev",
      "outputs": [],
      "stateMutability": "nonpayable",
      "type": "function"
    },
    {
      "inputs": [
        {
          "internalType": "uint256",
          "name": "_pid",
          "type": "uint256"
        },
        {
          "internalType": "bool",
          "name": "_isCheck",
          "type": "bool"
        }
      ],
      "name": "setCheckInitialPeriod",
      "outputs": [],
      "stateMutability": "nonpayable",
      "type": "function"
    },
    {
      "inputs": [
        {
          "internalType": "bool",
          "name": "_isCheck",
          "type": "bool"
        }
      ],
      "name": "setCheckInitialPeriodAllPool",
      "outputs": [],
      "stateMutability": "nonpayable",
      "type": "function"
    },
    {
      "inputs": [
        {
          "internalType": "uint256",
          "name": "_pid",
          "type": "uint256"
        }
      ],
      "name": "getCheckInitialPeriod",
      "outputs": [
        {
          "internalType": "bool",
          "name": "",
          "type": "bool"
        }
      ],
      "stateMutability": "view",
      "type": "function"
    },
    {
      "inputs": [
        {
          "internalType": "address",
          "name": "_stablePair",
          "type": "address"
        },
        {
          "internalType": "uint256",
          "name": "_stableDivider",
          "type": "uint256"
        }
      ],
      "name": "setStablePairAddress",
      "outputs": [],
      "stateMutability": "nonpayable",
      "type": "function"
    },
    {
      "inputs": [],
      "name": "getStablePairAddress",
      "outputs": [
        {
          "internalType": "address",
          "name": "",
          "type": "address"
        }
      ],
      "stateMutability": "view",
      "type": "function"
    },
    {
      "inputs": [],
      "name": "getStableDivider",
      "outputs": [
        {
          "internalType": "uint256",
          "name": "",
          "type": "uint256"
        }
      ],
      "stateMutability": "view",
      "type": "function"
    },
    {
      "inputs": [
        {
          "internalType": "uint256",
          "name": "_ethDivider",
          "type": "uint256"
        }
      ],
      "name": "setEthDivider",
      "outputs": [],
      "stateMutability": "nonpayable",
      "type": "function"
    },
    {
      "inputs": [],
      "name": "getEthDivider",
      "outputs": [
        {
          "internalType": "uint256",
          "name": "",
          "type": "uint256"
        }
      ],
      "stateMutability": "view",
      "type": "function"
    },
    {
      "inputs": [
        {
          "internalType": "uint256",
          "name": "_index",
          "type": "uint256"
        },
        {
          "internalType": "uint256",
          "name": "_chillPerBlock",
          "type": "uint256"
        }
      ],
      "name": "setBlockPerPhaseByIndex",
      "outputs": [],
      "stateMutability": "nonpayable",
      "type": "function"
    },
    {
      "inputs": [
        {
          "internalType": "uint256",
          "name": "_index",
          "type": "uint256"
        }
      ],
      "name": "getBlockPerPhaseByIndex",
      "outputs": [
        {
          "internalType": "uint256",
          "name": "",
          "type": "uint256"
        }
      ],
      "stateMutability": "view",
      "type": "function"
    },
    {
      "inputs": [
        {
          "internalType": "uint256",
          "name": "_index",
          "type": "uint256"
        },
        {
          "internalType": "uint256",
          "name": "_time",
          "type": "uint256"
        }
      ],
      "name": "setAndEditPhaseTime",
      "outputs": [],
      "stateMutability": "nonpayable",
      "type": "function"
    },
    {
      "inputs": [],
      "name": "getPhaseTimeAndBlocks",
      "outputs": [
        {
          "internalType": "uint256",
          "name": "",
          "type": "uint256"
        },
        {
          "internalType": "uint256",
          "name": "",
          "type": "uint256"
        }
      ],
      "stateMutability": "view",
      "type": "function"
    },
    {
      "inputs": [
        {
          "internalType": "address",
          "name": "_distributor",
          "type": "address"
        },
        {
          "internalType": "bool",
          "name": "_isdistributor",
          "type": "bool"
        }
      ],
      "name": "setRewardDistributor",
      "outputs": [],
      "stateMutability": "nonpayable",
      "type": "function"
    }
  ],
  "bytecode": "0x60806040526000600355601460045560006007556000601a556000601b556000601c553480156200002f57600080fd5b506040516200621238038062006212833981810160405260608110156200005557600080fd5b8101908080519060200190929190805190602001909291908051906020019092919050505060006200008c6200043560201b60201c565b9050806000806101000a81548173ffffffffffffffffffffffffffffffffffffffff021916908373ffffffffffffffffffffffffffffffffffffffff1602179055508073ffffffffffffffffffffffffffffffffffffffff16600073ffffffffffffffffffffffffffffffffffffffff167f8be0079c531659141344cd1fd0a4f28419497f9722a3daafe3b4186f6b6457e060405160405180910390a35082600160006101000a81548173ffffffffffffffffffffffffffffffffffffffff021916908373ffffffffffffffffffffffffffffffffffffffff16021790555081600260006101000a81548173ffffffffffffffffffffffffffffffffffffffff021916908373ffffffffffffffffffffffffffffffffffffffff16021790555080601060006101000a81548173ffffffffffffffffffffffffffffffffffffffff021916908373ffffffffffffffffffffffffffffffffffffffff160217905550620002086000436200043d60201b620044c21790919060201c565b600881905550620002296000436200043d60201b620044c21790919060201c565b6006819055506200024b617080436200043d60201b620044c21790919060201c565b6011819055506012680410d586a20a4c00009080600181540180825580915050600190039060005260206000200160009091909190915055601268056bc75e2d63100000908060018154018082558091505060019003906000526020600020016000909190919091505560126802b5e3af16b18800009080600181540180825580915050600190039060005260206000200160009091909190915055601268015af1d78b58c4000090806001815401808255809150506001900390600052602060002001600090919091909150556012600090806001815401808255809150506001900390600052602060002001600090919091909150556200036062013b00436200043d60201b620044c21790919060201c565b601581905550620003836203de00436200043d60201b620044c21790919060201c565b601681905550620003a662068100436200043d60201b620044c21790919060201c565b601781905550620003c9620bc700436200043d60201b620044c21790919060201c565b601881905550620003ea6000436200043d60201b620044c21790919060201c565b6019819055506200040d62015180426200043d60201b620044c21790919060201c565b601d81905550620f4240601481905550670de0b6b3a7640000601381905550505050620004c6565b600033905090565b600080828401905083811015620004bc576040517f08c379a000000000000000000000000000000000000000000000000000000000815260040180806020018281038252601b8152602001807f536166654d6174683a206164646974696f6e206f766572666c6f77000000000081525060200191505060405180910390fd5b8091505092915050565b615d3c80620004d66000396000f3fe608060405234801561001057600080fd5b506004361061038e5760003560e01c806377559a60116101de578063b51b676c1161010f578063e074f6bd116100ad578063eed011391161007c578063eed011391461109b578063ef181294146110b9578063f2fde38b14611127578063ff3ab3c61461116b5761038e565b8063e074f6bd14610f8e578063e1b6b3d414610fda578063e2bbb1581461103e578063ebbb4627146110765761038e565b8063c4a9bf9f116100e9578063c4a9bf9f14610e82578063c8d2262014610edc578063ce7e939014610f16578063d49e77cd14610f5a5761038e565b8063b51b676c14610de4578063b74e5a4214610e02578063c24cdaff14610e645761038e565b80638e5844071161017c578063afa6d11e11610156578063afa6d11e14610d1e578063b15abece14610d62578063b236b4a214610d80578063b44e49f314610db45761038e565b80638e58440714610c7257806393f1a40b14610c90578063942d2ddf14610d005761038e565b80638aa28550116101b85780638aa2855014610b905780638c94e54914610bae5780638da5cb5b14610bf25780638dbb1e3a14610c265761038e565b806377559a6014610aa45780637e3c45e214610afc57806380e59f8d14610b405761038e565b80632c1b4b31116102c357806351eb05a61161026157806366aa11a71161023057806366aa11a714610a00578063715018a614610a38578063719175d514610a42578063746c10cd14610a605761038e565b806351eb05a61461092c5780635a70b3871461095a578063630b5ba1146109b257806364482f79146109bc5761038e565b8063441a3e701161029d578063441a3e701461082e57806348852fc414610866578063505a4c28146108a8578063506e72ce146108ea5761038e565b80632c1b4b311461076057806337edc9e8146107e2578063436a88c1146108105761038e565b8063192092e911610330578063271e48c81161030a578063271e48c814610642578063280ad59a1461067a578063289f6197146106c85780632b8a3ae61461072c5761038e565b8063192092e9146105975780631aed6553146105ca5780631eaaa045146105e85761038e565b80630f2b7cc91161036c5780630f2b7cc91461043d5780630f9040161461049f5780631526fe27146104e157806317caf6f1146105795761038e565b8063066e953414610393578063081e3eda146103b15780630c6c3856146103cf575b600080fd5b61039b611189565b6040518082815260200191505060405180910390f35b6103b961118f565b6040518082815260200191505060405180910390f35b610411600480360360208110156103e557600080fd5b81019080803573ffffffffffffffffffffffffffffffffffffffff16906020019092919050505061119c565b604051808273ffffffffffffffffffffffffffffffffffffffff16815260200191505060405180910390f35b6104736004803603604081101561045357600080fd5b8101908080359060200190929190803590602001909291905050506111cf565b604051808273ffffffffffffffffffffffffffffffffffffffff16815260200191505060405180910390f35b6104cb600480360360208110156104b557600080fd5b810190808035906020019092919050505061121a565b6040518082815260200191505060405180910390f35b61050d600480360360208110156104f757600080fd5b810190808035906020019092919050505061123b565b604051808873ffffffffffffffffffffffffffffffffffffffff1681526020018781526020018681526020018581526020018481526020018373ffffffffffffffffffffffffffffffffffffffff16815260200182815260200197505050505050505060405180910390f35b6105816112ca565b6040518082815260200191505060405180910390f35b61059f6112d0565b6040518085815260200184815260200183815260200182815260200194505050505060405180910390f35b6105d26112f0565b6040518082815260200191505060405180910390f35b610640600480360360608110156105fe57600080fd5b8101908080359060200190929190803573ffffffffffffffffffffffffffffffffffffffff1690602001909291908035151590602001909291905050506112f6565b005b6106786004803603604081101561065857600080fd5b810190808035906020019092919080359060200190929190505050611555565b005b6106c66004803603604081101561069057600080fd5b81019080803573ffffffffffffffffffffffffffffffffffffffff169060200190929190803590602001909291905050506116ee565b005b610714600480360360408110156106de57600080fd5b8101908080359060200190929190803573ffffffffffffffffffffffffffffffffffffffff169060200190929190505050611802565b60405180821515815260200191505060405180910390f35b610734611831565b604051808273ffffffffffffffffffffffffffffffffffffffff16815260200191505060405180910390f35b6107cc6004803603606081101561077657600080fd5b81019080803573ffffffffffffffffffffffffffffffffffffffff169060200190929190803573ffffffffffffffffffffffffffffffffffffffff16906020019092919080359060200190929190505050611857565b6040518082815260200191505060405180910390f35b61080e600480360360208110156107f857600080fd5b810190808035906020019092919050505061186d565b005b61081861193f565b6040518082815260200191505060405180910390f35b6108646004803603604081101561084457600080fd5b810190808035906020019092919080359060200190929190505050611945565b005b6108926004803603602081101561087c57600080fd5b8101908080359060200190929190505050611c90565b6040518082815260200191505060405180910390f35b6108d4600480360360208110156108be57600080fd5b8101908080359060200190929190505050611cb6565b6040518082815260200191505060405180910390f35b6109166004803603602081101561090057600080fd5b8101908080359060200190929190505050611cd7565b6040518082815260200191505060405180910390f35b6109586004803603602081101561094257600080fd5b8101908080359060200190929190505050611cf7565b005b6109b06004803603606081101561097057600080fd5b81019080803573ffffffffffffffffffffffffffffffffffffffff1690602001909291908035906020019092919080359060200190929190505050612156565b005b6109ba61226d565b005b6109fe600480360360608110156109d257600080fd5b81019080803590602001909291908035906020019092919080351515906020019092919050505061229a565b005b610a3660048036036040811015610a1657600080fd5b8101908080359060200190929190803590602001909291905050506123e4565b005b610a406124cc565b005b610a4a612652565b6040518082815260200191505060405180910390f35b610aa260048036036020811015610a7657600080fd5b81019080803573ffffffffffffffffffffffffffffffffffffffff169060200190929190505050612658565b005b610afa60048036036060811015610aba57600080fd5b810190808035906020019092919080359060200190929190803573ffffffffffffffffffffffffffffffffffffffff169060200190929190505050612783565b005b610b3e60048036036020811015610b1257600080fd5b81019080803573ffffffffffffffffffffffffffffffffffffffff1690602001909291905050506128d0565b005b610b8e60048036036040811015610b5657600080fd5b81019080803573ffffffffffffffffffffffffffffffffffffffff1690602001909291908035151590602001909291905050506129fb565b005b610b98612b1e565b6040518082815260200191505060405180910390f35b610bda60048036036020811015610bc457600080fd5b8101908080359060200190929190505050612b23565b60405180821515815260200191505060405180910390f35b610bfa612b4d565b604051808273ffffffffffffffffffffffffffffffffffffffff16815260200191505060405180910390f35b610c5c60048036036040811015610c3c57600080fd5b810190808035906020019092919080359060200190929190505050612b76565b6040518082815260200191505060405180910390f35b610c7a612c28565b6040518082815260200191505060405180910390f35b610cdc60048036036040811015610ca657600080fd5b8101908080359060200190929190803573ffffffffffffffffffffffffffffffffffffffff169060200190929190505050612c2e565b60405180848152602001838152602001828152602001935050505060405180910390f35b610d08612c65565b6040518082815260200191505060405180910390f35b610d6060048036036020811015610d3457600080fd5b81019080803573ffffffffffffffffffffffffffffffffffffffff169060200190929190505050612c6b565b005b610d6a6130a6565b6040518082815260200191505060405180910390f35b610d886130ac565b604051808273ffffffffffffffffffffffffffffffffffffffff16815260200191505060405180910390f35b610de260048036036020811015610dca57600080fd5b810190808035151590602001909291905050506130d6565b005b610dec6131ee565b6040518082815260200191505060405180910390f35b610e4e60048036036040811015610e1857600080fd5b8101908080359060200190929190803573ffffffffffffffffffffffffffffffffffffffff1690602001909291905050506131f4565b6040518082815260200191505060405180910390f35b610e6c613583565b6040518082815260200191505060405180910390f35b610ec460048036036020811015610e9857600080fd5b81019080803573ffffffffffffffffffffffffffffffffffffffff16906020019092919050505061358d565b60405180821515815260200191505060405180910390f35b610f1460048036036040811015610ef257600080fd5b81019080803590602001909291908035151590602001909291905050506135ad565b005b610f4260048036036020811015610f2c57600080fd5b81019080803590602001909291905050506136a4565b60405180821515815260200191505060405180910390f35b610f626136c4565b604051808273ffffffffffffffffffffffffffffffffffffffff16815260200191505060405180910390f35b610fc460048036036040811015610fa457600080fd5b8101908080359060200190929190803590602001909291905050506136ea565b6040518082815260200191505060405180910390f35b61103c60048036036040811015610ff057600080fd5b81019080803573ffffffffffffffffffffffffffffffffffffffff169060200190929190803573ffffffffffffffffffffffffffffffffffffffff16906020019092919050505061372f565b005b6110746004803603604081101561105457600080fd5b810190808035906020019092919080359060200190929190505050613a4d565b005b61107e613f85565b604051808381526020018281526020019250505060405180910390f35b6110a3614065565b6040518082815260200191505060405180910390f35b611125600480360360608110156110cf57600080fd5b81019080803573ffffffffffffffffffffffffffffffffffffffff169060200190929190803573ffffffffffffffffffffffffffffffffffffffff1690602001909291908035906020019092919050505061406b565b005b6111696004803603602081101561113d57600080fd5b81019080803573ffffffffffffffffffffffffffffffffffffffff1690602001909291905050506142ad565b005b6111736144b8565b6040518082815260200191505060405180910390f35b60155481565b6000600580549050905090565b600d6020528060005260406000206000915054906101000a900473ffffffffffffffffffffffffffffffffffffffff1681565b600a60205281600052604060002081815481106111e857fe5b906000526020600020016000915091509054906101000a900473ffffffffffffffffffffffffffffffffffffffff1681565b60006012828154811061122957fe5b90600052602060002001549050919050565b6005818154811061124857fe5b90600052602060002090600702016000915090508060000160009054906101000a900473ffffffffffffffffffffffffffffffffffffffff16908060010154908060020154908060030154908060040154908060050160009054906101000a900473ffffffffffffffffffffffffffffffffffffffff16908060060154905087565b60075481565b600080600080601a54601b54601c54601e54935093509350935090919293565b60065481565b6112fe61454a565b73ffffffffffffffffffffffffffffffffffffffff1660008054906101000a900473ffffffffffffffffffffffffffffffffffffffff1673ffffffffffffffffffffffffffffffffffffffff16146113be576040517f08c379a00000000000000000000000000000000000000000000000000000000081526004018080602001828103825260208152602001807f4f776e61626c653a2063616c6c6572206973206e6f7420746865206f776e657281525060200191505060405180910390fd5b80156113cd576113cc61226d565b5b600060085443116113e0576008546113e2565b435b90506113f9846007546144c290919063ffffffff16565b60078190555060056040518060e001604052808573ffffffffffffffffffffffffffffffffffffffff1681526020018681526020018381526020016000815260200160008152602001600073ffffffffffffffffffffffffffffffffffffffff1681526020016000815250908060018154018082558091505060019003906000526020600020906007020160009091909190915060008201518160000160006101000a81548173ffffffffffffffffffffffffffffffffffffffff021916908373ffffffffffffffffffffffffffffffffffffffff1602179055506020820151816001015560408201518160020155606082015181600301556080820151816004015560a08201518160050160006101000a81548173ffffffffffffffffffffffffffffffffffffffff021916908373ffffffffffffffffffffffffffffffffffffffff16021790555060c08201518160060155505050505050565b61155d61454a565b73ffffffffffffffffffffffffffffffffffffffff1660008054906101000a900473ffffffffffffffffffffffffffffffffffffffff1673ffffffffffffffffffffffffffffffffffffffff161461161d576040517f08c379a00000000000000000000000000000000000000000000000000000000081526004018080602001828103825260208152602001807f4f776e61626c653a2063616c6c6572206973206e6f7420746865206f776e657281525060200191505060405180910390fd5b60008214156116465761163b816015546144c290919063ffffffff16565b6015819055506116ea565b600182141561166f57611664816016546144c290919063ffffffff16565b6016819055506116e9565b60028214156116985761168d816017546144c290919063ffffffff16565b6017819055506116e8565b60038214156116c1576116b6816018546144c290919063ffffffff16565b6018819055506116e7565b60048214156116e6576116df816019546144c290919063ffffffff16565b6019819055505b5b5b5b5b5050565b6116f661454a565b73ffffffffffffffffffffffffffffffffffffffff1660008054906101000a900473ffffffffffffffffffffffffffffffffffffffff1673ffffffffffffffffffffffffffffffffffffffff16146117b6576040517f08c379a00000000000000000000000000000000000000000000000000000000081526004018080602001828103825260208152602001807f4f776e61626c653a2063616c6c6572206973206e6f7420746865206f776e657281525060200191505060405180910390fd5b81601060006101000a81548173ffffffffffffffffffffffffffffffffffffffff021916908373ffffffffffffffffffffffffffffffffffffffff160217905550806014819055505050565b600b6020528160005260406000206020528060005260406000206000915091509054906101000a900460ff1681565b600160009054906101000a900473ffffffffffffffffffffffffffffffffffffffff1681565b6000611864848484614552565b90509392505050565b61187561454a565b73ffffffffffffffffffffffffffffffffffffffff1660008054906101000a900473ffffffffffffffffffffffffffffffffffffffff1673ffffffffffffffffffffffffffffffffffffffff1614611935576040517f08c379a00000000000000000000000000000000000000000000000000000000081526004018080602001828103825260208152602001807f4f776e61626c653a2063616c6c6572206973206e6f7420746865206f776e657281525060200191505060405180910390fd5b8060138190555050565b60035481565b60006005838154811061195457fe5b9060005260206000209060070201905060006009600085815260200190815260200160002060003373ffffffffffffffffffffffffffffffffffffffff1673ffffffffffffffffffffffffffffffffffffffff16815260200190815260200160002090508281600001541015611a32576040517f08c379a00000000000000000000000000000000000000000000000000000000081526004018080602001828103825260158152602001807f7769746864726177206973206e6f742076616c6964000000000000000000000081525060200191505060405180910390fd5b6000816002015411611a48574381600201819055505b600c60008360000160009054906101000a900473ffffffffffffffffffffffffffffffffffffffff1673ffffffffffffffffffffffffffffffffffffffff1673ffffffffffffffffffffffffffffffffffffffff16815260200190815260200160002060009054906101000a900460ff168015611ac55750600083115b15611b5857611b57600d60008460000160009054906101000a900473ffffffffffffffffffffffffffffffffffffffff1673ffffffffffffffffffffffffffffffffffffffff1673ffffffffffffffffffffffffffffffffffffffff16815260200190815260200160002060009054906101000a900473ffffffffffffffffffffffffffffffffffffffff1684614849565b5b611b6184611cf7565b611b6b82826148b8565b611b82838260000154614c5990919063ffffffff16565b8160000181905550611bbc64e8d4a51000611bae84600301548460000154614ca390919063ffffffff16565b614d2990919063ffffffff16565b8160010181905550438160020181905550611be4838360040154614c5990919063ffffffff16565b8260040181905550611c3b33848460000160009054906101000a900473ffffffffffffffffffffffffffffffffffffffff1673ffffffffffffffffffffffffffffffffffffffff16614d739092919063ffffffff16565b833373ffffffffffffffffffffffffffffffffffffffff167ff279e6a1f5e320cca91135676d9cb6e44ca8a08c0b88342bcdb1144f6511b568856040518082815260200191505060405180910390a350505050565b600080611c9d83436136ea565b90506000611caa82614e15565b90508092505050919050565b60128181548110611cc357fe5b906000526020600020016000915090505481565b6000600a6000838152602001908152602001600020805490509050919050565b600060058281548110611d0657fe5b9060005260206000209060070201905080600201544311611d275750612153565b600081600401541415611d435743816002018190555050612153565b600080611d54836002015443612b76565b90506015544311611dbb57611db4600754611da68560010154611d986012600081548110611d7e57fe5b906000526020600020015486614ca390919063ffffffff16565b614ca390919063ffffffff16565b614d2990919063ffffffff16565b9150611f45565b6016544311611e2057611e19600754611e0b8560010154611dfd6012600181548110611de357fe5b906000526020600020015486614ca390919063ffffffff16565b614ca390919063ffffffff16565b614d2990919063ffffffff16565b9150611f44565b6017544311611e8557611e7e600754611e708560010154611e626012600281548110611e4857fe5b906000526020600020015486614ca390919063ffffffff16565b614ca390919063ffffffff16565b614d2990919063ffffffff16565b9150611f43565b6018544311611eea57611ee3600754611ed58560010154611ec76012600381548110611ead57fe5b906000526020600020015486614ca390919063ffffffff16565b614ca390919063ffffffff16565b614d2990919063ffffffff16565b9150611f42565b611f3f600754611f318560010154611f236012600481548110611f0957fe5b906000526020600020015486614ca390919063ffffffff16565b614ca390919063ffffffff16565b614d2990919063ffffffff16565b91505b5b5b5b60008211156120fa576000600354111561204e57600160009054906101000a900473ffffffffffffffffffffffffffffffffffffffff1673ffffffffffffffffffffffffffffffffffffffff166340c10f19600260009054906101000a900473ffffffffffffffffffffffffffffffffffffffff16611fe26064611fd460035488614ca390919063ffffffff16565b614d2990919063ffffffff16565b6040518363ffffffff1660e01b8152600401808373ffffffffffffffffffffffffffffffffffffffff16815260200182815260200192505050600060405180830381600087803b15801561203557600080fd5b505af1158015612049573d6000803e3d6000fd5b505050505b600160009054906101000a900473ffffffffffffffffffffffffffffffffffffffff1673ffffffffffffffffffffffffffffffffffffffff166340c10f1930846040518363ffffffff1660e01b8152600401808373ffffffffffffffffffffffffffffffffffffffff16815260200182815260200192505050600060405180830381600087803b1580156120e157600080fd5b505af11580156120f5573d6000803e3d6000fd5b505050505b61213e61212b846004015461211d64e8d4a5100086614ca390919063ffffffff16565b614d2990919063ffffffff16565b84600301546144c290919063ffffffff16565b83600301819055504383600201819055505050505b50565b600260009054906101000a900473ffffffffffffffffffffffffffffffffffffffff1673ffffffffffffffffffffffffffffffffffffffff163373ffffffffffffffffffffffffffffffffffffffff1614612219576040517f08c379a00000000000000000000000000000000000000000000000000000000081526004018080602001828103825260198152602001807f646576206164646472657373206973206e6f742076616c69640000000000000081525060200191505060405180910390fd5b82600260006101000a81548173ffffffffffffffffffffffffffffffffffffffff021916908373ffffffffffffffffffffffffffffffffffffffff1602179055508160038190555080600481905550505050565b6000600580549050905060005b818110156122965761228b81611cf7565b80600101905061227a565b5050565b6122a261454a565b73ffffffffffffffffffffffffffffffffffffffff1660008054906101000a900473ffffffffffffffffffffffffffffffffffffffff1673ffffffffffffffffffffffffffffffffffffffff1614612362576040517f08c379a00000000000000000000000000000000000000000000000000000000081526004018080602001828103825260208152602001807f4f776e61626c653a2063616c6c6572206973206e6f7420746865206f776e657281525060200191505060405180910390fd5b80156123715761237061226d565b5b6123b6826123a86005868154811061238557fe5b906000526020600020906007020160010154600754614c5990919063ffffffff16565b6144c290919063ffffffff16565b60078190555081600584815481106123ca57fe5b906000526020600020906007020160010181905550505050565b6123ec61454a565b73ffffffffffffffffffffffffffffffffffffffff1660008054906101000a900473ffffffffffffffffffffffffffffffffffffffff1673ffffffffffffffffffffffffffffffffffffffff16146124ac576040517f08c379a00000000000000000000000000000000000000000000000000000000081526004018080602001828103825260208152602001807f4f776e61626c653a2063616c6c6572206973206e6f7420746865206f776e657281525060200191505060405180910390fd5b80601283815481106124ba57fe5b90600052602060002001819055505050565b6124d461454a565b73ffffffffffffffffffffffffffffffffffffffff1660008054906101000a900473ffffffffffffffffffffffffffffffffffffffff1673ffffffffffffffffffffffffffffffffffffffff1614612594576040517f08c379a00000000000000000000000000000000000000000000000000000000081526004018080602001828103825260208152602001807f4f776e61626c653a2063616c6c6572206973206e6f7420746865206f776e657281525060200191505060405180910390fd5b600073ffffffffffffffffffffffffffffffffffffffff1660008054906101000a900473ffffffffffffffffffffffffffffffffffffffff1673ffffffffffffffffffffffffffffffffffffffff167f8be0079c531659141344cd1fd0a4f28419497f9722a3daafe3b4186f6b6457e060405160405180910390a360008060006101000a81548173ffffffffffffffffffffffffffffffffffffffff021916908373ffffffffffffffffffffffffffffffffffffffff160217905550565b60195481565b61266061454a565b73ffffffffffffffffffffffffffffffffffffffff1660008054906101000a900473ffffffffffffffffffffffffffffffffffffffff1673ffffffffffffffffffffffffffffffffffffffff1614612720576040517f08c379a00000000000000000000000000000000000000000000000000000000081526004018080602001828103825260208152602001807f4f776e61626c653a2063616c6c6572206973206e6f7420746865206f776e657281525060200191505060405180910390fd5b8073ffffffffffffffffffffffffffffffffffffffff1663e9fad8ee6040518163ffffffff1660e01b8152600401600060405180830381600087803b15801561276857600080fd5b505af115801561277c573d6000803e3d6000fd5b5050505050565b61278b61454a565b73ffffffffffffffffffffffffffffffffffffffff1660008054906101000a900473ffffffffffffffffffffffffffffffffffffffff1673ffffffffffffffffffffffffffffffffffffffff161461284b576040517f08c379a00000000000000000000000000000000000000000000000000000000081526004018080602001828103825260208152602001807f4f776e61626c653a2063616c6c6572206973206e6f7420746865206f776e657281525060200191505060405180910390fd5b806005848154811061285957fe5b906000526020600020906007020160050160006101000a81548173ffffffffffffffffffffffffffffffffffffffff021916908373ffffffffffffffffffffffffffffffffffffffff16021790555081600584815481106128b657fe5b906000526020600020906007020160060181905550505050565b6128d861454a565b73ffffffffffffffffffffffffffffffffffffffff1660008054906101000a900473ffffffffffffffffffffffffffffffffffffffff1673ffffffffffffffffffffffffffffffffffffffff1614612998576040517f08c379a00000000000000000000000000000000000000000000000000000000081526004018080602001828103825260208152602001807f4f776e61626c653a2063616c6c6572206973206e6f7420746865206f776e657281525060200191505060405180910390fd5b8073ffffffffffffffffffffffffffffffffffffffff16633d18b9126040518163ffffffff1660e01b8152600401600060405180830381600087803b1580156129e057600080fd5b505af11580156129f4573d6000803e3d6000fd5b5050505050565b612a0361454a565b73ffffffffffffffffffffffffffffffffffffffff1660008054906101000a900473ffffffffffffffffffffffffffffffffffffffff1673ffffffffffffffffffffffffffffffffffffffff1614612ac3576040517f08c379a00000000000000000000000000000000000000000000000000000000081526004018080602001828103825260208152602001807f4f776e61626c653a2063616c6c6572206973206e6f7420746865206f776e657281525060200191505060405180910390fd5b80600f60008473ffffffffffffffffffffffffffffffffffffffff1673ffffffffffffffffffffffffffffffffffffffff16815260200190815260200160002060006101000a81548160ff0219169083151502179055505050565b600a81565b6000600e600083815260200190815260200160002060009054906101000a900460ff169050919050565b60008060009054906101000a900473ffffffffffffffffffffffffffffffffffffffff16905090565b60006006548211612bae57612ba7600a612b998585614c5990919063ffffffff16565b614ca390919063ffffffff16565b9050612c22565b6006548310612bd157612bca8383614c5990919063ffffffff16565b9050612c22565b612c1f612be960065484614c5990919063ffffffff16565b612c11600a612c0387600654614c5990919063ffffffff16565b614ca390919063ffffffff16565b6144c290919063ffffffff16565b90505b92915050565b60185481565b6009602052816000526040600020602052806000526040600020600091509150508060000154908060010154908060020154905083565b60175481565b612c7361454a565b73ffffffffffffffffffffffffffffffffffffffff1660008054906101000a900473ffffffffffffffffffffffffffffffffffffffff1673ffffffffffffffffffffffffffffffffffffffff1614612d33576040517f08c379a00000000000000000000000000000000000000000000000000000000081526004018080602001828103825260208152602001807f4f776e61626c653a2063616c6c6572206973206e6f7420746865206f776e657281525060200191505060405180910390fd5b600c60008273ffffffffffffffffffffffffffffffffffffffff1673ffffffffffffffffffffffffffffffffffffffff16815260200190815260200160002060009054906101000a900460ff16612df2576040517f08c379a00000000000000000000000000000000000000000000000000000000081526004018080602001828103825260178152602001807f5468697320706f6f6c206973206e6f742065786973742e00000000000000000081525060200191505060405180910390fd5b6000600d60008373ffffffffffffffffffffffffffffffffffffffff1673ffffffffffffffffffffffffffffffffffffffff16815260200190815260200160002060009054906101000a900473ffffffffffffffffffffffffffffffffffffffff1673ffffffffffffffffffffffffffffffffffffffff166370a08231306040518263ffffffff1660e01b8152600401808273ffffffffffffffffffffffffffffffffffffffff16815260200191505060206040518083038186803b158015612eba57600080fd5b505afa158015612ece573d6000803e3d6000fd5b505050506040513d6020811015612ee457600080fd5b810190808051906020019092919050505090506000811115612fcb57600d60008373ffffffffffffffffffffffffffffffffffffffff1673ffffffffffffffffffffffffffffffffffffffff16815260200190815260200160002060009054906101000a900473ffffffffffffffffffffffffffffffffffffffff1673ffffffffffffffffffffffffffffffffffffffff16632e1a7d4d826040518263ffffffff1660e01b815260040180828152602001915050600060405180830381600087803b158015612fb257600080fd5b505af1158015612fc6573d6000803e3d6000fd5b505050505b6000600c60008473ffffffffffffffffffffffffffffffffffffffff1673ffffffffffffffffffffffffffffffffffffffff16815260200190815260200160002060006101000a81548160ff0219169083151502179055506000600d60008473ffffffffffffffffffffffffffffffffffffffff1673ffffffffffffffffffffffffffffffffffffffff16815260200190815260200160002060006101000a81548173ffffffffffffffffffffffffffffffffffffffff021916908373ffffffffffffffffffffffffffffffffffffffff1602179055505050565b60165481565b6000601060009054906101000a900473ffffffffffffffffffffffffffffffffffffffff16905090565b6130de61454a565b73ffffffffffffffffffffffffffffffffffffffff1660008054906101000a900473ffffffffffffffffffffffffffffffffffffffff1673ffffffffffffffffffffffffffffffffffffffff161461319e576040517f08c379a00000000000000000000000000000000000000000000000000000000081526004018080602001828103825260208152602001807f4f776e61626c653a2063616c6c6572206973206e6f7420746865206f776e657281525060200191505060405180910390fd5b6000600580549050905060005b818110156131e95782600e600083815260200190815260200160002060006101000a81548160ff0219169083151502179055508060010190506131ab565b505050565b60045481565b6000806005848154811061320457fe5b9060005260206000209060070201905060006009600086815260200190815260200160002060008573ffffffffffffffffffffffffffffffffffffffff1673ffffffffffffffffffffffffffffffffffffffff1681526020019081526020016000209050600080836003015490506000846004015490506000811461357557600080613294876002015443612b76565b905060155443116132fb576132f46007546132e689600101546132d860126000815481106132be57fe5b906000526020600020015486614ca390919063ffffffff16565b614ca390919063ffffffff16565b614d2990919063ffffffff16565b9150613485565b60165443116133605761335960075461334b896001015461333d601260018154811061332357fe5b906000526020600020015486614ca390919063ffffffff16565b614ca390919063ffffffff16565b614d2990919063ffffffff16565b9150613484565b60175443116133c5576133be6007546133b089600101546133a2601260028154811061338857fe5b906000526020600020015486614ca390919063ffffffff16565b614ca390919063ffffffff16565b614d2990919063ffffffff16565b9150613483565b601854431161342a57613423600754613415896001015461340760126003815481106133ed57fe5b906000526020600020015486614ca390919063ffffffff16565b614ca390919063ffffffff16565b614d2990919063ffffffff16565b9150613482565b61347f6007546134718960010154613463601260048154811061344957fe5b906000526020600020015486614ca390919063ffffffff16565b614ca390919063ffffffff16565b614d2990919063ffffffff16565b91505b5b5b5b6134c56134b688600401546134a864e8d4a5100086614ca390919063ffffffff16565b614d2990919063ffffffff16565b856144c290919063ffffffff16565b935061350b86600101546134fd64e8d4a510006134ef888b60000154614ca390919063ffffffff16565b614d2990919063ffffffff16565b614c5990919063ffffffff16565b945060006135256135208860020154436136ea565b614e7b565b90506000811115613571576000613558606461354a848a614ca390919063ffffffff16565b614d2990919063ffffffff16565b905061356d8188614c5990919063ffffffff16565b9650505b5050505b829550505050505092915050565b6000601454905090565b600c6020528060005260406000206000915054906101000a900460ff1681565b6135b561454a565b73ffffffffffffffffffffffffffffffffffffffff1660008054906101000a900473ffffffffffffffffffffffffffffffffffffffff1673ffffffffffffffffffffffffffffffffffffffff1614613675576040517f08c379a00000000000000000000000000000000000000000000000000000000081526004018080602001828103825260208152602001807f4f776e61626c653a2063616c6c6572206973206e6f7420746865206f776e657281525060200191505060405180910390fd5b80600e600084815260200190815260200160002060006101000a81548160ff0219169083151502179055505050565b600e6020528060005260406000206000915054906101000a900460ff1681565b600260009054906101000a900473ffffffffffffffffffffffffffffffffffffffff1681565b6000808383111561370f576137088484614c5990919063ffffffff16565b9050613725565b6137228385614c5990919063ffffffff16565b90505b8091505092915050565b61373761454a565b73ffffffffffffffffffffffffffffffffffffffff1660008054906101000a900473ffffffffffffffffffffffffffffffffffffffff1673ffffffffffffffffffffffffffffffffffffffff16146137f7576040517f08c379a00000000000000000000000000000000000000000000000000000000081526004018080602001828103825260208152602001807f4f776e61626c653a2063616c6c6572206973206e6f7420746865206f776e657281525060200191505060405180910390fd5b600c60008373ffffffffffffffffffffffffffffffffffffffff1673ffffffffffffffffffffffffffffffffffffffff16815260200190815260200160002060009054906101000a900460ff16156138b7576040517f08c379a000000000000000000000000000000000000000000000000000000000815260040180806020018281038252601b8152602001807f5468697320706f6f6c20697320616c72656164792065786973742e000000000081525060200191505060405180910390fd5b60008273ffffffffffffffffffffffffffffffffffffffff166370a08231306040518263ffffffff1660e01b8152600401808273ffffffffffffffffffffffffffffffffffffffff16815260200191505060206040518083038186803b15801561392057600080fd5b505afa158015613934573d6000803e3d6000fd5b505050506040513d602081101561394a57600080fd5b81019080805190602001909291905050509050600081111561397257613971818484614ee1565b5b6001600c60008573ffffffffffffffffffffffffffffffffffffffff1673ffffffffffffffffffffffffffffffffffffffff16815260200190815260200160002060006101000a81548160ff02191690831515021790555081600d60008573ffffffffffffffffffffffffffffffffffffffff1673ffffffffffffffffffffffffffffffffffffffff16815260200190815260200160002060006101000a81548173ffffffffffffffffffffffffffffffffffffffff021916908373ffffffffffffffffffffffffffffffffffffffff160217905550505050565b600060058381548110613a5c57fe5b9060005260206000209060070201905060006009600085815260200190815260200160002060003373ffffffffffffffffffffffffffffffffffffffff1673ffffffffffffffffffffffffffffffffffffffff1681526020019081526020016000209050600e600085815260200190815260200160002060009054906101000a900460ff1615613bb2576011544311613b8457614e20613b288360000160009054906101000a900473ffffffffffffffffffffffffffffffffffffffff16613b226130ac565b86611857565b1115613b7f576040517f08c379a0000000000000000000000000000000000000000000000000000000008152600401808060200182810382526033815260200180615c366033913960400191505060405180910390fd5b613bb1565b6000600e600086815260200190815260200160002060006101000a81548160ff0219169083151502179055505b5b6000816002015411613bc8574381600201819055505b613bd184611cf7565b600081600001541115613be957613be882826148b8565b5b613c3a3330858560000160009054906101000a900473ffffffffffffffffffffffffffffffffffffffff1673ffffffffffffffffffffffffffffffffffffffff16614ffe909392919063ffffffff16565b613c518383600401546144c290919063ffffffff16565b8260040181905550613c708382600001546144c290919063ffffffff16565b8160000181905550613caa64e8d4a51000613c9c84600301548460000154614ca390919063ffffffff16565b614d2990919063ffffffff16565b8160010181905550438160020181905550600c60008360000160009054906101000a900473ffffffffffffffffffffffffffffffffffffffff1673ffffffffffffffffffffffffffffffffffffffff1673ffffffffffffffffffffffffffffffffffffffff16815260200190815260200160002060009054906101000a900460ff168015613d385750600083115b15613df057613def838360000160009054906101000a900473ffffffffffffffffffffffffffffffffffffffff16600d60008660000160009054906101000a900473ffffffffffffffffffffffffffffffffffffffff1673ffffffffffffffffffffffffffffffffffffffff1673ffffffffffffffffffffffffffffffffffffffff16815260200190815260200160002060009054906101000a900473ffffffffffffffffffffffffffffffffffffffff16614ee1565b5b600b600085815260200190815260200160002060003373ffffffffffffffffffffffffffffffffffffffff1673ffffffffffffffffffffffffffffffffffffffff16815260200190815260200160002060009054906101000a900460ff16613f30576001600b600086815260200190815260200160002060003373ffffffffffffffffffffffffffffffffffffffff1673ffffffffffffffffffffffffffffffffffffffff16815260200190815260200160002060006101000a81548160ff021916908315150217905550600a6000858152602001908152602001600020339080600181540180825580915050600190039060005260206000200160009091909190916101000a81548173ffffffffffffffffffffffffffffffffffffffff021916908373ffffffffffffffffffffffffffffffffffffffff1602179055505b833373ffffffffffffffffffffffffffffffffffffffff167f90890809c654f11d6e72a28fa60149770a0d11ec6c92319d6ceb2bb0a4ea1a15856040518082815260200191505060405180910390a350505050565b6000806015544311613fb6576015546012600081548110613fa257fe5b906000526020600020015491509150614061565b6016544311613fe4576016546012600181548110613fd057fe5b906000526020600020015491509150614061565b6017544311614012576017546012600281548110613ffe57fe5b906000526020600020015491509150614061565b601854431161404057601854601260038154811061402c57fe5b906000526020600020015491509150614061565b601954601260048154811061405157fe5b9060005260206000200154915091505b9091565b60085481565b33600f60008273ffffffffffffffffffffffffffffffffffffffff1673ffffffffffffffffffffffffffffffffffffffff16815260200190815260200160002060009054906101000a900460ff166140c257600080fd5b8373ffffffffffffffffffffffffffffffffffffffff166370a08231306040518263ffffffff1660e01b8152600401808273ffffffffffffffffffffffffffffffffffffffff16815260200191505060206040518083038186803b15801561412957600080fd5b505afa15801561413d573d6000803e3d6000fd5b505050506040513d602081101561415357600080fd5b81019080805190602001909291905050508211156141d9576040517f08c379a000000000000000000000000000000000000000000000000000000000815260040180806020018281038252601c8152602001807f4e6f7420456e6f75676820556e6920546f6b656e2042616c616e63650000000081525060200191505060405180910390fd5b600073ffffffffffffffffffffffffffffffffffffffff168373ffffffffffffffffffffffffffffffffffffffff16141561427c576040517f08c379a00000000000000000000000000000000000000000000000000000000081526004018080602001828103825260118152602001807f4e6f74205661696c64204164647265737300000000000000000000000000000081525060200191505060405180910390fd5b6142a783838673ffffffffffffffffffffffffffffffffffffffff16614d739092919063ffffffff16565b50505050565b6142b561454a565b73ffffffffffffffffffffffffffffffffffffffff1660008054906101000a900473ffffffffffffffffffffffffffffffffffffffff1673ffffffffffffffffffffffffffffffffffffffff1614614375576040517f08c379a00000000000000000000000000000000000000000000000000000000081526004018080602001828103825260208152602001807f4f776e61626c653a2063616c6c6572206973206e6f7420746865206f776e657281525060200191505060405180910390fd5b600073ffffffffffffffffffffffffffffffffffffffff168173ffffffffffffffffffffffffffffffffffffffff1614156143fb576040517f08c379a0000000000000000000000000000000000000000000000000000000008152600401808060200182810382526026815260200180615c106026913960400191505060405180910390fd5b8073ffffffffffffffffffffffffffffffffffffffff1660008054906101000a900473ffffffffffffffffffffffffffffffffffffffff1673ffffffffffffffffffffffffffffffffffffffff167f8be0079c531659141344cd1fd0a4f28419497f9722a3daafe3b4186f6b6457e060405160405180910390a3806000806101000a81548173ffffffffffffffffffffffffffffffffffffffff021916908373ffffffffffffffffffffffffffffffffffffffff16021790555050565b6000601354905090565b600080828401905083811015614540576040517f08c379a000000000000000000000000000000000000000000000000000000000815260040180806020018281038252601b8152602001807f536166654d6174683a206164646974696f6e206f766572666c6f77000000000081525060200191505060405180910390fd5b8091505092915050565b600033905090565b6000808473ffffffffffffffffffffffffffffffffffffffff16630dfe16816040518163ffffffff1660e01b815260040160206040518083038186803b15801561459b57600080fd5b505afa1580156145af573d6000803e3d6000fd5b505050506040513d60208110156145c557600080fd5b810190808051906020019092919050505090506000808673ffffffffffffffffffffffffffffffffffffffff16630902f1ac6040518163ffffffff1660e01b815260040160606040518083038186803b15801561462157600080fd5b505afa158015614635573d6000803e3d6000fd5b505050506040513d606081101561464b57600080fd5b81019080805190602001909291908051906020019092919080519060200190929190505050509150915060008773ffffffffffffffffffffffffffffffffffffffff166318160ddd6040518163ffffffff1660e01b815260040160206040518083038186803b1580156146bd57600080fd5b505afa1580156146d1573d6000803e3d6000fd5b505050506040513d60208110156146e757600080fd5b8101908080519060200190929190505050905060008060008311156148205773c02aaa39b223fe8d0a0e5c4f27ead9083c756cc273ffffffffffffffffffffffffffffffffffffffff168673ffffffffffffffffffffffffffffffffffffffff16146147b65761478283614774876dffffffffffffffffffffffffffff168b614ca390919063ffffffff16565b614d2990919063ffffffff16565b90506147af81866dffffffffffffffffffffffffffff16866dffffffffffffffffffffffffffff166150bf565b915061481b565b6147eb836147dd866dffffffffffffffffffffffffffff168b614ca390919063ffffffff16565b614d2990919063ffffffff16565b905061481881856dffffffffffffffffffffffffffff16876dffffffffffffffffffffffffffff166150bf565b91505b61482f565b60009650505050505050614842565b614839828a6151ef565b96505050505050505b9392505050565b8173ffffffffffffffffffffffffffffffffffffffff16632e1a7d4d826040518263ffffffff1660e01b815260040180828152602001915050600060405180830381600087803b15801561489c57600080fd5b505af11580156148b0573d6000803e3d6000fd5b505050505050565b600061490282600101546148f464e8d4a510006148e687600301548760000154614ca390919063ffffffff16565b614d2990919063ffffffff16565b614c5990919063ffffffff16565b9050600061491c6149178460020154436136ea565b614e7b565b90506000811115614c3e57600061494f60646149418486614ca390919063ffffffff16565b614d2990919063ffffffff16565b9050600061497b606461496d60045485614ca390919063ffffffff16565b614d2990919063ffffffff16565b90506149a9600260009054906101000a900473ffffffffffffffffffffffffffffffffffffffff1682615434565b600086600601541115614b425760006149e260646149d4896006015486614ca390919063ffffffff16565b614d2990919063ffffffff16565b9050614a128760050160009054906101000a900473ffffffffffffffffffffffffffffffffffffffff1682615434565b614a4033614a3b83614a2d868a614c5990919063ffffffff16565b614c5990919063ffffffff16565b615434565b600160009054906101000a900473ffffffffffffffffffffffffffffffffffffffff1673ffffffffffffffffffffffffffffffffffffffff16639dc29fac33614aa484614a968789614c5990919063ffffffff16565b614c5990919063ffffffff16565b6040518363ffffffff1660e01b8152600401808373ffffffffffffffffffffffffffffffffffffffff16815260200182815260200192505050600060405180830381600087803b158015614af757600080fd5b505af1158015614b0b573d6000803e3d6000fd5b50505050614b3c614b3782614b298587614c5990919063ffffffff16565b614c5990919063ffffffff16565b6156ad565b50614c37565b614b5e33614b598387614c5990919063ffffffff16565b615434565b600160009054906101000a900473ffffffffffffffffffffffffffffffffffffffff1673ffffffffffffffffffffffffffffffffffffffff16639dc29fac33614bb08486614c5990919063ffffffff16565b6040518363ffffffff1660e01b8152600401808373ffffffffffffffffffffffffffffffffffffffff16815260200182815260200192505050600060405180830381600087803b158015614c0357600080fd5b505af1158015614c17573d6000803e3d6000fd5b50505050614c36614c318284614c5990919063ffffffff16565b6156ad565b5b5050614c53565b614c483383615434565b614c5260006156ad565b5b50505050565b6000614c9b83836040518060400160405280601e81526020017f536166654d6174683a207375627472616374696f6e206f766572666c6f770000815250615769565b905092915050565b600080831415614cb65760009050614d23565b6000828402905082848281614cc757fe5b0414614d1e576040517f08c379a0000000000000000000000000000000000000000000000000000000008152600401808060200182810382526021815260200180615c916021913960400191505060405180910390fd5b809150505b92915050565b6000614d6b83836040518060400160405280601a81526020017f536166654d6174683a206469766973696f6e206279207a65726f000000000000815250615829565b905092915050565b614e108363a9059cbb60e01b8484604051602401808373ffffffffffffffffffffffffffffffffffffffff16815260200182815260200192505050604051602081830303815290604052907bffffffffffffffffffffffffffffffffffffffffffffffffffffffff19166020820180517bffffffffffffffffffffffffffffffffffffffffffffffffffffffff83818316178352505050506158ef565b505050565b60006125808210614e295760329050614e76565b611e008210614e3b5760289050614e76565b6116808210614e4d57601e9050614e76565b610f008210614e5f5760149050614e76565b6107808210614e7157600a9050614e76565b600090505b919050565b60006107808211614e8f5760329050614edc565b610f008211614ea15760289050614edc565b6116808211614eb357601e9050614edc565b611e008211614ec55760149050614edc565b6125808211614ed757600a9050614edc565b600090505b919050565b8173ffffffffffffffffffffffffffffffffffffffff1663095ea7b382856040518363ffffffff1660e01b8152600401808373ffffffffffffffffffffffffffffffffffffffff16815260200182815260200192505050602060405180830381600087803b158015614f5257600080fd5b505af1158015614f66573d6000803e3d6000fd5b505050506040513d6020811015614f7c57600080fd5b8101908080519060200190929190505050508073ffffffffffffffffffffffffffffffffffffffff1663a694fc3a846040518263ffffffff1660e01b815260040180828152602001915050600060405180830381600087803b158015614fe157600080fd5b505af1158015614ff5573d6000803e3d6000fd5b50505050505050565b6150b9846323b872dd60e01b858585604051602401808473ffffffffffffffffffffffffffffffffffffffff1681526020018373ffffffffffffffffffffffffffffffffffffffff1681526020018281526020019350505050604051602081830303815290604052907bffffffffffffffffffffffffffffffffffffffffffffffffffffffff19166020820180517bffffffffffffffffffffffffffffffffffffffffffffffffffffffff83818316178352505050506158ef565b50505050565b6000808411615119576040517f08c379a000000000000000000000000000000000000000000000000000000000815260040180806020018281038252602b815260200180615cdc602b913960400191505060405180910390fd5b6000831180156151295750600082115b61517e576040517f08c379a0000000000000000000000000000000000000000000000000000000008152600401808060200182810382526028815260200180615c696028913960400191505060405180910390fd5b60006151956103e586614ca390919063ffffffff16565b905060006151ac8483614ca390919063ffffffff16565b905060006151d7836151c96103e889614ca390919063ffffffff16565b6144c290919063ffffffff16565b90508082816151e257fe5b0493505050509392505050565b6000808273ffffffffffffffffffffffffffffffffffffffff16630dfe16816040518163ffffffff1660e01b815260040160206040518083038186803b15801561523857600080fd5b505afa15801561524c573d6000803e3d6000fd5b505050506040513d602081101561526257600080fd5b810190808051906020019092919050505090506000808473ffffffffffffffffffffffffffffffffffffffff16630902f1ac6040518163ffffffff1660e01b815260040160606040518083038186803b1580156152be57600080fd5b505afa1580156152d2573d6000803e3d6000fd5b505050506040513d60608110156152e857600080fd5b810190808051906020019092919080519060200190929190805190602001909291905050505091509150600073c02aaa39b223fe8d0a0e5c4f27ead9083c756cc273ffffffffffffffffffffffffffffffffffffffff168473ffffffffffffffffffffffffffffffffffffffff1614156153955761538e6153676144b8565b846dffffffffffffffffffffffffffff16846dffffffffffffffffffffffffffff166150bf565b90506153ca565b6153c76153a06144b8565b836dffffffffffffffffffffffffffff16856dffffffffffffffffffffffffffff166150bf565b90505b600061542460026154166153ee6153df613583565b86614d2990919063ffffffff16565b6154086153f96144b8565b8d614d2990919063ffffffff16565b614ca390919063ffffffff16565b614ca390919063ffffffff16565b9050809550505050505092915050565b6000600160009054906101000a900473ffffffffffffffffffffffffffffffffffffffff1673ffffffffffffffffffffffffffffffffffffffff166370a08231306040518263ffffffff1660e01b8152600401808273ffffffffffffffffffffffffffffffffffffffff16815260200191505060206040518083038186803b1580156154bf57600080fd5b505afa1580156154d3573d6000803e3d6000fd5b505050506040513d60208110156154e957600080fd5b81019080805190602001909291905050509050808211156155d857600160009054906101000a900473ffffffffffffffffffffffffffffffffffffffff1673ffffffffffffffffffffffffffffffffffffffff1663a9059cbb84836040518363ffffffff1660e01b8152600401808373ffffffffffffffffffffffffffffffffffffffff16815260200182815260200192505050602060405180830381600087803b15801561559757600080fd5b505af11580156155ab573d6000803e3d6000fd5b505050506040513d60208110156155c157600080fd5b8101908080519060200190929190505050506156a8565b600160009054906101000a900473ffffffffffffffffffffffffffffffffffffffff1673ffffffffffffffffffffffffffffffffffffffff1663a9059cbb84846040518363ffffffff1660e01b8152600401808373ffffffffffffffffffffffffffffffffffffffff16815260200182815260200192505050602060405180830381600087803b15801561566b57600080fd5b505af115801561567f573d6000803e3d6000fd5b505050506040513d602081101561569557600080fd5b8101908080519060200190929190505050505b505050565b601d544210615704576000601a5414156156d6576001601a819055506000601b819055506156e7565b6000601a819055506000601c819055505b6156fd62015180426144c290919063ffffffff16565b601d819055505b61571981601e546144c290919063ffffffff16565b601e819055506000601a54141561574a5761573f81601c546144c290919063ffffffff16565b601c81905550615766565b61575f81601b546144c290919063ffffffff16565b601b819055505b50565b6000838311158290615816576040517f08c379a00000000000000000000000000000000000000000000000000000000081526004018080602001828103825283818151815260200191508051906020019080838360005b838110156157db5780820151818401526020810190506157c0565b50505050905090810190601f1680156158085780820380516001836020036101000a031916815260200191505b509250505060405180910390fd5b5060008385039050809150509392505050565b600080831182906158d5576040517f08c379a00000000000000000000000000000000000000000000000000000000081526004018080602001828103825283818151815260200191508051906020019080838360005b8381101561589a57808201518184015260208101905061587f565b50505050905090810190601f1680156158c75780820380516001836020036101000a031916815260200191505b509250505060405180910390fd5b5060008385816158e157fe5b049050809150509392505050565b6060615951826040518060400160405280602081526020017f5361666545524332303a206c6f772d6c6576656c2063616c6c206661696c65648152508573ffffffffffffffffffffffffffffffffffffffff166159de9092919063ffffffff16565b90506000815111156159d95780806020019051602081101561597257600080fd5b81019080805190602001909291905050506159d8576040517f08c379a000000000000000000000000000000000000000000000000000000000815260040180806020018281038252602a815260200180615cb2602a913960400191505060405180910390fd5b5b505050565b60606159ed84846000856159f6565b90509392505050565b6060615a0185615bfc565b615a73576040517f08c379a000000000000000000000000000000000000000000000000000000000815260040180806020018281038252601d8152602001807f416464726573733a2063616c6c20746f206e6f6e2d636f6e747261637400000081525060200191505060405180910390fd5b600060608673ffffffffffffffffffffffffffffffffffffffff1685876040518082805190602001908083835b60208310615ac35780518252602082019150602081019050602083039250615aa0565b6001836020036101000a03801982511681845116808217855250505050505090500191505060006040518083038185875af1925050503d8060008114615b25576040519150601f19603f3d011682016040523d82523d6000602084013e615b2a565b606091505b50915091508115615b3f578092505050615bf4565b600081511115615b525780518082602001fd5b836040517f08c379a00000000000000000000000000000000000000000000000000000000081526004018080602001828103825283818151815260200191508051906020019080838360005b83811015615bb9578082015181840152602081019050615b9e565b50505050905090810190601f168015615be65780820380516001836020036101000a031916815260200191505b509250505060405180910390fd5b949350505050565b600080823b90506000811191505091905056fe4f776e61626c653a206e6577206f776e657220697320746865207a65726f2061646472657373416d6f756e74206d757374206265206c657373207468616e206f7220657175616c20746f20323030303020646f6c6c6172732e556e697377617056324c6962726172793a20494e53554646494349454e545f4c4951554944495459536166654d6174683a206d756c7469706c69636174696f6e206f766572666c6f775361666545524332303a204552433230206f7065726174696f6e20646964206e6f742073756363656564556e697377617056324c6962726172793a20494e53554646494349454e545f494e5055545f414d4f554e54a2646970667358221220e7f93ba359efe0e5cb2e83136e6b5abdd4e486d9f99652283327c44c1b4b054064736f6c634300060c0033",
  "immutableReferences": {},
  "source": "pragma solidity ^0.6.0;\r\n\r\nimport \"../helper/SafeERC20.sol\";\r\nimport \"../helper/SafeMath.sol\";\r\nimport \"../helper/Ownable.sol\";\r\nimport \"./ChillToken.sol\";\r\nimport \"../uniswap/UniswapV2Library.sol\";\r\nimport \"../interfaces/IUniswapV2Pair.sol\";\r\nimport \"../interfaces/IUniStakingRewards.sol\";\r\n\r\n// eth-dai 0xBbB8eeA618861940FaDEf3071e79458d4c2B42e3\r\ncontract ChillFinance is Ownable {\r\n    \r\n    using SafeMath for uint256;\r\n    using SafeERC20 for IERC20;\r\n\r\n    struct UserInfo {\r\n        uint256 amount;\r\n        uint256 rewardDebt;\r\n        uint256 startedBlock;\r\n    }\r\n    \r\n    struct PoolInfo {\r\n        IERC20 lpToken;\r\n        uint256 allocPoint;\r\n        uint256 lastRewardBlock;\r\n        uint256 accChillPerShare;\r\n        uint256 totalPoolBalance;\r\n        address nirvanaRewardAddress;\r\n        uint256 nirvanaFee;\r\n    }\r\n\r\n    ChillToken public chill;\r\n    address public devaddr;\r\n    uint256 public DEV_FEE = 0;\r\n    uint256 public DEV_TAX_FEE = 20;\r\n    PoolInfo[] public poolInfo;\r\n    uint256 public bonusEndBlock;\r\n    uint256 public constant BONUS_MULTIPLIER = 10;\r\n    uint256 public totalAllocPoint = 0;\r\n    uint256 public startBlockOfChill;\r\n    mapping (uint256 => mapping (address => UserInfo)) public userInfo;\r\n    mapping (uint256 => address[]) public poolUsers;\r\n    mapping (uint256 => mapping(address => bool)) public isUserExist;\r\n    mapping (address => bool) public stakingUniPools;\r\n    mapping (address => address) public uniRewardAddresses;\r\n    mapping (uint256 => bool) public isCheckInitialPeriod;\r\n    mapping (address => bool) private distributors;\r\n    \r\n    address stablePair;    \r\n    uint256 initialPeriod;\r\n    uint256[] public blockPerPhase;\r\n    uint256 private ethDivider;\r\n    uint256 private stableDivider;\r\n\r\n    uint256 public phase1time;\r\n    uint256 public phase2time;\r\n    uint256 public phase3time;\r\n    uint256 public phase4time;\r\n    uint256 public phase5time;\r\n\r\n    uint256 burnFlag = 0;\r\n    uint256 lastBurnedPhase1 = 0;\r\n    uint256 lastBurnedPhase2 = 0;\r\n    uint256 lastTimeOfBurn;\r\n    uint256 totalBurnedAmount;\r\n\r\n    event Deposit(address indexed user, uint256 indexed pid, uint256 amount);\r\n    event Withdraw(address indexed user, uint256 indexed pid, uint256 amount);\r\n    event EmergencyWithdraw(address indexed user, uint256 indexed pid, uint256 amount);\r\n\r\n    modifier isDistributor(address _isDistributor) {\r\n        require(distributors[_isDistributor]);\r\n        _;\r\n    }\r\n\r\n    constructor(\r\n        ChillToken _chill,\r\n        address _devaddr,\r\n        address _stablePair\r\n    ) public {\r\n        chill = _chill;\r\n        devaddr = _devaddr;\r\n        stablePair = _stablePair;\r\n        \r\n        startBlockOfChill = block.number.add(0);\r\n        bonusEndBlock = block.number.add(0);\r\n        initialPeriod = block.number.add(28800); // 5 days (5*24*60*60)/15\r\n        \r\n        blockPerPhase.push(75e18);\r\n        blockPerPhase.push(100e18);\r\n        blockPerPhase.push(50e18);\r\n        blockPerPhase.push(25e18);\r\n        blockPerPhase.push(0);\r\n\r\n        phase1time = block.number.add(80640); // 14 days (14*24*60*60)/15\r\n        phase2time = block.number.add(253440); // 44 - 14 = 30 days (44*24*60*60)/15 \r\n        phase3time = block.number.add(426240); // 74 - 44 = 30 days (74*24*60*60)/15\r\n        phase4time = block.number.add(771840); // 134 - 74 = 60 days (134*24*60*60)/15\r\n        phase5time = block.number.add(0); // 134 - 74 = 60 days (134*24*60*60)/15\r\n        lastTimeOfBurn = block.timestamp.add(1 days);\r\n        stableDivider = 1e6;\r\n        ethDivider = 1e18;\r\n    }\r\n\r\n    function poolLength() external view returns (uint256) {\r\n        return poolInfo.length;\r\n    }\r\n    \r\n    function userPoollength(uint256 _pid) external view returns (uint256) {\r\n        return poolUsers[_pid].length;\r\n    }\r\n\r\n    // Add Function to give support new uniswap lp pool by only owner\r\n    // for allocpoint will be 100 and if you want to generate more chill for specific pool then you need to increase allocpoint\r\n    // like for, 1x=>100, 2x=>200, 3x=>300 etc.\r\n    function add(uint256 _allocPoint, IERC20 _lpToken, bool _withUpdate) public onlyOwner {\r\n        if (_withUpdate) {\r\n            massUpdatePools();\r\n        }\r\n        uint256 _lastRewardBlock = block.number > startBlockOfChill ? block.number : startBlockOfChill;\r\n        totalAllocPoint = totalAllocPoint.add(_allocPoint);\r\n        poolInfo.push(PoolInfo({\r\n            lpToken: _lpToken,\r\n            allocPoint: _allocPoint,\r\n            lastRewardBlock: _lastRewardBlock,\r\n            accChillPerShare: 0,\r\n            totalPoolBalance: 0,\r\n            nirvanaRewardAddress: address(0),\r\n            nirvanaFee: 0\r\n        }));\r\n    }\r\n    \r\n    // increase alloc point for specific pool\r\n    function set(uint256 _pid, uint256 _allocPoint, bool _withUpdate) public onlyOwner {\r\n        if (_withUpdate) {\r\n            massUpdatePools();\r\n        }\r\n        totalAllocPoint = totalAllocPoint.sub(poolInfo[_pid].allocPoint).add(_allocPoint);\r\n        poolInfo[_pid].allocPoint = _allocPoint;\r\n    }\r\n\r\n    // nirvana fee and address for specific pool\r\n    function setNirvanaDetails(uint256 _pid, uint256 _nirvanaFee, address _nirvanaRewardAddress) public onlyOwner {\r\n        poolInfo[_pid].nirvanaRewardAddress = _nirvanaRewardAddress;\r\n        poolInfo[_pid].nirvanaFee = _nirvanaFee;\r\n    }\r\n    \r\n    function massUpdatePools() public {\r\n        uint256 length = poolInfo.length;\r\n        for (uint256 pid = 0; pid < length; ++pid) {\r\n            updatePool(pid);\r\n        }\r\n    }\r\n    \r\n    // user can deposit lp for specific pool\r\n    function deposit(uint256 _pid, uint256 _amount) public {\r\n        PoolInfo storage pool = poolInfo[_pid];\r\n        UserInfo storage user = userInfo[_pid][msg.sender];\r\n\r\n        if (isCheckInitialPeriod[_pid]) {\r\n            if (block.number <= initialPeriod) {\r\n                // calculate id lp token amount less than $20000 and only applicable to eth pair\r\n                require(countStakeAmount(address(pool.lpToken), getStablePairAddress(), _amount) <= 20000, \"Amount must be less than or equal to 20000 dollars.\");\r\n            } else {\r\n                isCheckInitialPeriod[_pid] = false;\r\n            }\r\n        }\r\n        \r\n        if (user.startedBlock <= 0) {\r\n            user.startedBlock = block.number;\r\n        }\r\n        \r\n        updatePool(_pid);\r\n        if (user.amount > 0) {\r\n            userRewardAndTaxes(pool, user);\r\n        }\r\n\r\n        pool.lpToken.safeTransferFrom(address(msg.sender), address(this), _amount);\r\n        pool.totalPoolBalance = pool.totalPoolBalance.add(_amount);\r\n        user.amount = user.amount.add(_amount);\r\n        user.rewardDebt = user.amount.mul(pool.accChillPerShare).div(1e12);\r\n        user.startedBlock = block.number;\r\n\r\n        if (stakingUniPools[address(pool.lpToken)] && _amount > 0) {\r\n            stakeInUni(_amount, address(pool.lpToken), uniRewardAddresses[address(pool.lpToken)]);\r\n        }\r\n\r\n        if (!isUserExist[_pid][msg.sender]) {\r\n            isUserExist[_pid][msg.sender] = true;\r\n            poolUsers[_pid].push(msg.sender);\r\n        }\r\n        emit Deposit(msg.sender, _pid, _amount);\r\n    }\r\n    \r\n    // it will be call if spicific pool uniswap uni pool supported in chill finance\r\n    // and if you want to support uniswap pool then you need to add in addStakeUniPool\r\n    function stakeInUni(uint256 amount, address v2address, address _stakeAddress) private {\r\n        IERC20(v2address).approve(address(_stakeAddress), amount);\r\n        IUniStakingRewards(_stakeAddress).stake(amount);\r\n    }\r\n\r\n    // user can withdraw their lp token from specific pool \r\n    function withdraw(uint256 _pid, uint256 _amount) public {\r\n        PoolInfo storage pool = poolInfo[_pid];\r\n        UserInfo storage user = userInfo[_pid][msg.sender];\r\n        require(user.amount >= _amount, \"withdraw is not valid\");\r\n        \r\n        if (user.startedBlock <= 0) {\r\n            user.startedBlock = block.number;\r\n        }\r\n        \r\n        if (stakingUniPools[address(pool.lpToken)]  && _amount > 0) {\r\n            withdrawUni(uniRewardAddresses[address(pool.lpToken)], _amount);\r\n        }\r\n\r\n        updatePool(_pid);\r\n        userRewardAndTaxes(pool, user);\r\n\r\n        user.amount = user.amount.sub(_amount);\r\n        user.rewardDebt = user.amount.mul(pool.accChillPerShare).div(1e12);\r\n        user.startedBlock = block.number;\r\n        pool.totalPoolBalance = pool.totalPoolBalance.sub(_amount);\r\n        pool.lpToken.safeTransfer(address(msg.sender), _amount);\r\n        emit Withdraw(msg.sender, _pid, _amount);\r\n    }\r\n\r\n    // withdraw lp token from uniswap uni farm pool  \r\n    function withdrawUni(address _stakeAddress, uint256 _amount) private {\r\n        IUniStakingRewards(_stakeAddress).withdraw(_amount);\r\n    }\r\n    \r\n    // Reward will genrate in update pool function and call will be happen internally by deposit and withdraw function\r\n    function updatePool(uint256 _pid) public {\r\n        PoolInfo storage pool = poolInfo[_pid];\r\n\r\n        if (block.number <= pool.lastRewardBlock) {\r\n            return;\r\n        }\r\n\r\n        if (pool.totalPoolBalance == 0) {\r\n            pool.lastRewardBlock = block.number;\r\n            return;\r\n        }\r\n        \r\n        uint256 chillReward;\r\n        uint256 multiplier = getMultiplier(pool.lastRewardBlock, block.number);\r\n        if (block.number <= phase1time) {\r\n            chillReward = multiplier.mul(blockPerPhase[0]).mul(pool.allocPoint).div(totalAllocPoint);\r\n        } else if (block.number <= phase2time) {\r\n            chillReward = multiplier.mul(blockPerPhase[1]).mul(pool.allocPoint).div(totalAllocPoint);\r\n        } else if (block.number <= phase3time) {\r\n            chillReward = multiplier.mul(blockPerPhase[2]).mul(pool.allocPoint).div(totalAllocPoint);\r\n        } else if (block.number <= phase4time) {\r\n            chillReward = multiplier.mul(blockPerPhase[3]).mul(pool.allocPoint).div(totalAllocPoint);\r\n        } else {\r\n            chillReward = multiplier.mul(blockPerPhase[4]).mul(pool.allocPoint).div(totalAllocPoint);\r\n        }\r\n        \r\n        if (chillReward > 0) {\r\n            if (DEV_FEE > 0) {\r\n                chill.mint(devaddr, chillReward.mul(DEV_FEE).div(100));\r\n            }\r\n            chill.mint(address(this), chillReward);\r\n        }\r\n        pool.accChillPerShare = pool.accChillPerShare.add(chillReward.mul(1e12).div(pool.totalPoolBalance));\r\n        pool.lastRewardBlock = block.number;\r\n    }\r\n    \r\n    // User's extra reward and taxes will be handle in this internal funation\r\n    function userRewardAndTaxes(PoolInfo storage pool, UserInfo storage user) internal {\r\n        uint256 pending =  user.amount.mul(pool.accChillPerShare).div(1e12).sub(user.rewardDebt);\r\n        uint256 tax = deductTaxByBlock(getCrossMultiplier(user.startedBlock, block.number));\r\n        if (tax > 0) {\r\n            uint256 pendingTax = pending.mul(tax).div(100);\r\n            uint256 devReward = pendingTax.mul(DEV_TAX_FEE).div(100);\r\n            safeChillTransfer(devaddr, devReward);\r\n            if (pool.nirvanaFee > 0) {\r\n                uint256 nirvanaReward = pendingTax.mul(pool.nirvanaFee).div(100);\r\n                safeChillTransfer(pool.nirvanaRewardAddress, nirvanaReward);\r\n                safeChillTransfer(msg.sender, pending.sub(devReward).sub(nirvanaReward));\r\n                chill.burn(msg.sender, pendingTax.sub(devReward).sub(nirvanaReward));\r\n                lastDayBurned(pendingTax.sub(devReward).sub(nirvanaReward));\r\n            } else {\r\n                safeChillTransfer(msg.sender, pending.sub(devReward));\r\n                chill.burn(msg.sender, pendingTax.sub(devReward));\r\n                lastDayBurned(pendingTax.sub(devReward));\r\n            }\r\n        } else {\r\n            safeChillTransfer(msg.sender, pending);\r\n            lastDayBurned(0);\r\n        }\r\n    }\r\n    \r\n    function lastDayBurned(uint256 burnedAmount) internal {\r\n        if (block.timestamp >= lastTimeOfBurn) {\r\n            if (burnFlag == 0) {\r\n                burnFlag = 1;\r\n                lastBurnedPhase1 = 0;\r\n            } else {\r\n                burnFlag = 0;\r\n                lastBurnedPhase2 = 0;\r\n            }\r\n            lastTimeOfBurn = block.timestamp.add(1 days);\r\n        }\r\n        totalBurnedAmount = totalBurnedAmount.add(burnedAmount);\r\n        if (burnFlag == 0) {\r\n            lastBurnedPhase2 = lastBurnedPhase2.add(burnedAmount);\r\n            // return lastBurnedPhase1;\r\n        } else {\r\n            lastBurnedPhase1 = lastBurnedPhase1.add(burnedAmount);\r\n            // return lastBurnedPhase2;\r\n        }\r\n    }\r\n    \r\n    function getBurnedDetails() public view returns (uint256, uint256, uint256, uint256) {\r\n        return (burnFlag, lastBurnedPhase1, lastBurnedPhase2, totalBurnedAmount);\r\n    }\r\n\r\n    // For user interface to claimable token\r\n    function pendingChill(uint256 _pid, address _user) external view returns (uint256) {\r\n        PoolInfo storage pool = poolInfo[_pid];\r\n        UserInfo storage user = userInfo[_pid][_user];\r\n        uint256 pending;\r\n        uint256 accChillPerShare = pool.accChillPerShare;\r\n        uint256 lpSupply = pool.totalPoolBalance;\r\n        if (lpSupply != 0) {\r\n            uint256 chillReward;\r\n            uint256 multiplier = getMultiplier(pool.lastRewardBlock, block.number);\r\n            if (block.number <= phase1time) {\r\n                chillReward = multiplier.mul(blockPerPhase[0]).mul(pool.allocPoint).div(totalAllocPoint);\r\n            } else if (block.number <= phase2time) {\r\n                chillReward = multiplier.mul(blockPerPhase[1]).mul(pool.allocPoint).div(totalAllocPoint);\r\n            } else if (block.number <= phase3time) {\r\n                chillReward = multiplier.mul(blockPerPhase[2]).mul(pool.allocPoint).div(totalAllocPoint);\r\n            } else if (block.number <= phase4time) {\r\n                chillReward = multiplier.mul(blockPerPhase[3]).mul(pool.allocPoint).div(totalAllocPoint);\r\n            } else {\r\n                chillReward = multiplier.mul(blockPerPhase[4]).mul(pool.allocPoint).div(totalAllocPoint);\r\n            }\r\n            accChillPerShare = accChillPerShare.add(chillReward.mul(1e12).div(pool.totalPoolBalance));\r\n            pending =  user.amount.mul(accChillPerShare).div(1e12).sub(user.rewardDebt);\r\n            uint256 tax = deductTaxByBlock(getCrossMultiplier(user.startedBlock, block.number));\r\n            if (tax > 0) {\r\n                uint256 pendingTax = pending.mul(tax).div(100);\r\n                pending = pending.sub(pendingTax);\r\n            }\r\n        }\r\n        return pending;\r\n    }\r\n\r\n    // Return reward multiplier over the given _from to _to block.\r\n    function getMultiplier(uint256 _from, uint256 _to) public view returns (uint256) {\r\n        if (_to <= bonusEndBlock) {\r\n            return _to.sub(_from).mul(BONUS_MULTIPLIER);\r\n        } else if (_from >= bonusEndBlock) {\r\n            return _to.sub(_from);\r\n        } else {\r\n            return bonusEndBlock.sub(_from).mul(BONUS_MULTIPLIER).add(\r\n                _to.sub(bonusEndBlock)\r\n            );\r\n        }\r\n    }\r\n\r\n    // Return reward multiplier over the given _from to _to block.\r\n    function getCrossMultiplier(uint256 _from, uint256 currentblock) public view returns (uint256) {\r\n        uint256 multiplier;\r\n        if (currentblock > _from) {\r\n            multiplier = currentblock.sub(_from);\r\n        } else {\r\n            multiplier = _from.sub(currentblock);\r\n        }\r\n        return multiplier;\r\n    }\r\n    \r\n    // get if nirvana\r\n    function getNirvanaStatus(uint256 _from) public view returns (uint256) {\r\n        uint256 multiplier = getCrossMultiplier(_from, block.number);\r\n        uint256 isNirvana = getTotalBlocksCovered(multiplier);\r\n        return isNirvana;\r\n    }\r\n    \r\n    // Set extra reward after each 8 hours(1920 block)\r\n    function getTotalBlocksCovered(uint256 _block) internal pure returns(uint256) {\r\n        if (_block >= 9600) {\r\n            return 50;\r\n        } else if (_block >= 7680) {\r\n            return 40;\r\n        } else if (_block >= 5760) {\r\n            return 30;\r\n        } else if (_block >= 3840) {\r\n            return 20;\r\n        } else if (_block >= 1920) {\r\n            return 10;\r\n        } else {\r\n            return 0;\r\n        }\r\n    }\r\n    \r\n    // Deduct tax if user withdraw before nirvana at different stage\r\n    function deductTaxByBlock(uint256 _block) internal pure returns(uint256) {\r\n        if (_block <= 1920) {\r\n            return 50;\r\n        } else if (_block <= 3840) {\r\n            return 40;\r\n        } else if (_block <= 5760) {\r\n            return 30;\r\n        } else if (_block <= 7680) {\r\n            return 20;\r\n        } else if (_block <= 9600) {\r\n            return 10;\r\n        }  else {\r\n            return 0;\r\n        }\r\n    }\r\n    \r\n    // Check if amount of lp tokens is less than $20000\r\n    function countStakeAmount(address _countPair, address _stablePair, uint256 _liquiditybalance) public view returns(uint256) {\r\n        return countEthAmount(_countPair, _stablePair, _liquiditybalance);\r\n    }\r\n    \r\n    function countEthAmount(address _countPair, address _stablePair, uint256 _liquiditybalance) internal view returns(uint256) {\r\n        address countToken0 = IUniswapV2Pair(_countPair).token0();\r\n        (uint112 countReserves0, uint112 countReserves1, ) = IUniswapV2Pair(_countPair).getReserves();\r\n        uint256 countTotalSupply = IERC20(_countPair).totalSupply();\r\n        uint256 ethAmount;\r\n        uint256 tokenbalance;\r\n\r\n        if(countTotalSupply > 0) {\r\n            if(countToken0 != 0xC02aaA39b223FE8D0A0e5C4F27eAD9083C756Cc2) {\r\n                tokenbalance = _liquiditybalance.mul(countReserves0).div(countTotalSupply);\r\n                ethAmount = UniswapV2Library.getAmountOut(tokenbalance, countReserves0, countReserves1);\r\n            } else {\r\n                tokenbalance = _liquiditybalance.mul(countReserves1).div(countTotalSupply);\r\n                ethAmount = UniswapV2Library.getAmountOut(tokenbalance, countReserves1, countReserves0);\r\n            }\r\n        } else {\r\n            return 0;\r\n        }\r\n        return countUsdtAmount(ethAmount, _stablePair);\r\n    }\r\n\r\n    function countUsdtAmount(uint256 ethAmount, address _stablePair) internal view returns(uint256) {\r\n        address usdttoken0 = IUniswapV2Pair(_stablePair).token0();\r\n        (uint112 stableReserves0, uint112 stableReserves1, ) = IUniswapV2Pair(_stablePair).getReserves();\r\n\r\n        uint256 stableOutAmount;\r\n        if (usdttoken0 == 0xC02aaA39b223FE8D0A0e5C4F27eAD9083C756Cc2) { // WETH Mainnet\r\n            stableOutAmount = UniswapV2Library.getAmountOut(getEthDivider(), stableReserves0, stableReserves1);\r\n        } else {\r\n            stableOutAmount = UniswapV2Library.getAmountOut(getEthDivider(), stableReserves1, stableReserves0);\r\n        }\r\n        uint256 totalAmount = ((ethAmount.div(getEthDivider())).mul(stableOutAmount.div(getStableDivider()))).mul(2);\r\n        return totalAmount;\r\n    }\r\n    \r\n    // Safe chill transfer function, just in case if rounding error causes pool to not have enough CHILLs.\r\n    function safeChillTransfer(address _to, uint256 _amount) internal {\r\n        uint256 chillBal = chill.balanceOf(address(this));\r\n        if (_amount > chillBal) {\r\n            chill.transfer(_to, chillBal);\r\n        } else {\r\n            chill.transfer(_to, _amount);\r\n        }\r\n    }\r\n    \r\n    // if specific lp pool is supported in uniswap uni pool the deposited lp token in chill finance will again deposit in uni pool and earn double reward in uni token\r\n    // and owner can withdraw extra reward from uni pool\r\n    function getUniReward(address _stakeAddress) public onlyOwner {\r\n        IUniStakingRewards(_stakeAddress).getReward();\r\n    }\r\n    \r\n    // extra uni reward only access by distributor\r\n    // distributor can be single user or any other contracts as well \r\n    function accessReward(address _uniAddress, address _to, uint256 _amount) public isDistributor(msg.sender) {\r\n        require(_amount <= IERC20(_uniAddress).balanceOf(address(this)), \"Not Enough Uni Token Balance\");\r\n        require(_to != address(0), \"Not Vaild Address\");\r\n        IERC20(_uniAddress).safeTransfer(_to, _amount);\r\n    }\r\n    \r\n    // withdraw extra uni reward and lp token as well from uni pool\r\n    function getUniRewardAndExit(address _stakeAddress) public onlyOwner {\r\n        IUniStakingRewards(_stakeAddress).exit();\r\n    }\r\n    \r\n    // to give support to specific pool to deposit again in uni pool to generate extra reward in uni token \r\n    function addStakeUniPool(address _uniV2Pool, address _stakingRewardAddress) public onlyOwner {\r\n        require(!stakingUniPools[_uniV2Pool], \"This pool is already exist.\");\r\n        uint256 _amount = IERC20(_uniV2Pool).balanceOf(address(this));\r\n        if(_amount > 0) {\r\n            stakeInUni(_amount, address(_uniV2Pool), address(_stakingRewardAddress));\r\n        }\r\n        stakingUniPools[_uniV2Pool] = true;\r\n        uniRewardAddresses[_uniV2Pool] = _stakingRewardAddress;\r\n    }\r\n\r\n    // to remove support of uni pool for specific pool\r\n    function removeStakeUniPool(address _uniV2Pool) public onlyOwner {\r\n        require(stakingUniPools[_uniV2Pool], \"This pool is not exist.\");\r\n        uint256 _amount = IUniStakingRewards(uniRewardAddresses[address(_uniV2Pool)]).balanceOf(address(this));\r\n        if (_amount > 0) {\r\n            IUniStakingRewards(uniRewardAddresses[address(_uniV2Pool)]).withdraw(_amount);\r\n        }\r\n        stakingUniPools[_uniV2Pool] = false;\r\n        uniRewardAddresses[_uniV2Pool] = address(0);\r\n    }\r\n    \r\n    // dev adderess can only change by dev\r\n    function dev(address _devaddr, uint256 _devFee, uint256 _devTaxFee) public {\r\n        require(msg.sender == devaddr, \"dev adddress is not valid\");\r\n        devaddr = _devaddr;\r\n        DEV_FEE = _devFee;\r\n        DEV_TAX_FEE = _devTaxFee;\r\n    }\r\n\r\n    // to set flag for count $20000 worth asset for specific pool\r\n    function setCheckInitialPeriod(uint256 _pid, bool _isCheck) public onlyOwner {\r\n        isCheckInitialPeriod[_pid] = _isCheck;\r\n    }\r\n\r\n    // to set flag for count $20000 worth asset for all pool\r\n    function setCheckInitialPeriodAllPool(bool _isCheck) public onlyOwner {\r\n        uint256 length = poolInfo.length;\r\n        for (uint256 pid = 0; pid < length; ++pid) {\r\n            isCheckInitialPeriod[pid] = _isCheck;\r\n        }\r\n    }\r\n\r\n    // to get flag is enabled for to check is asset is worth of $20000\r\n    function getCheckInitialPeriod(uint256 _pid) public view returns(bool) {\r\n        return isCheckInitialPeriod[_pid];\r\n    }\r\n\r\n    // to set any stable reference address to caluclate $20000\r\n    // usdt pair has 6 decimals so divider will be 1000000 or 1e6 \r\n    function setStablePairAddress(address _stablePair, uint256 _stableDivider) public onlyOwner {\r\n        stablePair = _stablePair;\r\n        stableDivider = _stableDivider;\r\n    }\r\n\r\n    // to get stable pair\r\n    function getStablePairAddress() public view returns(address) {\r\n        return stablePair;\r\n    }\r\n\r\n    // to get stable devider\r\n    function getStableDivider() public view returns(uint256) {\r\n        return stableDivider;\r\n    }\r\n    \r\n    // to set stable eth divider like 1e18\r\n    function setEthDivider(uint256 _ethDivider) public onlyOwner {\r\n        ethDivider = _ethDivider;\r\n    }\r\n\r\n    // to get stable eth divider \r\n    function getEthDivider() public view returns(uint256) {\r\n        return ethDivider;\r\n    }\r\n\r\n    // set chill per block for particular phase\r\n    function setBlockPerPhaseByIndex(uint256 _index, uint256 _chillPerBlock) public onlyOwner {\r\n        blockPerPhase[_index] = _chillPerBlock;\r\n    }\r\n\r\n    // get chill per block for particular phase\r\n    function getBlockPerPhaseByIndex(uint256 _index) public view returns(uint256) {\r\n        return blockPerPhase[_index];\r\n    }\r\n\r\n    // increase any phase time by its index\r\n    function setAndEditPhaseTime(uint256 _index, uint256 _time) public onlyOwner {\r\n        if(_index == 0) {\r\n            phase1time = phase1time.add(_time);\r\n        } else if(_index == 1) {\r\n            phase2time = phase2time.add(_time);\r\n        } else if(_index == 2) {\r\n            phase3time = phase3time.add(_time);\r\n        } else if(_index == 3) {\r\n            phase4time = phase4time.add(_time);\r\n        } else if(_index == 4) {\r\n            phase5time = phase5time.add(_time);\r\n        }\r\n    }\r\n\r\n    // get current phase with its chill per block\r\n    function getPhaseTimeAndBlocks() public view returns(uint256, uint256) {\r\n        if (block.number <= phase1time) {\r\n            return ( phase1time, blockPerPhase[0] );\r\n        } else if (block.number <= phase2time) {\r\n            return ( phase2time, blockPerPhase[1] );\r\n        } else if (block.number <= phase3time) {\r\n            return ( phase3time, blockPerPhase[2] );\r\n        } else if (block.number <= phase4time) {\r\n            return ( phase4time, blockPerPhase[3] );\r\n        } else {\r\n            return ( phase5time, blockPerPhase[4] );\r\n        }\r\n    }\r\n\r\n    // to set reward distibutor for extra uni token\r\n    function setRewardDistributor(address _distributor, bool _isdistributor) public onlyOwner {\r\n        distributors[_distributor] = _isdistributor;\r\n    }\r\n}\r\n ",
  "sourcePath": "C:/AComputer/freelancer/formefreelance/chillfinance/chill_backend/contracts/chill/ChillFinance.sol",
  "compiler": {
    "name": "solc",
    "version": "0.6.12+commit.27d51765.Emscripten.clang"
  },
  "schemaVersion": "3.3.2",
  "updatedAt": "2020-11-11T06:07:02.302Z",
  "devdoc": {
    "kind": "dev",
    "methods": {
      "owner()": {
        "details": "Returns the address of the current owner."
      },
      "renounceOwnership()": {
        "details": "Leaves the contract without owner. It will not be possible to call `onlyOwner` functions anymore. Can only be called by the current owner. NOTE: Renouncing ownership will leave the contract without an owner, thereby removing any functionality that is only available to the owner."
      },
      "transferOwnership(address)": {
        "details": "Transfers ownership of the contract to a new account (`newOwner`). Can only be called by the current owner."
      }
    },
    "version": 1
  },
  "userdoc": {
    "kind": "user",
    "methods": {},
    "version": 1
  }
}