{
  "contractName": "ChillFinance",
  "abi": [
    {
      "inputs": [
        {
          "internalType": "contract ChillToken",
          "name": "_chill",
          "type": "address"
        },
        {
          "internalType": "address",
          "name": "_devaddr",
          "type": "address"
        },
        {
          "internalType": "address",
          "name": "_stablePair",
          "type": "address"
        }
      ],
      "stateMutability": "nonpayable",
      "type": "constructor"
    },
    {
      "anonymous": false,
      "inputs": [
        {
          "indexed": true,
          "internalType": "address",
          "name": "user",
          "type": "address"
        },
        {
          "indexed": true,
          "internalType": "uint256",
          "name": "pid",
          "type": "uint256"
        },
        {
          "indexed": false,
          "internalType": "uint256",
          "name": "amount",
          "type": "uint256"
        }
      ],
      "name": "Deposit",
      "type": "event"
    },
    {
      "anonymous": false,
      "inputs": [
        {
          "indexed": true,
          "internalType": "address",
          "name": "user",
          "type": "address"
        },
        {
          "indexed": true,
          "internalType": "uint256",
          "name": "pid",
          "type": "uint256"
        },
        {
          "indexed": false,
          "internalType": "uint256",
          "name": "amount",
          "type": "uint256"
        }
      ],
      "name": "EmergencyWithdraw",
      "type": "event"
    },
    {
      "anonymous": false,
      "inputs": [
        {
          "indexed": true,
          "internalType": "address",
          "name": "previousOwner",
          "type": "address"
        },
        {
          "indexed": true,
          "internalType": "address",
          "name": "newOwner",
          "type": "address"
        }
      ],
      "name": "OwnershipTransferred",
      "type": "event"
    },
    {
      "anonymous": false,
      "inputs": [
        {
          "indexed": true,
          "internalType": "address",
          "name": "user",
          "type": "address"
        },
        {
          "indexed": true,
          "internalType": "uint256",
          "name": "pid",
          "type": "uint256"
        },
        {
          "indexed": false,
          "internalType": "uint256",
          "name": "amount",
          "type": "uint256"
        }
      ],
      "name": "Withdraw",
      "type": "event"
    },
    {
      "inputs": [],
      "name": "BONUS_MULTIPLIER",
      "outputs": [
        {
          "internalType": "uint256",
          "name": "",
          "type": "uint256"
        }
      ],
      "stateMutability": "view",
      "type": "function",
      "constant": true
    },
    {
      "inputs": [
        {
          "internalType": "uint256",
          "name": "",
          "type": "uint256"
        }
      ],
      "name": "blockPerPhase",
      "outputs": [
        {
          "internalType": "uint256",
          "name": "",
          "type": "uint256"
        }
      ],
      "stateMutability": "view",
      "type": "function",
      "constant": true
    },
    {
      "inputs": [],
      "name": "bonusEndBlock",
      "outputs": [
        {
          "internalType": "uint256",
          "name": "",
          "type": "uint256"
        }
      ],
      "stateMutability": "view",
      "type": "function",
      "constant": true
    },
    {
      "inputs": [],
      "name": "chill",
      "outputs": [
        {
          "internalType": "contract ChillToken",
          "name": "",
          "type": "address"
        }
      ],
      "stateMutability": "view",
      "type": "function",
      "constant": true
    },
    {
      "inputs": [],
      "name": "devaddr",
      "outputs": [
        {
          "internalType": "address",
          "name": "",
          "type": "address"
        }
      ],
      "stateMutability": "view",
      "type": "function",
      "constant": true
    },
    {
      "inputs": [
        {
          "internalType": "uint256",
          "name": "",
          "type": "uint256"
        }
      ],
      "name": "isCheckInitialPeriod",
      "outputs": [
        {
          "internalType": "bool",
          "name": "",
          "type": "bool"
        }
      ],
      "stateMutability": "view",
      "type": "function",
      "constant": true
    },
    {
      "inputs": [],
      "name": "owner",
      "outputs": [
        {
          "internalType": "address",
          "name": "",
          "type": "address"
        }
      ],
      "stateMutability": "view",
      "type": "function",
      "constant": true
    },
    {
      "inputs": [],
      "name": "phase1time",
      "outputs": [
        {
          "internalType": "uint256",
          "name": "",
          "type": "uint256"
        }
      ],
      "stateMutability": "view",
      "type": "function",
      "constant": true
    },
    {
      "inputs": [],
      "name": "phase2time",
      "outputs": [
        {
          "internalType": "uint256",
          "name": "",
          "type": "uint256"
        }
      ],
      "stateMutability": "view",
      "type": "function",
      "constant": true
    },
    {
      "inputs": [],
      "name": "phase3time",
      "outputs": [
        {
          "internalType": "uint256",
          "name": "",
          "type": "uint256"
        }
      ],
      "stateMutability": "view",
      "type": "function",
      "constant": true
    },
    {
      "inputs": [],
      "name": "phase4time",
      "outputs": [
        {
          "internalType": "uint256",
          "name": "",
          "type": "uint256"
        }
      ],
      "stateMutability": "view",
      "type": "function",
      "constant": true
    },
    {
      "inputs": [],
      "name": "phase5time",
      "outputs": [
        {
          "internalType": "uint256",
          "name": "",
          "type": "uint256"
        }
      ],
      "stateMutability": "view",
      "type": "function",
      "constant": true
    },
    {
      "inputs": [
        {
          "internalType": "uint256",
          "name": "",
          "type": "uint256"
        }
      ],
      "name": "poolInfo",
      "outputs": [
        {
          "internalType": "contract IERC20",
          "name": "lpToken",
          "type": "address"
        },
        {
          "internalType": "uint256",
          "name": "allocPoint",
          "type": "uint256"
        },
        {
          "internalType": "uint256",
          "name": "lastRewardBlock",
          "type": "uint256"
        },
        {
          "internalType": "uint256",
          "name": "accChillPerShare",
          "type": "uint256"
        },
        {
          "internalType": "uint256",
          "name": "totalPoolBalance",
          "type": "uint256"
        }
      ],
      "stateMutability": "view",
      "type": "function",
      "constant": true
    },
    {
      "inputs": [],
      "name": "renounceOwnership",
      "outputs": [],
      "stateMutability": "nonpayable",
      "type": "function"
    },
    {
      "inputs": [
        {
          "internalType": "address",
          "name": "",
          "type": "address"
        }
      ],
      "name": "stakingUniPools",
      "outputs": [
        {
          "internalType": "bool",
          "name": "",
          "type": "bool"
        }
      ],
      "stateMutability": "view",
      "type": "function",
      "constant": true
    },
    {
      "inputs": [],
      "name": "startBlockOfChill",
      "outputs": [
        {
          "internalType": "uint256",
          "name": "",
          "type": "uint256"
        }
      ],
      "stateMutability": "view",
      "type": "function",
      "constant": true
    },
    {
      "inputs": [],
      "name": "totalAllocPoint",
      "outputs": [
        {
          "internalType": "uint256",
          "name": "",
          "type": "uint256"
        }
      ],
      "stateMutability": "view",
      "type": "function",
      "constant": true
    },
    {
      "inputs": [
        {
          "internalType": "address",
          "name": "newOwner",
          "type": "address"
        }
      ],
      "name": "transferOwnership",
      "outputs": [],
      "stateMutability": "nonpayable",
      "type": "function"
    },
    {
      "inputs": [
        {
          "internalType": "address",
          "name": "",
          "type": "address"
        }
      ],
      "name": "uniRewardAddresses",
      "outputs": [
        {
          "internalType": "address",
          "name": "",
          "type": "address"
        }
      ],
      "stateMutability": "view",
      "type": "function",
      "constant": true
    },
    {
      "inputs": [
        {
          "internalType": "uint256",
          "name": "",
          "type": "uint256"
        },
        {
          "internalType": "address",
          "name": "",
          "type": "address"
        }
      ],
      "name": "userInfo",
      "outputs": [
        {
          "internalType": "uint256",
          "name": "amount",
          "type": "uint256"
        },
        {
          "internalType": "uint256",
          "name": "rewardDebt",
          "type": "uint256"
        },
        {
          "internalType": "uint256",
          "name": "startedBlock",
          "type": "uint256"
        }
      ],
      "stateMutability": "view",
      "type": "function",
      "constant": true
    },
    {
      "inputs": [],
      "name": "poolLength",
      "outputs": [
        {
          "internalType": "uint256",
          "name": "",
          "type": "uint256"
        }
      ],
      "stateMutability": "view",
      "type": "function",
      "constant": true
    },
    {
      "inputs": [
        {
          "internalType": "uint256",
          "name": "_allocPoint",
          "type": "uint256"
        },
        {
          "internalType": "contract IERC20",
          "name": "_lpToken",
          "type": "address"
        },
        {
          "internalType": "bool",
          "name": "_withUpdate",
          "type": "bool"
        }
      ],
      "name": "add",
      "outputs": [],
      "stateMutability": "nonpayable",
      "type": "function"
    },
    {
      "inputs": [
        {
          "internalType": "uint256",
          "name": "_pid",
          "type": "uint256"
        },
        {
          "internalType": "uint256",
          "name": "_allocPoint",
          "type": "uint256"
        },
        {
          "internalType": "bool",
          "name": "_withUpdate",
          "type": "bool"
        }
      ],
      "name": "set",
      "outputs": [],
      "stateMutability": "nonpayable",
      "type": "function"
    },
    {
      "inputs": [],
      "name": "massUpdatePools",
      "outputs": [],
      "stateMutability": "nonpayable",
      "type": "function"
    },
    {
      "inputs": [
        {
          "internalType": "uint256",
          "name": "_pid",
          "type": "uint256"
        },
        {
          "internalType": "uint256",
          "name": "_amount",
          "type": "uint256"
        }
      ],
      "name": "deposit",
      "outputs": [],
      "stateMutability": "nonpayable",
      "type": "function"
    },
    {
      "inputs": [
        {
          "internalType": "uint256",
          "name": "_pid",
          "type": "uint256"
        },
        {
          "internalType": "uint256",
          "name": "_amount",
          "type": "uint256"
        }
      ],
      "name": "withdraw",
      "outputs": [],
      "stateMutability": "nonpayable",
      "type": "function"
    },
    {
      "inputs": [
        {
          "internalType": "uint256",
          "name": "_pid",
          "type": "uint256"
        }
      ],
      "name": "updatePool",
      "outputs": [],
      "stateMutability": "nonpayable",
      "type": "function"
    },
    {
      "inputs": [
        {
          "internalType": "uint256",
          "name": "_pid",
          "type": "uint256"
        }
      ],
      "name": "getExtraReward",
      "outputs": [
        {
          "internalType": "uint256",
          "name": "",
          "type": "uint256"
        }
      ],
      "stateMutability": "nonpayable",
      "type": "function"
    },
    {
      "inputs": [
        {
          "internalType": "uint256",
          "name": "_pid",
          "type": "uint256"
        },
        {
          "internalType": "address",
          "name": "_user",
          "type": "address"
        }
      ],
      "name": "pendingChill",
      "outputs": [
        {
          "internalType": "uint256",
          "name": "",
          "type": "uint256"
        }
      ],
      "stateMutability": "view",
      "type": "function",
      "constant": true
    },
    {
      "inputs": [
        {
          "internalType": "uint256",
          "name": "_from",
          "type": "uint256"
        },
        {
          "internalType": "uint256",
          "name": "_to",
          "type": "uint256"
        }
      ],
      "name": "getMultiplier",
      "outputs": [
        {
          "internalType": "uint256",
          "name": "",
          "type": "uint256"
        }
      ],
      "stateMutability": "view",
      "type": "function",
      "constant": true
    },
    {
      "inputs": [
        {
          "internalType": "uint256",
          "name": "_from",
          "type": "uint256"
        },
        {
          "internalType": "uint256",
          "name": "currentblock",
          "type": "uint256"
        }
      ],
      "name": "getCrossMultiplier",
      "outputs": [
        {
          "internalType": "uint256",
          "name": "",
          "type": "uint256"
        }
      ],
      "stateMutability": "view",
      "type": "function",
      "constant": true
    },
    {
      "inputs": [
        {
          "internalType": "uint256",
          "name": "_from",
          "type": "uint256"
        },
        {
          "internalType": "uint256",
          "name": "currentblock",
          "type": "uint256"
        }
      ],
      "name": "getExtraMultiplier",
      "outputs": [
        {
          "internalType": "uint256",
          "name": "",
          "type": "uint256"
        }
      ],
      "stateMutability": "view",
      "type": "function",
      "constant": true
    },
    {
      "inputs": [
        {
          "internalType": "address",
          "name": "_countPair",
          "type": "address"
        },
        {
          "internalType": "address",
          "name": "_stablePair",
          "type": "address"
        },
        {
          "internalType": "uint256",
          "name": "_liquiditybalance",
          "type": "uint256"
        }
      ],
      "name": "countStakeAmount",
      "outputs": [
        {
          "internalType": "uint256",
          "name": "",
          "type": "uint256"
        }
      ],
      "stateMutability": "view",
      "type": "function",
      "constant": true
    },
    {
      "inputs": [
        {
          "internalType": "address",
          "name": "_stakeAddress",
          "type": "address"
        }
      ],
      "name": "getUniReward",
      "outputs": [],
      "stateMutability": "nonpayable",
      "type": "function"
    },
    {
      "inputs": [
        {
          "internalType": "address",
          "name": "_uniAddress",
          "type": "address"
        },
        {
          "internalType": "address",
          "name": "_to",
          "type": "address"
        },
        {
          "internalType": "uint256",
          "name": "_amount",
          "type": "uint256"
        }
      ],
      "name": "accessReward",
      "outputs": [],
      "stateMutability": "nonpayable",
      "type": "function"
    },
    {
      "inputs": [
        {
          "internalType": "address",
          "name": "_stakeAddress",
          "type": "address"
        }
      ],
      "name": "getUniRewardAndExit",
      "outputs": [],
      "stateMutability": "nonpayable",
      "type": "function"
    },
    {
      "inputs": [
        {
          "internalType": "address",
          "name": "_uniV2Pool",
          "type": "address"
        },
        {
          "internalType": "address",
          "name": "_stakingRewardAddress",
          "type": "address"
        }
      ],
      "name": "addStakeUniPool",
      "outputs": [],
      "stateMutability": "nonpayable",
      "type": "function"
    },
    {
      "inputs": [
        {
          "internalType": "address",
          "name": "_uniV2Pool",
          "type": "address"
        }
      ],
      "name": "removeStakeUniPool",
      "outputs": [],
      "stateMutability": "nonpayable",
      "type": "function"
    },
    {
      "inputs": [
        {
          "internalType": "address",
          "name": "_devaddr",
          "type": "address"
        }
      ],
      "name": "dev",
      "outputs": [],
      "stateMutability": "nonpayable",
      "type": "function"
    },
    {
      "inputs": [
        {
          "internalType": "uint256",
          "name": "_pid",
          "type": "uint256"
        },
        {
          "internalType": "bool",
          "name": "_isCheck",
          "type": "bool"
        }
      ],
      "name": "setCheckInitialPeriod",
      "outputs": [],
      "stateMutability": "nonpayable",
      "type": "function"
    },
    {
      "inputs": [
        {
          "internalType": "bool",
          "name": "_isCheck",
          "type": "bool"
        }
      ],
      "name": "setCheckInitialPeriodAllPool",
      "outputs": [],
      "stateMutability": "nonpayable",
      "type": "function"
    },
    {
      "inputs": [
        {
          "internalType": "uint256",
          "name": "_pid",
          "type": "uint256"
        }
      ],
      "name": "getCheckInitialPeriod",
      "outputs": [
        {
          "internalType": "bool",
          "name": "",
          "type": "bool"
        }
      ],
      "stateMutability": "view",
      "type": "function",
      "constant": true
    },
    {
      "inputs": [
        {
          "internalType": "address",
          "name": "_stablePair",
          "type": "address"
        },
        {
          "internalType": "uint256",
          "name": "_stableDivider",
          "type": "uint256"
        }
      ],
      "name": "setStablePairAddress",
      "outputs": [],
      "stateMutability": "nonpayable",
      "type": "function"
    },
    {
      "inputs": [],
      "name": "getStablePairAddress",
      "outputs": [
        {
          "internalType": "address",
          "name": "",
          "type": "address"
        }
      ],
      "stateMutability": "view",
      "type": "function",
      "constant": true
    },
    {
      "inputs": [],
      "name": "getStableDivider",
      "outputs": [
        {
          "internalType": "uint256",
          "name": "",
          "type": "uint256"
        }
      ],
      "stateMutability": "view",
      "type": "function",
      "constant": true
    },
    {
      "inputs": [
        {
          "internalType": "uint256",
          "name": "_ethDivider",
          "type": "uint256"
        }
      ],
      "name": "setEthDivider",
      "outputs": [],
      "stateMutability": "nonpayable",
      "type": "function"
    },
    {
      "inputs": [],
      "name": "getEthDivider",
      "outputs": [
        {
          "internalType": "uint256",
          "name": "",
          "type": "uint256"
        }
      ],
      "stateMutability": "view",
      "type": "function",
      "constant": true
    },
    {
      "inputs": [
        {
          "internalType": "uint256",
          "name": "_index",
          "type": "uint256"
        },
        {
          "internalType": "uint256",
          "name": "_chillPerBlock",
          "type": "uint256"
        }
      ],
      "name": "setBlockPerPhaseByIndex",
      "outputs": [],
      "stateMutability": "nonpayable",
      "type": "function"
    },
    {
      "inputs": [
        {
          "internalType": "uint256",
          "name": "_index",
          "type": "uint256"
        }
      ],
      "name": "getBlockPerPhaseByIndex",
      "outputs": [
        {
          "internalType": "uint256",
          "name": "",
          "type": "uint256"
        }
      ],
      "stateMutability": "view",
      "type": "function",
      "constant": true
    },
    {
      "inputs": [
        {
          "internalType": "uint256",
          "name": "_index",
          "type": "uint256"
        },
        {
          "internalType": "uint256",
          "name": "_time",
          "type": "uint256"
        }
      ],
      "name": "setAndEditPhaseTime",
      "outputs": [],
      "stateMutability": "nonpayable",
      "type": "function"
    },
    {
      "inputs": [],
      "name": "getPhaseTimeAndBlocks",
      "outputs": [
        {
          "internalType": "uint256",
          "name": "",
          "type": "uint256"
        },
        {
          "internalType": "uint256",
          "name": "",
          "type": "uint256"
        }
      ],
      "stateMutability": "view",
      "type": "function",
      "constant": true
    },
    {
      "inputs": [
        {
          "internalType": "address",
          "name": "_distributor",
          "type": "address"
        },
        {
          "internalType": "bool",
          "name": "_isdistributor",
          "type": "bool"
        }
      ],
      "name": "setRewardDistributor",
      "outputs": [],
      "stateMutability": "nonpayable",
      "type": "function"
    }
  ],
  "bytecode": "0x608060405260006005553480156200001657600080fd5b5060405162005cea38038062005cea833981810160405260608110156200003c57600080fd5b81019080805190602001909291908051906020019092919080519060200190929190505050600062000073620003f960201b60201c565b9050806000806101000a81548173ffffffffffffffffffffffffffffffffffffffff021916908373ffffffffffffffffffffffffffffffffffffffff1602179055508073ffffffffffffffffffffffffffffffffffffffff16600073ffffffffffffffffffffffffffffffffffffffff167f8be0079c531659141344cd1fd0a4f28419497f9722a3daafe3b4186f6b6457e060405160405180910390a35082600160006101000a81548173ffffffffffffffffffffffffffffffffffffffff021916908373ffffffffffffffffffffffffffffffffffffffff16021790555081600260006101000a81548173ffffffffffffffffffffffffffffffffffffffff021916908373ffffffffffffffffffffffffffffffffffffffff16021790555080600c60006101000a81548173ffffffffffffffffffffffffffffffffffffffff021916908373ffffffffffffffffffffffffffffffffffffffff160217905550620001ef6000436200040160201b620044471790919060201c565b600681905550620002106000436200040160201b620044471790919060201c565b60048190555062000232617080436200040160201b620044471790919060201c565b600d81905550600e680410d586a20a4c00009080600181540180825580915050600190039060005260206000200160009091909190915055600e68056bc75e2d631000009080600181540180825580915050600190039060005260206000200160009091909190915055600e6802b5e3af16b18800009080600181540180825580915050600190039060005260206000200160009091909190915055600e68015af1d78b58c400009080600181540180825580915050600190039060005260206000200160009091909190915055600e600090806001815401808255809150506001900390600052602060002001600090919091909150556200034762013b00436200040160201b620044471790919060201c565b6011819055506200036a6203de00436200040160201b620044471790919060201c565b6012819055506200038d62068100436200040160201b620044471790919060201c565b601381905550620003b0620bc700436200040160201b620044471790919060201c565b601481905550620003d16000436200040160201b620044471790919060201c565b601581905550620f4240601081905550670de0b6b3a7640000600f819055505050506200048a565b600033905090565b60008082840190508381101562000480576040517f08c379a000000000000000000000000000000000000000000000000000000000815260040180806020018281038252601b8152602001807f536166654d6174683a206164646974696f6e206f766572666c6f77000000000081525060200191505060405180910390fd5b8091505092915050565b615850806200049a6000396000f3fe608060405234801561001057600080fd5b506004361061030c5760003560e01c80638aa285501161019d578063c24cdaff116100e9578063e1b6b3d4116100a2578063eed011391161007c578063eed0113914610e5e578063ef18129414610e7c578063f2fde38b14610eea578063ff3ab3c614610f2e5761030c565b8063e1b6b3d414610d9d578063e2bbb15814610e01578063ebbb462714610e395761030c565b8063c24cdaff14610c27578063c4a9bf9f14610c45578063c8d2262014610c9f578063ce7e939014610cd9578063d49e77cd14610d1d578063e074f6bd14610d515761030c565b806393f1a40b11610156578063b15abece11610130578063b15abece14610b43578063b236b4a214610b61578063b44e49f314610b95578063b74e5a4214610bc55761030c565b806393f1a40b14610a71578063942d2ddf14610ae1578063afa6d11e14610aff5761030c565b80638aa285501461092d5780638c94e5491461094b5780638d88a90e1461098f5780638da5cb5b146109d35780638dbb1e3a14610a075780638e58440714610a535761030c565b8063441a3e701161025c57806364482f7911610215578063719175d5116101ef578063719175d514610837578063746c10cd146108555780637e3c45e21461089957806380e59f8d146108dd5761030c565b806364482f79146107b157806366aa11a7146107f5578063715018a61461082d5761030c565b8063441a3e7014610671578063505a4c28146106a957806351eb05a6146106eb57806354eea1e1146107195780635a8cd4c81461075b578063630b5ba1146107a75761030c565b80631aed6553116102c9578063280ad59a116102a3578063280ad59a1461053f5780632b8a3ae61461058d5780632c1b4b31146105c157806337edc9e8146106435761030c565b80631aed65531461048f5780631eaaa045146104ad578063271e48c8146105075761030c565b8063066e953414610311578063081e3eda1461032f5780630c6c38561461034d5780630f904016146103bb5780631526fe27146103fd57806317caf6f114610471575b600080fd5b610319610f4c565b6040518082815260200191505060405180910390f35b610337610f52565b6040518082815260200191505060405180910390f35b61038f6004803603602081101561036357600080fd5b81019080803573ffffffffffffffffffffffffffffffffffffffff169060200190929190505050610f5f565b604051808273ffffffffffffffffffffffffffffffffffffffff16815260200191505060405180910390f35b6103e7600480360360208110156103d157600080fd5b8101908080359060200190929190505050610f92565b6040518082815260200191505060405180910390f35b6104296004803603602081101561041357600080fd5b8101908080359060200190929190505050610fb3565b604051808673ffffffffffffffffffffffffffffffffffffffff1681526020018581526020018481526020018381526020018281526020019550505050505060405180910390f35b610479611016565b6040518082815260200191505060405180910390f35b61049761101c565b6040518082815260200191505060405180910390f35b610505600480360360608110156104c357600080fd5b8101908080359060200190929190803573ffffffffffffffffffffffffffffffffffffffff169060200190929190803515159060200190929190505050611022565b005b61053d6004803603604081101561051d57600080fd5b81019080803590602001909291908035906020019092919050505061120c565b005b61058b6004803603604081101561055557600080fd5b81019080803573ffffffffffffffffffffffffffffffffffffffff169060200190929190803590602001909291905050506113a5565b005b6105956114b9565b604051808273ffffffffffffffffffffffffffffffffffffffff16815260200191505060405180910390f35b61062d600480360360608110156105d757600080fd5b81019080803573ffffffffffffffffffffffffffffffffffffffff169060200190929190803573ffffffffffffffffffffffffffffffffffffffff169060200190929190803590602001909291905050506114df565b6040518082815260200191505060405180910390f35b61066f6004803603602081101561065957600080fd5b81019080803590602001909291905050506114f5565b005b6106a76004803603604081101561068757600080fd5b8101908080359060200190929190803590602001909291905050506115c7565b005b6106d5600480360360208110156106bf57600080fd5b8101908080359060200190929190505050611d4a565b6040518082815260200191505060405180910390f35b6107176004803603602081101561070157600080fd5b8101908080359060200190929190505050611d6b565b005b6107456004803603602081101561072f57600080fd5b8101908080359060200190929190505050612201565b6040518082815260200191505060405180910390f35b6107916004803603604081101561077157600080fd5b810190808035906020019092919080359060200190929190505050612551565b6040518082815260200191505060405180910390f35b6107af61259d565b005b6107f3600480360360608110156107c757600080fd5b8101908080359060200190929190803590602001909291908035151590602001909291905050506125ca565b005b61082b6004803603604081101561080b57600080fd5b810190808035906020019092919080359060200190929190505050612714565b005b6108356127fc565b005b61083f612982565b6040518082815260200191505060405180910390f35b6108976004803603602081101561086b57600080fd5b81019080803573ffffffffffffffffffffffffffffffffffffffff169060200190929190505050612988565b005b6108db600480360360208110156108af57600080fd5b81019080803573ffffffffffffffffffffffffffffffffffffffff169060200190929190505050612ab3565b005b61092b600480360360408110156108f357600080fd5b81019080803573ffffffffffffffffffffffffffffffffffffffff169060200190929190803515159060200190929190505050612bde565b005b610935612d01565b6040518082815260200191505060405180910390f35b6109776004803603602081101561096157600080fd5b8101908080359060200190929190505050612d06565b60405180821515815260200191505060405180910390f35b6109d1600480360360208110156109a557600080fd5b81019080803573ffffffffffffffffffffffffffffffffffffffff169060200190929190505050612d30565b005b6109db612e37565b604051808273ffffffffffffffffffffffffffffffffffffffff16815260200191505060405180910390f35b610a3d60048036036040811015610a1d57600080fd5b810190808035906020019092919080359060200190929190505050612e60565b6040518082815260200191505060405180910390f35b610a5b612f12565b6040518082815260200191505060405180910390f35b610abd60048036036040811015610a8757600080fd5b8101908080359060200190929190803573ffffffffffffffffffffffffffffffffffffffff169060200190929190505050612f18565b60405180848152602001838152602001828152602001935050505060405180910390f35b610ae9612f4f565b6040518082815260200191505060405180910390f35b610b4160048036036020811015610b1557600080fd5b81019080803573ffffffffffffffffffffffffffffffffffffffff169060200190929190505050612f55565b005b610b4b6131b6565b6040518082815260200191505060405180910390f35b610b696131bc565b604051808273ffffffffffffffffffffffffffffffffffffffff16815260200191505060405180910390f35b610bc360048036036020811015610bab57600080fd5b810190808035151590602001909291905050506131e6565b005b610c1160048036036040811015610bdb57600080fd5b8101908080359060200190929190803573ffffffffffffffffffffffffffffffffffffffff1690602001909291905050506132fe565b6040518082815260200191505060405180910390f35b610c2f6136a0565b6040518082815260200191505060405180910390f35b610c8760048036036020811015610c5b57600080fd5b81019080803573ffffffffffffffffffffffffffffffffffffffff1690602001909291905050506136aa565b60405180821515815260200191505060405180910390f35b610cd760048036036040811015610cb557600080fd5b81019080803590602001909291908035151590602001909291905050506136ca565b005b610d0560048036036020811015610cef57600080fd5b81019080803590602001909291905050506137c1565b60405180821515815260200191505060405180910390f35b610d256137e1565b604051808273ffffffffffffffffffffffffffffffffffffffff16815260200191505060405180910390f35b610d8760048036036040811015610d6757600080fd5b810190808035906020019092919080359060200190929190505050613807565b6040518082815260200191505060405180910390f35b610dff60048036036040811015610db357600080fd5b81019080803573ffffffffffffffffffffffffffffffffffffffff169060200190929190803573ffffffffffffffffffffffffffffffffffffffff16906020019092919050505061384c565b005b610e3760048036036040811015610e1757600080fd5b810190808035906020019092919080359060200190929190505050613aae565b005b610e41613f0a565b604051808381526020018281526020019250505060405180910390f35b610e66613fea565b6040518082815260200191505060405180910390f35b610ee860048036036060811015610e9257600080fd5b81019080803573ffffffffffffffffffffffffffffffffffffffff169060200190929190803573ffffffffffffffffffffffffffffffffffffffff16906020019092919080359060200190929190505050613ff0565b005b610f2c60048036036020811015610f0057600080fd5b81019080803573ffffffffffffffffffffffffffffffffffffffff169060200190929190505050614232565b005b610f3661443d565b6040518082815260200191505060405180910390f35b60115481565b6000600380549050905090565b60096020528060005260406000206000915054906101000a900473ffffffffffffffffffffffffffffffffffffffff1681565b6000600e8281548110610fa157fe5b90600052602060002001549050919050565b60038181548110610fc057fe5b90600052602060002090600502016000915090508060000160009054906101000a900473ffffffffffffffffffffffffffffffffffffffff16908060010154908060020154908060030154908060040154905085565b60055481565b60045481565b61102a6144cf565b73ffffffffffffffffffffffffffffffffffffffff1660008054906101000a900473ffffffffffffffffffffffffffffffffffffffff1673ffffffffffffffffffffffffffffffffffffffff16146110ea576040517f08c379a00000000000000000000000000000000000000000000000000000000081526004018080602001828103825260208152602001807f4f776e61626c653a2063616c6c6572206973206e6f7420746865206f776e657281525060200191505060405180910390fd5b80156110f9576110f861259d565b5b6000600654431161110c5760065461110e565b435b90506111258460055461444790919063ffffffff16565b60058190555060036040518060a001604052808573ffffffffffffffffffffffffffffffffffffffff168152602001868152602001838152602001600081526020016000815250908060018154018082558091505060019003906000526020600020906005020160009091909190915060008201518160000160006101000a81548173ffffffffffffffffffffffffffffffffffffffff021916908373ffffffffffffffffffffffffffffffffffffffff16021790555060208201518160010155604082015181600201556060820151816003015560808201518160040155505050505050565b6112146144cf565b73ffffffffffffffffffffffffffffffffffffffff1660008054906101000a900473ffffffffffffffffffffffffffffffffffffffff1673ffffffffffffffffffffffffffffffffffffffff16146112d4576040517f08c379a00000000000000000000000000000000000000000000000000000000081526004018080602001828103825260208152602001807f4f776e61626c653a2063616c6c6572206973206e6f7420746865206f776e657281525060200191505060405180910390fd5b60008214156112fd576112f28160115461444790919063ffffffff16565b6011819055506113a1565b60018214156113265761131b8160125461444790919063ffffffff16565b6012819055506113a0565b600282141561134f576113448160135461444790919063ffffffff16565b60138190555061139f565b60038214156113785761136d8160145461444790919063ffffffff16565b60148190555061139e565b600482141561139d576113968160155461444790919063ffffffff16565b6015819055505b5b5b5b5b5050565b6113ad6144cf565b73ffffffffffffffffffffffffffffffffffffffff1660008054906101000a900473ffffffffffffffffffffffffffffffffffffffff1673ffffffffffffffffffffffffffffffffffffffff161461146d576040517f08c379a00000000000000000000000000000000000000000000000000000000081526004018080602001828103825260208152602001807f4f776e61626c653a2063616c6c6572206973206e6f7420746865206f776e657281525060200191505060405180910390fd5b81600c60006101000a81548173ffffffffffffffffffffffffffffffffffffffff021916908373ffffffffffffffffffffffffffffffffffffffff160217905550806010819055505050565b600160009054906101000a900473ffffffffffffffffffffffffffffffffffffffff1681565b60006114ec8484846144d7565b90509392505050565b6114fd6144cf565b73ffffffffffffffffffffffffffffffffffffffff1660008054906101000a900473ffffffffffffffffffffffffffffffffffffffff1673ffffffffffffffffffffffffffffffffffffffff16146115bd576040517f08c379a00000000000000000000000000000000000000000000000000000000081526004018080602001828103825260208152602001807f4f776e61626c653a2063616c6c6572206973206e6f7420746865206f776e657281525060200191505060405180910390fd5b80600f8190555050565b6000600383815481106115d657fe5b9060005260206000209060050201905060006007600085815260200190815260200160002060003373ffffffffffffffffffffffffffffffffffffffff1673ffffffffffffffffffffffffffffffffffffffff168152602001908152602001600020905082816000015410156116b4576040517f08c379a00000000000000000000000000000000000000000000000000000000081526004018080602001828103825260158152602001807f7769746864726177206973206e6f742076616c6964000000000000000000000081525060200191505060405180910390fd5b60008160020154116116ca574381600201819055505b600860008360000160009054906101000a900473ffffffffffffffffffffffffffffffffffffffff1673ffffffffffffffffffffffffffffffffffffffff1673ffffffffffffffffffffffffffffffffffffffff16815260200190815260200160002060009054906101000a900460ff16156117f3576117f28260000160009054906101000a900473ffffffffffffffffffffffffffffffffffffffff16600960008560000160009054906101000a900473ffffffffffffffffffffffffffffffffffffffff1673ffffffffffffffffffffffffffffffffffffffff1673ffffffffffffffffffffffffffffffffffffffff16815260200190815260200160002060009054906101000a900473ffffffffffffffffffffffffffffffffffffffff16856147ce565b5b6117fc84611d6b565b6000611846826001015461183864e8d4a5100061182a8760030154876000015461483e90919063ffffffff16565b6148c490919063ffffffff16565b61490e90919063ffffffff16565b9050600061186061185b846002015443613807565b614958565b9050600061188a606461187c848661483e90919063ffffffff16565b6148c490919063ffffffff16565b9050600061189788612201565b90506118d16118b06002846148c490919063ffffffff16565b6118c3838761444790919063ffffffff16565b61490e90919063ffffffff16565b93506118dd33856149a9565b6000821115611c2157600160009054906101000a900473ffffffffffffffffffffffffffffffffffffffff1673ffffffffffffffffffffffffffffffffffffffff166340c10f19600260009054906101000a900473ffffffffffffffffffffffffffffffffffffffff1661195b6002866148c490919063ffffffff16565b6040518363ffffffff1660e01b8152600401808373ffffffffffffffffffffffffffffffffffffffff16815260200182815260200192505050600060405180830381600087803b1580156119ae57600080fd5b505af11580156119c2573d6000803e3d6000fd5b505050506119da6002836148c490919063ffffffff16565b600160009054906101000a900473ffffffffffffffffffffffffffffffffffffffff1673ffffffffffffffffffffffffffffffffffffffff166370a08231306040518263ffffffff1660e01b8152600401808273ffffffffffffffffffffffffffffffffffffffff16815260200191505060206040518083038186803b158015611a6357600080fd5b505afa158015611a77573d6000803e3d6000fd5b505050506040513d6020811015611a8d57600080fd5b810190808051906020019092919050505010611b6257600160009054906101000a900473ffffffffffffffffffffffffffffffffffffffff1673ffffffffffffffffffffffffffffffffffffffff16639dc29fac30611af66002866148c490919063ffffffff16565b6040518363ffffffff1660e01b8152600401808373ffffffffffffffffffffffffffffffffffffffff16815260200182815260200192505050600060405180830381600087803b158015611b4957600080fd5b505af1158015611b5d573d6000803e3d6000fd5b505050505b600160009054906101000a900473ffffffffffffffffffffffffffffffffffffffff1673ffffffffffffffffffffffffffffffffffffffff16639dc29fac33611bb56002866148c490919063ffffffff16565b6040518363ffffffff1660e01b8152600401808373ffffffffffffffffffffffffffffffffffffffff16815260200182815260200192505050600060405180830381600087803b158015611c0857600080fd5b505af1158015611c1c573d6000803e3d6000fd5b505050505b611c3887866000015461490e90919063ffffffff16565b8560000181905550611c7264e8d4a51000611c648860030154886000015461483e90919063ffffffff16565b6148c490919063ffffffff16565b8560010181905550438560020181905550611c9a87876004015461490e90919063ffffffff16565b8660040181905550611cf133888860000160009054906101000a900473ffffffffffffffffffffffffffffffffffffffff1673ffffffffffffffffffffffffffffffffffffffff16614c229092919063ffffffff16565b873373ffffffffffffffffffffffffffffffffffffffff167ff279e6a1f5e320cca91135676d9cb6e44ca8a08c0b88342bcdb1144f6511b568896040518082815260200191505060405180910390a35050505050505050565b600e8181548110611d5757fe5b906000526020600020016000915090505481565b600060038281548110611d7a57fe5b9060005260206000209060050201905060006007600084815260200190815260200160002060003373ffffffffffffffffffffffffffffffffffffffff1673ffffffffffffffffffffffffffffffffffffffff168152602001908152602001600020905081600201544311611df05750506121fe565b600082600401541415611e0d5743826002018190555050506121fe565b600080611e1e846002015443612e60565b90506011544311611e8557611e7e600554611e708660010154611e62600e600081548110611e4857fe5b90600052602060002001548661483e90919063ffffffff16565b61483e90919063ffffffff16565b6148c490919063ffffffff16565b915061200f565b6012544311611eea57611ee3600554611ed58660010154611ec7600e600181548110611ead57fe5b90600052602060002001548661483e90919063ffffffff16565b61483e90919063ffffffff16565b6148c490919063ffffffff16565b915061200e565b6013544311611f4f57611f48600554611f3a8660010154611f2c600e600281548110611f1257fe5b90600052602060002001548661483e90919063ffffffff16565b61483e90919063ffffffff16565b6148c490919063ffffffff16565b915061200d565b6014544311611fb457611fad600554611f9f8660010154611f91600e600381548110611f7757fe5b90600052602060002001548661483e90919063ffffffff16565b61483e90919063ffffffff16565b6148c490919063ffffffff16565b915061200c565b612009600554611ffb8660010154611fed600e600481548110611fd357fe5b90600052602060002001548661483e90919063ffffffff16565b61483e90919063ffffffff16565b6148c490919063ffffffff16565b91505b5b5b5b60008211156121a457600160009054906101000a900473ffffffffffffffffffffffffffffffffffffffff1673ffffffffffffffffffffffffffffffffffffffff166340c10f19600260009054906101000a900473ffffffffffffffffffffffffffffffffffffffff1661208d600a866148c490919063ffffffff16565b6040518363ffffffff1660e01b8152600401808373ffffffffffffffffffffffffffffffffffffffff16815260200182815260200192505050600060405180830381600087803b1580156120e057600080fd5b505af11580156120f4573d6000803e3d6000fd5b50505050600160009054906101000a900473ffffffffffffffffffffffffffffffffffffffff1673ffffffffffffffffffffffffffffffffffffffff166340c10f1930846040518363ffffffff1660e01b8152600401808373ffffffffffffffffffffffffffffffffffffffff16815260200182815260200192505050600060405180830381600087803b15801561218b57600080fd5b505af115801561219f573d6000803e3d6000fd5b505050505b6121e86121d585600401546121c764e8d4a510008661483e90919063ffffffff16565b6148c490919063ffffffff16565b856003015461444790919063ffffffff16565b8460030181905550438460020181905550505050505b50565b6000806003838154811061221157fe5b9060005260206000209060050201905060006007600085815260200190815260200160002060003373ffffffffffffffffffffffffffffffffffffffff1673ffffffffffffffffffffffffffffffffffffffff168152602001908152602001600020905060008260040154141561228d5760009250505061254c565b60008061229e836002015443612551565b91506011544311612305576122fe6005546122f086600101546122e2600e6000815481106122c857fe5b90600052602060002001548761483e90919063ffffffff16565b61483e90919063ffffffff16565b6148c490919063ffffffff16565b905061248f565b601254431161236a576123636005546123558660010154612347600e60018154811061232d57fe5b90600052602060002001548761483e90919063ffffffff16565b61483e90919063ffffffff16565b6148c490919063ffffffff16565b905061248e565b60135443116123cf576123c86005546123ba86600101546123ac600e60028154811061239257fe5b90600052602060002001548761483e90919063ffffffff16565b61483e90919063ffffffff16565b6148c490919063ffffffff16565b905061248d565b60145443116124345761242d60055461241f8660010154612411600e6003815481106123f757fe5b90600052602060002001548761483e90919063ffffffff16565b61483e90919063ffffffff16565b6148c490919063ffffffff16565b905061248c565b61248960055461247b866001015461246d600e60048154811061245357fe5b90600052602060002001548761483e90919063ffffffff16565b61483e90919063ffffffff16565b6148c490919063ffffffff16565b90505b5b5b5b600081111561254457600160009054906101000a900473ffffffffffffffffffffffffffffffffffffffff1673ffffffffffffffffffffffffffffffffffffffff166340c10f1930836040518363ffffffff1660e01b8152600401808373ffffffffffffffffffffffffffffffffffffffff16815260200182815260200192505050600060405180830381600087803b15801561252b57600080fd5b505af115801561253f573d6000803e3d6000fd5b505050505b809450505050505b919050565b60008061255e8484613807565b90506000612590606461258261257385614cc4565b8561483e90919063ffffffff16565b6148c490919063ffffffff16565b9050809250505092915050565b6000600380549050905060005b818110156125c6576125bb81611d6b565b8060010190506125aa565b5050565b6125d26144cf565b73ffffffffffffffffffffffffffffffffffffffff1660008054906101000a900473ffffffffffffffffffffffffffffffffffffffff1673ffffffffffffffffffffffffffffffffffffffff1614612692576040517f08c379a00000000000000000000000000000000000000000000000000000000081526004018080602001828103825260208152602001807f4f776e61626c653a2063616c6c6572206973206e6f7420746865206f776e657281525060200191505060405180910390fd5b80156126a1576126a061259d565b5b6126e6826126d8600386815481106126b557fe5b90600052602060002090600502016001015460055461490e90919063ffffffff16565b61444790919063ffffffff16565b60058190555081600384815481106126fa57fe5b906000526020600020906005020160010181905550505050565b61271c6144cf565b73ffffffffffffffffffffffffffffffffffffffff1660008054906101000a900473ffffffffffffffffffffffffffffffffffffffff1673ffffffffffffffffffffffffffffffffffffffff16146127dc576040517f08c379a00000000000000000000000000000000000000000000000000000000081526004018080602001828103825260208152602001807f4f776e61626c653a2063616c6c6572206973206e6f7420746865206f776e657281525060200191505060405180910390fd5b80600e83815481106127ea57fe5b90600052602060002001819055505050565b6128046144cf565b73ffffffffffffffffffffffffffffffffffffffff1660008054906101000a900473ffffffffffffffffffffffffffffffffffffffff1673ffffffffffffffffffffffffffffffffffffffff16146128c4576040517f08c379a00000000000000000000000000000000000000000000000000000000081526004018080602001828103825260208152602001807f4f776e61626c653a2063616c6c6572206973206e6f7420746865206f776e657281525060200191505060405180910390fd5b600073ffffffffffffffffffffffffffffffffffffffff1660008054906101000a900473ffffffffffffffffffffffffffffffffffffffff1673ffffffffffffffffffffffffffffffffffffffff167f8be0079c531659141344cd1fd0a4f28419497f9722a3daafe3b4186f6b6457e060405160405180910390a360008060006101000a81548173ffffffffffffffffffffffffffffffffffffffff021916908373ffffffffffffffffffffffffffffffffffffffff160217905550565b60155481565b6129906144cf565b73ffffffffffffffffffffffffffffffffffffffff1660008054906101000a900473ffffffffffffffffffffffffffffffffffffffff1673ffffffffffffffffffffffffffffffffffffffff1614612a50576040517f08c379a00000000000000000000000000000000000000000000000000000000081526004018080602001828103825260208152602001807f4f776e61626c653a2063616c6c6572206973206e6f7420746865206f776e657281525060200191505060405180910390fd5b8073ffffffffffffffffffffffffffffffffffffffff1663e9fad8ee6040518163ffffffff1660e01b8152600401600060405180830381600087803b158015612a9857600080fd5b505af1158015612aac573d6000803e3d6000fd5b5050505050565b612abb6144cf565b73ffffffffffffffffffffffffffffffffffffffff1660008054906101000a900473ffffffffffffffffffffffffffffffffffffffff1673ffffffffffffffffffffffffffffffffffffffff1614612b7b576040517f08c379a00000000000000000000000000000000000000000000000000000000081526004018080602001828103825260208152602001807f4f776e61626c653a2063616c6c6572206973206e6f7420746865206f776e657281525060200191505060405180910390fd5b8073ffffffffffffffffffffffffffffffffffffffff16633d18b9126040518163ffffffff1660e01b8152600401600060405180830381600087803b158015612bc357600080fd5b505af1158015612bd7573d6000803e3d6000fd5b5050505050565b612be66144cf565b73ffffffffffffffffffffffffffffffffffffffff1660008054906101000a900473ffffffffffffffffffffffffffffffffffffffff1673ffffffffffffffffffffffffffffffffffffffff1614612ca6576040517f08c379a00000000000000000000000000000000000000000000000000000000081526004018080602001828103825260208152602001807f4f776e61626c653a2063616c6c6572206973206e6f7420746865206f776e657281525060200191505060405180910390fd5b80600b60008473ffffffffffffffffffffffffffffffffffffffff1673ffffffffffffffffffffffffffffffffffffffff16815260200190815260200160002060006101000a81548160ff0219169083151502179055505050565b600a81565b6000600a600083815260200190815260200160002060009054906101000a900460ff169050919050565b600260009054906101000a900473ffffffffffffffffffffffffffffffffffffffff1673ffffffffffffffffffffffffffffffffffffffff163373ffffffffffffffffffffffffffffffffffffffff1614612df3576040517f08c379a00000000000000000000000000000000000000000000000000000000081526004018080602001828103825260198152602001807f646576206164646472657373206973206e6f742076616c69640000000000000081525060200191505060405180910390fd5b80600260006101000a81548173ffffffffffffffffffffffffffffffffffffffff021916908373ffffffffffffffffffffffffffffffffffffffff16021790555050565b60008060009054906101000a900473ffffffffffffffffffffffffffffffffffffffff16905090565b60006004548211612e9857612e91600a612e83858561490e90919063ffffffff16565b61483e90919063ffffffff16565b9050612f0c565b6004548310612ebb57612eb4838361490e90919063ffffffff16565b9050612f0c565b612f09612ed36004548461490e90919063ffffffff16565b612efb600a612eed8760045461490e90919063ffffffff16565b61483e90919063ffffffff16565b61444790919063ffffffff16565b90505b92915050565b60145481565b6007602052816000526040600020602052806000526040600020600091509150508060000154908060010154908060020154905083565b60135481565b612f5d6144cf565b73ffffffffffffffffffffffffffffffffffffffff1660008054906101000a900473ffffffffffffffffffffffffffffffffffffffff1673ffffffffffffffffffffffffffffffffffffffff161461301d576040517f08c379a00000000000000000000000000000000000000000000000000000000081526004018080602001828103825260208152602001807f4f776e61626c653a2063616c6c6572206973206e6f7420746865206f776e657281525060200191505060405180910390fd5b600860008273ffffffffffffffffffffffffffffffffffffffff1673ffffffffffffffffffffffffffffffffffffffff16815260200190815260200160002060009054906101000a900460ff166130dc576040517f08c379a000000000000000000000000000000000000000000000000000000000815260040180806020018281038252601b8152602001807f5468697320706f6f6c20697320616c72656164792065786973742e000000000081525060200191505060405180910390fd5b6000600860008373ffffffffffffffffffffffffffffffffffffffff1673ffffffffffffffffffffffffffffffffffffffff16815260200190815260200160002060006101000a81548160ff0219169083151502179055506000600960008373ffffffffffffffffffffffffffffffffffffffff1673ffffffffffffffffffffffffffffffffffffffff16815260200190815260200160002060006101000a81548173ffffffffffffffffffffffffffffffffffffffff021916908373ffffffffffffffffffffffffffffffffffffffff16021790555050565b60125481565b6000600c60009054906101000a900473ffffffffffffffffffffffffffffffffffffffff16905090565b6131ee6144cf565b73ffffffffffffffffffffffffffffffffffffffff1660008054906101000a900473ffffffffffffffffffffffffffffffffffffffff1673ffffffffffffffffffffffffffffffffffffffff16146132ae576040517f08c379a00000000000000000000000000000000000000000000000000000000081526004018080602001828103825260208152602001807f4f776e61626c653a2063616c6c6572206973206e6f7420746865206f776e657281525060200191505060405180910390fd5b6000600380549050905060005b818110156132f95782600a600083815260200190815260200160002060006101000a81548160ff0219169083151502179055508060010190506132bb565b505050565b6000806003848154811061330e57fe5b9060005260206000209060050201905060006007600086815260200190815260200160002060008573ffffffffffffffffffffffffffffffffffffffff1673ffffffffffffffffffffffffffffffffffffffff1681526020019081526020016000209050600082600301549050600083600401541461365157600080600061339a866002015443612e60565b90506133aa856002015443612551565b92506133bf838261444790919063ffffffff16565b905060115443116134265761341f6005546134118860010154613403600e6000815481106133e957fe5b90600052602060002001548661483e90919063ffffffff16565b61483e90919063ffffffff16565b6148c490919063ffffffff16565b91506135b0565b601254431161348b576134846005546134768860010154613468600e60018154811061344e57fe5b90600052602060002001548661483e90919063ffffffff16565b61483e90919063ffffffff16565b6148c490919063ffffffff16565b91506135af565b60135443116134f0576134e96005546134db88600101546134cd600e6002815481106134b357fe5b90600052602060002001548661483e90919063ffffffff16565b61483e90919063ffffffff16565b6148c490919063ffffffff16565b91506135ae565b60145443116135555761354e6005546135408860010154613532600e60038154811061351857fe5b90600052602060002001548661483e90919063ffffffff16565b61483e90919063ffffffff16565b6148c490919063ffffffff16565b91506135ad565b6135aa60055461359c886001015461358e600e60048154811061357457fe5b90600052602060002001548661483e90919063ffffffff16565b61483e90919063ffffffff16565b6148c490919063ffffffff16565b91505b5b5b5b60006135c86135c3876002015443613807565b614958565b905060006135f260646135e4848761483e90919063ffffffff16565b6148c490919063ffffffff16565b9050613607818561490e90919063ffffffff16565b935061364961363a896004015461362c64e8d4a510008861483e90919063ffffffff16565b6148c490919063ffffffff16565b8761444790919063ffffffff16565b955050505050505b613695826001015461368764e8d4a5100061367985876000015461483e90919063ffffffff16565b6148c490919063ffffffff16565b61490e90919063ffffffff16565b935050505092915050565b6000601054905090565b60086020528060005260406000206000915054906101000a900460ff1681565b6136d26144cf565b73ffffffffffffffffffffffffffffffffffffffff1660008054906101000a900473ffffffffffffffffffffffffffffffffffffffff1673ffffffffffffffffffffffffffffffffffffffff1614613792576040517f08c379a00000000000000000000000000000000000000000000000000000000081526004018080602001828103825260208152602001807f4f776e61626c653a2063616c6c6572206973206e6f7420746865206f776e657281525060200191505060405180910390fd5b80600a600084815260200190815260200160002060006101000a81548160ff0219169083151502179055505050565b600a6020528060005260406000206000915054906101000a900460ff1681565b600260009054906101000a900473ffffffffffffffffffffffffffffffffffffffff1681565b6000808383111561382c57613825848461490e90919063ffffffff16565b9050613842565b61383f838561490e90919063ffffffff16565b90505b8091505092915050565b6138546144cf565b73ffffffffffffffffffffffffffffffffffffffff1660008054906101000a900473ffffffffffffffffffffffffffffffffffffffff1673ffffffffffffffffffffffffffffffffffffffff1614613914576040517f08c379a00000000000000000000000000000000000000000000000000000000081526004018080602001828103825260208152602001807f4f776e61626c653a2063616c6c6572206973206e6f7420746865206f776e657281525060200191505060405180910390fd5b600860008373ffffffffffffffffffffffffffffffffffffffff1673ffffffffffffffffffffffffffffffffffffffff16815260200190815260200160002060009054906101000a900460ff16156139d4576040517f08c379a000000000000000000000000000000000000000000000000000000000815260040180806020018281038252601b8152602001807f5468697320706f6f6c20697320616c72656164792065786973742e000000000081525060200191505060405180910390fd5b6001600860008473ffffffffffffffffffffffffffffffffffffffff1673ffffffffffffffffffffffffffffffffffffffff16815260200190815260200160002060006101000a81548160ff02191690831515021790555080600960008473ffffffffffffffffffffffffffffffffffffffff1673ffffffffffffffffffffffffffffffffffffffff16815260200190815260200160002060006101000a81548173ffffffffffffffffffffffffffffffffffffffff021916908373ffffffffffffffffffffffffffffffffffffffff1602179055505050565b600060038381548110613abd57fe5b9060005260206000209060050201905060006007600085815260200190815260200160002060003373ffffffffffffffffffffffffffffffffffffffff1673ffffffffffffffffffffffffffffffffffffffff1681526020019081526020016000209050600a600085815260200190815260200160002060009054906101000a900460ff1615613c1357600d544311613be557614e20613b898360000160009054906101000a900473ffffffffffffffffffffffffffffffffffffffff16613b836131bc565b866114df565b1115613be0576040517f08c379a000000000000000000000000000000000000000000000000000000000815260040180806020018281038252603381526020018061574a6033913960400191505060405180910390fd5b613c12565b6000600a600086815260200190815260200160002060006101000a81548160ff0219169083151502179055505b5b6000816002015411613c29574381600201819055505b613c3284611d6b565b600081600001541115613cba576000613c898260010154613c7b64e8d4a51000613c6d8760030154876000015461483e90919063ffffffff16565b6148c490919063ffffffff16565b61490e90919063ffffffff16565b90506000613c9686612201565b9050613cab818361444790919063ffffffff16565b9150613cb733836149a9565b50505b613d0b3330858560000160009054906101000a900473ffffffffffffffffffffffffffffffffffffffff1673ffffffffffffffffffffffffffffffffffffffff16614d2a909392919063ffffffff16565b613d2283836004015461444790919063ffffffff16565b8260040181905550613d4183826000015461444790919063ffffffff16565b8160000181905550613d7b64e8d4a51000613d6d8460030154846000015461483e90919063ffffffff16565b6148c490919063ffffffff16565b8160010181905550438160020181905550600860008360000160009054906101000a900473ffffffffffffffffffffffffffffffffffffffff1673ffffffffffffffffffffffffffffffffffffffff1673ffffffffffffffffffffffffffffffffffffffff16815260200190815260200160002060009054906101000a900460ff1615613eb557613eb4838360000160009054906101000a900473ffffffffffffffffffffffffffffffffffffffff16600960008660000160009054906101000a900473ffffffffffffffffffffffffffffffffffffffff1673ffffffffffffffffffffffffffffffffffffffff1673ffffffffffffffffffffffffffffffffffffffff16815260200190815260200160002060009054906101000a900473ffffffffffffffffffffffffffffffffffffffff16614deb565b5b833373ffffffffffffffffffffffffffffffffffffffff167f90890809c654f11d6e72a28fa60149770a0d11ec6c92319d6ceb2bb0a4ea1a15856040518082815260200191505060405180910390a350505050565b6000806011544311613f3b57601154600e600081548110613f2757fe5b906000526020600020015491509150613fe6565b6012544311613f6957601254600e600181548110613f5557fe5b906000526020600020015491509150613fe6565b6013544311613f9757601354600e600281548110613f8357fe5b906000526020600020015491509150613fe6565b6014544311613fc557601454600e600381548110613fb157fe5b906000526020600020015491509150613fe6565b601554600e600481548110613fd657fe5b9060005260206000200154915091505b9091565b60065481565b33600b60008273ffffffffffffffffffffffffffffffffffffffff1673ffffffffffffffffffffffffffffffffffffffff16815260200190815260200160002060009054906101000a900460ff1661404757600080fd5b8373ffffffffffffffffffffffffffffffffffffffff166370a08231306040518263ffffffff1660e01b8152600401808273ffffffffffffffffffffffffffffffffffffffff16815260200191505060206040518083038186803b1580156140ae57600080fd5b505afa1580156140c2573d6000803e3d6000fd5b505050506040513d60208110156140d857600080fd5b810190808051906020019092919050505082111561415e576040517f08c379a000000000000000000000000000000000000000000000000000000000815260040180806020018281038252601c8152602001807f4e6f7420456e6f75676820556e6920546f6b656e2042616c616e63650000000081525060200191505060405180910390fd5b600073ffffffffffffffffffffffffffffffffffffffff168373ffffffffffffffffffffffffffffffffffffffff161415614201576040517f08c379a00000000000000000000000000000000000000000000000000000000081526004018080602001828103825260118152602001807f4e6f74205661696c64204164647265737300000000000000000000000000000081525060200191505060405180910390fd5b61422c83838673ffffffffffffffffffffffffffffffffffffffff16614c229092919063ffffffff16565b50505050565b61423a6144cf565b73ffffffffffffffffffffffffffffffffffffffff1660008054906101000a900473ffffffffffffffffffffffffffffffffffffffff1673ffffffffffffffffffffffffffffffffffffffff16146142fa576040517f08c379a00000000000000000000000000000000000000000000000000000000081526004018080602001828103825260208152602001807f4f776e61626c653a2063616c6c6572206973206e6f7420746865206f776e657281525060200191505060405180910390fd5b600073ffffffffffffffffffffffffffffffffffffffff168173ffffffffffffffffffffffffffffffffffffffff161415614380576040517f08c379a00000000000000000000000000000000000000000000000000000000081526004018080602001828103825260268152602001806157246026913960400191505060405180910390fd5b8073ffffffffffffffffffffffffffffffffffffffff1660008054906101000a900473ffffffffffffffffffffffffffffffffffffffff1673ffffffffffffffffffffffffffffffffffffffff167f8be0079c531659141344cd1fd0a4f28419497f9722a3daafe3b4186f6b6457e060405160405180910390a3806000806101000a81548173ffffffffffffffffffffffffffffffffffffffff021916908373ffffffffffffffffffffffffffffffffffffffff16021790555050565b6000600f54905090565b6000808284019050838110156144c5576040517f08c379a000000000000000000000000000000000000000000000000000000000815260040180806020018281038252601b8152602001807f536166654d6174683a206164646974696f6e206f766572666c6f77000000000081525060200191505060405180910390fd5b8091505092915050565b600033905090565b6000808473ffffffffffffffffffffffffffffffffffffffff16630dfe16816040518163ffffffff1660e01b815260040160206040518083038186803b15801561452057600080fd5b505afa158015614534573d6000803e3d6000fd5b505050506040513d602081101561454a57600080fd5b810190808051906020019092919050505090506000808673ffffffffffffffffffffffffffffffffffffffff16630902f1ac6040518163ffffffff1660e01b815260040160606040518083038186803b1580156145a657600080fd5b505afa1580156145ba573d6000803e3d6000fd5b505050506040513d60608110156145d057600080fd5b81019080805190602001909291908051906020019092919080519060200190929190505050509150915060008773ffffffffffffffffffffffffffffffffffffffff166318160ddd6040518163ffffffff1660e01b815260040160206040518083038186803b15801561464257600080fd5b505afa158015614656573d6000803e3d6000fd5b505050506040513d602081101561466c57600080fd5b8101908080519060200190929190505050905060008060008311156147a55773c02aaa39b223fe8d0a0e5c4f27ead9083c756cc273ffffffffffffffffffffffffffffffffffffffff168673ffffffffffffffffffffffffffffffffffffffff161461473b57614707836146f9876dffffffffffffffffffffffffffff168b61483e90919063ffffffff16565b6148c490919063ffffffff16565b905061473481866dffffffffffffffffffffffffffff16866dffffffffffffffffffffffffffff16614f08565b91506147a0565b61477083614762866dffffffffffffffffffffffffffff168b61483e90919063ffffffff16565b6148c490919063ffffffff16565b905061479d81856dffffffffffffffffffffffffffff16876dffffffffffffffffffffffffffff16614f08565b91505b6147b4565b600096505050505050506147c7565b6147be828a615038565b96505050505050505b9392505050565b8173ffffffffffffffffffffffffffffffffffffffff16632e1a7d4d826040518263ffffffff1660e01b815260040180828152602001915050600060405180830381600087803b15801561482157600080fd5b505af1158015614835573d6000803e3d6000fd5b50505050505050565b60008083141561485157600090506148be565b600082840290508284828161486257fe5b04146148b9576040517f08c379a00000000000000000000000000000000000000000000000000000000081526004018080602001828103825260218152602001806157a56021913960400191505060405180910390fd5b809150505b92915050565b600061490683836040518060400160405280601a81526020017f536166654d6174683a206469766973696f6e206279207a65726f00000000000081525061527d565b905092915050565b600061495083836040518060400160405280601e81526020017f536166654d6174683a207375627472616374696f6e206f766572666c6f770000815250615343565b905092915050565b6000610f00821161496c57601490506149a4565b611e00821161497e57600f90506149a4565b612580821161499057600a90506149a4565b6125808211156149a357600090506149a4565b5b919050565b6000600160009054906101000a900473ffffffffffffffffffffffffffffffffffffffff1673ffffffffffffffffffffffffffffffffffffffff166370a08231306040518263ffffffff1660e01b8152600401808273ffffffffffffffffffffffffffffffffffffffff16815260200191505060206040518083038186803b158015614a3457600080fd5b505afa158015614a48573d6000803e3d6000fd5b505050506040513d6020811015614a5e57600080fd5b8101908080519060200190929190505050905080821115614b4d57600160009054906101000a900473ffffffffffffffffffffffffffffffffffffffff1673ffffffffffffffffffffffffffffffffffffffff1663a9059cbb84836040518363ffffffff1660e01b8152600401808373ffffffffffffffffffffffffffffffffffffffff16815260200182815260200192505050602060405180830381600087803b158015614b0c57600080fd5b505af1158015614b20573d6000803e3d6000fd5b505050506040513d6020811015614b3657600080fd5b810190808051906020019092919050505050614c1d565b600160009054906101000a900473ffffffffffffffffffffffffffffffffffffffff1673ffffffffffffffffffffffffffffffffffffffff1663a9059cbb84846040518363ffffffff1660e01b8152600401808373ffffffffffffffffffffffffffffffffffffffff16815260200182815260200192505050602060405180830381600087803b158015614be057600080fd5b505af1158015614bf4573d6000803e3d6000fd5b505050506040513d6020811015614c0a57600080fd5b8101908080519060200190929190505050505b505050565b614cbf8363a9059cbb60e01b8484604051602401808373ffffffffffffffffffffffffffffffffffffffff16815260200182815260200192505050604051602081830303815290604052907bffffffffffffffffffffffffffffffffffffffffffffffffffffffff19166020820180517bffffffffffffffffffffffffffffffffffffffffffffffffffffffff8381831617835250505050615403565b505050565b60006125808210614cd85760329050614d25565b611e008210614cea5760289050614d25565b6116808210614cfc57601e9050614d25565b610f008210614d0e5760149050614d25565b6107808210614d2057600a9050614d25565b600090505b919050565b614de5846323b872dd60e01b858585604051602401808473ffffffffffffffffffffffffffffffffffffffff1681526020018373ffffffffffffffffffffffffffffffffffffffff1681526020018281526020019350505050604051602081830303815290604052907bffffffffffffffffffffffffffffffffffffffffffffffffffffffff19166020820180517bffffffffffffffffffffffffffffffffffffffffffffffffffffffff8381831617835250505050615403565b50505050565b8173ffffffffffffffffffffffffffffffffffffffff1663095ea7b382856040518363ffffffff1660e01b8152600401808373ffffffffffffffffffffffffffffffffffffffff16815260200182815260200192505050602060405180830381600087803b158015614e5c57600080fd5b505af1158015614e70573d6000803e3d6000fd5b505050506040513d6020811015614e8657600080fd5b8101908080519060200190929190505050508073ffffffffffffffffffffffffffffffffffffffff1663a694fc3a846040518263ffffffff1660e01b815260040180828152602001915050600060405180830381600087803b158015614eeb57600080fd5b505af1158015614eff573d6000803e3d6000fd5b50505050505050565b6000808411614f62576040517f08c379a000000000000000000000000000000000000000000000000000000000815260040180806020018281038252602b8152602001806157f0602b913960400191505060405180910390fd5b600083118015614f725750600082115b614fc7576040517f08c379a000000000000000000000000000000000000000000000000000000000815260040180806020018281038252602881526020018061577d6028913960400191505060405180910390fd5b6000614fde6103e58661483e90919063ffffffff16565b90506000614ff5848361483e90919063ffffffff16565b90506000615020836150126103e88961483e90919063ffffffff16565b61444790919063ffffffff16565b905080828161502b57fe5b0493505050509392505050565b6000808273ffffffffffffffffffffffffffffffffffffffff16630dfe16816040518163ffffffff1660e01b815260040160206040518083038186803b15801561508157600080fd5b505afa158015615095573d6000803e3d6000fd5b505050506040513d60208110156150ab57600080fd5b810190808051906020019092919050505090506000808473ffffffffffffffffffffffffffffffffffffffff16630902f1ac6040518163ffffffff1660e01b815260040160606040518083038186803b15801561510757600080fd5b505afa15801561511b573d6000803e3d6000fd5b505050506040513d606081101561513157600080fd5b810190808051906020019092919080519060200190929190805190602001909291905050505091509150600073c02aaa39b223fe8d0a0e5c4f27ead9083c756cc273ffffffffffffffffffffffffffffffffffffffff168473ffffffffffffffffffffffffffffffffffffffff1614156151de576151d76151b061443d565b846dffffffffffffffffffffffffffff16846dffffffffffffffffffffffffffff16614f08565b9050615213565b6152106151e961443d565b836dffffffffffffffffffffffffffff16856dffffffffffffffffffffffffffff16614f08565b90505b600061526d600261525f6152376152286136a0565b866148c490919063ffffffff16565b61525161524261443d565b8d6148c490919063ffffffff16565b61483e90919063ffffffff16565b61483e90919063ffffffff16565b9050809550505050505092915050565b60008083118290615329576040517f08c379a00000000000000000000000000000000000000000000000000000000081526004018080602001828103825283818151815260200191508051906020019080838360005b838110156152ee5780820151818401526020810190506152d3565b50505050905090810190601f16801561531b5780820380516001836020036101000a031916815260200191505b509250505060405180910390fd5b50600083858161533557fe5b049050809150509392505050565b60008383111582906153f0576040517f08c379a00000000000000000000000000000000000000000000000000000000081526004018080602001828103825283818151815260200191508051906020019080838360005b838110156153b557808201518184015260208101905061539a565b50505050905090810190601f1680156153e25780820380516001836020036101000a031916815260200191505b509250505060405180910390fd5b5060008385039050809150509392505050565b6060615465826040518060400160405280602081526020017f5361666545524332303a206c6f772d6c6576656c2063616c6c206661696c65648152508573ffffffffffffffffffffffffffffffffffffffff166154f29092919063ffffffff16565b90506000815111156154ed5780806020019051602081101561548657600080fd5b81019080805190602001909291905050506154ec576040517f08c379a000000000000000000000000000000000000000000000000000000000815260040180806020018281038252602a8152602001806157c6602a913960400191505060405180910390fd5b5b505050565b6060615501848460008561550a565b90509392505050565b606061551585615710565b615587576040517f08c379a000000000000000000000000000000000000000000000000000000000815260040180806020018281038252601d8152602001807f416464726573733a2063616c6c20746f206e6f6e2d636f6e747261637400000081525060200191505060405180910390fd5b600060608673ffffffffffffffffffffffffffffffffffffffff1685876040518082805190602001908083835b602083106155d757805182526020820191506020810190506020830392506155b4565b6001836020036101000a03801982511681845116808217855250505050505090500191505060006040518083038185875af1925050503d8060008114615639576040519150601f19603f3d011682016040523d82523d6000602084013e61563e565b606091505b50915091508115615653578092505050615708565b6000815111156156665780518082602001fd5b836040517f08c379a00000000000000000000000000000000000000000000000000000000081526004018080602001828103825283818151815260200191508051906020019080838360005b838110156156cd5780820151818401526020810190506156b2565b50505050905090810190601f1680156156fa5780820380516001836020036101000a031916815260200191505b509250505060405180910390fd5b949350505050565b600080823b90506000811191505091905056fe4f776e61626c653a206e6577206f776e657220697320746865207a65726f2061646472657373416d6f756e74206d757374206265206c657373207468616e206f7220657175616c20746f20323030303020646f6c6c6172732e556e697377617056324c6962726172793a20494e53554646494349454e545f4c4951554944495459536166654d6174683a206d756c7469706c69636174696f6e206f766572666c6f775361666545524332303a204552433230206f7065726174696f6e20646964206e6f742073756363656564556e697377617056324c6962726172793a20494e53554646494349454e545f494e5055545f414d4f554e54a2646970667358221220141d34131f3ed3d3b85c3bfea98802ced39b4775a4c99a48d423105501f424cd64736f6c634300060c0033",
  "immutableReferences": {},
  "source": "pragma solidity ^0.6.0;\r\n\r\nimport \"../helper/SafeERC20.sol\";\r\nimport \"../helper/SafeMath.sol\";\r\nimport \"../helper/Ownable.sol\";\r\nimport \"./ChillToken.sol\";\r\nimport \"../uniswap/UniswapV2Library.sol\";\r\nimport \"../interfaces/IUniswapV2Pair.sol\";\r\nimport \"../interfaces/IUniStakingRewards.sol\";\r\n\r\n// eth-dai 0xBbB8eeA618861940FaDEf3071e79458d4c2B42e3\r\ncontract ChillFinance is Ownable {\r\n    \r\n    using SafeMath for uint256;\r\n    using SafeERC20 for IERC20;\r\n\r\n    struct UserInfo {\r\n        uint256 amount;\r\n        uint256 rewardDebt;\r\n        uint256 startedBlock;\r\n    }\r\n    \r\n    struct PoolInfo {\r\n        IERC20 lpToken;           \r\n        uint256 allocPoint;       \r\n        uint256 lastRewardBlock;  \r\n        uint256 accChillPerShare;\r\n        uint256 totalPoolBalance;\r\n    }\r\n\r\n    ChillToken public chill;\r\n    address public devaddr;\r\n    PoolInfo[] public poolInfo;\r\n    uint256 public bonusEndBlock;\r\n    uint256 public constant BONUS_MULTIPLIER = 10;\r\n    uint256 public totalAllocPoint = 0;\r\n    uint256 public startBlockOfChill;\r\n    mapping (uint256 => mapping (address => UserInfo)) public userInfo;\r\n    mapping (address => bool) public stakingUniPools;\r\n    mapping (address => address) public uniRewardAddresses;\r\n    mapping (uint256 => bool) public isCheckInitialPeriod;\r\n    mapping (address => bool) private distributors;\r\n\r\n    address stablePair;    \r\n    uint256 initialPeriod;\r\n    uint256[] public blockPerPhase;\r\n    uint256 private ethDivider;\r\n    uint256 private stableDivider;\r\n\r\n    uint256 public phase1time;\r\n    uint256 public phase2time;\r\n    uint256 public phase3time;\r\n    uint256 public phase4time;\r\n    uint256 public phase5time;\r\n\r\n    event Deposit(address indexed user, uint256 indexed pid, uint256 amount);\r\n    event Withdraw(address indexed user, uint256 indexed pid, uint256 amount);\r\n    event EmergencyWithdraw(address indexed user, uint256 indexed pid, uint256 amount);\r\n\r\n    modifier isDistributor(address _isDistributor) {\r\n        require(distributors[_isDistributor]);\r\n        _;\r\n    }\r\n\r\n    constructor(\r\n        ChillToken _chill,\r\n        address _devaddr,\r\n        address _stablePair\r\n    ) public {\r\n        chill = _chill;\r\n        devaddr = _devaddr;\r\n        stablePair = _stablePair;\r\n        \r\n        startBlockOfChill = block.number.add(0);\r\n        bonusEndBlock = block.number.add(0);\r\n        initialPeriod = block.number.add(28800); // 5 days (5*24*60*60)/15\r\n        \r\n        blockPerPhase.push(75e18);\r\n        blockPerPhase.push(100e18);\r\n        blockPerPhase.push(50e18);\r\n        blockPerPhase.push(25e18);\r\n        blockPerPhase.push(0);\r\n\r\n        phase1time = block.number.add(80640); // 14 days (14*24*60*60)/15\r\n        phase2time = block.number.add(253440); // 44 - 14 = 30 days (44*24*60*60)/15 \r\n        phase3time = block.number.add(426240); // 74 - 44 = 30 days (74*24*60*60)/15\r\n        phase4time = block.number.add(771840); // 134 - 74 = 60 days (134*24*60*60)/15\r\n        phase5time = block.number.add(0); // 134 - 74 = 60 days (134*24*60*60)/15\r\n\r\n        stableDivider = 1e6;\r\n        ethDivider = 1e18;\r\n    }\r\n\r\n    function poolLength() external view returns (uint256) {\r\n        return poolInfo.length;\r\n    }\r\n\r\n    // Add Function to give support new uniswap lp pool by only owner\r\n    // for allocpoint will be 100 and if you want to generate more chill for specific pool then you need to increase allocpoint\r\n    // like for, 1x=>100, 2x=>200, 3x=>300 etc.\r\n    function add(uint256 _allocPoint, IERC20 _lpToken, bool _withUpdate) public onlyOwner {\r\n        if (_withUpdate) {\r\n            massUpdatePools();\r\n        }\r\n        uint256 lastRewardBlock = block.number > startBlockOfChill ? block.number : startBlockOfChill;\r\n        totalAllocPoint = totalAllocPoint.add(_allocPoint);\r\n        poolInfo.push(PoolInfo({\r\n            lpToken: _lpToken,\r\n            allocPoint: _allocPoint,\r\n            lastRewardBlock: lastRewardBlock,\r\n            accChillPerShare: 0,\r\n            totalPoolBalance: 0\r\n        }));\r\n    }\r\n    \r\n    // increase alloc point for specific pool\r\n    function set(uint256 _pid, uint256 _allocPoint, bool _withUpdate) public onlyOwner {\r\n        if (_withUpdate) {\r\n            massUpdatePools();\r\n        }\r\n        totalAllocPoint = totalAllocPoint.sub(poolInfo[_pid].allocPoint).add(_allocPoint);\r\n        poolInfo[_pid].allocPoint = _allocPoint;\r\n    }\r\n    \r\n    function massUpdatePools() public {\r\n        uint256 length = poolInfo.length;\r\n        for (uint256 pid = 0; pid < length; ++pid) {\r\n            updatePool(pid);\r\n        }\r\n    }\r\n    \r\n    // user can deposit lp for specific pool\r\n    function deposit(uint256 _pid, uint256 _amount) public {\r\n        PoolInfo storage pool = poolInfo[_pid];\r\n        UserInfo storage user = userInfo[_pid][msg.sender];\r\n\r\n        if (isCheckInitialPeriod[_pid]) {\r\n            if (block.number <= initialPeriod) {\r\n                require(countStakeAmount(address(pool.lpToken), getStablePairAddress(), _amount) <= 20000, \"Amount must be less than or equal to 20000 dollars.\");\r\n            } else {\r\n                isCheckInitialPeriod[_pid] = false;\r\n            }\r\n        }\r\n        \r\n        if (user.startedBlock <= 0) {\r\n            user.startedBlock = block.number;\r\n        }\r\n        \r\n        updatePool(_pid);\r\n        if (user.amount > 0) {\r\n            uint256 pending = user.amount.mul(pool.accChillPerShare).div(1e12).sub(user.rewardDebt);\r\n            uint256 extraReward = getExtraReward(_pid);\r\n            pending = pending.add(extraReward);\r\n            safeChillTransfer(msg.sender, pending);\r\n        }\r\n\r\n        pool.lpToken.safeTransferFrom(address(msg.sender), address(this), _amount);\r\n        pool.totalPoolBalance = pool.totalPoolBalance.add(_amount);\r\n        user.amount = user.amount.add(_amount);\r\n        user.rewardDebt = user.amount.mul(pool.accChillPerShare).div(1e12);\r\n        user.startedBlock = block.number;\r\n\r\n        if (stakingUniPools[address(pool.lpToken)]) {\r\n            stakeInUni(_amount, address(pool.lpToken), uniRewardAddresses[address(pool.lpToken)]);\r\n        }\r\n        emit Deposit(msg.sender, _pid, _amount);\r\n    }\r\n    \r\n    // it will be call if spicific pool uniswap uni pool supported in chill finance\r\n    // and if you want to support uniswap pool then you need to add in addStakeUniPool\r\n    function stakeInUni(uint256 amount, address v2address, address _stakeAddress) private {\r\n        IERC20(v2address).approve(address(_stakeAddress), amount);\r\n        IUniStakingRewards(_stakeAddress).stake(amount);\r\n    }\r\n\r\n    // user can withdraw their lp token from specific pool \r\n    function withdraw(uint256 _pid, uint256 _amount) public {\r\n        PoolInfo storage pool = poolInfo[_pid];\r\n        UserInfo storage user = userInfo[_pid][msg.sender];\r\n        require(user.amount >= _amount, \"withdraw is not valid\");\r\n        \r\n        if (user.startedBlock <= 0) {\r\n            user.startedBlock = block.number;\r\n        }\r\n        \r\n        if (stakingUniPools[address(pool.lpToken)]) {\r\n            withdrawUni(address(pool.lpToken), uniRewardAddresses[address(pool.lpToken)], _amount);\r\n        }\r\n\r\n        updatePool(_pid);\r\n        uint256 pending = user.amount.mul(pool.accChillPerShare).div(1e12).sub(user.rewardDebt);\r\n        uint256 tax = deductTaxByBlock(getCrossMultiplier(user.startedBlock, block.number));\r\n        uint256 pendingtax = pending.mul(tax).div(100);\r\n        uint256 extraReward = getExtraReward(_pid);\r\n        pending = pending.add(extraReward).sub(pendingtax.div(2));\r\n        safeChillTransfer(msg.sender, pending);\r\n\r\n        if (pendingtax > 0) {\r\n            chill.mint(devaddr, pendingtax.div(2));\r\n            if (chill.balanceOf(address(this)) >= pendingtax.div(2)) {\r\n                chill.burn(address(this), pendingtax.div(2));\r\n            }\r\n            chill.burn(msg.sender, pendingtax.div(2));\r\n        }\r\n\r\n        user.amount = user.amount.sub(_amount);\r\n        user.rewardDebt = user.amount.mul(pool.accChillPerShare).div(1e12);\r\n        user.startedBlock = block.number;\r\n        pool.totalPoolBalance = pool.totalPoolBalance.sub(_amount);\r\n        pool.lpToken.safeTransfer(address(msg.sender), _amount);\r\n        emit Withdraw(msg.sender, _pid, _amount);\r\n    }\r\n    \r\n    function withdrawUni(address v2address, address _stakeAddress, uint256 _amount) private {\r\n        IUniStakingRewards(_stakeAddress).withdraw(_amount);\r\n    }\r\n    \r\n    // Reward will genrate in update pool function and call will be happen internally by deposit and withdraw function\r\n    function updatePool(uint256 _pid) public {\r\n        PoolInfo storage pool = poolInfo[_pid];\r\n        UserInfo storage user = userInfo[_pid][msg.sender];\r\n\r\n        if (block.number <= pool.lastRewardBlock) {\r\n            return;\r\n        }\r\n\r\n        if (pool.totalPoolBalance == 0) {\r\n            pool.lastRewardBlock = block.number;\r\n            return;\r\n        }\r\n        \r\n        uint256 chillReward;\r\n        uint256 multiplier = getMultiplier(pool.lastRewardBlock, block.number);\r\n        if (block.number <= phase1time) {\r\n            chillReward = multiplier.mul(blockPerPhase[0]).mul(pool.allocPoint).div(totalAllocPoint);\r\n        } else if (block.number <= phase2time) {\r\n            chillReward = multiplier.mul(blockPerPhase[1]).mul(pool.allocPoint).div(totalAllocPoint);\r\n        } else if (block.number <= phase3time) {\r\n            chillReward = multiplier.mul(blockPerPhase[2]).mul(pool.allocPoint).div(totalAllocPoint);\r\n        } else if (block.number <= phase4time) {\r\n            chillReward = multiplier.mul(blockPerPhase[3]).mul(pool.allocPoint).div(totalAllocPoint);\r\n        } else {\r\n            chillReward = multiplier.mul(blockPerPhase[4]).mul(pool.allocPoint).div(totalAllocPoint);\r\n        }\r\n        \r\n        if (chillReward > 0) {\r\n            chill.mint(devaddr, chillReward.div(10));\r\n            chill.mint(address(this), chillReward);\r\n        }\r\n        pool.accChillPerShare = pool.accChillPerShare.add(chillReward.mul(1e12).div(pool.totalPoolBalance));\r\n        pool.lastRewardBlock = block.number;\r\n    }\r\n    \r\n    // GetExtraReward will calculate extra reward if you pass certain hours with your deposit token\r\n    // then you will get extra chill token\r\n    function getExtraReward(uint256 _pid) public returns(uint256) {\r\n        PoolInfo storage pool = poolInfo[_pid];\r\n        UserInfo storage user = userInfo[_pid][msg.sender];\r\n        if (pool.totalPoolBalance == 0) {\r\n            return 0;\r\n        }\r\n        \r\n        uint256 multiplier;\r\n        uint256 chillReward;\r\n        multiplier = getExtraMultiplier(user.startedBlock, block.number);\r\n        if (block.number <= phase1time) {\r\n            chillReward = multiplier.mul(blockPerPhase[0]).mul(pool.allocPoint).div(totalAllocPoint);\r\n        } else if (block.number <= phase2time) {\r\n            chillReward = multiplier.mul(blockPerPhase[1]).mul(pool.allocPoint).div(totalAllocPoint);\r\n        } else if (block.number <= phase3time) {\r\n            chillReward = multiplier.mul(blockPerPhase[2]).mul(pool.allocPoint).div(totalAllocPoint);\r\n        } else if (block.number <= phase4time) {\r\n            chillReward = multiplier.mul(blockPerPhase[3]).mul(pool.allocPoint).div(totalAllocPoint);\r\n        } else {\r\n            chillReward = multiplier.mul(blockPerPhase[4]).mul(pool.allocPoint).div(totalAllocPoint);\r\n        }\r\n        \r\n        if (chillReward > 0) {\r\n            chill.mint(address(this), chillReward);\r\n        }\r\n        return chillReward;\r\n    }\r\n    \r\n    // For user interface to claimable token\r\n    function pendingChill(uint256 _pid, address _user) external view returns (uint256) {\r\n        PoolInfo storage pool = poolInfo[_pid];\r\n        UserInfo storage user = userInfo[_pid][_user];\r\n        uint256 accChillPerShare = pool.accChillPerShare;\r\n        if (pool.totalPoolBalance != 0) {\r\n            uint256 extraMultiplier;\r\n            uint256 chillReward;\r\n            uint256 multiplier = getMultiplier(pool.lastRewardBlock, block.number);\r\n            extraMultiplier = getExtraMultiplier(user.startedBlock, block.number);\r\n            multiplier = multiplier.add(extraMultiplier);\r\n            if (block.number <= phase1time) {\r\n                chillReward = multiplier.mul(blockPerPhase[0]).mul(pool.allocPoint).div(totalAllocPoint);\r\n            } else if (block.number <= phase2time) {\r\n                chillReward = multiplier.mul(blockPerPhase[1]).mul(pool.allocPoint).div(totalAllocPoint);\r\n            } else if (block.number <= phase3time) {\r\n                chillReward = multiplier.mul(blockPerPhase[2]).mul(pool.allocPoint).div(totalAllocPoint);\r\n            } else if (block.number <= phase4time) {\r\n                chillReward = multiplier.mul(blockPerPhase[3]).mul(pool.allocPoint).div(totalAllocPoint);\r\n            } else {\r\n                chillReward = multiplier.mul(blockPerPhase[4]).mul(pool.allocPoint).div(totalAllocPoint);\r\n            }\r\n            uint256 tax = deductTaxByBlock(getCrossMultiplier(user.startedBlock, block.number));\r\n            uint256 pendingtax = chillReward.mul(tax).div(100);\r\n            chillReward = chillReward.sub(pendingtax);\r\n            accChillPerShare = accChillPerShare.add(chillReward.mul(1e12).div(pool.totalPoolBalance));\r\n        }\r\n        return user.amount.mul(accChillPerShare).div(1e12).sub(user.rewardDebt);\r\n    }\r\n\r\n    // Return reward multiplier over the given _from to _to block.\r\n    function getMultiplier(uint256 _from, uint256 _to) public view returns (uint256) {\r\n        if (_to <= bonusEndBlock) {\r\n            return _to.sub(_from).mul(BONUS_MULTIPLIER);\r\n        } else if (_from >= bonusEndBlock) {\r\n            return _to.sub(_from);\r\n        } else {\r\n            return bonusEndBlock.sub(_from).mul(BONUS_MULTIPLIER).add(\r\n                _to.sub(bonusEndBlock)\r\n            );\r\n        }\r\n    }\r\n\r\n    // Return reward multiplier over the given _from to _to block.\r\n    function getCrossMultiplier(uint256 _from, uint256 currentblock) public view returns (uint256) {\r\n        uint256 multiplier;\r\n        if (currentblock > _from) {\r\n            multiplier = currentblock.sub(_from);\r\n        } else {\r\n            multiplier = _from.sub(currentblock);\r\n        }\r\n        return multiplier;\r\n    }\r\n    \r\n    // Return extra reward multiplier over the given _from to _to block.\r\n    function getExtraMultiplier(uint256 _from, uint256 currentblock) public view returns (uint256) {\r\n        uint256 multiplier = getCrossMultiplier(_from, currentblock);\r\n        uint256 extraMultiplier = multiplier.mul(getTotalBlocksCovered(multiplier)).div(100);\r\n        return extraMultiplier;\r\n    }\r\n    \r\n    // Set extra reward after each 8 hours(1920 block)\r\n    function getTotalBlocksCovered(uint256 _block) internal pure returns(uint256) {\r\n        if (_block >= 9600) {\r\n            return 50;\r\n        } else if (_block >= 7680) {\r\n            return 40;\r\n        } else if (_block >= 5760) {\r\n            return 30;\r\n        } else if (_block >= 3840) {\r\n            return 20;\r\n        } else if (_block >= 1920) {\r\n            return 10;\r\n        } else {\r\n            return 0;\r\n        }\r\n    }\r\n    \r\n    // Deduct tax if user withdraw before nirvana at different stage\r\n    function deductTaxByBlock(uint256 _block) internal pure returns(uint256) {\r\n        if (_block <= 3840) {\r\n            return 20;\r\n        } else if (_block <= 7680) {\r\n            return 15;\r\n        } else if (_block <= 9600) {\r\n            return 10;\r\n        } else if (_block > 9600) {\r\n            return 0;\r\n        }\r\n    }\r\n    \r\n    // Check if amount of lp tokens is less than $20000\r\n    function countStakeAmount(address _countPair, address _stablePair, uint256 _liquiditybalance) public view returns(uint256) {\r\n        return countEthAmount(_countPair, _stablePair, _liquiditybalance);\r\n    }\r\n    \r\n    function countEthAmount(address _countPair, address _stablePair, uint256 _liquiditybalance) internal view returns(uint256) {\r\n        address countToken0 = IUniswapV2Pair(_countPair).token0();\r\n        (uint112 countReserves0, uint112 countReserves1, ) = IUniswapV2Pair(_countPair).getReserves();\r\n        uint256 countTotalSupply = IERC20(_countPair).totalSupply();\r\n        uint256 ethAmount;\r\n        uint256 tokenbalance;\r\n\r\n        if(countTotalSupply > 0) {\r\n            if(countToken0 != 0xC02aaA39b223FE8D0A0e5C4F27eAD9083C756Cc2) {\r\n                tokenbalance = _liquiditybalance.mul(countReserves0).div(countTotalSupply);\r\n                ethAmount = UniswapV2Library.getAmountOut(tokenbalance, countReserves0, countReserves1);\r\n            } else {\r\n                tokenbalance = _liquiditybalance.mul(countReserves1).div(countTotalSupply);\r\n                ethAmount = UniswapV2Library.getAmountOut(tokenbalance, countReserves1, countReserves0);\r\n            }\r\n        }\r\n        else {\r\n            return 0;\r\n        }\r\n        return countUsdtAmount(ethAmount, _stablePair);\r\n    }\r\n\r\n    function countUsdtAmount(uint256 ethAmount, address _stablePair) internal view returns(uint256) {\r\n        address usdttoken0 = IUniswapV2Pair(_stablePair).token0();\r\n        (uint112 stableReserves0, uint112 stableReserves1, ) = IUniswapV2Pair(_stablePair).getReserves();\r\n\r\n        uint256 stableOutAmount;\r\n        if (usdttoken0 == 0xC02aaA39b223FE8D0A0e5C4F27eAD9083C756Cc2) { // WETH Mainnet\r\n            stableOutAmount = UniswapV2Library.getAmountOut(getEthDivider(), stableReserves0, stableReserves1);\r\n        } else {\r\n            stableOutAmount = UniswapV2Library.getAmountOut(getEthDivider(), stableReserves1, stableReserves0);\r\n        }\r\n        uint256 totalAmount = ((ethAmount.div(getEthDivider())).mul(stableOutAmount.div(getStableDivider()))).mul(2);\r\n        return totalAmount;\r\n    }\r\n    \r\n    // Safe chill transfer function, just in case if rounding error causes pool to not have enough CHILLs.\r\n    function safeChillTransfer(address _to, uint256 _amount) internal {\r\n        uint256 chillBal = chill.balanceOf(address(this));\r\n        if (_amount > chillBal) {\r\n            chill.transfer(_to, chillBal);\r\n        } else {\r\n            chill.transfer(_to, _amount);\r\n        }\r\n    }\r\n    \r\n    // if specific lp pool is supported in uniswap uni pool the deposited lp token in chill finance will again deposit in uni pool and earn double reward in uni token\r\n    // and owner can withdraw extra reward from uni pool\r\n    function getUniReward(address _stakeAddress) public onlyOwner {\r\n        IUniStakingRewards(_stakeAddress).getReward();\r\n    }\r\n    \r\n    // extra uni reward only access by distributor\r\n    // distributor can be single user or any other contracts as well \r\n    function accessReward(address _uniAddress, address _to, uint256 _amount) public isDistributor(msg.sender) {\r\n        require(_amount <= IERC20(_uniAddress).balanceOf(address(this)), \"Not Enough Uni Token Balance\");\r\n        require(_to != address(0), \"Not Vaild Address\");\r\n        IERC20(_uniAddress).safeTransfer(_to, _amount);\r\n    }\r\n    \r\n    // withdraw extra uni reward and lp token as well from uni pool\r\n    function getUniRewardAndExit(address _stakeAddress) public onlyOwner {\r\n        IUniStakingRewards(_stakeAddress).exit();\r\n    }\r\n    \r\n    // to give support to specific pool to deposit again in uni pool to generate extra reward in uni token \r\n    function addStakeUniPool(address _uniV2Pool, address _stakingRewardAddress) public onlyOwner {\r\n        require(!stakingUniPools[_uniV2Pool], \"This pool is already exist.\");\r\n        stakingUniPools[_uniV2Pool] = true;\r\n        uniRewardAddresses[_uniV2Pool] = _stakingRewardAddress;\r\n    }\r\n\r\n    // to remove support of uni pool for specific pool\r\n    function removeStakeUniPool(address _uniV2Pool) public onlyOwner {\r\n        require(stakingUniPools[_uniV2Pool], \"This pool is already exist.\");\r\n        stakingUniPools[_uniV2Pool] = false;\r\n        uniRewardAddresses[_uniV2Pool] = address(0);\r\n    }\r\n    \r\n    // dev adderess can only change by dev\r\n    function dev(address _devaddr) public {\r\n        require(msg.sender == devaddr, \"dev adddress is not valid\");\r\n        devaddr = _devaddr;\r\n    }\r\n\r\n    // to set flag for count $20000 worth asset for specific pool\r\n    function setCheckInitialPeriod(uint256 _pid, bool _isCheck) public onlyOwner {\r\n        isCheckInitialPeriod[_pid] = _isCheck;\r\n    }\r\n\r\n    // to set flag for count $20000 worth asset for all pool\r\n    function setCheckInitialPeriodAllPool(bool _isCheck) public onlyOwner {\r\n        uint256 length = poolInfo.length;\r\n        for (uint256 pid = 0; pid < length; ++pid) {\r\n            isCheckInitialPeriod[pid] = _isCheck;\r\n        }\r\n    }\r\n\r\n    // to get flag is enabled for to check is asset is worth of $20000\r\n    function getCheckInitialPeriod(uint256 _pid) public view returns(bool) {\r\n        return isCheckInitialPeriod[_pid];\r\n    }\r\n\r\n    // to set any stable reference address to caluclate $20000\r\n    // usdt pair has 6 decimals so divider will be 1000000 or 1e6 \r\n    function setStablePairAddress(address _stablePair, uint256 _stableDivider) public onlyOwner {\r\n        stablePair = _stablePair;\r\n        stableDivider = _stableDivider;\r\n    }\r\n\r\n    // to get stable pair\r\n    function getStablePairAddress() public view returns(address) {\r\n        return stablePair;\r\n    }\r\n\r\n    // to get stable devider\r\n    function getStableDivider() public view returns(uint256) {\r\n        return stableDivider;\r\n    }\r\n    \r\n    // to set stable eth divider like 1e18\r\n    function setEthDivider(uint256 _ethDivider) public onlyOwner {\r\n        ethDivider = _ethDivider;\r\n    }\r\n\r\n    // to get stable eth divider \r\n    function getEthDivider() public view returns(uint256) {\r\n        return ethDivider;\r\n    }\r\n\r\n    // set chill per block for particular phase\r\n    function setBlockPerPhaseByIndex(uint256 _index, uint256 _chillPerBlock) public onlyOwner {\r\n        blockPerPhase[_index] = _chillPerBlock;\r\n    }\r\n\r\n    // get chill per block for particular phase\r\n    function getBlockPerPhaseByIndex(uint256 _index) public view returns(uint256) {\r\n        return blockPerPhase[_index];\r\n    }\r\n\r\n    // increase any phase time by its index\r\n    function setAndEditPhaseTime(uint256 _index, uint256 _time) public onlyOwner {\r\n        if(_index == 0) {\r\n            phase1time = phase1time.add(_time);\r\n        } else if(_index == 1) {\r\n            phase2time = phase2time.add(_time);\r\n        } else if(_index == 2) {\r\n            phase3time = phase3time.add(_time);\r\n        } else if(_index == 3) {\r\n            phase4time = phase4time.add(_time);\r\n        } else if(_index == 4) {\r\n            phase5time = phase5time.add(_time);\r\n        }\r\n    }\r\n\r\n    // get current phase with its chill per block\r\n    function getPhaseTimeAndBlocks() public view returns(uint256, uint256) {\r\n        if (block.number <= phase1time) {\r\n            return ( phase1time, blockPerPhase[0] );\r\n        } else if (block.number <= phase2time) {\r\n            return ( phase2time, blockPerPhase[1] );\r\n        } else if (block.number <= phase3time) {\r\n            return ( phase3time, blockPerPhase[2] );\r\n        } else if (block.number <= phase4time) {\r\n            return ( phase4time, blockPerPhase[3] );\r\n        } else {\r\n            return ( phase5time, blockPerPhase[4] );\r\n        }\r\n    }\r\n\r\n    // to set reward distibutor for extra uni token\r\n    function setRewardDistributor(address _distributor, bool _isdistributor) public onlyOwner {\r\n        distributors[_distributor] = _isdistributor;\r\n    }\r\n}",
  "sourcePath": "C:/AComputer/freelancer/formefreelance/chillfinance/chill_backend/contracts/chill/ChillFinance.sol",
  "compiler": {
    "name": "solc",
    "version": "0.6.12+commit.27d51765.Emscripten.clang"
  },
  "schemaVersion": "3.3.1",
  "updatedAt": "2020-10-26T05:52:30.380Z",
  "networkType": "ethereum",
  "devdoc": {
    "kind": "dev",
    "methods": {
      "owner()": {
        "details": "Returns the address of the current owner."
      },
      "renounceOwnership()": {
        "details": "Leaves the contract without owner. It will not be possible to call `onlyOwner` functions anymore. Can only be called by the current owner. NOTE: Renouncing ownership will leave the contract without an owner, thereby removing any functionality that is only available to the owner."
      },
      "transferOwnership(address)": {
        "details": "Transfers ownership of the contract to a new account (`newOwner`). Can only be called by the current owner."
      }
    },
    "version": 1
  },
  "userdoc": {
    "kind": "user",
    "methods": {},
    "version": 1
  }
}