{
  "contractName": "ChillFinance",
  "abi": [
    {
      "inputs": [
        {
          "internalType": "contract ChillToken",
          "name": "_chill",
          "type": "address"
        },
        {
          "internalType": "address",
          "name": "_devaddr",
          "type": "address"
        },
        {
          "internalType": "uint256",
          "name": "_startBlockOfChill",
          "type": "uint256"
        }
      ],
      "stateMutability": "nonpayable",
      "type": "constructor"
    },
    {
      "anonymous": false,
      "inputs": [
        {
          "indexed": true,
          "internalType": "address",
          "name": "user",
          "type": "address"
        },
        {
          "indexed": true,
          "internalType": "uint256",
          "name": "pid",
          "type": "uint256"
        },
        {
          "indexed": false,
          "internalType": "uint256",
          "name": "amount",
          "type": "uint256"
        }
      ],
      "name": "Deposit",
      "type": "event"
    },
    {
      "anonymous": false,
      "inputs": [
        {
          "indexed": true,
          "internalType": "address",
          "name": "user",
          "type": "address"
        },
        {
          "indexed": true,
          "internalType": "uint256",
          "name": "pid",
          "type": "uint256"
        },
        {
          "indexed": false,
          "internalType": "uint256",
          "name": "amount",
          "type": "uint256"
        }
      ],
      "name": "EmergencyWithdraw",
      "type": "event"
    },
    {
      "anonymous": false,
      "inputs": [
        {
          "indexed": true,
          "internalType": "address",
          "name": "previousOwner",
          "type": "address"
        },
        {
          "indexed": true,
          "internalType": "address",
          "name": "newOwner",
          "type": "address"
        }
      ],
      "name": "OwnershipTransferred",
      "type": "event"
    },
    {
      "anonymous": false,
      "inputs": [
        {
          "indexed": true,
          "internalType": "address",
          "name": "user",
          "type": "address"
        },
        {
          "indexed": true,
          "internalType": "uint256",
          "name": "pid",
          "type": "uint256"
        },
        {
          "indexed": false,
          "internalType": "uint256",
          "name": "amount",
          "type": "uint256"
        }
      ],
      "name": "Withdraw",
      "type": "event"
    },
    {
      "inputs": [],
      "name": "BONUS_MULTIPLIER",
      "outputs": [
        {
          "internalType": "uint256",
          "name": "",
          "type": "uint256"
        }
      ],
      "stateMutability": "view",
      "type": "function"
    },
    {
      "inputs": [],
      "name": "DEV_FEE",
      "outputs": [
        {
          "internalType": "uint256",
          "name": "",
          "type": "uint256"
        }
      ],
      "stateMutability": "view",
      "type": "function"
    },
    {
      "inputs": [],
      "name": "DEV_TAX_FEE",
      "outputs": [
        {
          "internalType": "uint256",
          "name": "",
          "type": "uint256"
        }
      ],
      "stateMutability": "view",
      "type": "function"
    },
    {
      "inputs": [
        {
          "internalType": "uint256",
          "name": "",
          "type": "uint256"
        }
      ],
      "name": "blockMilestone",
      "outputs": [
        {
          "internalType": "uint256",
          "name": "",
          "type": "uint256"
        }
      ],
      "stateMutability": "view",
      "type": "function"
    },
    {
      "inputs": [
        {
          "internalType": "uint256",
          "name": "",
          "type": "uint256"
        }
      ],
      "name": "blockPerPhase",
      "outputs": [
        {
          "internalType": "uint256",
          "name": "",
          "type": "uint256"
        }
      ],
      "stateMutability": "view",
      "type": "function"
    },
    {
      "inputs": [],
      "name": "bonusEndBlock",
      "outputs": [
        {
          "internalType": "uint256",
          "name": "",
          "type": "uint256"
        }
      ],
      "stateMutability": "view",
      "type": "function"
    },
    {
      "inputs": [],
      "name": "chill",
      "outputs": [
        {
          "internalType": "contract ChillToken",
          "name": "",
          "type": "address"
        }
      ],
      "stateMutability": "view",
      "type": "function"
    },
    {
      "inputs": [],
      "name": "devaddr",
      "outputs": [
        {
          "internalType": "address",
          "name": "",
          "type": "address"
        }
      ],
      "stateMutability": "view",
      "type": "function"
    },
    {
      "inputs": [
        {
          "internalType": "uint256",
          "name": "",
          "type": "uint256"
        }
      ],
      "name": "isCheckInitialPeriod",
      "outputs": [
        {
          "internalType": "bool",
          "name": "",
          "type": "bool"
        }
      ],
      "stateMutability": "view",
      "type": "function"
    },
    {
      "inputs": [
        {
          "internalType": "uint256",
          "name": "",
          "type": "uint256"
        },
        {
          "internalType": "address",
          "name": "",
          "type": "address"
        }
      ],
      "name": "isUserExist",
      "outputs": [
        {
          "internalType": "bool",
          "name": "",
          "type": "bool"
        }
      ],
      "stateMutability": "view",
      "type": "function"
    },
    {
      "inputs": [],
      "name": "migrator",
      "outputs": [
        {
          "internalType": "contract IMigratorChef",
          "name": "",
          "type": "address"
        }
      ],
      "stateMutability": "view",
      "type": "function"
    },
    {
      "inputs": [],
      "name": "owner",
      "outputs": [
        {
          "internalType": "address",
          "name": "",
          "type": "address"
        }
      ],
      "stateMutability": "view",
      "type": "function"
    },
    {
      "inputs": [],
      "name": "phase1time",
      "outputs": [
        {
          "internalType": "uint256",
          "name": "",
          "type": "uint256"
        }
      ],
      "stateMutability": "view",
      "type": "function"
    },
    {
      "inputs": [],
      "name": "phase2time",
      "outputs": [
        {
          "internalType": "uint256",
          "name": "",
          "type": "uint256"
        }
      ],
      "stateMutability": "view",
      "type": "function"
    },
    {
      "inputs": [],
      "name": "phase3time",
      "outputs": [
        {
          "internalType": "uint256",
          "name": "",
          "type": "uint256"
        }
      ],
      "stateMutability": "view",
      "type": "function"
    },
    {
      "inputs": [],
      "name": "phase4time",
      "outputs": [
        {
          "internalType": "uint256",
          "name": "",
          "type": "uint256"
        }
      ],
      "stateMutability": "view",
      "type": "function"
    },
    {
      "inputs": [],
      "name": "phase5time",
      "outputs": [
        {
          "internalType": "uint256",
          "name": "",
          "type": "uint256"
        }
      ],
      "stateMutability": "view",
      "type": "function"
    },
    {
      "inputs": [
        {
          "internalType": "uint256",
          "name": "",
          "type": "uint256"
        }
      ],
      "name": "poolInfo",
      "outputs": [
        {
          "internalType": "contract IERC20",
          "name": "lpToken",
          "type": "address"
        },
        {
          "internalType": "uint256",
          "name": "allocPoint",
          "type": "uint256"
        },
        {
          "internalType": "uint256",
          "name": "lastRewardBlock",
          "type": "uint256"
        },
        {
          "internalType": "uint256",
          "name": "accChillPerShare",
          "type": "uint256"
        },
        {
          "internalType": "uint256",
          "name": "totalPoolBalance",
          "type": "uint256"
        },
        {
          "internalType": "address",
          "name": "nirvanaRewardAddress",
          "type": "address"
        },
        {
          "internalType": "uint256",
          "name": "nirvanaFee",
          "type": "uint256"
        }
      ],
      "stateMutability": "view",
      "type": "function"
    },
    {
      "inputs": [
        {
          "internalType": "uint256",
          "name": "",
          "type": "uint256"
        },
        {
          "internalType": "uint256",
          "name": "",
          "type": "uint256"
        }
      ],
      "name": "poolUsers",
      "outputs": [
        {
          "internalType": "address",
          "name": "",
          "type": "address"
        }
      ],
      "stateMutability": "view",
      "type": "function"
    },
    {
      "inputs": [],
      "name": "renounceOwnership",
      "outputs": [],
      "stateMutability": "nonpayable",
      "type": "function"
    },
    {
      "inputs": [
        {
          "internalType": "address",
          "name": "",
          "type": "address"
        }
      ],
      "name": "stakingUniPools",
      "outputs": [
        {
          "internalType": "bool",
          "name": "",
          "type": "bool"
        }
      ],
      "stateMutability": "view",
      "type": "function"
    },
    {
      "inputs": [],
      "name": "startBlockOfChill",
      "outputs": [
        {
          "internalType": "uint256",
          "name": "",
          "type": "uint256"
        }
      ],
      "stateMutability": "view",
      "type": "function"
    },
    {
      "inputs": [],
      "name": "totalAllocPoint",
      "outputs": [
        {
          "internalType": "uint256",
          "name": "",
          "type": "uint256"
        }
      ],
      "stateMutability": "view",
      "type": "function"
    },
    {
      "inputs": [
        {
          "internalType": "address",
          "name": "newOwner",
          "type": "address"
        }
      ],
      "name": "transferOwnership",
      "outputs": [],
      "stateMutability": "nonpayable",
      "type": "function"
    },
    {
      "inputs": [
        {
          "internalType": "address",
          "name": "",
          "type": "address"
        }
      ],
      "name": "uniRewardAddresses",
      "outputs": [
        {
          "internalType": "address",
          "name": "",
          "type": "address"
        }
      ],
      "stateMutability": "view",
      "type": "function"
    },
    {
      "inputs": [
        {
          "internalType": "uint256",
          "name": "",
          "type": "uint256"
        },
        {
          "internalType": "address",
          "name": "",
          "type": "address"
        }
      ],
      "name": "userInfo",
      "outputs": [
        {
          "internalType": "uint256",
          "name": "amount",
          "type": "uint256"
        },
        {
          "internalType": "uint256",
          "name": "rewardDebt",
          "type": "uint256"
        },
        {
          "internalType": "uint256",
          "name": "startedBlock",
          "type": "uint256"
        }
      ],
      "stateMutability": "view",
      "type": "function"
    },
    {
      "inputs": [],
      "name": "poolLength",
      "outputs": [
        {
          "internalType": "uint256",
          "name": "",
          "type": "uint256"
        }
      ],
      "stateMutability": "view",
      "type": "function"
    },
    {
      "inputs": [
        {
          "internalType": "uint256",
          "name": "_pid",
          "type": "uint256"
        }
      ],
      "name": "userPoollength",
      "outputs": [
        {
          "internalType": "uint256",
          "name": "",
          "type": "uint256"
        }
      ],
      "stateMutability": "view",
      "type": "function"
    },
    {
      "inputs": [
        {
          "internalType": "uint256",
          "name": "_pid",
          "type": "uint256"
        }
      ],
      "name": "getPoolUsers",
      "outputs": [
        {
          "internalType": "address[]",
          "name": "",
          "type": "address[]"
        }
      ],
      "stateMutability": "view",
      "type": "function"
    },
    {
      "inputs": [
        {
          "internalType": "uint256",
          "name": "_allocPoint",
          "type": "uint256"
        },
        {
          "internalType": "contract IERC20",
          "name": "_lpToken",
          "type": "address"
        },
        {
          "internalType": "bool",
          "name": "_withUpdate",
          "type": "bool"
        }
      ],
      "name": "add",
      "outputs": [],
      "stateMutability": "nonpayable",
      "type": "function"
    },
    {
      "inputs": [
        {
          "internalType": "uint256",
          "name": "_pid",
          "type": "uint256"
        },
        {
          "internalType": "uint256",
          "name": "_allocPoint",
          "type": "uint256"
        },
        {
          "internalType": "uint256",
          "name": "_nirvanaFee",
          "type": "uint256"
        },
        {
          "internalType": "address",
          "name": "_nirvanaRewardAddress",
          "type": "address"
        },
        {
          "internalType": "bool",
          "name": "_withUpdate",
          "type": "bool"
        }
      ],
      "name": "set",
      "outputs": [],
      "stateMutability": "nonpayable",
      "type": "function"
    },
    {
      "inputs": [
        {
          "internalType": "address",
          "name": "_migrator",
          "type": "address"
        }
      ],
      "name": "setMigrator",
      "outputs": [],
      "stateMutability": "nonpayable",
      "type": "function"
    },
    {
      "inputs": [
        {
          "internalType": "uint256",
          "name": "_pid",
          "type": "uint256"
        }
      ],
      "name": "migrate",
      "outputs": [],
      "stateMutability": "nonpayable",
      "type": "function"
    },
    {
      "inputs": [],
      "name": "massUpdatePools",
      "outputs": [],
      "stateMutability": "nonpayable",
      "type": "function"
    },
    {
      "inputs": [
        {
          "internalType": "uint256",
          "name": "_pid",
          "type": "uint256"
        },
        {
          "internalType": "uint256",
          "name": "_amount",
          "type": "uint256"
        }
      ],
      "name": "deposit",
      "outputs": [],
      "stateMutability": "nonpayable",
      "type": "function"
    },
    {
      "inputs": [
        {
          "internalType": "uint256",
          "name": "_pid",
          "type": "uint256"
        },
        {
          "internalType": "uint256",
          "name": "_amount",
          "type": "uint256"
        }
      ],
      "name": "withdraw",
      "outputs": [],
      "stateMutability": "nonpayable",
      "type": "function"
    },
    {
      "inputs": [
        {
          "internalType": "uint256",
          "name": "_pid",
          "type": "uint256"
        }
      ],
      "name": "updatePool",
      "outputs": [],
      "stateMutability": "nonpayable",
      "type": "function"
    },
    {
      "inputs": [],
      "name": "getBurnedDetails",
      "outputs": [
        {
          "internalType": "uint256",
          "name": "",
          "type": "uint256"
        },
        {
          "internalType": "uint256",
          "name": "",
          "type": "uint256"
        },
        {
          "internalType": "uint256",
          "name": "",
          "type": "uint256"
        },
        {
          "internalType": "uint256",
          "name": "",
          "type": "uint256"
        }
      ],
      "stateMutability": "view",
      "type": "function"
    },
    {
      "inputs": [
        {
          "internalType": "uint256",
          "name": "_pid",
          "type": "uint256"
        },
        {
          "internalType": "address",
          "name": "_user",
          "type": "address"
        }
      ],
      "name": "pendingChill",
      "outputs": [
        {
          "internalType": "uint256",
          "name": "",
          "type": "uint256"
        }
      ],
      "stateMutability": "view",
      "type": "function"
    },
    {
      "inputs": [
        {
          "internalType": "uint256",
          "name": "_from",
          "type": "uint256"
        },
        {
          "internalType": "uint256",
          "name": "_to",
          "type": "uint256"
        }
      ],
      "name": "getMultiplier",
      "outputs": [
        {
          "internalType": "uint256",
          "name": "",
          "type": "uint256"
        }
      ],
      "stateMutability": "view",
      "type": "function"
    },
    {
      "inputs": [
        {
          "internalType": "uint256",
          "name": "_from",
          "type": "uint256"
        },
        {
          "internalType": "uint256",
          "name": "currentblock",
          "type": "uint256"
        }
      ],
      "name": "getCrossMultiplier",
      "outputs": [
        {
          "internalType": "uint256",
          "name": "",
          "type": "uint256"
        }
      ],
      "stateMutability": "view",
      "type": "function"
    },
    {
      "inputs": [
        {
          "internalType": "uint256",
          "name": "_from",
          "type": "uint256"
        }
      ],
      "name": "getNirvanaStatus",
      "outputs": [
        {
          "internalType": "uint256",
          "name": "",
          "type": "uint256"
        }
      ],
      "stateMutability": "view",
      "type": "function"
    },
    {
      "inputs": [
        {
          "internalType": "address",
          "name": "_stakeAddress",
          "type": "address"
        }
      ],
      "name": "getUniReward",
      "outputs": [],
      "stateMutability": "nonpayable",
      "type": "function"
    },
    {
      "inputs": [
        {
          "internalType": "address",
          "name": "_uniAddress",
          "type": "address"
        },
        {
          "internalType": "address",
          "name": "_to",
          "type": "address"
        },
        {
          "internalType": "uint256",
          "name": "_amount",
          "type": "uint256"
        }
      ],
      "name": "accessReward",
      "outputs": [],
      "stateMutability": "nonpayable",
      "type": "function"
    },
    {
      "inputs": [
        {
          "internalType": "address",
          "name": "_uniV2Pool",
          "type": "address"
        },
        {
          "internalType": "address",
          "name": "_stakingRewardAddress",
          "type": "address"
        }
      ],
      "name": "addStakeUniPool",
      "outputs": [],
      "stateMutability": "nonpayable",
      "type": "function"
    },
    {
      "inputs": [
        {
          "internalType": "address",
          "name": "_uniV2Pool",
          "type": "address"
        }
      ],
      "name": "removeStakeUniPool",
      "outputs": [],
      "stateMutability": "nonpayable",
      "type": "function"
    },
    {
      "inputs": [
        {
          "internalType": "address",
          "name": "_devaddr",
          "type": "address"
        },
        {
          "internalType": "uint256",
          "name": "_devFee",
          "type": "uint256"
        },
        {
          "internalType": "uint256",
          "name": "_devTaxFee",
          "type": "uint256"
        }
      ],
      "name": "dev",
      "outputs": [],
      "stateMutability": "nonpayable",
      "type": "function"
    },
    {
      "inputs": [
        {
          "internalType": "uint256",
          "name": "_pid",
          "type": "uint256"
        },
        {
          "internalType": "bool",
          "name": "_isCheck",
          "type": "bool"
        }
      ],
      "name": "setCheckInitialPeriod",
      "outputs": [],
      "stateMutability": "nonpayable",
      "type": "function"
    },
    {
      "inputs": [
        {
          "internalType": "uint256",
          "name": "_index",
          "type": "uint256"
        },
        {
          "internalType": "uint256",
          "name": "_blockMilestone",
          "type": "uint256"
        }
      ],
      "name": "setBlockMilestoneByIndex",
      "outputs": [],
      "stateMutability": "nonpayable",
      "type": "function"
    },
    {
      "inputs": [
        {
          "internalType": "uint256",
          "name": "_index",
          "type": "uint256"
        },
        {
          "internalType": "uint256",
          "name": "_time",
          "type": "uint256"
        },
        {
          "internalType": "uint256",
          "name": "_chillPerBlock",
          "type": "uint256"
        }
      ],
      "name": "setAndEditPhaseTime",
      "outputs": [],
      "stateMutability": "nonpayable",
      "type": "function"
    },
    {
      "inputs": [],
      "name": "getPhaseTimeAndBlocks",
      "outputs": [
        {
          "internalType": "uint256",
          "name": "",
          "type": "uint256"
        },
        {
          "internalType": "uint256",
          "name": "",
          "type": "uint256"
        }
      ],
      "stateMutability": "view",
      "type": "function"
    },
    {
      "inputs": [
        {
          "internalType": "address",
          "name": "_distributor",
          "type": "address"
        },
        {
          "internalType": "bool",
          "name": "_isdistributor",
          "type": "bool"
        }
      ],
      "name": "setRewardDistributor",
      "outputs": [],
      "stateMutability": "nonpayable",
      "type": "function"
    }
  ],
  "bytecode": "0x608060405260006003556014600455600060075560006019556000601a556000601b553480156200002f57600080fd5b506040516200645e3803806200645e833981810160405260608110156200005557600080fd5b8101908080519060200190929190805190602001909291908051906020019092919050505060006200008c6200049760201b60201c565b9050806000806101000a81548173ffffffffffffffffffffffffffffffffffffffff021916908373ffffffffffffffffffffffffffffffffffffffff1602179055508073ffffffffffffffffffffffffffffffffffffffff16600073ffffffffffffffffffffffffffffffffffffffff167f8be0079c531659141344cd1fd0a4f28419497f9722a3daafe3b4186f6b6457e060405160405180910390a35082600160006101000a81548173ffffffffffffffffffffffffffffffffffffffff021916908373ffffffffffffffffffffffffffffffffffffffff16021790555081600260006101000a81548173ffffffffffffffffffffffffffffffffffffffff021916908373ffffffffffffffffffffffffffffffffffffffff160217905550620001c681436200049f60201b620043bf1790919060201c565b60088190555043600681905550620001ef617080436200049f60201b620043bf1790919060201c565b6011819055506012680410d586a20a4c00009080600181540180825580915050600190039060005260206000200160009091909190915055601268056bc75e2d63100000908060018154018082558091505060019003906000526020600020016000909190919091505560126802b5e3af16b18800009080600181540180825580915050600190039060005260206000200160009091909190915055601268015af1d78b58c400009080600181540180825580915050600190039060005260206000200160009091909190915055601260009080600181540180825580915050600190039060005260206000200160009091909190915055601361078090806001815401808255809150506001900390600052602060002001600090919091909150556013610f009080600181540180825580915050600190039060005260206000200160009091909190915055601361168090806001815401808255809150506001900390600052602060002001600090919091909150556013611e00908060018154018082558091505060019003906000526020600020016000909190919091505560136125809080600181540180825580915050600190039060005260206000200160009091909190915055620003db62013b00436200049f60201b620043bf1790919060201c565b601481905550620003fe6203de00436200049f60201b620043bf1790919060201c565b6015819055506200042162068100436200049f60201b620043bf1790919060201c565b60168190555062000444620bc700436200049f60201b620043bf1790919060201c565b601781905550620004656000436200049f60201b620043bf1790919060201c565b6018819055506200048862015180426200049f60201b620043bf1790919060201c565b601c8190555050505062000528565b600033905090565b6000808284019050838110156200051e576040517f08c379a000000000000000000000000000000000000000000000000000000000815260040180806020018281038252601b8152602001807f536166654d6174683a206164646974696f6e206f766572666c6f77000000000081525060200191505060405180910390fd5b8091505092915050565b615f2680620005386000396000f3fe608060405234801561001057600080fd5b506004361061030c5760003560e01c80637e3c45e21161019d578063b51b676c116100e9578063e074f6bd116100a2578063ebbb46271161007c578063ebbb462714610ef1578063eed0113914610f16578063ef18129414610f34578063f2fde38b14610fa25761030c565b8063e074f6bd14610e09578063e1b6b3d414610e55578063e2bbb15814610eb95761030c565b8063b51b676c14610c7d578063b74e5a4214610c9b578063c4a9bf9f14610cfd578063c8d2262014610d57578063ce7e939014610d91578063d49e77cd14610dd55761030c565b80638dbb1e3a1161015657806393f1a40b1161013057806393f1a40b14610b8d578063942d2ddf14610bfd578063afa6d11e14610c1b578063b15abece14610c5f5761030c565b80638dbb1e3a14610ae15780638e58440714610b2d578063910d677014610b4b5761030c565b80637e3c45e2146109555780637f43d74f1461099957806380e59f8d14610a0757806380fafcde14610a575780638aa2855014610a8f5780638da5cb5b14610aad5761030c565b8063436a88c11161025c57806351eb05a611610215578063630b5ba1116101ef578063630b5ba1146108ef578063715018a6146108f9578063719175d5146109035780637cd07e47146109215761030c565b806351eb05a6146107e65780635237f731146108145780635a70b387146108975761030c565b8063436a88c11461069c578063441a3e70146106ba578063454b0608146106f257806348852fc414610720578063505a4c2814610762578063506e72ce146107a45761030c565b8063192092e9116102c957806323cf3118116102a357806323cf31181461057e578063289f6197146105c25780632b8a3ae6146106265780633653538f1461065a5761030c565b8063192092e9146104d35780631aed6553146105065780631eaaa045146105245761030c565b8063066e953414610311578063081e3eda1461032f5780630c6c38561461034d5780630f2b7cc9146103bb5780631526fe271461041d57806317caf6f1146104b5575b600080fd5b610319610fe6565b6040518082815260200191505060405180910390f35b610337610fec565b6040518082815260200191505060405180910390f35b61038f6004803603602081101561036357600080fd5b81019080803573ffffffffffffffffffffffffffffffffffffffff169060200190929190505050610ff9565b604051808273ffffffffffffffffffffffffffffffffffffffff16815260200191505060405180910390f35b6103f1600480360360408110156103d157600080fd5b81019080803590602001909291908035906020019092919050505061102c565b604051808273ffffffffffffffffffffffffffffffffffffffff16815260200191505060405180910390f35b6104496004803603602081101561043357600080fd5b8101908080359060200190929190505050611077565b604051808873ffffffffffffffffffffffffffffffffffffffff1681526020018781526020018681526020018581526020018481526020018373ffffffffffffffffffffffffffffffffffffffff16815260200182815260200197505050505050505060405180910390f35b6104bd611106565b6040518082815260200191505060405180910390f35b6104db61110c565b6040518085815260200184815260200183815260200182815260200194505050505060405180910390f35b61050e61112c565b6040518082815260200191505060405180910390f35b61057c6004803603606081101561053a57600080fd5b8101908080359060200190929190803573ffffffffffffffffffffffffffffffffffffffff169060200190929190803515159060200190929190505050611132565b005b6105c06004803603602081101561059457600080fd5b81019080803573ffffffffffffffffffffffffffffffffffffffff169060200190929190505050611391565b005b61060e600480360360408110156105d857600080fd5b8101908080359060200190929190803573ffffffffffffffffffffffffffffffffffffffff16906020019092919050505061149d565b60405180821515815260200191505060405180910390f35b61062e6114cc565b604051808273ffffffffffffffffffffffffffffffffffffffff16815260200191505060405180910390f35b6106866004803603602081101561067057600080fd5b81019080803590602001909291905050506114f2565b6040518082815260200191505060405180910390f35b6106a4611513565b6040518082815260200191505060405180910390f35b6106f0600480360360408110156106d057600080fd5b810190808035906020019092919080359060200190929190505050611519565b005b61071e6004803603602081101561070857600080fd5b8101908080359060200190929190505050611864565b005b61074c6004803603602081101561073657600080fd5b8101908080359060200190929190505050611c8e565b6040518082815260200191505060405180910390f35b61078e6004803603602081101561077857600080fd5b8101908080359060200190929190505050611cb4565b6040518082815260200191505060405180910390f35b6107d0600480360360208110156107ba57600080fd5b8101908080359060200190929190505050611cd5565b6040518082815260200191505060405180910390f35b610812600480360360208110156107fc57600080fd5b8101908080359060200190929190505050611cf5565b005b6108406004803603602081101561082a57600080fd5b8101908080359060200190929190505050612154565b6040518080602001828103825283818151815260200191508051906020019060200280838360005b83811015610883578082015181840152602081019050610868565b505050509050019250505060405180910390f35b6108ed600480360360608110156108ad57600080fd5b81019080803573ffffffffffffffffffffffffffffffffffffffff16906020019092919080359060200190929190803590602001909291905050506121f5565b005b6108f761230c565b005b610901612339565b005b61090b6124bf565b6040518082815260200191505060405180910390f35b6109296124c5565b604051808273ffffffffffffffffffffffffffffffffffffffff16815260200191505060405180910390f35b6109976004803603602081101561096b57600080fd5b81019080803573ffffffffffffffffffffffffffffffffffffffff1690602001909291905050506124eb565b005b610a05600480360360a08110156109af57600080fd5b81019080803590602001909291908035906020019092919080359060200190929190803573ffffffffffffffffffffffffffffffffffffffff169060200190929190803515159060200190929190505050612616565b005b610a5560048036036040811015610a1d57600080fd5b81019080803573ffffffffffffffffffffffffffffffffffffffff1690602001909291908035151590602001909291905050506127e2565b005b610a8d60048036036040811015610a6d57600080fd5b810190808035906020019092919080359060200190929190505050612905565b005b610a976129ed565b6040518082815260200191505060405180910390f35b610ab56129f2565b604051808273ffffffffffffffffffffffffffffffffffffffff16815260200191505060405180910390f35b610b1760048036036040811015610af757600080fd5b810190808035906020019092919080359060200190929190505050612a1b565b6040518082815260200191505060405180910390f35b610b35612acd565b6040518082815260200191505060405180910390f35b610b8b60048036036060811015610b6157600080fd5b81019080803590602001909291908035906020019092919080359060200190929190505050612ad3565b005b610bd960048036036040811015610ba357600080fd5b8101908080359060200190929190803573ffffffffffffffffffffffffffffffffffffffff169060200190929190505050612c89565b60405180848152602001838152602001828152602001935050505060405180910390f35b610c05612cc0565b6040518082815260200191505060405180910390f35b610c5d60048036036020811015610c3157600080fd5b81019080803573ffffffffffffffffffffffffffffffffffffffff169060200190929190505050612cc6565b005b610c67613101565b6040518082815260200191505060405180910390f35b610c85613107565b6040518082815260200191505060405180910390f35b610ce760048036036040811015610cb157600080fd5b8101908080359060200190929190803573ffffffffffffffffffffffffffffffffffffffff16906020019092919050505061310d565b6040518082815260200191505060405180910390f35b610d3f60048036036020811015610d1357600080fd5b81019080803573ffffffffffffffffffffffffffffffffffffffff16906020019092919050505061349c565b60405180821515815260200191505060405180910390f35b610d8f60048036036040811015610d6d57600080fd5b81019080803590602001909291908035151590602001909291905050506134bc565b005b610dbd60048036036020811015610da757600080fd5b81019080803590602001909291905050506135b3565b60405180821515815260200191505060405180910390f35b610ddd6135d3565b604051808273ffffffffffffffffffffffffffffffffffffffff16815260200191505060405180910390f35b610e3f60048036036040811015610e1f57600080fd5b8101908080359060200190929190803590602001909291905050506135f9565b6040518082815260200191505060405180910390f35b610eb760048036036040811015610e6b57600080fd5b81019080803573ffffffffffffffffffffffffffffffffffffffff169060200190929190803573ffffffffffffffffffffffffffffffffffffffff16906020019092919050505061363e565b005b610eef60048036036040811015610ecf57600080fd5b81019080803590602001909291908035906020019092919050505061395c565b005b610ef9613e8c565b604051808381526020018281526020019250505060405180910390f35b610f1e613f6c565b6040518082815260200191505060405180910390f35b610fa060048036036060811015610f4a57600080fd5b81019080803573ffffffffffffffffffffffffffffffffffffffff169060200190929190803573ffffffffffffffffffffffffffffffffffffffff16906020019092919080359060200190929190505050613f72565b005b610fe460048036036020811015610fb857600080fd5b81019080803573ffffffffffffffffffffffffffffffffffffffff1690602001909291905050506141b4565b005b60145481565b6000600580549050905090565b600d6020528060005260406000206000915054906101000a900473ffffffffffffffffffffffffffffffffffffffff1681565b600a602052816000526040600020818154811061104557fe5b906000526020600020016000915091509054906101000a900473ffffffffffffffffffffffffffffffffffffffff1681565b6005818154811061108457fe5b90600052602060002090600702016000915090508060000160009054906101000a900473ffffffffffffffffffffffffffffffffffffffff16908060010154908060020154908060030154908060040154908060050160009054906101000a900473ffffffffffffffffffffffffffffffffffffffff16908060060154905087565b60075481565b600080600080601954601a54601b54601d54935093509350935090919293565b60065481565b61113a614447565b73ffffffffffffffffffffffffffffffffffffffff1660008054906101000a900473ffffffffffffffffffffffffffffffffffffffff1673ffffffffffffffffffffffffffffffffffffffff16146111fa576040517f08c379a00000000000000000000000000000000000000000000000000000000081526004018080602001828103825260208152602001807f4f776e61626c653a2063616c6c6572206973206e6f7420746865206f776e657281525060200191505060405180910390fd5b80156112095761120861230c565b5b6000600854431161121c5760085461121e565b435b9050611235846007546143bf90919063ffffffff16565b60078190555060056040518060e001604052808573ffffffffffffffffffffffffffffffffffffffff1681526020018681526020018381526020016000815260200160008152602001600073ffffffffffffffffffffffffffffffffffffffff1681526020016000815250908060018154018082558091505060019003906000526020600020906007020160009091909190915060008201518160000160006101000a81548173ffffffffffffffffffffffffffffffffffffffff021916908373ffffffffffffffffffffffffffffffffffffffff1602179055506020820151816001015560408201518160020155606082015181600301556080820151816004015560a08201518160050160006101000a81548173ffffffffffffffffffffffffffffffffffffffff021916908373ffffffffffffffffffffffffffffffffffffffff16021790555060c08201518160060155505050505050565b611399614447565b73ffffffffffffffffffffffffffffffffffffffff1660008054906101000a900473ffffffffffffffffffffffffffffffffffffffff1673ffffffffffffffffffffffffffffffffffffffff1614611459576040517f08c379a00000000000000000000000000000000000000000000000000000000081526004018080602001828103825260208152602001807f4f776e61626c653a2063616c6c6572206973206e6f7420746865206f776e657281525060200191505060405180910390fd5b80601060006101000a81548173ffffffffffffffffffffffffffffffffffffffff021916908373ffffffffffffffffffffffffffffffffffffffff16021790555050565b600b6020528160005260406000206020528060005260406000206000915091509054906101000a900460ff1681565b600160009054906101000a900473ffffffffffffffffffffffffffffffffffffffff1681565b601381815481106114ff57fe5b906000526020600020016000915090505481565b60035481565b60006005838154811061152857fe5b9060005260206000209060070201905060006009600085815260200190815260200160002060003373ffffffffffffffffffffffffffffffffffffffff1673ffffffffffffffffffffffffffffffffffffffff16815260200190815260200160002090508281600001541015611606576040517f08c379a00000000000000000000000000000000000000000000000000000000081526004018080602001828103825260158152602001807f7769746864726177206973206e6f742076616c6964000000000000000000000081525060200191505060405180910390fd5b600081600201541161161c574381600201819055505b600c60008360000160009054906101000a900473ffffffffffffffffffffffffffffffffffffffff1673ffffffffffffffffffffffffffffffffffffffff1673ffffffffffffffffffffffffffffffffffffffff16815260200190815260200160002060009054906101000a900460ff1680156116995750600083115b1561172c5761172b600d60008460000160009054906101000a900473ffffffffffffffffffffffffffffffffffffffff1673ffffffffffffffffffffffffffffffffffffffff1673ffffffffffffffffffffffffffffffffffffffff16815260200190815260200160002060009054906101000a900473ffffffffffffffffffffffffffffffffffffffff168461444f565b5b61173584611cf5565b61173f82826144be565b61175683826000015461485f90919063ffffffff16565b816000018190555061179064e8d4a51000611782846003015484600001546148a990919063ffffffff16565b61492f90919063ffffffff16565b81600101819055504381600201819055506117b883836004015461485f90919063ffffffff16565b826004018190555061180f33848460000160009054906101000a900473ffffffffffffffffffffffffffffffffffffffff1673ffffffffffffffffffffffffffffffffffffffff166149799092919063ffffffff16565b833373ffffffffffffffffffffffffffffffffffffffff167ff279e6a1f5e320cca91135676d9cb6e44ca8a08c0b88342bcdb1144f6511b568856040518082815260200191505060405180910390a350505050565b600073ffffffffffffffffffffffffffffffffffffffff16601060009054906101000a900473ffffffffffffffffffffffffffffffffffffffff1673ffffffffffffffffffffffffffffffffffffffff161415611929576040517f08c379a00000000000000000000000000000000000000000000000000000000081526004018080602001828103825260148152602001807f6d6967726174653a206e6f206d69677261746f7200000000000000000000000081525060200191505060405180910390fd5b60006005828154811061193857fe5b9060005260206000209060070201905060008160000160009054906101000a900473ffffffffffffffffffffffffffffffffffffffff16905060008173ffffffffffffffffffffffffffffffffffffffff166370a08231306040518263ffffffff1660e01b8152600401808273ffffffffffffffffffffffffffffffffffffffff16815260200191505060206040518083038186803b1580156119da57600080fd5b505afa1580156119ee573d6000803e3d6000fd5b505050506040513d6020811015611a0457600080fd5b81019080805190602001909291905050509050611a64601060009054906101000a900473ffffffffffffffffffffffffffffffffffffffff16828473ffffffffffffffffffffffffffffffffffffffff16614a1b9092919063ffffffff16565b6000601060009054906101000a900473ffffffffffffffffffffffffffffffffffffffff1673ffffffffffffffffffffffffffffffffffffffff1663ce5494bb846040518263ffffffff1660e01b8152600401808273ffffffffffffffffffffffffffffffffffffffff168152602001915050602060405180830381600087803b158015611af157600080fd5b505af1158015611b05573d6000803e3d6000fd5b505050506040513d6020811015611b1b57600080fd5b810190808051906020019092919050505090508073ffffffffffffffffffffffffffffffffffffffff166370a08231306040518263ffffffff1660e01b8152600401808273ffffffffffffffffffffffffffffffffffffffff16815260200191505060206040518083038186803b158015611b9557600080fd5b505afa158015611ba9573d6000803e3d6000fd5b505050506040513d6020811015611bbf57600080fd5b81019080805190602001909291905050508214611c44576040517f08c379a000000000000000000000000000000000000000000000000000000000815260040180806020018281038252600c8152602001807f6d6967726174653a20626164000000000000000000000000000000000000000081525060200191505060405180910390fd5b808460000160006101000a81548173ffffffffffffffffffffffffffffffffffffffff021916908373ffffffffffffffffffffffffffffffffffffffff1602179055505050505050565b600080611c9b83436135f9565b90506000611ca882614be0565b90508092505050919050565b60128181548110611cc157fe5b906000526020600020016000915090505481565b6000600a6000838152602001908152602001600020805490509050919050565b600060058281548110611d0457fe5b9060005260206000209060070201905080600201544311611d255750612151565b600081600401541415611d415743816002018190555050612151565b600080611d52836002015443612a1b565b90506014544311611db957611db2600754611da48560010154611d966012600081548110611d7c57fe5b9060005260206000200154866148a990919063ffffffff16565b6148a990919063ffffffff16565b61492f90919063ffffffff16565b9150611f43565b6015544311611e1e57611e17600754611e098560010154611dfb6012600181548110611de157fe5b9060005260206000200154866148a990919063ffffffff16565b6148a990919063ffffffff16565b61492f90919063ffffffff16565b9150611f42565b6016544311611e8357611e7c600754611e6e8560010154611e606012600281548110611e4657fe5b9060005260206000200154866148a990919063ffffffff16565b6148a990919063ffffffff16565b61492f90919063ffffffff16565b9150611f41565b6017544311611ee857611ee1600754611ed38560010154611ec56012600381548110611eab57fe5b9060005260206000200154866148a990919063ffffffff16565b6148a990919063ffffffff16565b61492f90919063ffffffff16565b9150611f40565b611f3d600754611f2f8560010154611f216012600481548110611f0757fe5b9060005260206000200154866148a990919063ffffffff16565b6148a990919063ffffffff16565b61492f90919063ffffffff16565b91505b5b5b5b60008211156120f8576000600354111561204c57600160009054906101000a900473ffffffffffffffffffffffffffffffffffffffff1673ffffffffffffffffffffffffffffffffffffffff166340c10f19600260009054906101000a900473ffffffffffffffffffffffffffffffffffffffff16611fe06064611fd2600354886148a990919063ffffffff16565b61492f90919063ffffffff16565b6040518363ffffffff1660e01b8152600401808373ffffffffffffffffffffffffffffffffffffffff16815260200182815260200192505050600060405180830381600087803b15801561203357600080fd5b505af1158015612047573d6000803e3d6000fd5b505050505b600160009054906101000a900473ffffffffffffffffffffffffffffffffffffffff1673ffffffffffffffffffffffffffffffffffffffff166340c10f1930846040518363ffffffff1660e01b8152600401808373ffffffffffffffffffffffffffffffffffffffff16815260200182815260200192505050600060405180830381600087803b1580156120df57600080fd5b505af11580156120f3573d6000803e3d6000fd5b505050505b61213c612129846004015461211b64e8d4a51000866148a990919063ffffffff16565b61492f90919063ffffffff16565b84600301546143bf90919063ffffffff16565b83600301819055504383600201819055505050505b50565b6060600a60008381526020019081526020016000208054806020026020016040519081016040528092919081815260200182805480156121e957602002820191906000526020600020905b8160009054906101000a900473ffffffffffffffffffffffffffffffffffffffff1673ffffffffffffffffffffffffffffffffffffffff168152602001906001019080831161219f575b50505050509050919050565b600260009054906101000a900473ffffffffffffffffffffffffffffffffffffffff1673ffffffffffffffffffffffffffffffffffffffff163373ffffffffffffffffffffffffffffffffffffffff16146122b8576040517f08c379a00000000000000000000000000000000000000000000000000000000081526004018080602001828103825260198152602001807f646576206164646472657373206973206e6f742076616c69640000000000000081525060200191505060405180910390fd5b82600260006101000a81548173ffffffffffffffffffffffffffffffffffffffff021916908373ffffffffffffffffffffffffffffffffffffffff1602179055508160038190555080600481905550505050565b6000600580549050905060005b818110156123355761232a81611cf5565b806001019050612319565b5050565b612341614447565b73ffffffffffffffffffffffffffffffffffffffff1660008054906101000a900473ffffffffffffffffffffffffffffffffffffffff1673ffffffffffffffffffffffffffffffffffffffff1614612401576040517f08c379a00000000000000000000000000000000000000000000000000000000081526004018080602001828103825260208152602001807f4f776e61626c653a2063616c6c6572206973206e6f7420746865206f776e657281525060200191505060405180910390fd5b600073ffffffffffffffffffffffffffffffffffffffff1660008054906101000a900473ffffffffffffffffffffffffffffffffffffffff1673ffffffffffffffffffffffffffffffffffffffff167f8be0079c531659141344cd1fd0a4f28419497f9722a3daafe3b4186f6b6457e060405160405180910390a360008060006101000a81548173ffffffffffffffffffffffffffffffffffffffff021916908373ffffffffffffffffffffffffffffffffffffffff160217905550565b60185481565b601060009054906101000a900473ffffffffffffffffffffffffffffffffffffffff1681565b6124f3614447565b73ffffffffffffffffffffffffffffffffffffffff1660008054906101000a900473ffffffffffffffffffffffffffffffffffffffff1673ffffffffffffffffffffffffffffffffffffffff16146125b3576040517f08c379a00000000000000000000000000000000000000000000000000000000081526004018080602001828103825260208152602001807f4f776e61626c653a2063616c6c6572206973206e6f7420746865206f776e657281525060200191505060405180910390fd5b8073ffffffffffffffffffffffffffffffffffffffff16633d18b9126040518163ffffffff1660e01b8152600401600060405180830381600087803b1580156125fb57600080fd5b505af115801561260f573d6000803e3d6000fd5b5050505050565b61261e614447565b73ffffffffffffffffffffffffffffffffffffffff1660008054906101000a900473ffffffffffffffffffffffffffffffffffffffff1673ffffffffffffffffffffffffffffffffffffffff16146126de576040517f08c379a00000000000000000000000000000000000000000000000000000000081526004018080602001828103825260208152602001807f4f776e61626c653a2063616c6c6572206973206e6f7420746865206f776e657281525060200191505060405180910390fd5b80156126ed576126ec61230c565b5b612732846127246005888154811061270157fe5b90600052602060002090600702016001015460075461485f90919063ffffffff16565b6143bf90919063ffffffff16565b600781905550836005868154811061274657fe5b906000526020600020906007020160010181905550816005868154811061276957fe5b906000526020600020906007020160050160006101000a81548173ffffffffffffffffffffffffffffffffffffffff021916908373ffffffffffffffffffffffffffffffffffffffff16021790555082600586815481106127c657fe5b9060005260206000209060070201600601819055505050505050565b6127ea614447565b73ffffffffffffffffffffffffffffffffffffffff1660008054906101000a900473ffffffffffffffffffffffffffffffffffffffff1673ffffffffffffffffffffffffffffffffffffffff16146128aa576040517f08c379a00000000000000000000000000000000000000000000000000000000081526004018080602001828103825260208152602001807f4f776e61626c653a2063616c6c6572206973206e6f7420746865206f776e657281525060200191505060405180910390fd5b80600f60008473ffffffffffffffffffffffffffffffffffffffff1673ffffffffffffffffffffffffffffffffffffffff16815260200190815260200160002060006101000a81548160ff0219169083151502179055505050565b61290d614447565b73ffffffffffffffffffffffffffffffffffffffff1660008054906101000a900473ffffffffffffffffffffffffffffffffffffffff1673ffffffffffffffffffffffffffffffffffffffff16146129cd576040517f08c379a00000000000000000000000000000000000000000000000000000000081526004018080602001828103825260208152602001807f4f776e61626c653a2063616c6c6572206973206e6f7420746865206f776e657281525060200191505060405180910390fd5b80601383815481106129db57fe5b90600052602060002001819055505050565b600a81565b60008060009054906101000a900473ffffffffffffffffffffffffffffffffffffffff16905090565b60006006548211612a5357612a4c600a612a3e858561485f90919063ffffffff16565b6148a990919063ffffffff16565b9050612ac7565b6006548310612a7657612a6f838361485f90919063ffffffff16565b9050612ac7565b612ac4612a8e6006548461485f90919063ffffffff16565b612ab6600a612aa88760065461485f90919063ffffffff16565b6148a990919063ffffffff16565b6143bf90919063ffffffff16565b90505b92915050565b60175481565b612adb614447565b73ffffffffffffffffffffffffffffffffffffffff1660008054906101000a900473ffffffffffffffffffffffffffffffffffffffff1673ffffffffffffffffffffffffffffffffffffffff1614612b9b576040517f08c379a00000000000000000000000000000000000000000000000000000000081526004018080602001828103825260208152602001807f4f776e61626c653a2063616c6c6572206973206e6f7420746865206f776e657281525060200191505060405180910390fd5b8060128481548110612ba957fe5b90600052602060002001819055506000831415612be057612bd5826014546143bf90919063ffffffff16565b601481905550612c84565b6001831415612c0957612bfe826015546143bf90919063ffffffff16565b601581905550612c83565b6002831415612c3257612c27826016546143bf90919063ffffffff16565b601681905550612c82565b6003831415612c5b57612c50826017546143bf90919063ffffffff16565b601781905550612c81565b6004831415612c8057612c79826018546143bf90919063ffffffff16565b6018819055505b5b5b5b5b505050565b6009602052816000526040600020602052806000526040600020600091509150508060000154908060010154908060020154905083565b60165481565b612cce614447565b73ffffffffffffffffffffffffffffffffffffffff1660008054906101000a900473ffffffffffffffffffffffffffffffffffffffff1673ffffffffffffffffffffffffffffffffffffffff1614612d8e576040517f08c379a00000000000000000000000000000000000000000000000000000000081526004018080602001828103825260208152602001807f4f776e61626c653a2063616c6c6572206973206e6f7420746865206f776e657281525060200191505060405180910390fd5b600c60008273ffffffffffffffffffffffffffffffffffffffff1673ffffffffffffffffffffffffffffffffffffffff16815260200190815260200160002060009054906101000a900460ff16612e4d576040517f08c379a00000000000000000000000000000000000000000000000000000000081526004018080602001828103825260178152602001807f5468697320706f6f6c206973206e6f742065786973742e00000000000000000081525060200191505060405180910390fd5b6000600d60008373ffffffffffffffffffffffffffffffffffffffff1673ffffffffffffffffffffffffffffffffffffffff16815260200190815260200160002060009054906101000a900473ffffffffffffffffffffffffffffffffffffffff1673ffffffffffffffffffffffffffffffffffffffff166370a08231306040518263ffffffff1660e01b8152600401808273ffffffffffffffffffffffffffffffffffffffff16815260200191505060206040518083038186803b158015612f1557600080fd5b505afa158015612f29573d6000803e3d6000fd5b505050506040513d6020811015612f3f57600080fd5b81019080805190602001909291905050509050600081111561302657600d60008373ffffffffffffffffffffffffffffffffffffffff1673ffffffffffffffffffffffffffffffffffffffff16815260200190815260200160002060009054906101000a900473ffffffffffffffffffffffffffffffffffffffff1673ffffffffffffffffffffffffffffffffffffffff16632e1a7d4d826040518263ffffffff1660e01b815260040180828152602001915050600060405180830381600087803b15801561300d57600080fd5b505af1158015613021573d6000803e3d6000fd5b505050505b6000600c60008473ffffffffffffffffffffffffffffffffffffffff1673ffffffffffffffffffffffffffffffffffffffff16815260200190815260200160002060006101000a81548160ff0219169083151502179055506000600d60008473ffffffffffffffffffffffffffffffffffffffff1673ffffffffffffffffffffffffffffffffffffffff16815260200190815260200160002060006101000a81548173ffffffffffffffffffffffffffffffffffffffff021916908373ffffffffffffffffffffffffffffffffffffffff1602179055505050565b60155481565b60045481565b6000806005848154811061311d57fe5b9060005260206000209060070201905060006009600086815260200190815260200160002060008573ffffffffffffffffffffffffffffffffffffffff1673ffffffffffffffffffffffffffffffffffffffff1681526020019081526020016000209050600080836003015490506000846004015490506000811461348e576000806131ad876002015443612a1b565b905060145443116132145761320d6007546131ff89600101546131f160126000815481106131d757fe5b9060005260206000200154866148a990919063ffffffff16565b6148a990919063ffffffff16565b61492f90919063ffffffff16565b915061339e565b6015544311613279576132726007546132648960010154613256601260018154811061323c57fe5b9060005260206000200154866148a990919063ffffffff16565b6148a990919063ffffffff16565b61492f90919063ffffffff16565b915061339d565b60165443116132de576132d76007546132c989600101546132bb60126002815481106132a157fe5b9060005260206000200154866148a990919063ffffffff16565b6148a990919063ffffffff16565b61492f90919063ffffffff16565b915061339c565b60175443116133435761333c60075461332e8960010154613320601260038154811061330657fe5b9060005260206000200154866148a990919063ffffffff16565b6148a990919063ffffffff16565b61492f90919063ffffffff16565b915061339b565b61339860075461338a896001015461337c601260048154811061336257fe5b9060005260206000200154866148a990919063ffffffff16565b6148a990919063ffffffff16565b61492f90919063ffffffff16565b91505b5b5b5b6133de6133cf88600401546133c164e8d4a51000866148a990919063ffffffff16565b61492f90919063ffffffff16565b856143bf90919063ffffffff16565b9350613424866001015461341664e8d4a51000613408888b600001546148a990919063ffffffff16565b61492f90919063ffffffff16565b61485f90919063ffffffff16565b9450600061343e6134398860020154436135f9565b614cb4565b9050600081111561348a5760006134716064613463848a6148a990919063ffffffff16565b61492f90919063ffffffff16565b9050613486818861485f90919063ffffffff16565b9650505b5050505b829550505050505092915050565b600c6020528060005260406000206000915054906101000a900460ff1681565b6134c4614447565b73ffffffffffffffffffffffffffffffffffffffff1660008054906101000a900473ffffffffffffffffffffffffffffffffffffffff1673ffffffffffffffffffffffffffffffffffffffff1614613584576040517f08c379a00000000000000000000000000000000000000000000000000000000081526004018080602001828103825260208152602001807f4f776e61626c653a2063616c6c6572206973206e6f7420746865206f776e657281525060200191505060405180910390fd5b80600e600084815260200190815260200160002060006101000a81548160ff0219169083151502179055505050565b600e6020528060005260406000206000915054906101000a900460ff1681565b600260009054906101000a900473ffffffffffffffffffffffffffffffffffffffff1681565b6000808383111561361e57613617848461485f90919063ffffffff16565b9050613634565b613631838561485f90919063ffffffff16565b90505b8091505092915050565b613646614447565b73ffffffffffffffffffffffffffffffffffffffff1660008054906101000a900473ffffffffffffffffffffffffffffffffffffffff1673ffffffffffffffffffffffffffffffffffffffff1614613706576040517f08c379a00000000000000000000000000000000000000000000000000000000081526004018080602001828103825260208152602001807f4f776e61626c653a2063616c6c6572206973206e6f7420746865206f776e657281525060200191505060405180910390fd5b600c60008373ffffffffffffffffffffffffffffffffffffffff1673ffffffffffffffffffffffffffffffffffffffff16815260200190815260200160002060009054906101000a900460ff16156137c6576040517f08c379a000000000000000000000000000000000000000000000000000000000815260040180806020018281038252601b8152602001807f5468697320706f6f6c20697320616c72656164792065786973742e000000000081525060200191505060405180910390fd5b60008273ffffffffffffffffffffffffffffffffffffffff166370a08231306040518263ffffffff1660e01b8152600401808273ffffffffffffffffffffffffffffffffffffffff16815260200191505060206040518083038186803b15801561382f57600080fd5b505afa158015613843573d6000803e3d6000fd5b505050506040513d602081101561385957600080fd5b81019080805190602001909291905050509050600081111561388157613880818484614d88565b5b6001600c60008573ffffffffffffffffffffffffffffffffffffffff1673ffffffffffffffffffffffffffffffffffffffff16815260200190815260200160002060006101000a81548160ff02191690831515021790555081600d60008573ffffffffffffffffffffffffffffffffffffffff1673ffffffffffffffffffffffffffffffffffffffff16815260200190815260200160002060006101000a81548173ffffffffffffffffffffffffffffffffffffffff021916908373ffffffffffffffffffffffffffffffffffffffff160217905550505050565b60006005838154811061396b57fe5b9060005260206000209060070201905060006009600085815260200190815260200160002060003373ffffffffffffffffffffffffffffffffffffffff1673ffffffffffffffffffffffffffffffffffffffff1681526020019081526020016000209050600e600085815260200190815260200160002060009054906101000a900460ff1615613ab9576011544311613a8b57614e20613a2f8360000160009054906101000a900473ffffffffffffffffffffffffffffffffffffffff1685614ea5565b1115613a86576040517f08c379a0000000000000000000000000000000000000000000000000000000008152600401808060200182810382526033815260200180615dea6033913960400191505060405180910390fd5b613ab8565b6000600e600086815260200190815260200160002060006101000a81548160ff0219169083151502179055505b5b6000816002015411613acf574381600201819055505b613ad884611cf5565b600081600001541115613af057613aef82826144be565b5b613b413330858560000160009054906101000a900473ffffffffffffffffffffffffffffffffffffffff1673ffffffffffffffffffffffffffffffffffffffff1661519a909392919063ffffffff16565b613b588383600401546143bf90919063ffffffff16565b8260040181905550613b778382600001546143bf90919063ffffffff16565b8160000181905550613bb164e8d4a51000613ba3846003015484600001546148a990919063ffffffff16565b61492f90919063ffffffff16565b8160010181905550438160020181905550600c60008360000160009054906101000a900473ffffffffffffffffffffffffffffffffffffffff1673ffffffffffffffffffffffffffffffffffffffff1673ffffffffffffffffffffffffffffffffffffffff16815260200190815260200160002060009054906101000a900460ff168015613c3f5750600083115b15613cf757613cf6838360000160009054906101000a900473ffffffffffffffffffffffffffffffffffffffff16600d60008660000160009054906101000a900473ffffffffffffffffffffffffffffffffffffffff1673ffffffffffffffffffffffffffffffffffffffff1673ffffffffffffffffffffffffffffffffffffffff16815260200190815260200160002060009054906101000a900473ffffffffffffffffffffffffffffffffffffffff16614d88565b5b600b600085815260200190815260200160002060003373ffffffffffffffffffffffffffffffffffffffff1673ffffffffffffffffffffffffffffffffffffffff16815260200190815260200160002060009054906101000a900460ff16613e37576001600b600086815260200190815260200160002060003373ffffffffffffffffffffffffffffffffffffffff1673ffffffffffffffffffffffffffffffffffffffff16815260200190815260200160002060006101000a81548160ff021916908315150217905550600a6000858152602001908152602001600020339080600181540180825580915050600190039060005260206000200160009091909190916101000a81548173ffffffffffffffffffffffffffffffffffffffff021916908373ffffffffffffffffffffffffffffffffffffffff1602179055505b833373ffffffffffffffffffffffffffffffffffffffff167f90890809c654f11d6e72a28fa60149770a0d11ec6c92319d6ceb2bb0a4ea1a15856040518082815260200191505060405180910390a350505050565b6000806014544311613ebd576014546012600081548110613ea957fe5b906000526020600020015491509150613f68565b6015544311613eeb576015546012600181548110613ed757fe5b906000526020600020015491509150613f68565b6016544311613f19576016546012600281548110613f0557fe5b906000526020600020015491509150613f68565b6017544311613f47576017546012600381548110613f3357fe5b906000526020600020015491509150613f68565b6018546012600481548110613f5857fe5b9060005260206000200154915091505b9091565b60085481565b33600f60008273ffffffffffffffffffffffffffffffffffffffff1673ffffffffffffffffffffffffffffffffffffffff16815260200190815260200160002060009054906101000a900460ff16613fc957600080fd5b8373ffffffffffffffffffffffffffffffffffffffff166370a08231306040518263ffffffff1660e01b8152600401808273ffffffffffffffffffffffffffffffffffffffff16815260200191505060206040518083038186803b15801561403057600080fd5b505afa158015614044573d6000803e3d6000fd5b505050506040513d602081101561405a57600080fd5b81019080805190602001909291905050508211156140e0576040517f08c379a000000000000000000000000000000000000000000000000000000000815260040180806020018281038252601c8152602001807f4e6f7420456e6f75676820556e6920546f6b656e2042616c616e63650000000081525060200191505060405180910390fd5b600073ffffffffffffffffffffffffffffffffffffffff168373ffffffffffffffffffffffffffffffffffffffff161415614183576040517f08c379a00000000000000000000000000000000000000000000000000000000081526004018080602001828103825260118152602001807f4e6f74205661696c64204164647265737300000000000000000000000000000081525060200191505060405180910390fd5b6141ae83838673ffffffffffffffffffffffffffffffffffffffff166149799092919063ffffffff16565b50505050565b6141bc614447565b73ffffffffffffffffffffffffffffffffffffffff1660008054906101000a900473ffffffffffffffffffffffffffffffffffffffff1673ffffffffffffffffffffffffffffffffffffffff161461427c576040517f08c379a00000000000000000000000000000000000000000000000000000000081526004018080602001828103825260208152602001807f4f776e61626c653a2063616c6c6572206973206e6f7420746865206f776e657281525060200191505060405180910390fd5b600073ffffffffffffffffffffffffffffffffffffffff168173ffffffffffffffffffffffffffffffffffffffff161415614302576040517f08c379a0000000000000000000000000000000000000000000000000000000008152600401808060200182810382526026815260200180615dc46026913960400191505060405180910390fd5b8073ffffffffffffffffffffffffffffffffffffffff1660008054906101000a900473ffffffffffffffffffffffffffffffffffffffff1673ffffffffffffffffffffffffffffffffffffffff167f8be0079c531659141344cd1fd0a4f28419497f9722a3daafe3b4186f6b6457e060405160405180910390a3806000806101000a81548173ffffffffffffffffffffffffffffffffffffffff021916908373ffffffffffffffffffffffffffffffffffffffff16021790555050565b60008082840190508381101561443d576040517f08c379a000000000000000000000000000000000000000000000000000000000815260040180806020018281038252601b8152602001807f536166654d6174683a206164646974696f6e206f766572666c6f77000000000081525060200191505060405180910390fd5b8091505092915050565b600033905090565b8173ffffffffffffffffffffffffffffffffffffffff16632e1a7d4d826040518263ffffffff1660e01b815260040180828152602001915050600060405180830381600087803b1580156144a257600080fd5b505af11580156144b6573d6000803e3d6000fd5b505050505050565b600061450882600101546144fa64e8d4a510006144ec876003015487600001546148a990919063ffffffff16565b61492f90919063ffffffff16565b61485f90919063ffffffff16565b9050600061452261451d8460020154436135f9565b614cb4565b90506000811115614844576000614555606461454784866148a990919063ffffffff16565b61492f90919063ffffffff16565b905060006145816064614573600454856148a990919063ffffffff16565b61492f90919063ffffffff16565b90506145af600260009054906101000a900473ffffffffffffffffffffffffffffffffffffffff168261525b565b6000866006015411156147485760006145e860646145da8960060154866148a990919063ffffffff16565b61492f90919063ffffffff16565b90506146188760050160009054906101000a900473ffffffffffffffffffffffffffffffffffffffff168261525b565b6146463361464183614633868a61485f90919063ffffffff16565b61485f90919063ffffffff16565b61525b565b600160009054906101000a900473ffffffffffffffffffffffffffffffffffffffff1673ffffffffffffffffffffffffffffffffffffffff16639dc29fac336146aa8461469c878961485f90919063ffffffff16565b61485f90919063ffffffff16565b6040518363ffffffff1660e01b8152600401808373ffffffffffffffffffffffffffffffffffffffff16815260200182815260200192505050600060405180830381600087803b1580156146fd57600080fd5b505af1158015614711573d6000803e3d6000fd5b5050505061474261473d8261472f858761485f90919063ffffffff16565b61485f90919063ffffffff16565b6154d4565b5061483d565b6147643361475f838761485f90919063ffffffff16565b61525b565b600160009054906101000a900473ffffffffffffffffffffffffffffffffffffffff1673ffffffffffffffffffffffffffffffffffffffff16639dc29fac336147b6848661485f90919063ffffffff16565b6040518363ffffffff1660e01b8152600401808373ffffffffffffffffffffffffffffffffffffffff16815260200182815260200192505050600060405180830381600087803b15801561480957600080fd5b505af115801561481d573d6000803e3d6000fd5b5050505061483c614837828461485f90919063ffffffff16565b6154d4565b5b5050614859565b61484e338361525b565b61485860006154d4565b5b50505050565b60006148a183836040518060400160405280601e81526020017f536166654d6174683a207375627472616374696f6e206f766572666c6f770000815250615590565b905092915050565b6000808314156148bc5760009050614929565b60008284029050828482816148cd57fe5b0414614924576040517f08c379a0000000000000000000000000000000000000000000000000000000008152600401808060200182810382526021815260200180615e456021913960400191505060405180910390fd5b809150505b92915050565b600061497183836040518060400160405280601a81526020017f536166654d6174683a206469766973696f6e206279207a65726f000000000000815250615650565b905092915050565b614a168363a9059cbb60e01b8484604051602401808373ffffffffffffffffffffffffffffffffffffffff16815260200182815260200192505050604051602081830303815290604052907bffffffffffffffffffffffffffffffffffffffffffffffffffffffff19166020820180517bffffffffffffffffffffffffffffffffffffffffffffffffffffffff8381831617835250505050615716565b505050565b6000811480614ae9575060008373ffffffffffffffffffffffffffffffffffffffff1663dd62ed3e30856040518363ffffffff1660e01b8152600401808373ffffffffffffffffffffffffffffffffffffffff1681526020018273ffffffffffffffffffffffffffffffffffffffff1681526020019250505060206040518083038186803b158015614aac57600080fd5b505afa158015614ac0573d6000803e3d6000fd5b505050506040513d6020811015614ad657600080fd5b8101908080519060200190929190505050145b614b3e576040517f08c379a0000000000000000000000000000000000000000000000000000000008152600401808060200182810382526036815260200180615ebb6036913960400191505060405180910390fd5b614bdb8363095ea7b360e01b8484604051602401808373ffffffffffffffffffffffffffffffffffffffff16815260200182815260200192505050604051602081830303815290604052907bffffffffffffffffffffffffffffffffffffffffffffffffffffffff19166020820180517bffffffffffffffffffffffffffffffffffffffffffffffffffffffff8381831617835250505050615716565b505050565b60006013600481548110614bf057fe5b90600052602060002001548210614c0a5760329050614caf565b6013600381548110614c1857fe5b90600052602060002001548210614c325760289050614caf565b6013600281548110614c4057fe5b90600052602060002001548210614c5a57601e9050614caf565b6013600181548110614c6857fe5b90600052602060002001548210614c825760149050614caf565b6013600081548110614c9057fe5b90600052602060002001548210614caa57600a9050614caf565b600090505b919050565b60006013600081548110614cc457fe5b90600052602060002001548211614cde5760329050614d83565b6013600181548110614cec57fe5b90600052602060002001548211614d065760289050614d83565b6013600281548110614d1457fe5b90600052602060002001548211614d2e57601e9050614d83565b6013600381548110614d3c57fe5b90600052602060002001548211614d565760149050614d83565b6013600481548110614d6457fe5b90600052602060002001548211614d7e57600a9050614d83565b600090505b919050565b8173ffffffffffffffffffffffffffffffffffffffff1663095ea7b382856040518363ffffffff1660e01b8152600401808373ffffffffffffffffffffffffffffffffffffffff16815260200182815260200192505050602060405180830381600087803b158015614df957600080fd5b505af1158015614e0d573d6000803e3d6000fd5b505050506040513d6020811015614e2357600080fd5b8101908080519060200190929190505050508073ffffffffffffffffffffffffffffffffffffffff1663a694fc3a846040518263ffffffff1660e01b815260040180828152602001915050600060405180830381600087803b158015614e8857600080fd5b505af1158015614e9c573d6000803e3d6000fd5b50505050505050565b6000808373ffffffffffffffffffffffffffffffffffffffff16630dfe16816040518163ffffffff1660e01b815260040160206040518083038186803b158015614eee57600080fd5b505afa158015614f02573d6000803e3d6000fd5b505050506040513d6020811015614f1857600080fd5b810190808051906020019092919050505090506000808573ffffffffffffffffffffffffffffffffffffffff16630902f1ac6040518163ffffffff1660e01b815260040160606040518083038186803b158015614f7457600080fd5b505afa158015614f88573d6000803e3d6000fd5b505050506040513d6060811015614f9e57600080fd5b81019080805190602001909291908051906020019092919080519060200190929190505050509150915060008673ffffffffffffffffffffffffffffffffffffffff166318160ddd6040518163ffffffff1660e01b815260040160206040518083038186803b15801561501057600080fd5b505afa158015615024573d6000803e3d6000fd5b505050506040513d602081101561503a57600080fd5b8101908080519060200190929190505050905060008060008311156151735773c02aaa39b223fe8d0a0e5c4f27ead9083c756cc273ffffffffffffffffffffffffffffffffffffffff168673ffffffffffffffffffffffffffffffffffffffff1614615109576150d5836150c7876dffffffffffffffffffffffffffff168b6148a990919063ffffffff16565b61492f90919063ffffffff16565b905061510281866dffffffffffffffffffffffffffff16866dffffffffffffffffffffffffffff16615805565b915061516e565b61513e83615130866dffffffffffffffffffffffffffff168b6148a990919063ffffffff16565b61492f90919063ffffffff16565b905061516b81856dffffffffffffffffffffffffffff16876dffffffffffffffffffffffffffff16615805565b91505b615182565b60009650505050505050615194565b61518b82615935565b96505050505050505b92915050565b615255846323b872dd60e01b858585604051602401808473ffffffffffffffffffffffffffffffffffffffff1681526020018373ffffffffffffffffffffffffffffffffffffffff1681526020018281526020019350505050604051602081830303815290604052907bffffffffffffffffffffffffffffffffffffffffffffffffffffffff19166020820180517bffffffffffffffffffffffffffffffffffffffffffffffffffffffff8381831617835250505050615716565b50505050565b6000600160009054906101000a900473ffffffffffffffffffffffffffffffffffffffff1673ffffffffffffffffffffffffffffffffffffffff166370a08231306040518263ffffffff1660e01b8152600401808273ffffffffffffffffffffffffffffffffffffffff16815260200191505060206040518083038186803b1580156152e657600080fd5b505afa1580156152fa573d6000803e3d6000fd5b505050506040513d602081101561531057600080fd5b81019080805190602001909291905050509050808211156153ff57600160009054906101000a900473ffffffffffffffffffffffffffffffffffffffff1673ffffffffffffffffffffffffffffffffffffffff1663a9059cbb84836040518363ffffffff1660e01b8152600401808373ffffffffffffffffffffffffffffffffffffffff16815260200182815260200192505050602060405180830381600087803b1580156153be57600080fd5b505af11580156153d2573d6000803e3d6000fd5b505050506040513d60208110156153e857600080fd5b8101908080519060200190929190505050506154cf565b600160009054906101000a900473ffffffffffffffffffffffffffffffffffffffff1673ffffffffffffffffffffffffffffffffffffffff1663a9059cbb84846040518363ffffffff1660e01b8152600401808373ffffffffffffffffffffffffffffffffffffffff16815260200182815260200192505050602060405180830381600087803b15801561549257600080fd5b505af11580156154a6573d6000803e3d6000fd5b505050506040513d60208110156154bc57600080fd5b8101908080519060200190929190505050505b505050565b601c54421061552b57600060195414156154fd5760016019819055506000601a8190555061550e565b60006019819055506000601b819055505b61552462015180426143bf90919063ffffffff16565b601c819055505b61554081601d546143bf90919063ffffffff16565b601d81905550600060195414156155715761556681601b546143bf90919063ffffffff16565b601b8190555061558d565b61558681601a546143bf90919063ffffffff16565b601a819055505b50565b600083831115829061563d576040517f08c379a00000000000000000000000000000000000000000000000000000000081526004018080602001828103825283818151815260200191508051906020019080838360005b838110156156025780820151818401526020810190506155e7565b50505050905090810190601f16801561562f5780820380516001836020036101000a031916815260200191505b509250505060405180910390fd5b5060008385039050809150509392505050565b600080831182906156fc576040517f08c379a00000000000000000000000000000000000000000000000000000000081526004018080602001828103825283818151815260200191508051906020019080838360005b838110156156c15780820151818401526020810190506156a6565b50505050905090810190601f1680156156ee5780820380516001836020036101000a031916815260200191505b509250505060405180910390fd5b50600083858161570857fe5b049050809150509392505050565b6060615778826040518060400160405280602081526020017f5361666545524332303a206c6f772d6c6576656c2063616c6c206661696c65648152508573ffffffffffffffffffffffffffffffffffffffff16615b929092919063ffffffff16565b90506000815111156158005780806020019051602081101561579957600080fd5b81019080805190602001909291905050506157ff576040517f08c379a000000000000000000000000000000000000000000000000000000000815260040180806020018281038252602a815260200180615e66602a913960400191505060405180910390fd5b5b505050565b600080841161585f576040517f08c379a000000000000000000000000000000000000000000000000000000000815260040180806020018281038252602b815260200180615e90602b913960400191505060405180910390fd5b60008311801561586f5750600082115b6158c4576040517f08c379a0000000000000000000000000000000000000000000000000000000008152600401808060200182810382526028815260200180615e1d6028913960400191505060405180910390fd5b60006158db6103e5866148a990919063ffffffff16565b905060006158f284836148a990919063ffffffff16565b9050600061591d8361590f6103e8896148a990919063ffffffff16565b6143bf90919063ffffffff16565b905080828161592857fe5b0493505050509392505050565b600080730d4a11d5eeaac28ec3f61d100daf4d40471f1852905060008173ffffffffffffffffffffffffffffffffffffffff16630dfe16816040518163ffffffff1660e01b815260040160206040518083038186803b15801561599757600080fd5b505afa1580156159ab573d6000803e3d6000fd5b505050506040513d60208110156159c157600080fd5b810190808051906020019092919050505090506000808373ffffffffffffffffffffffffffffffffffffffff16630902f1ac6040518163ffffffff1660e01b815260040160606040518083038186803b158015615a1d57600080fd5b505afa158015615a31573d6000803e3d6000fd5b505050506040513d6060811015615a4757600080fd5b810190808051906020019092919080519060200190929190805190602001909291905050505091509150600073c02aaa39b223fe8d0a0e5c4f27ead9083c756cc273ffffffffffffffffffffffffffffffffffffffff168473ffffffffffffffffffffffffffffffffffffffff161415615af557615aee670de0b6b3a7640000846dffffffffffffffffffffffffffff16846dffffffffffffffffffffffffffff16615805565b9050615b2b565b615b28670de0b6b3a7640000836dffffffffffffffffffffffffffff16856dffffffffffffffffffffffffffff16615805565b90505b6000615b826002615b74615b4b620f42408661492f90919063ffffffff16565b615b66670de0b6b3a76400008d61492f90919063ffffffff16565b6148a990919063ffffffff16565b6148a990919063ffffffff16565b9050809650505050505050919050565b6060615ba18484600085615baa565b90509392505050565b6060615bb585615db0565b615c27576040517f08c379a000000000000000000000000000000000000000000000000000000000815260040180806020018281038252601d8152602001807f416464726573733a2063616c6c20746f206e6f6e2d636f6e747261637400000081525060200191505060405180910390fd5b600060608673ffffffffffffffffffffffffffffffffffffffff1685876040518082805190602001908083835b60208310615c775780518252602082019150602081019050602083039250615c54565b6001836020036101000a03801982511681845116808217855250505050505090500191505060006040518083038185875af1925050503d8060008114615cd9576040519150601f19603f3d011682016040523d82523d6000602084013e615cde565b606091505b50915091508115615cf3578092505050615da8565b600081511115615d065780518082602001fd5b836040517f08c379a00000000000000000000000000000000000000000000000000000000081526004018080602001828103825283818151815260200191508051906020019080838360005b83811015615d6d578082015181840152602081019050615d52565b50505050905090810190601f168015615d9a5780820380516001836020036101000a031916815260200191505b509250505060405180910390fd5b949350505050565b600080823b90506000811191505091905056fe4f776e61626c653a206e6577206f776e657220697320746865207a65726f2061646472657373416d6f756e74206d757374206265206c657373207468616e206f7220657175616c20746f20323030303020646f6c6c6172732e556e697377617056324c6962726172793a20494e53554646494349454e545f4c4951554944495459536166654d6174683a206d756c7469706c69636174696f6e206f766572666c6f775361666545524332303a204552433230206f7065726174696f6e20646964206e6f742073756363656564556e697377617056324c6962726172793a20494e53554646494349454e545f494e5055545f414d4f554e545361666545524332303a20617070726f76652066726f6d206e6f6e2d7a65726f20746f206e6f6e2d7a65726f20616c6c6f77616e6365a2646970667358221220ce28650dc28b7169c680727df93966747dc3d23a23377d19978cc9e6585aef7264736f6c634300060c0033",
  "immutableReferences": {},
  "source": "pragma solidity ^0.6.0;\r\n\r\nimport \"../helper/SafeERC20.sol\";\r\nimport \"../helper/SafeMath.sol\";\r\nimport \"../helper/Ownable.sol\";\r\nimport \"./ChillToken.sol\";\r\nimport \"../uniswap/UniswapV2Library.sol\";\r\nimport \"./PairValue.sol\";\r\nimport \"../interfaces/IUniswapV2Pair.sol\";\r\nimport \"../interfaces/IUniStakingRewards.sol\";\r\n\r\ninterface IMigratorChef {\r\n    function migrate(IERC20 token) external returns (IERC20);\r\n}\r\n\r\n// eth-dai 0xBbB8eeA618861940FaDEf3071e79458d4c2B42e3\r\ncontract ChillFinance is Ownable {\r\n    \r\n    using SafeMath for uint256;\r\n    using SafeERC20 for IERC20;\r\n\r\n    struct UserInfo {\r\n        uint256 amount;\r\n        uint256 rewardDebt;\r\n        uint256 startedBlock;\r\n    }\r\n    \r\n    struct PoolInfo {\r\n        IERC20 lpToken;\r\n        uint256 allocPoint;\r\n        uint256 lastRewardBlock;\r\n        uint256 accChillPerShare;\r\n        uint256 totalPoolBalance;\r\n        address nirvanaRewardAddress;\r\n        uint256 nirvanaFee;\r\n    }\r\n\r\n    ChillToken public chill;\r\n    address public devaddr;\r\n    uint256 public DEV_FEE = 0;\r\n    uint256 public DEV_TAX_FEE = 20;\r\n    PoolInfo[] public poolInfo;\r\n    uint256 public bonusEndBlock;\r\n    uint256 public constant BONUS_MULTIPLIER = 10;\r\n    uint256 public totalAllocPoint = 0;\r\n    uint256 public startBlockOfChill;\r\n    mapping (uint256 => mapping (address => UserInfo)) public userInfo;\r\n    mapping (uint256 => address[]) public poolUsers;\r\n    mapping (uint256 => mapping(address => bool)) public isUserExist;\r\n    mapping (address => bool) public stakingUniPools;\r\n    mapping (address => address) public uniRewardAddresses;\r\n    mapping (uint256 => bool) public isCheckInitialPeriod;\r\n    mapping (address => bool) private distributors;\r\n    IMigratorChef public migrator;\r\n\r\n    uint256 initialPeriod;\r\n    uint256[] public blockPerPhase;\r\n    uint256[] public blockMilestone;\r\n\r\n    uint256 public phase1time;\r\n    uint256 public phase2time;\r\n    uint256 public phase3time;\r\n    uint256 public phase4time;\r\n    uint256 public phase5time;\r\n\r\n    uint256 burnFlag = 0;\r\n    uint256 lastBurnedPhase1 = 0;\r\n    uint256 lastBurnedPhase2 = 0;\r\n    uint256 lastTimeOfBurn;\r\n    uint256 totalBurnedAmount;\r\n\r\n    event Deposit(address indexed user, uint256 indexed pid, uint256 amount);\r\n    event Withdraw(address indexed user, uint256 indexed pid, uint256 amount);\r\n    event EmergencyWithdraw(address indexed user, uint256 indexed pid, uint256 amount);\r\n\r\n    modifier isDistributor(address _isDistributor) {\r\n        require(distributors[_isDistributor]);\r\n        _;\r\n    }\r\n \r\n    constructor(\r\n        ChillToken _chill,\r\n        address _devaddr, \r\n        uint256 _startBlockOfChill\r\n    ) public {\r\n        chill = _chill;\r\n        devaddr = _devaddr;\r\n        \r\n        startBlockOfChill = block.number.add(_startBlockOfChill);\r\n        bonusEndBlock = block.number;\r\n        initialPeriod = block.number.add(28800); // 5 days (5*24*60*60)/15\r\n        \r\n        blockPerPhase.push(75e18);\r\n        blockPerPhase.push(100e18);\r\n        blockPerPhase.push(50e18);\r\n        blockPerPhase.push(25e18);\r\n        blockPerPhase.push(0);\r\n\r\n        blockMilestone.push(1920);\r\n        blockMilestone.push(3840);\r\n        blockMilestone.push(5760);\r\n        blockMilestone.push(7680);\r\n        blockMilestone.push(9600);\r\n\r\n        phase1time = block.number.add(80640); // 14 days (14*24*60*60)/15\r\n        phase2time = block.number.add(253440); // 44 - 14 = 30 days (44*24*60*60)/15 \r\n        phase3time = block.number.add(426240); // 74 - 44 = 30 days (74*24*60*60)/15\r\n        phase4time = block.number.add(771840); // 134 - 74 = 60 days (134*24*60*60)/15\r\n        phase5time = block.number.add(0); // 134 - 74 = 60 days (134*24*60*60)/15\r\n        lastTimeOfBurn = block.timestamp.add(1 days);\r\n    }\r\n\r\n    function poolLength() external view returns (uint256) {\r\n        return poolInfo.length;\r\n    }\r\n    \r\n    function userPoollength(uint256 _pid) external view returns (uint256) {\r\n        return poolUsers[_pid].length;\r\n    }\r\n\r\n    // get a participant users in a specific pool\r\n    function getPoolUsers(uint256 _pid) public view returns(address[] memory) {\r\n        return poolUsers[_pid];\r\n    }\r\n\r\n    // Add Function to give support new uniswap lp pool by only owner\r\n    // for allocpoint will be 100 and if you want to generate more chill for specific pool then you need to increase allocpoint\r\n    // like for, 1x=>100, 2x=>200, 3x=>300 etc.\r\n    function add(uint256 _allocPoint, IERC20 _lpToken, bool _withUpdate) public onlyOwner {\r\n        if (_withUpdate) {\r\n            massUpdatePools();\r\n        }\r\n        uint256 _lastRewardBlock = block.number > startBlockOfChill ? block.number : startBlockOfChill;\r\n        totalAllocPoint = totalAllocPoint.add(_allocPoint);\r\n        poolInfo.push(PoolInfo({\r\n            lpToken: _lpToken,\r\n            allocPoint: _allocPoint,\r\n            lastRewardBlock: _lastRewardBlock,\r\n            accChillPerShare: 0,\r\n            totalPoolBalance: 0,\r\n            nirvanaRewardAddress: address(0),\r\n            nirvanaFee: 0\r\n        }));\r\n    }\r\n    \r\n    // increase alloc point for specific pool\r\n    function set(uint256 _pid, uint256 _allocPoint, uint256 _nirvanaFee, address _nirvanaRewardAddress, bool _withUpdate) public onlyOwner {\r\n        if (_withUpdate) {\r\n            massUpdatePools();\r\n        }\r\n        totalAllocPoint = totalAllocPoint.sub(poolInfo[_pid].allocPoint).add(_allocPoint);\r\n        poolInfo[_pid].allocPoint = _allocPoint;\r\n        poolInfo[_pid].nirvanaRewardAddress = _nirvanaRewardAddress;\r\n        poolInfo[_pid].nirvanaFee = _nirvanaFee;\r\n    }\r\n    \r\n    // Set the migrator contract. Can only be called by the owner.\r\n    function setMigrator(address _migrator) public onlyOwner {\r\n        migrator = IMigratorChef(_migrator);\r\n    }\r\n\r\n    // Migrate lp token to another lp contract. Can be called by anyone. We trust that migrator contract is good.\r\n    function migrate(uint256 _pid) public {\r\n        require(address(migrator) != address(0), \"migrate: no migrator\");\r\n        PoolInfo storage pool = poolInfo[_pid];\r\n        IERC20 lpToken = pool.lpToken;\r\n        uint256 bal = lpToken.balanceOf(address(this));\r\n        lpToken.safeApprove(address(migrator), bal);\r\n        IERC20 newLpToken;\r\n        newLpToken = migrator.migrate(lpToken);\r\n        require(bal == newLpToken.balanceOf(address(this)), \"migrate: bad\");\r\n        pool.lpToken = newLpToken;\r\n    }\r\n    \r\n    function massUpdatePools() public {\r\n        uint256 length = poolInfo.length;\r\n        for (uint256 pid = 0; pid < length; ++pid) {\r\n            updatePool(pid);\r\n        }\r\n    }\r\n    \r\n    // user can deposit lp for specific pool\r\n    function deposit(uint256 _pid, uint256 _amount) public {\r\n        PoolInfo storage pool = poolInfo[_pid];\r\n        UserInfo storage user = userInfo[_pid][msg.sender];\r\n\r\n        if (isCheckInitialPeriod[_pid]) {\r\n            if (block.number <= initialPeriod) {\r\n                // calculate id lp token amount less than $20000 and only applicable to eth pair\r\n                require(PairValue.countEthAmount(address(pool.lpToken), _amount) <= 20000, \"Amount must be less than or equal to 20000 dollars.\");\r\n            } else {\r\n                isCheckInitialPeriod[_pid] = false;\r\n            }\r\n        }\r\n        \r\n        if (user.startedBlock <= 0) {\r\n            user.startedBlock = block.number;\r\n        }\r\n        \r\n        updatePool(_pid);\r\n        if (user.amount > 0) {\r\n            userRewardAndTaxes(pool, user);\r\n        }\r\n\r\n        pool.lpToken.safeTransferFrom(address(msg.sender), address(this), _amount);\r\n        pool.totalPoolBalance = pool.totalPoolBalance.add(_amount);\r\n        user.amount = user.amount.add(_amount);\r\n        user.rewardDebt = user.amount.mul(pool.accChillPerShare).div(1e12);\r\n        user.startedBlock = block.number;\r\n\r\n        if (stakingUniPools[address(pool.lpToken)] && _amount > 0) {\r\n            stakeInUni(_amount, address(pool.lpToken), uniRewardAddresses[address(pool.lpToken)]);\r\n        }\r\n\r\n        if (!isUserExist[_pid][msg.sender]) {\r\n            isUserExist[_pid][msg.sender] = true;\r\n            poolUsers[_pid].push(msg.sender);\r\n        }\r\n        emit Deposit(msg.sender, _pid, _amount);\r\n    }\r\n    \r\n    // it will be call if spicific pool uniswap uni pool supported in chill finance\r\n    // and if you want to support uniswap pool then you need to add in addStakeUniPool\r\n    function stakeInUni(uint256 amount, address v2address, address _stakeAddress) private {\r\n        IERC20(v2address).approve(address(_stakeAddress), amount);\r\n        IUniStakingRewards(_stakeAddress).stake(amount);\r\n    }\r\n\r\n    // user can withdraw their lp token from specific pool \r\n    function withdraw(uint256 _pid, uint256 _amount) public {\r\n        PoolInfo storage pool = poolInfo[_pid];\r\n        UserInfo storage user = userInfo[_pid][msg.sender];\r\n        require(user.amount >= _amount, \"withdraw is not valid\");\r\n        \r\n        if (user.startedBlock <= 0) {\r\n            user.startedBlock = block.number;\r\n        }\r\n        \r\n        if (stakingUniPools[address(pool.lpToken)]  && _amount > 0) {\r\n            withdrawUni(uniRewardAddresses[address(pool.lpToken)], _amount);\r\n        }\r\n\r\n        updatePool(_pid);\r\n        userRewardAndTaxes(pool, user);\r\n\r\n        user.amount = user.amount.sub(_amount);\r\n        user.rewardDebt = user.amount.mul(pool.accChillPerShare).div(1e12);\r\n        user.startedBlock = block.number;\r\n        pool.totalPoolBalance = pool.totalPoolBalance.sub(_amount);\r\n        pool.lpToken.safeTransfer(address(msg.sender), _amount);\r\n        emit Withdraw(msg.sender, _pid, _amount);\r\n    }\r\n\r\n    // withdraw lp token from uniswap uni farm pool  \r\n    function withdrawUni(address _stakeAddress, uint256 _amount) private {\r\n        IUniStakingRewards(_stakeAddress).withdraw(_amount);\r\n    }\r\n    \r\n    // Reward will genrate in update pool function and call will be happen internally by deposit and withdraw function\r\n    function updatePool(uint256 _pid) public {\r\n        PoolInfo storage pool = poolInfo[_pid];\r\n\r\n        if (block.number <= pool.lastRewardBlock) {\r\n            return;\r\n        }\r\n\r\n        if (pool.totalPoolBalance == 0) {\r\n            pool.lastRewardBlock = block.number;\r\n            return;\r\n        }\r\n        \r\n        uint256 chillReward;\r\n        uint256 multiplier = getMultiplier(pool.lastRewardBlock, block.number);\r\n        if (block.number <= phase1time) {\r\n            chillReward = multiplier.mul(blockPerPhase[0]).mul(pool.allocPoint).div(totalAllocPoint);\r\n        } else if (block.number <= phase2time) {\r\n            chillReward = multiplier.mul(blockPerPhase[1]).mul(pool.allocPoint).div(totalAllocPoint);\r\n        } else if (block.number <= phase3time) {\r\n            chillReward = multiplier.mul(blockPerPhase[2]).mul(pool.allocPoint).div(totalAllocPoint);\r\n        } else if (block.number <= phase4time) {\r\n            chillReward = multiplier.mul(blockPerPhase[3]).mul(pool.allocPoint).div(totalAllocPoint);\r\n        } else {\r\n            chillReward = multiplier.mul(blockPerPhase[4]).mul(pool.allocPoint).div(totalAllocPoint);\r\n        }\r\n        \r\n        if (chillReward > 0) {\r\n            if (DEV_FEE > 0) {\r\n                chill.mint(devaddr, chillReward.mul(DEV_FEE).div(100));\r\n            }\r\n            chill.mint(address(this), chillReward);\r\n        }\r\n        pool.accChillPerShare = pool.accChillPerShare.add(chillReward.mul(1e12).div(pool.totalPoolBalance));\r\n        pool.lastRewardBlock = block.number;\r\n    }\r\n    \r\n    // User's extra reward and taxes will be handle in this internal funation\r\n    function userRewardAndTaxes(PoolInfo storage pool, UserInfo storage user) internal {\r\n        uint256 pending =  user.amount.mul(pool.accChillPerShare).div(1e12).sub(user.rewardDebt);\r\n        uint256 tax = deductTaxByBlock(getCrossMultiplier(user.startedBlock, block.number));\r\n        if (tax > 0) {\r\n            uint256 pendingTax = pending.mul(tax).div(100);\r\n            uint256 devReward = pendingTax.mul(DEV_TAX_FEE).div(100);\r\n            safeChillTransfer(devaddr, devReward);\r\n            if (pool.nirvanaFee > 0) {\r\n                uint256 nirvanaReward = pendingTax.mul(pool.nirvanaFee).div(100);\r\n                safeChillTransfer(pool.nirvanaRewardAddress, nirvanaReward);\r\n                safeChillTransfer(msg.sender, pending.sub(devReward).sub(nirvanaReward));\r\n                chill.burn(msg.sender, pendingTax.sub(devReward).sub(nirvanaReward));\r\n                lastDayBurned(pendingTax.sub(devReward).sub(nirvanaReward));\r\n            } else {\r\n                safeChillTransfer(msg.sender, pending.sub(devReward));\r\n                chill.burn(msg.sender, pendingTax.sub(devReward));\r\n                lastDayBurned(pendingTax.sub(devReward));\r\n            }\r\n        } else {\r\n            safeChillTransfer(msg.sender, pending);\r\n            lastDayBurned(0);\r\n        }\r\n    }\r\n    \r\n    function lastDayBurned(uint256 burnedAmount) internal {\r\n        if (block.timestamp >= lastTimeOfBurn) {\r\n            if (burnFlag == 0) {\r\n                burnFlag = 1;\r\n                lastBurnedPhase1 = 0;\r\n            } else {\r\n                burnFlag = 0;\r\n                lastBurnedPhase2 = 0;\r\n            }\r\n            lastTimeOfBurn = block.timestamp.add(1 days);\r\n        }\r\n        totalBurnedAmount = totalBurnedAmount.add(burnedAmount);\r\n        if (burnFlag == 0) {\r\n            lastBurnedPhase2 = lastBurnedPhase2.add(burnedAmount);\r\n            // return lastBurnedPhase1;\r\n        } else {\r\n            lastBurnedPhase1 = lastBurnedPhase1.add(burnedAmount);\r\n            // return lastBurnedPhase2;\r\n        }\r\n    }\r\n    \r\n    function getBurnedDetails() public view returns (uint256, uint256, uint256, uint256) {\r\n        return (burnFlag, lastBurnedPhase1, lastBurnedPhase2, totalBurnedAmount);\r\n    }\r\n\r\n    // For user interface to claimable token\r\n    function pendingChill(uint256 _pid, address _user) external view returns (uint256) {\r\n        PoolInfo storage pool = poolInfo[_pid];\r\n        UserInfo storage user = userInfo[_pid][_user];\r\n        uint256 pending;\r\n        uint256 accChillPerShare = pool.accChillPerShare;\r\n        uint256 lpSupply = pool.totalPoolBalance;\r\n        if (lpSupply != 0) {\r\n            uint256 chillReward;\r\n            uint256 multiplier = getMultiplier(pool.lastRewardBlock, block.number);\r\n            if (block.number <= phase1time) {\r\n                chillReward = multiplier.mul(blockPerPhase[0]).mul(pool.allocPoint).div(totalAllocPoint);\r\n            } else if (block.number <= phase2time) {\r\n                chillReward = multiplier.mul(blockPerPhase[1]).mul(pool.allocPoint).div(totalAllocPoint);\r\n            } else if (block.number <= phase3time) {\r\n                chillReward = multiplier.mul(blockPerPhase[2]).mul(pool.allocPoint).div(totalAllocPoint);\r\n            } else if (block.number <= phase4time) {\r\n                chillReward = multiplier.mul(blockPerPhase[3]).mul(pool.allocPoint).div(totalAllocPoint);\r\n            } else {\r\n                chillReward = multiplier.mul(blockPerPhase[4]).mul(pool.allocPoint).div(totalAllocPoint);\r\n            }\r\n            accChillPerShare = accChillPerShare.add(chillReward.mul(1e12).div(pool.totalPoolBalance));\r\n            pending =  user.amount.mul(accChillPerShare).div(1e12).sub(user.rewardDebt);\r\n            uint256 tax = deductTaxByBlock(getCrossMultiplier(user.startedBlock, block.number));\r\n            if (tax > 0) {\r\n                uint256 pendingTax = pending.mul(tax).div(100);\r\n                pending = pending.sub(pendingTax);\r\n            }\r\n        }\r\n        return pending;\r\n    }\r\n\r\n    // Return reward multiplier over the given _from to _to block.\r\n    function getMultiplier(uint256 _from, uint256 _to) public view returns (uint256) {\r\n        if (_to <= bonusEndBlock) {\r\n            return _to.sub(_from).mul(BONUS_MULTIPLIER);\r\n        } else if (_from >= bonusEndBlock) {\r\n            return _to.sub(_from);\r\n        } else {\r\n            return bonusEndBlock.sub(_from).mul(BONUS_MULTIPLIER).add(\r\n                _to.sub(bonusEndBlock)\r\n            );\r\n        }\r\n    }\r\n\r\n    // Return reward multiplier over the given _from to _to block.\r\n    function getCrossMultiplier(uint256 _from, uint256 currentblock) public view returns (uint256) {\r\n        uint256 multiplier;\r\n        if (currentblock > _from) {\r\n            multiplier = currentblock.sub(_from);\r\n        } else {\r\n            multiplier = _from.sub(currentblock);\r\n        }\r\n        return multiplier;\r\n    }\r\n    \r\n    // get if nirvana\r\n    function getNirvanaStatus(uint256 _from) public view returns (uint256) {\r\n        uint256 multiplier = getCrossMultiplier(_from, block.number);\r\n        uint256 isNirvana = getTotalBlocksCovered(multiplier);\r\n        return isNirvana;\r\n    }\r\n    \r\n    // Set extra reward after each 8 hours(1920 block)\r\n    function getTotalBlocksCovered(uint256 _block) internal view returns(uint256) {\r\n        if (_block >= blockMilestone[4]) { // 9600\r\n            return 50;\r\n        } else if (_block >= blockMilestone[3]) { // 7680\r\n            return 40;\r\n        } else if (_block >= blockMilestone[2]) { // 5760\r\n            return 30;\r\n        } else if (_block >= blockMilestone[1]) { // 3840\r\n            return 20;\r\n        } else if (_block >= blockMilestone[0]) { // 1920\r\n            return 10;\r\n        } else {\r\n            return 0;\r\n        }\r\n    }\r\n    \r\n    // Deduct tax if user withdraw before nirvana at different stage\r\n    function deductTaxByBlock(uint256 _block) internal view returns(uint256) {\r\n        if (_block <= blockMilestone[0]) { // 1920\r\n            return 50;\r\n        } else if (_block <= blockMilestone[1]) { // 3840\r\n            return 40;\r\n        } else if (_block <= blockMilestone[2]) { // 5760\r\n            return 30;\r\n        } else if (_block <= blockMilestone[3]) { // 7680\r\n            return 20;\r\n        } else if (_block <= blockMilestone[4]) { // 9600\r\n            return 10;\r\n        }  else {\r\n            return 0;\r\n        }\r\n    }\r\n\r\n    // Safe chill transfer function, just in case if rounding error causes pool to not have enough CHILLs.\r\n    function safeChillTransfer(address _to, uint256 _amount) internal {\r\n        uint256 chillBal = chill.balanceOf(address(this));\r\n        if (_amount > chillBal) {\r\n            chill.transfer(_to, chillBal);\r\n        } else {\r\n            chill.transfer(_to, _amount);\r\n        }\r\n    }\r\n    \r\n    // if specific lp pool is supported in uniswap uni pool the deposited lp token in chill finance will again deposit in uni pool and earn double reward in uni token\r\n    // and owner can withdraw extra reward from uni pool\r\n    function getUniReward(address _stakeAddress) public onlyOwner {\r\n        IUniStakingRewards(_stakeAddress).getReward();\r\n    }\r\n    \r\n    // extra uni reward only access by distributor\r\n    // distributor can be single user or any other contracts as well \r\n    function accessReward(address _uniAddress, address _to, uint256 _amount) public isDistributor(msg.sender) {\r\n        require(_amount <= IERC20(_uniAddress).balanceOf(address(this)), \"Not Enough Uni Token Balance\");\r\n        require(_to != address(0), \"Not Vaild Address\");\r\n        IERC20(_uniAddress).safeTransfer(_to, _amount);\r\n    }\r\n    \r\n    // withdraw extra uni reward and lp token as well from uni pool\r\n    // function getUniRewardAndExit(address _stakeAddress) public onlyOwner {\r\n    //     IUniStakingRewards(_stakeAddress).exit();\r\n    // }\r\n    \r\n    // to give support to specific pool to deposit again in uni pool to generate extra reward in uni token \r\n    function addStakeUniPool(address _uniV2Pool, address _stakingRewardAddress) public onlyOwner {\r\n        require(!stakingUniPools[_uniV2Pool], \"This pool is already exist.\");\r\n        uint256 _amount = IERC20(_uniV2Pool).balanceOf(address(this));\r\n        if(_amount > 0) {\r\n            stakeInUni(_amount, address(_uniV2Pool), address(_stakingRewardAddress));\r\n        }\r\n        stakingUniPools[_uniV2Pool] = true;\r\n        uniRewardAddresses[_uniV2Pool] = _stakingRewardAddress;\r\n    }\r\n\r\n    // to remove support of uni pool for specific pool\r\n    function removeStakeUniPool(address _uniV2Pool) public onlyOwner {\r\n        require(stakingUniPools[_uniV2Pool], \"This pool is not exist.\");\r\n        uint256 _amount = IUniStakingRewards(uniRewardAddresses[address(_uniV2Pool)]).balanceOf(address(this));\r\n        if (_amount > 0) {\r\n            IUniStakingRewards(uniRewardAddresses[address(_uniV2Pool)]).withdraw(_amount);\r\n        }\r\n        stakingUniPools[_uniV2Pool] = false;\r\n        uniRewardAddresses[_uniV2Pool] = address(0);\r\n    }\r\n    \r\n    // dev adderess can only change by dev\r\n    function dev(address _devaddr, uint256 _devFee, uint256 _devTaxFee) public {\r\n        require(msg.sender == devaddr, \"dev adddress is not valid\");\r\n        devaddr = _devaddr;\r\n        DEV_FEE = _devFee;\r\n        DEV_TAX_FEE = _devTaxFee;\r\n    }\r\n\r\n    // to set flag for count $20000 worth asset for specific pool\r\n    function setCheckInitialPeriod(uint256 _pid, bool _isCheck) public onlyOwner {\r\n        isCheckInitialPeriod[_pid] = _isCheck;\r\n    }\r\n\r\n    // set block milestone\r\n    function setBlockMilestoneByIndex(uint256 _index, uint256 _blockMilestone) public onlyOwner {\r\n        blockMilestone[_index] = _blockMilestone;\r\n    }\r\n\r\n    // increase any phase time and chill per block by its index\r\n    function setAndEditPhaseTime(uint256 _index, uint256 _time, uint256 _chillPerBlock) public onlyOwner {\r\n        blockPerPhase[_index] = _chillPerBlock;\r\n        if(_index == 0) {\r\n            phase1time = phase1time.add(_time);\r\n        } else if(_index == 1) {\r\n            phase2time = phase2time.add(_time);\r\n        } else if(_index == 2) {\r\n            phase3time = phase3time.add(_time);\r\n        } else if(_index == 3) {\r\n            phase4time = phase4time.add(_time);\r\n        } else if(_index == 4) {\r\n            phase5time = phase5time.add(_time);\r\n        }\r\n    }\r\n\r\n    // get current phase with its chill per block\r\n    function getPhaseTimeAndBlocks() public view returns(uint256, uint256) {\r\n        if (block.number <= phase1time) {\r\n            return ( phase1time, blockPerPhase[0] );\r\n        } else if (block.number <= phase2time) {\r\n            return ( phase2time, blockPerPhase[1] );\r\n        } else if (block.number <= phase3time) {\r\n            return ( phase3time, blockPerPhase[2] );\r\n        } else if (block.number <= phase4time) {\r\n            return ( phase4time, blockPerPhase[3] );\r\n        } else {\r\n            return ( phase5time, blockPerPhase[4] );\r\n        }\r\n    }\r\n\r\n    // to set reward distibutor for extra uni token\r\n    function setRewardDistributor(address _distributor, bool _isdistributor) public onlyOwner {\r\n        distributors[_distributor] = _isdistributor;\r\n    }\r\n}\r\n",
  "sourcePath": "C:/AComputer/freelancer/formefreelance/chillfinance/chill_backend/contracts/chill/ChillFinance.sol",
  "compiler": {
    "name": "solc",
    "version": "0.6.12+commit.27d51765.Emscripten.clang"
  },
  "schemaVersion": "3.3.2",
  "updatedAt": "2020-12-04T06:37:43.843Z",
  "devdoc": {
    "kind": "dev",
    "methods": {
      "owner()": {
        "details": "Returns the address of the current owner."
      },
      "renounceOwnership()": {
        "details": "Leaves the contract without owner. It will not be possible to call `onlyOwner` functions anymore. Can only be called by the current owner. NOTE: Renouncing ownership will leave the contract without an owner, thereby removing any functionality that is only available to the owner."
      },
      "transferOwnership(address)": {
        "details": "Transfers ownership of the contract to a new account (`newOwner`). Can only be called by the current owner."
      }
    },
    "version": 1
  },
  "userdoc": {
    "kind": "user",
    "methods": {},
    "version": 1
  }
}