{
  "contractName": "ChillFinance",
  "abi": [
    {
      "inputs": [
        {
          "internalType": "contract ChillToken",
          "name": "_chill",
          "type": "address"
        },
        {
          "internalType": "address",
          "name": "_devaddr",
          "type": "address"
        },
        {
          "internalType": "address",
          "name": "_stablePair",
          "type": "address"
        }
      ],
      "stateMutability": "nonpayable",
      "type": "constructor"
    },
    {
      "anonymous": false,
      "inputs": [
        {
          "indexed": true,
          "internalType": "address",
          "name": "user",
          "type": "address"
        },
        {
          "indexed": true,
          "internalType": "uint256",
          "name": "pid",
          "type": "uint256"
        },
        {
          "indexed": false,
          "internalType": "uint256",
          "name": "amount",
          "type": "uint256"
        }
      ],
      "name": "Deposit",
      "type": "event"
    },
    {
      "anonymous": false,
      "inputs": [
        {
          "indexed": true,
          "internalType": "address",
          "name": "user",
          "type": "address"
        },
        {
          "indexed": true,
          "internalType": "uint256",
          "name": "pid",
          "type": "uint256"
        },
        {
          "indexed": false,
          "internalType": "uint256",
          "name": "amount",
          "type": "uint256"
        }
      ],
      "name": "EmergencyWithdraw",
      "type": "event"
    },
    {
      "anonymous": false,
      "inputs": [
        {
          "indexed": true,
          "internalType": "address",
          "name": "previousOwner",
          "type": "address"
        },
        {
          "indexed": true,
          "internalType": "address",
          "name": "newOwner",
          "type": "address"
        }
      ],
      "name": "OwnershipTransferred",
      "type": "event"
    },
    {
      "anonymous": false,
      "inputs": [
        {
          "indexed": true,
          "internalType": "address",
          "name": "user",
          "type": "address"
        },
        {
          "indexed": true,
          "internalType": "uint256",
          "name": "pid",
          "type": "uint256"
        },
        {
          "indexed": false,
          "internalType": "uint256",
          "name": "amount",
          "type": "uint256"
        }
      ],
      "name": "Withdraw",
      "type": "event"
    },
    {
      "inputs": [],
      "name": "BONUS_MULTIPLIER",
      "outputs": [
        {
          "internalType": "uint256",
          "name": "",
          "type": "uint256"
        }
      ],
      "stateMutability": "view",
      "type": "function",
      "constant": true
    },
    {
      "inputs": [
        {
          "internalType": "uint256",
          "name": "",
          "type": "uint256"
        }
      ],
      "name": "blockPerPhase",
      "outputs": [
        {
          "internalType": "uint256",
          "name": "",
          "type": "uint256"
        }
      ],
      "stateMutability": "view",
      "type": "function",
      "constant": true
    },
    {
      "inputs": [],
      "name": "bonusEndBlock",
      "outputs": [
        {
          "internalType": "uint256",
          "name": "",
          "type": "uint256"
        }
      ],
      "stateMutability": "view",
      "type": "function",
      "constant": true
    },
    {
      "inputs": [],
      "name": "chill",
      "outputs": [
        {
          "internalType": "contract ChillToken",
          "name": "",
          "type": "address"
        }
      ],
      "stateMutability": "view",
      "type": "function",
      "constant": true
    },
    {
      "inputs": [],
      "name": "devaddr",
      "outputs": [
        {
          "internalType": "address",
          "name": "",
          "type": "address"
        }
      ],
      "stateMutability": "view",
      "type": "function",
      "constant": true
    },
    {
      "inputs": [
        {
          "internalType": "uint256",
          "name": "",
          "type": "uint256"
        }
      ],
      "name": "isCheckInitialPeriod",
      "outputs": [
        {
          "internalType": "bool",
          "name": "",
          "type": "bool"
        }
      ],
      "stateMutability": "view",
      "type": "function",
      "constant": true
    },
    {
      "inputs": [],
      "name": "owner",
      "outputs": [
        {
          "internalType": "address",
          "name": "",
          "type": "address"
        }
      ],
      "stateMutability": "view",
      "type": "function",
      "constant": true
    },
    {
      "inputs": [],
      "name": "phase1time",
      "outputs": [
        {
          "internalType": "uint256",
          "name": "",
          "type": "uint256"
        }
      ],
      "stateMutability": "view",
      "type": "function",
      "constant": true
    },
    {
      "inputs": [],
      "name": "phase2time",
      "outputs": [
        {
          "internalType": "uint256",
          "name": "",
          "type": "uint256"
        }
      ],
      "stateMutability": "view",
      "type": "function",
      "constant": true
    },
    {
      "inputs": [],
      "name": "phase3time",
      "outputs": [
        {
          "internalType": "uint256",
          "name": "",
          "type": "uint256"
        }
      ],
      "stateMutability": "view",
      "type": "function",
      "constant": true
    },
    {
      "inputs": [],
      "name": "phase4time",
      "outputs": [
        {
          "internalType": "uint256",
          "name": "",
          "type": "uint256"
        }
      ],
      "stateMutability": "view",
      "type": "function",
      "constant": true
    },
    {
      "inputs": [],
      "name": "phase5time",
      "outputs": [
        {
          "internalType": "uint256",
          "name": "",
          "type": "uint256"
        }
      ],
      "stateMutability": "view",
      "type": "function",
      "constant": true
    },
    {
      "inputs": [
        {
          "internalType": "uint256",
          "name": "",
          "type": "uint256"
        }
      ],
      "name": "poolInfo",
      "outputs": [
        {
          "internalType": "contract IERC20",
          "name": "lpToken",
          "type": "address"
        },
        {
          "internalType": "uint256",
          "name": "allocPoint",
          "type": "uint256"
        },
        {
          "internalType": "uint256",
          "name": "lastRewardBlock",
          "type": "uint256"
        },
        {
          "internalType": "uint256",
          "name": "accChillPerShare",
          "type": "uint256"
        },
        {
          "internalType": "uint256",
          "name": "totalPoolBalance",
          "type": "uint256"
        }
      ],
      "stateMutability": "view",
      "type": "function",
      "constant": true
    },
    {
      "inputs": [],
      "name": "renounceOwnership",
      "outputs": [],
      "stateMutability": "nonpayable",
      "type": "function"
    },
    {
      "inputs": [
        {
          "internalType": "address",
          "name": "",
          "type": "address"
        }
      ],
      "name": "stakingUniPools",
      "outputs": [
        {
          "internalType": "bool",
          "name": "",
          "type": "bool"
        }
      ],
      "stateMutability": "view",
      "type": "function",
      "constant": true
    },
    {
      "inputs": [],
      "name": "startBlockOfChill",
      "outputs": [
        {
          "internalType": "uint256",
          "name": "",
          "type": "uint256"
        }
      ],
      "stateMutability": "view",
      "type": "function",
      "constant": true
    },
    {
      "inputs": [],
      "name": "totalAllocPoint",
      "outputs": [
        {
          "internalType": "uint256",
          "name": "",
          "type": "uint256"
        }
      ],
      "stateMutability": "view",
      "type": "function",
      "constant": true
    },
    {
      "inputs": [
        {
          "internalType": "address",
          "name": "newOwner",
          "type": "address"
        }
      ],
      "name": "transferOwnership",
      "outputs": [],
      "stateMutability": "nonpayable",
      "type": "function"
    },
    {
      "inputs": [
        {
          "internalType": "address",
          "name": "",
          "type": "address"
        }
      ],
      "name": "uniRewardAddresses",
      "outputs": [
        {
          "internalType": "address",
          "name": "",
          "type": "address"
        }
      ],
      "stateMutability": "view",
      "type": "function",
      "constant": true
    },
    {
      "inputs": [
        {
          "internalType": "uint256",
          "name": "",
          "type": "uint256"
        },
        {
          "internalType": "address",
          "name": "",
          "type": "address"
        }
      ],
      "name": "userInfo",
      "outputs": [
        {
          "internalType": "uint256",
          "name": "amount",
          "type": "uint256"
        },
        {
          "internalType": "uint256",
          "name": "rewardDebt",
          "type": "uint256"
        },
        {
          "internalType": "uint256",
          "name": "startedBlock",
          "type": "uint256"
        }
      ],
      "stateMutability": "view",
      "type": "function",
      "constant": true
    },
    {
      "inputs": [],
      "name": "poolLength",
      "outputs": [
        {
          "internalType": "uint256",
          "name": "",
          "type": "uint256"
        }
      ],
      "stateMutability": "view",
      "type": "function",
      "constant": true
    },
    {
      "inputs": [
        {
          "internalType": "uint256",
          "name": "_allocPoint",
          "type": "uint256"
        },
        {
          "internalType": "contract IERC20",
          "name": "_lpToken",
          "type": "address"
        },
        {
          "internalType": "bool",
          "name": "_withUpdate",
          "type": "bool"
        }
      ],
      "name": "add",
      "outputs": [],
      "stateMutability": "nonpayable",
      "type": "function"
    },
    {
      "inputs": [
        {
          "internalType": "uint256",
          "name": "_pid",
          "type": "uint256"
        },
        {
          "internalType": "uint256",
          "name": "_allocPoint",
          "type": "uint256"
        },
        {
          "internalType": "bool",
          "name": "_withUpdate",
          "type": "bool"
        }
      ],
      "name": "set",
      "outputs": [],
      "stateMutability": "nonpayable",
      "type": "function"
    },
    {
      "inputs": [],
      "name": "massUpdatePools",
      "outputs": [],
      "stateMutability": "nonpayable",
      "type": "function"
    },
    {
      "inputs": [
        {
          "internalType": "uint256",
          "name": "_pid",
          "type": "uint256"
        },
        {
          "internalType": "uint256",
          "name": "_amount",
          "type": "uint256"
        }
      ],
      "name": "deposit",
      "outputs": [],
      "stateMutability": "nonpayable",
      "type": "function"
    },
    {
      "inputs": [
        {
          "internalType": "uint256",
          "name": "_pid",
          "type": "uint256"
        },
        {
          "internalType": "uint256",
          "name": "_amount",
          "type": "uint256"
        }
      ],
      "name": "withdraw",
      "outputs": [],
      "stateMutability": "nonpayable",
      "type": "function"
    },
    {
      "inputs": [
        {
          "internalType": "uint256",
          "name": "_pid",
          "type": "uint256"
        }
      ],
      "name": "updatePool",
      "outputs": [],
      "stateMutability": "nonpayable",
      "type": "function"
    },
    {
      "inputs": [
        {
          "internalType": "uint256",
          "name": "_pid",
          "type": "uint256"
        }
      ],
      "name": "getExtraReward",
      "outputs": [
        {
          "internalType": "uint256",
          "name": "",
          "type": "uint256"
        }
      ],
      "stateMutability": "nonpayable",
      "type": "function"
    },
    {
      "inputs": [
        {
          "internalType": "uint256",
          "name": "_pid",
          "type": "uint256"
        },
        {
          "internalType": "address",
          "name": "_user",
          "type": "address"
        }
      ],
      "name": "pendingChill",
      "outputs": [
        {
          "internalType": "uint256",
          "name": "",
          "type": "uint256"
        }
      ],
      "stateMutability": "view",
      "type": "function",
      "constant": true
    },
    {
      "inputs": [
        {
          "internalType": "uint256",
          "name": "_from",
          "type": "uint256"
        },
        {
          "internalType": "uint256",
          "name": "_to",
          "type": "uint256"
        }
      ],
      "name": "getMultiplier",
      "outputs": [
        {
          "internalType": "uint256",
          "name": "",
          "type": "uint256"
        }
      ],
      "stateMutability": "view",
      "type": "function",
      "constant": true
    },
    {
      "inputs": [
        {
          "internalType": "uint256",
          "name": "_from",
          "type": "uint256"
        },
        {
          "internalType": "uint256",
          "name": "currentblock",
          "type": "uint256"
        }
      ],
      "name": "getCrossMultiplier",
      "outputs": [
        {
          "internalType": "uint256",
          "name": "",
          "type": "uint256"
        }
      ],
      "stateMutability": "view",
      "type": "function",
      "constant": true
    },
    {
      "inputs": [
        {
          "internalType": "uint256",
          "name": "_from",
          "type": "uint256"
        },
        {
          "internalType": "uint256",
          "name": "currentblock",
          "type": "uint256"
        }
      ],
      "name": "getExtraMultiplier",
      "outputs": [
        {
          "internalType": "uint256",
          "name": "",
          "type": "uint256"
        }
      ],
      "stateMutability": "view",
      "type": "function",
      "constant": true
    },
    {
      "inputs": [
        {
          "internalType": "uint256",
          "name": "_from",
          "type": "uint256"
        }
      ],
      "name": "getNirvanaStatus",
      "outputs": [
        {
          "internalType": "uint256",
          "name": "",
          "type": "uint256"
        }
      ],
      "stateMutability": "view",
      "type": "function",
      "constant": true
    },
    {
      "inputs": [
        {
          "internalType": "address",
          "name": "_countPair",
          "type": "address"
        },
        {
          "internalType": "address",
          "name": "_stablePair",
          "type": "address"
        },
        {
          "internalType": "uint256",
          "name": "_liquiditybalance",
          "type": "uint256"
        }
      ],
      "name": "countStakeAmount",
      "outputs": [
        {
          "internalType": "uint256",
          "name": "",
          "type": "uint256"
        }
      ],
      "stateMutability": "view",
      "type": "function",
      "constant": true
    },
    {
      "inputs": [
        {
          "internalType": "address",
          "name": "_stakeAddress",
          "type": "address"
        }
      ],
      "name": "getUniReward",
      "outputs": [],
      "stateMutability": "nonpayable",
      "type": "function"
    },
    {
      "inputs": [
        {
          "internalType": "address",
          "name": "_uniAddress",
          "type": "address"
        },
        {
          "internalType": "address",
          "name": "_to",
          "type": "address"
        },
        {
          "internalType": "uint256",
          "name": "_amount",
          "type": "uint256"
        }
      ],
      "name": "accessReward",
      "outputs": [],
      "stateMutability": "nonpayable",
      "type": "function"
    },
    {
      "inputs": [
        {
          "internalType": "address",
          "name": "_stakeAddress",
          "type": "address"
        }
      ],
      "name": "getUniRewardAndExit",
      "outputs": [],
      "stateMutability": "nonpayable",
      "type": "function"
    },
    {
      "inputs": [
        {
          "internalType": "address",
          "name": "_uniV2Pool",
          "type": "address"
        },
        {
          "internalType": "address",
          "name": "_stakingRewardAddress",
          "type": "address"
        }
      ],
      "name": "addStakeUniPool",
      "outputs": [],
      "stateMutability": "nonpayable",
      "type": "function"
    },
    {
      "inputs": [
        {
          "internalType": "address",
          "name": "_uniV2Pool",
          "type": "address"
        }
      ],
      "name": "removeStakeUniPool",
      "outputs": [],
      "stateMutability": "nonpayable",
      "type": "function"
    },
    {
      "inputs": [
        {
          "internalType": "address",
          "name": "_devaddr",
          "type": "address"
        }
      ],
      "name": "dev",
      "outputs": [],
      "stateMutability": "nonpayable",
      "type": "function"
    },
    {
      "inputs": [
        {
          "internalType": "uint256",
          "name": "_pid",
          "type": "uint256"
        },
        {
          "internalType": "bool",
          "name": "_isCheck",
          "type": "bool"
        }
      ],
      "name": "setCheckInitialPeriod",
      "outputs": [],
      "stateMutability": "nonpayable",
      "type": "function"
    },
    {
      "inputs": [
        {
          "internalType": "bool",
          "name": "_isCheck",
          "type": "bool"
        }
      ],
      "name": "setCheckInitialPeriodAllPool",
      "outputs": [],
      "stateMutability": "nonpayable",
      "type": "function"
    },
    {
      "inputs": [
        {
          "internalType": "uint256",
          "name": "_pid",
          "type": "uint256"
        }
      ],
      "name": "getCheckInitialPeriod",
      "outputs": [
        {
          "internalType": "bool",
          "name": "",
          "type": "bool"
        }
      ],
      "stateMutability": "view",
      "type": "function",
      "constant": true
    },
    {
      "inputs": [
        {
          "internalType": "address",
          "name": "_stablePair",
          "type": "address"
        },
        {
          "internalType": "uint256",
          "name": "_stableDivider",
          "type": "uint256"
        }
      ],
      "name": "setStablePairAddress",
      "outputs": [],
      "stateMutability": "nonpayable",
      "type": "function"
    },
    {
      "inputs": [],
      "name": "getStablePairAddress",
      "outputs": [
        {
          "internalType": "address",
          "name": "",
          "type": "address"
        }
      ],
      "stateMutability": "view",
      "type": "function",
      "constant": true
    },
    {
      "inputs": [],
      "name": "getStableDivider",
      "outputs": [
        {
          "internalType": "uint256",
          "name": "",
          "type": "uint256"
        }
      ],
      "stateMutability": "view",
      "type": "function",
      "constant": true
    },
    {
      "inputs": [
        {
          "internalType": "uint256",
          "name": "_ethDivider",
          "type": "uint256"
        }
      ],
      "name": "setEthDivider",
      "outputs": [],
      "stateMutability": "nonpayable",
      "type": "function"
    },
    {
      "inputs": [],
      "name": "getEthDivider",
      "outputs": [
        {
          "internalType": "uint256",
          "name": "",
          "type": "uint256"
        }
      ],
      "stateMutability": "view",
      "type": "function",
      "constant": true
    },
    {
      "inputs": [
        {
          "internalType": "uint256",
          "name": "_index",
          "type": "uint256"
        },
        {
          "internalType": "uint256",
          "name": "_chillPerBlock",
          "type": "uint256"
        }
      ],
      "name": "setBlockPerPhaseByIndex",
      "outputs": [],
      "stateMutability": "nonpayable",
      "type": "function"
    },
    {
      "inputs": [
        {
          "internalType": "uint256",
          "name": "_index",
          "type": "uint256"
        }
      ],
      "name": "getBlockPerPhaseByIndex",
      "outputs": [
        {
          "internalType": "uint256",
          "name": "",
          "type": "uint256"
        }
      ],
      "stateMutability": "view",
      "type": "function",
      "constant": true
    },
    {
      "inputs": [
        {
          "internalType": "uint256",
          "name": "_index",
          "type": "uint256"
        },
        {
          "internalType": "uint256",
          "name": "_time",
          "type": "uint256"
        }
      ],
      "name": "setAndEditPhaseTime",
      "outputs": [],
      "stateMutability": "nonpayable",
      "type": "function"
    },
    {
      "inputs": [],
      "name": "getPhaseTimeAndBlocks",
      "outputs": [
        {
          "internalType": "uint256",
          "name": "",
          "type": "uint256"
        },
        {
          "internalType": "uint256",
          "name": "",
          "type": "uint256"
        }
      ],
      "stateMutability": "view",
      "type": "function",
      "constant": true
    },
    {
      "inputs": [
        {
          "internalType": "address",
          "name": "_distributor",
          "type": "address"
        },
        {
          "internalType": "bool",
          "name": "_isdistributor",
          "type": "bool"
        }
      ],
      "name": "setRewardDistributor",
      "outputs": [],
      "stateMutability": "nonpayable",
      "type": "function"
    }
  ],
  "bytecode": "0x608060405260006005553480156200001657600080fd5b506040516200601b3803806200601b833981810160405260608110156200003c57600080fd5b81019080805190602001909291908051906020019092919080519060200190929190505050600062000073620003f960201b60201c565b9050806000806101000a81548173ffffffffffffffffffffffffffffffffffffffff021916908373ffffffffffffffffffffffffffffffffffffffff1602179055508073ffffffffffffffffffffffffffffffffffffffff16600073ffffffffffffffffffffffffffffffffffffffff167f8be0079c531659141344cd1fd0a4f28419497f9722a3daafe3b4186f6b6457e060405160405180910390a35082600160006101000a81548173ffffffffffffffffffffffffffffffffffffffff021916908373ffffffffffffffffffffffffffffffffffffffff16021790555081600260006101000a81548173ffffffffffffffffffffffffffffffffffffffff021916908373ffffffffffffffffffffffffffffffffffffffff16021790555080600c60006101000a81548173ffffffffffffffffffffffffffffffffffffffff021916908373ffffffffffffffffffffffffffffffffffffffff160217905550620001ef6000436200040160201b620047781790919060201c565b600681905550620002106000436200040160201b620047781790919060201c565b60048190555062000232617080436200040160201b620047781790919060201c565b600d81905550600e680410d586a20a4c00009080600181540180825580915050600190039060005260206000200160009091909190915055600e68056bc75e2d631000009080600181540180825580915050600190039060005260206000200160009091909190915055600e6802b5e3af16b18800009080600181540180825580915050600190039060005260206000200160009091909190915055600e68015af1d78b58c400009080600181540180825580915050600190039060005260206000200160009091909190915055600e600090806001815401808255809150506001900390600052602060002001600090919091909150556200034762013b00436200040160201b620047781790919060201c565b6011819055506200036a6203de00436200040160201b620047781790919060201c565b6012819055506200038d62068100436200040160201b620047781790919060201c565b601381905550620003b0620bc700436200040160201b620047781790919060201c565b601481905550620003d16000436200040160201b620047781790919060201c565b601581905550620f4240601081905550670de0b6b3a7640000600f819055505050506200048a565b600033905090565b60008082840190508381101562000480576040517f08c379a000000000000000000000000000000000000000000000000000000000815260040180806020018281038252601b8152602001807f536166654d6174683a206164646974696f6e206f766572666c6f77000000000081525060200191505060405180910390fd5b8091505092915050565b615b81806200049a6000396000f3fe608060405234801561001057600080fd5b50600436106103275760003560e01c806380e59f8d116101b8578063b74e5a4211610104578063e1b6b3d4116100a2578063eed011391161007c578063eed0113914610ebb578063ef18129414610ed9578063f2fde38b14610f47578063ff3ab3c614610f8b57610327565b8063e1b6b3d414610dfa578063e2bbb15814610e5e578063ebbb462714610e9657610327565b8063c8d22620116100de578063c8d2262014610cfc578063ce7e939014610d36578063d49e77cd14610d7a578063e074f6bd14610dae57610327565b8063b74e5a4214610c22578063c24cdaff14610c84578063c4a9bf9f14610ca257610327565b80638e58440711610171578063afa6d11e1161014b578063afa6d11e14610b5c578063b15abece14610ba0578063b236b4a214610bbe578063b44e49f314610bf257610327565b80638e58440714610ab057806393f1a40b14610ace578063942d2ddf14610b3e57610327565b806380e59f8d1461093a5780638aa285501461098a5780638c94e549146109a85780638d88a90e146109ec5780638da5cb5b14610a305780638dbb1e3a14610a6457610327565b8063441a3e7011610277578063630b5ba111610230578063715018a61161020a578063715018a61461088a578063719175d514610894578063746c10cd146108b25780637e3c45e2146108f657610327565b8063630b5ba11461080457806364482f791461080e57806366aa11a71461085257610327565b8063441a3e701461068c57806348852fc4146106c4578063505a4c281461070657806351eb05a61461074857806354eea1e1146107765780635a8cd4c8146107b857610327565b80631aed6553116102e4578063280ad59a116102be578063280ad59a1461055a5780632b8a3ae6146105a85780632c1b4b31146105dc57806337edc9e81461065e57610327565b80631aed6553146104aa5780631eaaa045146104c8578063271e48c81461052257610327565b8063066e95341461032c578063081e3eda1461034a5780630c6c3856146103685780630f904016146103d65780631526fe271461041857806317caf6f11461048c575b600080fd5b610334610fa9565b6040518082815260200191505060405180910390f35b610352610faf565b6040518082815260200191505060405180910390f35b6103aa6004803603602081101561037e57600080fd5b81019080803573ffffffffffffffffffffffffffffffffffffffff169060200190929190505050610fbc565b604051808273ffffffffffffffffffffffffffffffffffffffff16815260200191505060405180910390f35b610402600480360360208110156103ec57600080fd5b8101908080359060200190929190505050610fef565b6040518082815260200191505060405180910390f35b6104446004803603602081101561042e57600080fd5b8101908080359060200190929190505050611010565b604051808673ffffffffffffffffffffffffffffffffffffffff1681526020018581526020018481526020018381526020018281526020019550505050505060405180910390f35b610494611073565b6040518082815260200191505060405180910390f35b6104b2611079565b6040518082815260200191505060405180910390f35b610520600480360360608110156104de57600080fd5b8101908080359060200190929190803573ffffffffffffffffffffffffffffffffffffffff16906020019092919080351515906020019092919050505061107f565b005b6105586004803603604081101561053857600080fd5b810190808035906020019092919080359060200190929190505050611269565b005b6105a66004803603604081101561057057600080fd5b81019080803573ffffffffffffffffffffffffffffffffffffffff16906020019092919080359060200190929190505050611402565b005b6105b0611516565b604051808273ffffffffffffffffffffffffffffffffffffffff16815260200191505060405180910390f35b610648600480360360608110156105f257600080fd5b81019080803573ffffffffffffffffffffffffffffffffffffffff169060200190929190803573ffffffffffffffffffffffffffffffffffffffff1690602001909291908035906020019092919050505061153c565b6040518082815260200191505060405180910390f35b61068a6004803603602081101561067457600080fd5b8101908080359060200190929190505050611552565b005b6106c2600480360360408110156106a257600080fd5b810190808035906020019092919080359060200190929190505050611624565b005b6106f0600480360360208110156106da57600080fd5b8101908080359060200190929190505050611db3565b6040518082815260200191505060405180910390f35b6107326004803603602081101561071c57600080fd5b8101908080359060200190929190505050611dd9565b6040518082815260200191505060405180910390f35b6107746004803603602081101561075e57600080fd5b8101908080359060200190929190505050611dfa565b005b6107a26004803603602081101561078c57600080fd5b8101908080359060200190929190505050612290565b6040518082815260200191505060405180910390f35b6107ee600480360360408110156107ce57600080fd5b8101908080359060200190929190803590602001909291905050506125e0565b6040518082815260200191505060405180910390f35b61080c61262c565b005b6108506004803603606081101561082457600080fd5b810190808035906020019092919080359060200190929190803515159060200190929190505050612659565b005b6108886004803603604081101561086857600080fd5b8101908080359060200190929190803590602001909291905050506127a3565b005b61089261288b565b005b61089c612a11565b6040518082815260200191505060405180910390f35b6108f4600480360360208110156108c857600080fd5b81019080803573ffffffffffffffffffffffffffffffffffffffff169060200190929190505050612a17565b005b6109386004803603602081101561090c57600080fd5b81019080803573ffffffffffffffffffffffffffffffffffffffff169060200190929190505050612b42565b005b6109886004803603604081101561095057600080fd5b81019080803573ffffffffffffffffffffffffffffffffffffffff169060200190929190803515159060200190929190505050612c6d565b005b610992612d90565b6040518082815260200191505060405180910390f35b6109d4600480360360208110156109be57600080fd5b8101908080359060200190929190505050612d95565b60405180821515815260200191505060405180910390f35b610a2e60048036036020811015610a0257600080fd5b81019080803573ffffffffffffffffffffffffffffffffffffffff169060200190929190505050612dbf565b005b610a38612ec6565b604051808273ffffffffffffffffffffffffffffffffffffffff16815260200191505060405180910390f35b610a9a60048036036040811015610a7a57600080fd5b810190808035906020019092919080359060200190929190505050612eef565b6040518082815260200191505060405180910390f35b610ab8612fa1565b6040518082815260200191505060405180910390f35b610b1a60048036036040811015610ae457600080fd5b8101908080359060200190929190803573ffffffffffffffffffffffffffffffffffffffff169060200190929190505050612fa7565b60405180848152602001838152602001828152602001935050505060405180910390f35b610b46612fde565b6040518082815260200191505060405180910390f35b610b9e60048036036020811015610b7257600080fd5b81019080803573ffffffffffffffffffffffffffffffffffffffff169060200190929190505050612fe4565b005b610ba861341f565b6040518082815260200191505060405180910390f35b610bc6613425565b604051808273ffffffffffffffffffffffffffffffffffffffff16815260200191505060405180910390f35b610c2060048036036020811015610c0857600080fd5b8101908080351515906020019092919050505061344f565b005b610c6e60048036036040811015610c3857600080fd5b8101908080359060200190929190803573ffffffffffffffffffffffffffffffffffffffff169060200190929190505050613567565b6040518082815260200191505060405180910390f35b610c8c613909565b6040518082815260200191505060405180910390f35b610ce460048036036020811015610cb857600080fd5b81019080803573ffffffffffffffffffffffffffffffffffffffff169060200190929190505050613913565b60405180821515815260200191505060405180910390f35b610d3460048036036040811015610d1257600080fd5b8101908080359060200190929190803515159060200190929190505050613933565b005b610d6260048036036020811015610d4c57600080fd5b8101908080359060200190929190505050613a2a565b60405180821515815260200191505060405180910390f35b610d82613a4a565b604051808273ffffffffffffffffffffffffffffffffffffffff16815260200191505060405180910390f35b610de460048036036040811015610dc457600080fd5b810190808035906020019092919080359060200190929190505050613a70565b6040518082815260200191505060405180910390f35b610e5c60048036036040811015610e1057600080fd5b81019080803573ffffffffffffffffffffffffffffffffffffffff169060200190929190803573ffffffffffffffffffffffffffffffffffffffff169060200190929190505050613ab5565b005b610e9460048036036040811015610e7457600080fd5b810190808035906020019092919080359060200190929190505050613dd3565b005b610e9e61423b565b604051808381526020018281526020019250505060405180910390f35b610ec361431b565b6040518082815260200191505060405180910390f35b610f4560048036036060811015610eef57600080fd5b81019080803573ffffffffffffffffffffffffffffffffffffffff169060200190929190803573ffffffffffffffffffffffffffffffffffffffff16906020019092919080359060200190929190505050614321565b005b610f8960048036036020811015610f5d57600080fd5b81019080803573ffffffffffffffffffffffffffffffffffffffff169060200190929190505050614563565b005b610f9361476e565b6040518082815260200191505060405180910390f35b60115481565b6000600380549050905090565b60096020528060005260406000206000915054906101000a900473ffffffffffffffffffffffffffffffffffffffff1681565b6000600e8281548110610ffe57fe5b90600052602060002001549050919050565b6003818154811061101d57fe5b90600052602060002090600502016000915090508060000160009054906101000a900473ffffffffffffffffffffffffffffffffffffffff16908060010154908060020154908060030154908060040154905085565b60055481565b60045481565b611087614800565b73ffffffffffffffffffffffffffffffffffffffff1660008054906101000a900473ffffffffffffffffffffffffffffffffffffffff1673ffffffffffffffffffffffffffffffffffffffff1614611147576040517f08c379a00000000000000000000000000000000000000000000000000000000081526004018080602001828103825260208152602001807f4f776e61626c653a2063616c6c6572206973206e6f7420746865206f776e657281525060200191505060405180910390fd5b80156111565761115561262c565b5b600060065443116111695760065461116b565b435b90506111828460055461477890919063ffffffff16565b60058190555060036040518060a001604052808573ffffffffffffffffffffffffffffffffffffffff168152602001868152602001838152602001600081526020016000815250908060018154018082558091505060019003906000526020600020906005020160009091909190915060008201518160000160006101000a81548173ffffffffffffffffffffffffffffffffffffffff021916908373ffffffffffffffffffffffffffffffffffffffff16021790555060208201518160010155604082015181600201556060820151816003015560808201518160040155505050505050565b611271614800565b73ffffffffffffffffffffffffffffffffffffffff1660008054906101000a900473ffffffffffffffffffffffffffffffffffffffff1673ffffffffffffffffffffffffffffffffffffffff1614611331576040517f08c379a00000000000000000000000000000000000000000000000000000000081526004018080602001828103825260208152602001807f4f776e61626c653a2063616c6c6572206973206e6f7420746865206f776e657281525060200191505060405180910390fd5b600082141561135a5761134f8160115461477890919063ffffffff16565b6011819055506113fe565b6001821415611383576113788160125461477890919063ffffffff16565b6012819055506113fd565b60028214156113ac576113a18160135461477890919063ffffffff16565b6013819055506113fc565b60038214156113d5576113ca8160145461477890919063ffffffff16565b6014819055506113fb565b60048214156113fa576113f38160155461477890919063ffffffff16565b6015819055505b5b5b5b5b5050565b61140a614800565b73ffffffffffffffffffffffffffffffffffffffff1660008054906101000a900473ffffffffffffffffffffffffffffffffffffffff1673ffffffffffffffffffffffffffffffffffffffff16146114ca576040517f08c379a00000000000000000000000000000000000000000000000000000000081526004018080602001828103825260208152602001807f4f776e61626c653a2063616c6c6572206973206e6f7420746865206f776e657281525060200191505060405180910390fd5b81600c60006101000a81548173ffffffffffffffffffffffffffffffffffffffff021916908373ffffffffffffffffffffffffffffffffffffffff160217905550806010819055505050565b600160009054906101000a900473ffffffffffffffffffffffffffffffffffffffff1681565b6000611549848484614808565b90509392505050565b61155a614800565b73ffffffffffffffffffffffffffffffffffffffff1660008054906101000a900473ffffffffffffffffffffffffffffffffffffffff1673ffffffffffffffffffffffffffffffffffffffff161461161a576040517f08c379a00000000000000000000000000000000000000000000000000000000081526004018080602001828103825260208152602001807f4f776e61626c653a2063616c6c6572206973206e6f7420746865206f776e657281525060200191505060405180910390fd5b80600f8190555050565b60006003838154811061163357fe5b9060005260206000209060050201905060006007600085815260200190815260200160002060003373ffffffffffffffffffffffffffffffffffffffff1673ffffffffffffffffffffffffffffffffffffffff16815260200190815260200160002090508281600001541015611711576040517f08c379a00000000000000000000000000000000000000000000000000000000081526004018080602001828103825260158152602001807f7769746864726177206973206e6f742076616c6964000000000000000000000081525060200191505060405180910390fd5b6000816002015411611727574381600201819055505b600860008360000160009054906101000a900473ffffffffffffffffffffffffffffffffffffffff1673ffffffffffffffffffffffffffffffffffffffff1673ffffffffffffffffffffffffffffffffffffffff16815260200190815260200160002060009054906101000a900460ff1680156117a45750600083115b1561185c5761185b8260000160009054906101000a900473ffffffffffffffffffffffffffffffffffffffff16600960008560000160009054906101000a900473ffffffffffffffffffffffffffffffffffffffff1673ffffffffffffffffffffffffffffffffffffffff1673ffffffffffffffffffffffffffffffffffffffff16815260200190815260200160002060009054906101000a900473ffffffffffffffffffffffffffffffffffffffff1685614aff565b5b61186584611dfa565b60006118af82600101546118a164e8d4a5100061189387600301548760000154614b6f90919063ffffffff16565b614bf590919063ffffffff16565b614c3f90919063ffffffff16565b905060006118c96118c4846002015443613a70565b614c89565b905060006118f360646118e58486614b6f90919063ffffffff16565b614bf590919063ffffffff16565b9050600061190088612290565b905061193a611919600284614bf590919063ffffffff16565b61192c838761477890919063ffffffff16565b614c3f90919063ffffffff16565b93506119463385614cda565b6000821115611c8a57600160009054906101000a900473ffffffffffffffffffffffffffffffffffffffff1673ffffffffffffffffffffffffffffffffffffffff166340c10f19600260009054906101000a900473ffffffffffffffffffffffffffffffffffffffff166119c4600286614bf590919063ffffffff16565b6040518363ffffffff1660e01b8152600401808373ffffffffffffffffffffffffffffffffffffffff16815260200182815260200192505050600060405180830381600087803b158015611a1757600080fd5b505af1158015611a2b573d6000803e3d6000fd5b50505050611a43600283614bf590919063ffffffff16565b600160009054906101000a900473ffffffffffffffffffffffffffffffffffffffff1673ffffffffffffffffffffffffffffffffffffffff166370a08231306040518263ffffffff1660e01b8152600401808273ffffffffffffffffffffffffffffffffffffffff16815260200191505060206040518083038186803b158015611acc57600080fd5b505afa158015611ae0573d6000803e3d6000fd5b505050506040513d6020811015611af657600080fd5b810190808051906020019092919050505010611bcb57600160009054906101000a900473ffffffffffffffffffffffffffffffffffffffff1673ffffffffffffffffffffffffffffffffffffffff16639dc29fac30611b5f600286614bf590919063ffffffff16565b6040518363ffffffff1660e01b8152600401808373ffffffffffffffffffffffffffffffffffffffff16815260200182815260200192505050600060405180830381600087803b158015611bb257600080fd5b505af1158015611bc6573d6000803e3d6000fd5b505050505b600160009054906101000a900473ffffffffffffffffffffffffffffffffffffffff1673ffffffffffffffffffffffffffffffffffffffff16639dc29fac33611c1e600286614bf590919063ffffffff16565b6040518363ffffffff1660e01b8152600401808373ffffffffffffffffffffffffffffffffffffffff16815260200182815260200192505050600060405180830381600087803b158015611c7157600080fd5b505af1158015611c85573d6000803e3d6000fd5b505050505b611ca1878660000154614c3f90919063ffffffff16565b8560000181905550611cdb64e8d4a51000611ccd88600301548860000154614b6f90919063ffffffff16565b614bf590919063ffffffff16565b8560010181905550438560020181905550611d03878760040154614c3f90919063ffffffff16565b8660040181905550611d5a33888860000160009054906101000a900473ffffffffffffffffffffffffffffffffffffffff1673ffffffffffffffffffffffffffffffffffffffff16614f539092919063ffffffff16565b873373ffffffffffffffffffffffffffffffffffffffff167ff279e6a1f5e320cca91135676d9cb6e44ca8a08c0b88342bcdb1144f6511b568896040518082815260200191505060405180910390a35050505050505050565b600080611dc08343613a70565b90506000611dcd82614ff5565b90508092505050919050565b600e8181548110611de657fe5b906000526020600020016000915090505481565b600060038281548110611e0957fe5b9060005260206000209060050201905060006007600084815260200190815260200160002060003373ffffffffffffffffffffffffffffffffffffffff1673ffffffffffffffffffffffffffffffffffffffff168152602001908152602001600020905081600201544311611e7f57505061228d565b600082600401541415611e9c57438260020181905550505061228d565b600080611ead846002015443612eef565b90506011544311611f1457611f0d600554611eff8660010154611ef1600e600081548110611ed757fe5b906000526020600020015486614b6f90919063ffffffff16565b614b6f90919063ffffffff16565b614bf590919063ffffffff16565b915061209e565b6012544311611f7957611f72600554611f648660010154611f56600e600181548110611f3c57fe5b906000526020600020015486614b6f90919063ffffffff16565b614b6f90919063ffffffff16565b614bf590919063ffffffff16565b915061209d565b6013544311611fde57611fd7600554611fc98660010154611fbb600e600281548110611fa157fe5b906000526020600020015486614b6f90919063ffffffff16565b614b6f90919063ffffffff16565b614bf590919063ffffffff16565b915061209c565b60145443116120435761203c60055461202e8660010154612020600e60038154811061200657fe5b906000526020600020015486614b6f90919063ffffffff16565b614b6f90919063ffffffff16565b614bf590919063ffffffff16565b915061209b565b61209860055461208a866001015461207c600e60048154811061206257fe5b906000526020600020015486614b6f90919063ffffffff16565b614b6f90919063ffffffff16565b614bf590919063ffffffff16565b91505b5b5b5b600082111561223357600160009054906101000a900473ffffffffffffffffffffffffffffffffffffffff1673ffffffffffffffffffffffffffffffffffffffff166340c10f19600260009054906101000a900473ffffffffffffffffffffffffffffffffffffffff1661211c600a86614bf590919063ffffffff16565b6040518363ffffffff1660e01b8152600401808373ffffffffffffffffffffffffffffffffffffffff16815260200182815260200192505050600060405180830381600087803b15801561216f57600080fd5b505af1158015612183573d6000803e3d6000fd5b50505050600160009054906101000a900473ffffffffffffffffffffffffffffffffffffffff1673ffffffffffffffffffffffffffffffffffffffff166340c10f1930846040518363ffffffff1660e01b8152600401808373ffffffffffffffffffffffffffffffffffffffff16815260200182815260200192505050600060405180830381600087803b15801561221a57600080fd5b505af115801561222e573d6000803e3d6000fd5b505050505b612277612264856004015461225664e8d4a5100086614b6f90919063ffffffff16565b614bf590919063ffffffff16565b856003015461477890919063ffffffff16565b8460030181905550438460020181905550505050505b50565b600080600383815481106122a057fe5b9060005260206000209060050201905060006007600085815260200190815260200160002060003373ffffffffffffffffffffffffffffffffffffffff1673ffffffffffffffffffffffffffffffffffffffff168152602001908152602001600020905060008260040154141561231c576000925050506125db565b60008061232d8360020154436125e0565b915060115443116123945761238d60055461237f8660010154612371600e60008154811061235757fe5b906000526020600020015487614b6f90919063ffffffff16565b614b6f90919063ffffffff16565b614bf590919063ffffffff16565b905061251e565b60125443116123f9576123f26005546123e486600101546123d6600e6001815481106123bc57fe5b906000526020600020015487614b6f90919063ffffffff16565b614b6f90919063ffffffff16565b614bf590919063ffffffff16565b905061251d565b601354431161245e57612457600554612449866001015461243b600e60028154811061242157fe5b906000526020600020015487614b6f90919063ffffffff16565b614b6f90919063ffffffff16565b614bf590919063ffffffff16565b905061251c565b60145443116124c3576124bc6005546124ae86600101546124a0600e60038154811061248657fe5b906000526020600020015487614b6f90919063ffffffff16565b614b6f90919063ffffffff16565b614bf590919063ffffffff16565b905061251b565b61251860055461250a86600101546124fc600e6004815481106124e257fe5b906000526020600020015487614b6f90919063ffffffff16565b614b6f90919063ffffffff16565b614bf590919063ffffffff16565b90505b5b5b5b60008111156125d357600160009054906101000a900473ffffffffffffffffffffffffffffffffffffffff1673ffffffffffffffffffffffffffffffffffffffff166340c10f1930836040518363ffffffff1660e01b8152600401808373ffffffffffffffffffffffffffffffffffffffff16815260200182815260200192505050600060405180830381600087803b1580156125ba57600080fd5b505af11580156125ce573d6000803e3d6000fd5b505050505b809450505050505b919050565b6000806125ed8484613a70565b9050600061261f606461261161260285614ff5565b85614b6f90919063ffffffff16565b614bf590919063ffffffff16565b9050809250505092915050565b6000600380549050905060005b818110156126555761264a81611dfa565b806001019050612639565b5050565b612661614800565b73ffffffffffffffffffffffffffffffffffffffff1660008054906101000a900473ffffffffffffffffffffffffffffffffffffffff1673ffffffffffffffffffffffffffffffffffffffff1614612721576040517f08c379a00000000000000000000000000000000000000000000000000000000081526004018080602001828103825260208152602001807f4f776e61626c653a2063616c6c6572206973206e6f7420746865206f776e657281525060200191505060405180910390fd5b80156127305761272f61262c565b5b612775826127676003868154811061274457fe5b906000526020600020906005020160010154600554614c3f90919063ffffffff16565b61477890919063ffffffff16565b600581905550816003848154811061278957fe5b906000526020600020906005020160010181905550505050565b6127ab614800565b73ffffffffffffffffffffffffffffffffffffffff1660008054906101000a900473ffffffffffffffffffffffffffffffffffffffff1673ffffffffffffffffffffffffffffffffffffffff161461286b576040517f08c379a00000000000000000000000000000000000000000000000000000000081526004018080602001828103825260208152602001807f4f776e61626c653a2063616c6c6572206973206e6f7420746865206f776e657281525060200191505060405180910390fd5b80600e838154811061287957fe5b90600052602060002001819055505050565b612893614800565b73ffffffffffffffffffffffffffffffffffffffff1660008054906101000a900473ffffffffffffffffffffffffffffffffffffffff1673ffffffffffffffffffffffffffffffffffffffff1614612953576040517f08c379a00000000000000000000000000000000000000000000000000000000081526004018080602001828103825260208152602001807f4f776e61626c653a2063616c6c6572206973206e6f7420746865206f776e657281525060200191505060405180910390fd5b600073ffffffffffffffffffffffffffffffffffffffff1660008054906101000a900473ffffffffffffffffffffffffffffffffffffffff1673ffffffffffffffffffffffffffffffffffffffff167f8be0079c531659141344cd1fd0a4f28419497f9722a3daafe3b4186f6b6457e060405160405180910390a360008060006101000a81548173ffffffffffffffffffffffffffffffffffffffff021916908373ffffffffffffffffffffffffffffffffffffffff160217905550565b60155481565b612a1f614800565b73ffffffffffffffffffffffffffffffffffffffff1660008054906101000a900473ffffffffffffffffffffffffffffffffffffffff1673ffffffffffffffffffffffffffffffffffffffff1614612adf576040517f08c379a00000000000000000000000000000000000000000000000000000000081526004018080602001828103825260208152602001807f4f776e61626c653a2063616c6c6572206973206e6f7420746865206f776e657281525060200191505060405180910390fd5b8073ffffffffffffffffffffffffffffffffffffffff1663e9fad8ee6040518163ffffffff1660e01b8152600401600060405180830381600087803b158015612b2757600080fd5b505af1158015612b3b573d6000803e3d6000fd5b5050505050565b612b4a614800565b73ffffffffffffffffffffffffffffffffffffffff1660008054906101000a900473ffffffffffffffffffffffffffffffffffffffff1673ffffffffffffffffffffffffffffffffffffffff1614612c0a576040517f08c379a00000000000000000000000000000000000000000000000000000000081526004018080602001828103825260208152602001807f4f776e61626c653a2063616c6c6572206973206e6f7420746865206f776e657281525060200191505060405180910390fd5b8073ffffffffffffffffffffffffffffffffffffffff16633d18b9126040518163ffffffff1660e01b8152600401600060405180830381600087803b158015612c5257600080fd5b505af1158015612c66573d6000803e3d6000fd5b5050505050565b612c75614800565b73ffffffffffffffffffffffffffffffffffffffff1660008054906101000a900473ffffffffffffffffffffffffffffffffffffffff1673ffffffffffffffffffffffffffffffffffffffff1614612d35576040517f08c379a00000000000000000000000000000000000000000000000000000000081526004018080602001828103825260208152602001807f4f776e61626c653a2063616c6c6572206973206e6f7420746865206f776e657281525060200191505060405180910390fd5b80600b60008473ffffffffffffffffffffffffffffffffffffffff1673ffffffffffffffffffffffffffffffffffffffff16815260200190815260200160002060006101000a81548160ff0219169083151502179055505050565b600a81565b6000600a600083815260200190815260200160002060009054906101000a900460ff169050919050565b600260009054906101000a900473ffffffffffffffffffffffffffffffffffffffff1673ffffffffffffffffffffffffffffffffffffffff163373ffffffffffffffffffffffffffffffffffffffff1614612e82576040517f08c379a00000000000000000000000000000000000000000000000000000000081526004018080602001828103825260198152602001807f646576206164646472657373206973206e6f742076616c69640000000000000081525060200191505060405180910390fd5b80600260006101000a81548173ffffffffffffffffffffffffffffffffffffffff021916908373ffffffffffffffffffffffffffffffffffffffff16021790555050565b60008060009054906101000a900473ffffffffffffffffffffffffffffffffffffffff16905090565b60006004548211612f2757612f20600a612f128585614c3f90919063ffffffff16565b614b6f90919063ffffffff16565b9050612f9b565b6004548310612f4a57612f438383614c3f90919063ffffffff16565b9050612f9b565b612f98612f6260045484614c3f90919063ffffffff16565b612f8a600a612f7c87600454614c3f90919063ffffffff16565b614b6f90919063ffffffff16565b61477890919063ffffffff16565b90505b92915050565b60145481565b6007602052816000526040600020602052806000526040600020600091509150508060000154908060010154908060020154905083565b60135481565b612fec614800565b73ffffffffffffffffffffffffffffffffffffffff1660008054906101000a900473ffffffffffffffffffffffffffffffffffffffff1673ffffffffffffffffffffffffffffffffffffffff16146130ac576040517f08c379a00000000000000000000000000000000000000000000000000000000081526004018080602001828103825260208152602001807f4f776e61626c653a2063616c6c6572206973206e6f7420746865206f776e657281525060200191505060405180910390fd5b600860008273ffffffffffffffffffffffffffffffffffffffff1673ffffffffffffffffffffffffffffffffffffffff16815260200190815260200160002060009054906101000a900460ff1661316b576040517f08c379a00000000000000000000000000000000000000000000000000000000081526004018080602001828103825260178152602001807f5468697320706f6f6c206973206e6f742065786973742e00000000000000000081525060200191505060405180910390fd5b6000600960008373ffffffffffffffffffffffffffffffffffffffff1673ffffffffffffffffffffffffffffffffffffffff16815260200190815260200160002060009054906101000a900473ffffffffffffffffffffffffffffffffffffffff1673ffffffffffffffffffffffffffffffffffffffff166370a08231306040518263ffffffff1660e01b8152600401808273ffffffffffffffffffffffffffffffffffffffff16815260200191505060206040518083038186803b15801561323357600080fd5b505afa158015613247573d6000803e3d6000fd5b505050506040513d602081101561325d57600080fd5b81019080805190602001909291905050509050600081111561334457600960008373ffffffffffffffffffffffffffffffffffffffff1673ffffffffffffffffffffffffffffffffffffffff16815260200190815260200160002060009054906101000a900473ffffffffffffffffffffffffffffffffffffffff1673ffffffffffffffffffffffffffffffffffffffff16632e1a7d4d826040518263ffffffff1660e01b815260040180828152602001915050600060405180830381600087803b15801561332b57600080fd5b505af115801561333f573d6000803e3d6000fd5b505050505b6000600860008473ffffffffffffffffffffffffffffffffffffffff1673ffffffffffffffffffffffffffffffffffffffff16815260200190815260200160002060006101000a81548160ff0219169083151502179055506000600960008473ffffffffffffffffffffffffffffffffffffffff1673ffffffffffffffffffffffffffffffffffffffff16815260200190815260200160002060006101000a81548173ffffffffffffffffffffffffffffffffffffffff021916908373ffffffffffffffffffffffffffffffffffffffff1602179055505050565b60125481565b6000600c60009054906101000a900473ffffffffffffffffffffffffffffffffffffffff16905090565b613457614800565b73ffffffffffffffffffffffffffffffffffffffff1660008054906101000a900473ffffffffffffffffffffffffffffffffffffffff1673ffffffffffffffffffffffffffffffffffffffff1614613517576040517f08c379a00000000000000000000000000000000000000000000000000000000081526004018080602001828103825260208152602001807f4f776e61626c653a2063616c6c6572206973206e6f7420746865206f776e657281525060200191505060405180910390fd5b6000600380549050905060005b818110156135625782600a600083815260200190815260200160002060006101000a81548160ff021916908315150217905550806001019050613524565b505050565b6000806003848154811061357757fe5b9060005260206000209060050201905060006007600086815260200190815260200160002060008573ffffffffffffffffffffffffffffffffffffffff1673ffffffffffffffffffffffffffffffffffffffff168152602001908152602001600020905060008260030154905060008360040154146138ba576000806000613603866002015443612eef565b90506136138560020154436125e0565b9250613628838261477890919063ffffffff16565b9050601154431161368f5761368860055461367a886001015461366c600e60008154811061365257fe5b906000526020600020015486614b6f90919063ffffffff16565b614b6f90919063ffffffff16565b614bf590919063ffffffff16565b9150613819565b60125443116136f4576136ed6005546136df88600101546136d1600e6001815481106136b757fe5b906000526020600020015486614b6f90919063ffffffff16565b614b6f90919063ffffffff16565b614bf590919063ffffffff16565b9150613818565b6013544311613759576137526005546137448860010154613736600e60028154811061371c57fe5b906000526020600020015486614b6f90919063ffffffff16565b614b6f90919063ffffffff16565b614bf590919063ffffffff16565b9150613817565b60145443116137be576137b76005546137a9886001015461379b600e60038154811061378157fe5b906000526020600020015486614b6f90919063ffffffff16565b614b6f90919063ffffffff16565b614bf590919063ffffffff16565b9150613816565b61381360055461380588600101546137f7600e6004815481106137dd57fe5b906000526020600020015486614b6f90919063ffffffff16565b614b6f90919063ffffffff16565b614bf590919063ffffffff16565b91505b5b5b5b600061383161382c876002015443613a70565b614c89565b9050600061385b606461384d8487614b6f90919063ffffffff16565b614bf590919063ffffffff16565b90506138708185614c3f90919063ffffffff16565b93506138b26138a3896004015461389564e8d4a5100088614b6f90919063ffffffff16565b614bf590919063ffffffff16565b8761477890919063ffffffff16565b955050505050505b6138fe82600101546138f064e8d4a510006138e2858760000154614b6f90919063ffffffff16565b614bf590919063ffffffff16565b614c3f90919063ffffffff16565b935050505092915050565b6000601054905090565b60086020528060005260406000206000915054906101000a900460ff1681565b61393b614800565b73ffffffffffffffffffffffffffffffffffffffff1660008054906101000a900473ffffffffffffffffffffffffffffffffffffffff1673ffffffffffffffffffffffffffffffffffffffff16146139fb576040517f08c379a00000000000000000000000000000000000000000000000000000000081526004018080602001828103825260208152602001807f4f776e61626c653a2063616c6c6572206973206e6f7420746865206f776e657281525060200191505060405180910390fd5b80600a600084815260200190815260200160002060006101000a81548160ff0219169083151502179055505050565b600a6020528060005260406000206000915054906101000a900460ff1681565b600260009054906101000a900473ffffffffffffffffffffffffffffffffffffffff1681565b60008083831115613a9557613a8e8484614c3f90919063ffffffff16565b9050613aab565b613aa88385614c3f90919063ffffffff16565b90505b8091505092915050565b613abd614800565b73ffffffffffffffffffffffffffffffffffffffff1660008054906101000a900473ffffffffffffffffffffffffffffffffffffffff1673ffffffffffffffffffffffffffffffffffffffff1614613b7d576040517f08c379a00000000000000000000000000000000000000000000000000000000081526004018080602001828103825260208152602001807f4f776e61626c653a2063616c6c6572206973206e6f7420746865206f776e657281525060200191505060405180910390fd5b600860008373ffffffffffffffffffffffffffffffffffffffff1673ffffffffffffffffffffffffffffffffffffffff16815260200190815260200160002060009054906101000a900460ff1615613c3d576040517f08c379a000000000000000000000000000000000000000000000000000000000815260040180806020018281038252601b8152602001807f5468697320706f6f6c20697320616c72656164792065786973742e000000000081525060200191505060405180910390fd5b60008273ffffffffffffffffffffffffffffffffffffffff166370a08231306040518263ffffffff1660e01b8152600401808273ffffffffffffffffffffffffffffffffffffffff16815260200191505060206040518083038186803b158015613ca657600080fd5b505afa158015613cba573d6000803e3d6000fd5b505050506040513d6020811015613cd057600080fd5b810190808051906020019092919050505090506000811115613cf857613cf781848461505b565b5b6001600860008573ffffffffffffffffffffffffffffffffffffffff1673ffffffffffffffffffffffffffffffffffffffff16815260200190815260200160002060006101000a81548160ff02191690831515021790555081600960008573ffffffffffffffffffffffffffffffffffffffff1673ffffffffffffffffffffffffffffffffffffffff16815260200190815260200160002060006101000a81548173ffffffffffffffffffffffffffffffffffffffff021916908373ffffffffffffffffffffffffffffffffffffffff160217905550505050565b600060038381548110613de257fe5b9060005260206000209060050201905060006007600085815260200190815260200160002060003373ffffffffffffffffffffffffffffffffffffffff1673ffffffffffffffffffffffffffffffffffffffff1681526020019081526020016000209050600a600085815260200190815260200160002060009054906101000a900460ff1615613f3857600d544311613f0a57614e20613eae8360000160009054906101000a900473ffffffffffffffffffffffffffffffffffffffff16613ea8613425565b8661153c565b1115613f05576040517f08c379a0000000000000000000000000000000000000000000000000000000008152600401808060200182810382526033815260200180615a7b6033913960400191505060405180910390fd5b613f37565b6000600a600086815260200190815260200160002060006101000a81548160ff0219169083151502179055505b5b6000816002015411613f4e574381600201819055505b613f5784611dfa565b600081600001541115613fdf576000613fae8260010154613fa064e8d4a51000613f9287600301548760000154614b6f90919063ffffffff16565b614bf590919063ffffffff16565b614c3f90919063ffffffff16565b90506000613fbb86612290565b9050613fd0818361477890919063ffffffff16565b9150613fdc3383614cda565b50505b6140303330858560000160009054906101000a900473ffffffffffffffffffffffffffffffffffffffff1673ffffffffffffffffffffffffffffffffffffffff16615178909392919063ffffffff16565b61404783836004015461477890919063ffffffff16565b826004018190555061406683826000015461477890919063ffffffff16565b81600001819055506140a064e8d4a5100061409284600301548460000154614b6f90919063ffffffff16565b614bf590919063ffffffff16565b8160010181905550438160020181905550600860008360000160009054906101000a900473ffffffffffffffffffffffffffffffffffffffff1673ffffffffffffffffffffffffffffffffffffffff1673ffffffffffffffffffffffffffffffffffffffff16815260200190815260200160002060009054906101000a900460ff16801561412e5750600083115b156141e6576141e5838360000160009054906101000a900473ffffffffffffffffffffffffffffffffffffffff16600960008660000160009054906101000a900473ffffffffffffffffffffffffffffffffffffffff1673ffffffffffffffffffffffffffffffffffffffff1673ffffffffffffffffffffffffffffffffffffffff16815260200190815260200160002060009054906101000a900473ffffffffffffffffffffffffffffffffffffffff1661505b565b5b833373ffffffffffffffffffffffffffffffffffffffff167f90890809c654f11d6e72a28fa60149770a0d11ec6c92319d6ceb2bb0a4ea1a15856040518082815260200191505060405180910390a350505050565b600080601154431161426c57601154600e60008154811061425857fe5b906000526020600020015491509150614317565b601254431161429a57601254600e60018154811061428657fe5b906000526020600020015491509150614317565b60135443116142c857601354600e6002815481106142b457fe5b906000526020600020015491509150614317565b60145443116142f657601454600e6003815481106142e257fe5b906000526020600020015491509150614317565b601554600e60048154811061430757fe5b9060005260206000200154915091505b9091565b60065481565b33600b60008273ffffffffffffffffffffffffffffffffffffffff1673ffffffffffffffffffffffffffffffffffffffff16815260200190815260200160002060009054906101000a900460ff1661437857600080fd5b8373ffffffffffffffffffffffffffffffffffffffff166370a08231306040518263ffffffff1660e01b8152600401808273ffffffffffffffffffffffffffffffffffffffff16815260200191505060206040518083038186803b1580156143df57600080fd5b505afa1580156143f3573d6000803e3d6000fd5b505050506040513d602081101561440957600080fd5b810190808051906020019092919050505082111561448f576040517f08c379a000000000000000000000000000000000000000000000000000000000815260040180806020018281038252601c8152602001807f4e6f7420456e6f75676820556e6920546f6b656e2042616c616e63650000000081525060200191505060405180910390fd5b600073ffffffffffffffffffffffffffffffffffffffff168373ffffffffffffffffffffffffffffffffffffffff161415614532576040517f08c379a00000000000000000000000000000000000000000000000000000000081526004018080602001828103825260118152602001807f4e6f74205661696c64204164647265737300000000000000000000000000000081525060200191505060405180910390fd5b61455d83838673ffffffffffffffffffffffffffffffffffffffff16614f539092919063ffffffff16565b50505050565b61456b614800565b73ffffffffffffffffffffffffffffffffffffffff1660008054906101000a900473ffffffffffffffffffffffffffffffffffffffff1673ffffffffffffffffffffffffffffffffffffffff161461462b576040517f08c379a00000000000000000000000000000000000000000000000000000000081526004018080602001828103825260208152602001807f4f776e61626c653a2063616c6c6572206973206e6f7420746865206f776e657281525060200191505060405180910390fd5b600073ffffffffffffffffffffffffffffffffffffffff168173ffffffffffffffffffffffffffffffffffffffff1614156146b1576040517f08c379a0000000000000000000000000000000000000000000000000000000008152600401808060200182810382526026815260200180615a556026913960400191505060405180910390fd5b8073ffffffffffffffffffffffffffffffffffffffff1660008054906101000a900473ffffffffffffffffffffffffffffffffffffffff1673ffffffffffffffffffffffffffffffffffffffff167f8be0079c531659141344cd1fd0a4f28419497f9722a3daafe3b4186f6b6457e060405160405180910390a3806000806101000a81548173ffffffffffffffffffffffffffffffffffffffff021916908373ffffffffffffffffffffffffffffffffffffffff16021790555050565b6000600f54905090565b6000808284019050838110156147f6576040517f08c379a000000000000000000000000000000000000000000000000000000000815260040180806020018281038252601b8152602001807f536166654d6174683a206164646974696f6e206f766572666c6f77000000000081525060200191505060405180910390fd5b8091505092915050565b600033905090565b6000808473ffffffffffffffffffffffffffffffffffffffff16630dfe16816040518163ffffffff1660e01b815260040160206040518083038186803b15801561485157600080fd5b505afa158015614865573d6000803e3d6000fd5b505050506040513d602081101561487b57600080fd5b810190808051906020019092919050505090506000808673ffffffffffffffffffffffffffffffffffffffff16630902f1ac6040518163ffffffff1660e01b815260040160606040518083038186803b1580156148d757600080fd5b505afa1580156148eb573d6000803e3d6000fd5b505050506040513d606081101561490157600080fd5b81019080805190602001909291908051906020019092919080519060200190929190505050509150915060008773ffffffffffffffffffffffffffffffffffffffff166318160ddd6040518163ffffffff1660e01b815260040160206040518083038186803b15801561497357600080fd5b505afa158015614987573d6000803e3d6000fd5b505050506040513d602081101561499d57600080fd5b810190808051906020019092919050505090506000806000831115614ad65773c02aaa39b223fe8d0a0e5c4f27ead9083c756cc273ffffffffffffffffffffffffffffffffffffffff168673ffffffffffffffffffffffffffffffffffffffff1614614a6c57614a3883614a2a876dffffffffffffffffffffffffffff168b614b6f90919063ffffffff16565b614bf590919063ffffffff16565b9050614a6581866dffffffffffffffffffffffffffff16866dffffffffffffffffffffffffffff16615239565b9150614ad1565b614aa183614a93866dffffffffffffffffffffffffffff168b614b6f90919063ffffffff16565b614bf590919063ffffffff16565b9050614ace81856dffffffffffffffffffffffffffff16876dffffffffffffffffffffffffffff16615239565b91505b614ae5565b60009650505050505050614af8565b614aef828a615369565b96505050505050505b9392505050565b8173ffffffffffffffffffffffffffffffffffffffff16632e1a7d4d826040518263ffffffff1660e01b815260040180828152602001915050600060405180830381600087803b158015614b5257600080fd5b505af1158015614b66573d6000803e3d6000fd5b50505050505050565b600080831415614b825760009050614bef565b6000828402905082848281614b9357fe5b0414614bea576040517f08c379a0000000000000000000000000000000000000000000000000000000008152600401808060200182810382526021815260200180615ad66021913960400191505060405180910390fd5b809150505b92915050565b6000614c3783836040518060400160405280601a81526020017f536166654d6174683a206469766973696f6e206279207a65726f0000000000008152506155ae565b905092915050565b6000614c8183836040518060400160405280601e81526020017f536166654d6174683a207375627472616374696f6e206f766572666c6f770000815250615674565b905092915050565b6000610f008211614c9d5760149050614cd5565b611e008211614caf57600f9050614cd5565b6125808211614cc157600a9050614cd5565b612580821115614cd45760009050614cd5565b5b919050565b6000600160009054906101000a900473ffffffffffffffffffffffffffffffffffffffff1673ffffffffffffffffffffffffffffffffffffffff166370a08231306040518263ffffffff1660e01b8152600401808273ffffffffffffffffffffffffffffffffffffffff16815260200191505060206040518083038186803b158015614d6557600080fd5b505afa158015614d79573d6000803e3d6000fd5b505050506040513d6020811015614d8f57600080fd5b8101908080519060200190929190505050905080821115614e7e57600160009054906101000a900473ffffffffffffffffffffffffffffffffffffffff1673ffffffffffffffffffffffffffffffffffffffff1663a9059cbb84836040518363ffffffff1660e01b8152600401808373ffffffffffffffffffffffffffffffffffffffff16815260200182815260200192505050602060405180830381600087803b158015614e3d57600080fd5b505af1158015614e51573d6000803e3d6000fd5b505050506040513d6020811015614e6757600080fd5b810190808051906020019092919050505050614f4e565b600160009054906101000a900473ffffffffffffffffffffffffffffffffffffffff1673ffffffffffffffffffffffffffffffffffffffff1663a9059cbb84846040518363ffffffff1660e01b8152600401808373ffffffffffffffffffffffffffffffffffffffff16815260200182815260200192505050602060405180830381600087803b158015614f1157600080fd5b505af1158015614f25573d6000803e3d6000fd5b505050506040513d6020811015614f3b57600080fd5b8101908080519060200190929190505050505b505050565b614ff08363a9059cbb60e01b8484604051602401808373ffffffffffffffffffffffffffffffffffffffff16815260200182815260200192505050604051602081830303815290604052907bffffffffffffffffffffffffffffffffffffffffffffffffffffffff19166020820180517bffffffffffffffffffffffffffffffffffffffffffffffffffffffff8381831617835250505050615734565b505050565b600061258082106150095760329050615056565b611e00821061501b5760289050615056565b611680821061502d57601e9050615056565b610f00821061503f5760149050615056565b610780821061505157600a9050615056565b600090505b919050565b8173ffffffffffffffffffffffffffffffffffffffff1663095ea7b382856040518363ffffffff1660e01b8152600401808373ffffffffffffffffffffffffffffffffffffffff16815260200182815260200192505050602060405180830381600087803b1580156150cc57600080fd5b505af11580156150e0573d6000803e3d6000fd5b505050506040513d60208110156150f657600080fd5b8101908080519060200190929190505050508073ffffffffffffffffffffffffffffffffffffffff1663a694fc3a846040518263ffffffff1660e01b815260040180828152602001915050600060405180830381600087803b15801561515b57600080fd5b505af115801561516f573d6000803e3d6000fd5b50505050505050565b615233846323b872dd60e01b858585604051602401808473ffffffffffffffffffffffffffffffffffffffff1681526020018373ffffffffffffffffffffffffffffffffffffffff1681526020018281526020019350505050604051602081830303815290604052907bffffffffffffffffffffffffffffffffffffffffffffffffffffffff19166020820180517bffffffffffffffffffffffffffffffffffffffffffffffffffffffff8381831617835250505050615734565b50505050565b6000808411615293576040517f08c379a000000000000000000000000000000000000000000000000000000000815260040180806020018281038252602b815260200180615b21602b913960400191505060405180910390fd5b6000831180156152a35750600082115b6152f8576040517f08c379a0000000000000000000000000000000000000000000000000000000008152600401808060200182810382526028815260200180615aae6028913960400191505060405180910390fd5b600061530f6103e586614b6f90919063ffffffff16565b905060006153268483614b6f90919063ffffffff16565b90506000615351836153436103e889614b6f90919063ffffffff16565b61477890919063ffffffff16565b905080828161535c57fe5b0493505050509392505050565b6000808273ffffffffffffffffffffffffffffffffffffffff16630dfe16816040518163ffffffff1660e01b815260040160206040518083038186803b1580156153b257600080fd5b505afa1580156153c6573d6000803e3d6000fd5b505050506040513d60208110156153dc57600080fd5b810190808051906020019092919050505090506000808473ffffffffffffffffffffffffffffffffffffffff16630902f1ac6040518163ffffffff1660e01b815260040160606040518083038186803b15801561543857600080fd5b505afa15801561544c573d6000803e3d6000fd5b505050506040513d606081101561546257600080fd5b810190808051906020019092919080519060200190929190805190602001909291905050505091509150600073c02aaa39b223fe8d0a0e5c4f27ead9083c756cc273ffffffffffffffffffffffffffffffffffffffff168473ffffffffffffffffffffffffffffffffffffffff16141561550f576155086154e161476e565b846dffffffffffffffffffffffffffff16846dffffffffffffffffffffffffffff16615239565b9050615544565b61554161551a61476e565b836dffffffffffffffffffffffffffff16856dffffffffffffffffffffffffffff16615239565b90505b600061559e6002615590615568615559613909565b86614bf590919063ffffffff16565b61558261557361476e565b8d614bf590919063ffffffff16565b614b6f90919063ffffffff16565b614b6f90919063ffffffff16565b9050809550505050505092915050565b6000808311829061565a576040517f08c379a00000000000000000000000000000000000000000000000000000000081526004018080602001828103825283818151815260200191508051906020019080838360005b8381101561561f578082015181840152602081019050615604565b50505050905090810190601f16801561564c5780820380516001836020036101000a031916815260200191505b509250505060405180910390fd5b50600083858161566657fe5b049050809150509392505050565b6000838311158290615721576040517f08c379a00000000000000000000000000000000000000000000000000000000081526004018080602001828103825283818151815260200191508051906020019080838360005b838110156156e65780820151818401526020810190506156cb565b50505050905090810190601f1680156157135780820380516001836020036101000a031916815260200191505b509250505060405180910390fd5b5060008385039050809150509392505050565b6060615796826040518060400160405280602081526020017f5361666545524332303a206c6f772d6c6576656c2063616c6c206661696c65648152508573ffffffffffffffffffffffffffffffffffffffff166158239092919063ffffffff16565b905060008151111561581e578080602001905160208110156157b757600080fd5b810190808051906020019092919050505061581d576040517f08c379a000000000000000000000000000000000000000000000000000000000815260040180806020018281038252602a815260200180615af7602a913960400191505060405180910390fd5b5b505050565b6060615832848460008561583b565b90509392505050565b606061584685615a41565b6158b8576040517f08c379a000000000000000000000000000000000000000000000000000000000815260040180806020018281038252601d8152602001807f416464726573733a2063616c6c20746f206e6f6e2d636f6e747261637400000081525060200191505060405180910390fd5b600060608673ffffffffffffffffffffffffffffffffffffffff1685876040518082805190602001908083835b6020831061590857805182526020820191506020810190506020830392506158e5565b6001836020036101000a03801982511681845116808217855250505050505090500191505060006040518083038185875af1925050503d806000811461596a576040519150601f19603f3d011682016040523d82523d6000602084013e61596f565b606091505b50915091508115615984578092505050615a39565b6000815111156159975780518082602001fd5b836040517f08c379a00000000000000000000000000000000000000000000000000000000081526004018080602001828103825283818151815260200191508051906020019080838360005b838110156159fe5780820151818401526020810190506159e3565b50505050905090810190601f168015615a2b5780820380516001836020036101000a031916815260200191505b509250505060405180910390fd5b949350505050565b600080823b90506000811191505091905056fe4f776e61626c653a206e6577206f776e657220697320746865207a65726f2061646472657373416d6f756e74206d757374206265206c657373207468616e206f7220657175616c20746f20323030303020646f6c6c6172732e556e697377617056324c6962726172793a20494e53554646494349454e545f4c4951554944495459536166654d6174683a206d756c7469706c69636174696f6e206f766572666c6f775361666545524332303a204552433230206f7065726174696f6e20646964206e6f742073756363656564556e697377617056324c6962726172793a20494e53554646494349454e545f494e5055545f414d4f554e54a2646970667358221220b5fddffe7ba72ef685f867e6c6569eaf65657aacc71a08eac3231b07f495f5f264736f6c634300060c0033",
  "immutableReferences": {},
  "source": "pragma solidity ^0.6.0;\r\n\r\nimport \"../helper/SafeERC20.sol\";\r\nimport \"../helper/SafeMath.sol\";\r\nimport \"../helper/Ownable.sol\";\r\nimport \"./ChillToken.sol\";\r\nimport \"../uniswap/UniswapV2Library.sol\";\r\nimport \"../interfaces/IUniswapV2Pair.sol\";\r\nimport \"../interfaces/IUniStakingRewards.sol\";\r\n\r\n// eth-dai 0xBbB8eeA618861940FaDEf3071e79458d4c2B42e3\r\ncontract ChillFinance is Ownable {\r\n    \r\n    using SafeMath for uint256;\r\n    using SafeERC20 for IERC20;\r\n\r\n    struct UserInfo {\r\n        uint256 amount;\r\n        uint256 rewardDebt;\r\n        uint256 startedBlock;\r\n    }\r\n    \r\n    struct PoolInfo {\r\n        IERC20 lpToken;           \r\n        uint256 allocPoint;       \r\n        uint256 lastRewardBlock;  \r\n        uint256 accChillPerShare;\r\n        uint256 totalPoolBalance;\r\n    }\r\n\r\n    ChillToken public chill;\r\n    address public devaddr;\r\n    PoolInfo[] public poolInfo;\r\n    uint256 public bonusEndBlock;\r\n    uint256 public constant BONUS_MULTIPLIER = 10;\r\n    uint256 public totalAllocPoint = 0;\r\n    uint256 public startBlockOfChill;\r\n    mapping (uint256 => mapping (address => UserInfo)) public userInfo;\r\n    mapping (address => bool) public stakingUniPools;\r\n    mapping (address => address) public uniRewardAddresses;\r\n    mapping (uint256 => bool) public isCheckInitialPeriod;\r\n    mapping (address => bool) private distributors;\r\n\r\n    address stablePair;    \r\n    uint256 initialPeriod;\r\n    uint256[] public blockPerPhase;\r\n    uint256 private ethDivider;\r\n    uint256 private stableDivider;\r\n\r\n    uint256 public phase1time;\r\n    uint256 public phase2time;\r\n    uint256 public phase3time;\r\n    uint256 public phase4time;\r\n    uint256 public phase5time;\r\n\r\n    event Deposit(address indexed user, uint256 indexed pid, uint256 amount);\r\n    event Withdraw(address indexed user, uint256 indexed pid, uint256 amount);\r\n    event EmergencyWithdraw(address indexed user, uint256 indexed pid, uint256 amount);\r\n\r\n    modifier isDistributor(address _isDistributor) {\r\n        require(distributors[_isDistributor]);\r\n        _;\r\n    }\r\n\r\n    constructor(\r\n        ChillToken _chill,\r\n        address _devaddr,\r\n        address _stablePair\r\n    ) public {\r\n        chill = _chill;\r\n        devaddr = _devaddr;\r\n        stablePair = _stablePair;\r\n        \r\n        startBlockOfChill = block.number.add(0);\r\n        bonusEndBlock = block.number.add(0);\r\n        initialPeriod = block.number.add(28800); // 5 days (5*24*60*60)/15\r\n        \r\n        blockPerPhase.push(75e18);\r\n        blockPerPhase.push(100e18);\r\n        blockPerPhase.push(50e18);\r\n        blockPerPhase.push(25e18);\r\n        blockPerPhase.push(0);\r\n\r\n        phase1time = block.number.add(80640); // 14 days (14*24*60*60)/15\r\n        phase2time = block.number.add(253440); // 44 - 14 = 30 days (44*24*60*60)/15 \r\n        phase3time = block.number.add(426240); // 74 - 44 = 30 days (74*24*60*60)/15\r\n        phase4time = block.number.add(771840); // 134 - 74 = 60 days (134*24*60*60)/15\r\n        phase5time = block.number.add(0); // 134 - 74 = 60 days (134*24*60*60)/15\r\n\r\n        stableDivider = 1e6;\r\n        ethDivider = 1e18;\r\n    }\r\n\r\n    function poolLength() external view returns (uint256) {\r\n        return poolInfo.length;\r\n    }\r\n\r\n    // Add Function to give support new uniswap lp pool by only owner\r\n    // for allocpoint will be 100 and if you want to generate more chill for specific pool then you need to increase allocpoint\r\n    // like for, 1x=>100, 2x=>200, 3x=>300 etc.\r\n    function add(uint256 _allocPoint, IERC20 _lpToken, bool _withUpdate) public onlyOwner {\r\n        if (_withUpdate) {\r\n            massUpdatePools();\r\n        }\r\n        uint256 lastRewardBlock = block.number > startBlockOfChill ? block.number : startBlockOfChill;\r\n        totalAllocPoint = totalAllocPoint.add(_allocPoint);\r\n        poolInfo.push(PoolInfo({\r\n            lpToken: _lpToken,\r\n            allocPoint: _allocPoint,\r\n            lastRewardBlock: lastRewardBlock,\r\n            accChillPerShare: 0,\r\n            totalPoolBalance: 0\r\n        }));\r\n    }\r\n    \r\n    // increase alloc point for specific pool\r\n    function set(uint256 _pid, uint256 _allocPoint, bool _withUpdate) public onlyOwner {\r\n        if (_withUpdate) {\r\n            massUpdatePools();\r\n        }\r\n        totalAllocPoint = totalAllocPoint.sub(poolInfo[_pid].allocPoint).add(_allocPoint);\r\n        poolInfo[_pid].allocPoint = _allocPoint;\r\n    }\r\n    \r\n    function massUpdatePools() public {\r\n        uint256 length = poolInfo.length;\r\n        for (uint256 pid = 0; pid < length; ++pid) {\r\n            updatePool(pid);\r\n        }\r\n    }\r\n    \r\n    // user can deposit lp for specific pool\r\n    function deposit(uint256 _pid, uint256 _amount) public {\r\n        PoolInfo storage pool = poolInfo[_pid];\r\n        UserInfo storage user = userInfo[_pid][msg.sender];\r\n\r\n        if (isCheckInitialPeriod[_pid]) {\r\n            if (block.number <= initialPeriod) {\r\n                require(countStakeAmount(address(pool.lpToken), getStablePairAddress(), _amount) <= 20000, \"Amount must be less than or equal to 20000 dollars.\");\r\n            } else {\r\n                isCheckInitialPeriod[_pid] = false;\r\n            }\r\n        }\r\n        \r\n        if (user.startedBlock <= 0) {\r\n            user.startedBlock = block.number;\r\n        }\r\n        \r\n        updatePool(_pid);\r\n        if (user.amount > 0) {\r\n            uint256 pending = user.amount.mul(pool.accChillPerShare).div(1e12).sub(user.rewardDebt);\r\n            uint256 extraReward = getExtraReward(_pid);\r\n            pending = pending.add(extraReward);\r\n            safeChillTransfer(msg.sender, pending);\r\n        }\r\n\r\n        pool.lpToken.safeTransferFrom(address(msg.sender), address(this), _amount);\r\n        pool.totalPoolBalance = pool.totalPoolBalance.add(_amount);\r\n        user.amount = user.amount.add(_amount);\r\n        user.rewardDebt = user.amount.mul(pool.accChillPerShare).div(1e12);\r\n        user.startedBlock = block.number;\r\n\r\n        if (stakingUniPools[address(pool.lpToken)] && _amount > 0) {\r\n            stakeInUni(_amount, address(pool.lpToken), uniRewardAddresses[address(pool.lpToken)]);\r\n        }\r\n        emit Deposit(msg.sender, _pid, _amount);\r\n    }\r\n    \r\n    // it will be call if spicific pool uniswap uni pool supported in chill finance\r\n    // and if you want to support uniswap pool then you need to add in addStakeUniPool\r\n    function stakeInUni(uint256 amount, address v2address, address _stakeAddress) private {\r\n        IERC20(v2address).approve(address(_stakeAddress), amount);\r\n        IUniStakingRewards(_stakeAddress).stake(amount);\r\n    }\r\n\r\n    // user can withdraw their lp token from specific pool \r\n    function withdraw(uint256 _pid, uint256 _amount) public {\r\n        PoolInfo storage pool = poolInfo[_pid];\r\n        UserInfo storage user = userInfo[_pid][msg.sender];\r\n        require(user.amount >= _amount, \"withdraw is not valid\");\r\n        \r\n        if (user.startedBlock <= 0) {\r\n            user.startedBlock = block.number;\r\n        }\r\n        \r\n        if (stakingUniPools[address(pool.lpToken)]  && _amount > 0) {\r\n            withdrawUni(address(pool.lpToken), uniRewardAddresses[address(pool.lpToken)], _amount);\r\n        }\r\n\r\n        updatePool(_pid);\r\n        uint256 pending = user.amount.mul(pool.accChillPerShare).div(1e12).sub(user.rewardDebt);\r\n        uint256 tax = deductTaxByBlock(getCrossMultiplier(user.startedBlock, block.number));\r\n        uint256 pendingtax = pending.mul(tax).div(100);\r\n        uint256 extraReward = getExtraReward(_pid);\r\n        pending = pending.add(extraReward).sub(pendingtax.div(2));\r\n        safeChillTransfer(msg.sender, pending);\r\n\r\n        if (pendingtax > 0) {\r\n            chill.mint(devaddr, pendingtax.div(2));\r\n            if (chill.balanceOf(address(this)) >= pendingtax.div(2)) {\r\n                chill.burn(address(this), pendingtax.div(2));\r\n            }\r\n            chill.burn(msg.sender, pendingtax.div(2));\r\n        }\r\n\r\n        user.amount = user.amount.sub(_amount);\r\n        user.rewardDebt = user.amount.mul(pool.accChillPerShare).div(1e12);\r\n        user.startedBlock = block.number;\r\n        pool.totalPoolBalance = pool.totalPoolBalance.sub(_amount);\r\n        pool.lpToken.safeTransfer(address(msg.sender), _amount);\r\n        emit Withdraw(msg.sender, _pid, _amount);\r\n    }\r\n    \r\n    function withdrawUni(address v2address, address _stakeAddress, uint256 _amount) private {\r\n        IUniStakingRewards(_stakeAddress).withdraw(_amount);\r\n    }\r\n    \r\n    // Reward will genrate in update pool function and call will be happen internally by deposit and withdraw function\r\n    function updatePool(uint256 _pid) public {\r\n        PoolInfo storage pool = poolInfo[_pid];\r\n        UserInfo storage user = userInfo[_pid][msg.sender];\r\n\r\n        if (block.number <= pool.lastRewardBlock) {\r\n            return;\r\n        }\r\n\r\n        if (pool.totalPoolBalance == 0) {\r\n            pool.lastRewardBlock = block.number;\r\n            return;\r\n        }\r\n        \r\n        uint256 chillReward;\r\n        uint256 multiplier = getMultiplier(pool.lastRewardBlock, block.number);\r\n        if (block.number <= phase1time) {\r\n            chillReward = multiplier.mul(blockPerPhase[0]).mul(pool.allocPoint).div(totalAllocPoint);\r\n        } else if (block.number <= phase2time) {\r\n            chillReward = multiplier.mul(blockPerPhase[1]).mul(pool.allocPoint).div(totalAllocPoint);\r\n        } else if (block.number <= phase3time) {\r\n            chillReward = multiplier.mul(blockPerPhase[2]).mul(pool.allocPoint).div(totalAllocPoint);\r\n        } else if (block.number <= phase4time) {\r\n            chillReward = multiplier.mul(blockPerPhase[3]).mul(pool.allocPoint).div(totalAllocPoint);\r\n        } else {\r\n            chillReward = multiplier.mul(blockPerPhase[4]).mul(pool.allocPoint).div(totalAllocPoint);\r\n        }\r\n        \r\n        if (chillReward > 0) {\r\n            chill.mint(devaddr, chillReward.div(10));\r\n            chill.mint(address(this), chillReward);\r\n        }\r\n        pool.accChillPerShare = pool.accChillPerShare.add(chillReward.mul(1e12).div(pool.totalPoolBalance));\r\n        pool.lastRewardBlock = block.number;\r\n    }\r\n    \r\n    // GetExtraReward will calculate extra reward if you pass certain hours with your deposit token\r\n    // then you will get extra chill token\r\n    function getExtraReward(uint256 _pid) public returns(uint256) {\r\n        PoolInfo storage pool = poolInfo[_pid];\r\n        UserInfo storage user = userInfo[_pid][msg.sender];\r\n        if (pool.totalPoolBalance == 0) {\r\n            return 0;\r\n        }\r\n        \r\n        uint256 multiplier;\r\n        uint256 chillReward;\r\n        multiplier = getExtraMultiplier(user.startedBlock, block.number);\r\n        if (block.number <= phase1time) {\r\n            chillReward = multiplier.mul(blockPerPhase[0]).mul(pool.allocPoint).div(totalAllocPoint);\r\n        } else if (block.number <= phase2time) {\r\n            chillReward = multiplier.mul(blockPerPhase[1]).mul(pool.allocPoint).div(totalAllocPoint);\r\n        } else if (block.number <= phase3time) {\r\n            chillReward = multiplier.mul(blockPerPhase[2]).mul(pool.allocPoint).div(totalAllocPoint);\r\n        } else if (block.number <= phase4time) {\r\n            chillReward = multiplier.mul(blockPerPhase[3]).mul(pool.allocPoint).div(totalAllocPoint);\r\n        } else {\r\n            chillReward = multiplier.mul(blockPerPhase[4]).mul(pool.allocPoint).div(totalAllocPoint);\r\n        }\r\n        \r\n        if (chillReward > 0) {\r\n            chill.mint(address(this), chillReward);\r\n        }\r\n        return chillReward;\r\n    }\r\n    \r\n    // For user interface to claimable token\r\n    function pendingChill(uint256 _pid, address _user) external view returns (uint256) {\r\n        PoolInfo storage pool = poolInfo[_pid];\r\n        UserInfo storage user = userInfo[_pid][_user];\r\n        uint256 accChillPerShare = pool.accChillPerShare;\r\n        if (pool.totalPoolBalance != 0) {\r\n            uint256 extraMultiplier;\r\n            uint256 chillReward;\r\n            uint256 multiplier = getMultiplier(pool.lastRewardBlock, block.number);\r\n            extraMultiplier = getExtraMultiplier(user.startedBlock, block.number);\r\n            multiplier = multiplier.add(extraMultiplier);\r\n            if (block.number <= phase1time) {\r\n                chillReward = multiplier.mul(blockPerPhase[0]).mul(pool.allocPoint).div(totalAllocPoint);\r\n            } else if (block.number <= phase2time) {\r\n                chillReward = multiplier.mul(blockPerPhase[1]).mul(pool.allocPoint).div(totalAllocPoint);\r\n            } else if (block.number <= phase3time) {\r\n                chillReward = multiplier.mul(blockPerPhase[2]).mul(pool.allocPoint).div(totalAllocPoint);\r\n            } else if (block.number <= phase4time) {\r\n                chillReward = multiplier.mul(blockPerPhase[3]).mul(pool.allocPoint).div(totalAllocPoint);\r\n            } else {\r\n                chillReward = multiplier.mul(blockPerPhase[4]).mul(pool.allocPoint).div(totalAllocPoint);\r\n            }\r\n            uint256 tax = deductTaxByBlock(getCrossMultiplier(user.startedBlock, block.number));\r\n            uint256 pendingtax = chillReward.mul(tax).div(100);\r\n            chillReward = chillReward.sub(pendingtax);\r\n            accChillPerShare = accChillPerShare.add(chillReward.mul(1e12).div(pool.totalPoolBalance));\r\n        }\r\n        return user.amount.mul(accChillPerShare).div(1e12).sub(user.rewardDebt);\r\n    }\r\n\r\n    // Return reward multiplier over the given _from to _to block.\r\n    function getMultiplier(uint256 _from, uint256 _to) public view returns (uint256) {\r\n        if (_to <= bonusEndBlock) {\r\n            return _to.sub(_from).mul(BONUS_MULTIPLIER);\r\n        } else if (_from >= bonusEndBlock) {\r\n            return _to.sub(_from);\r\n        } else {\r\n            return bonusEndBlock.sub(_from).mul(BONUS_MULTIPLIER).add(\r\n                _to.sub(bonusEndBlock)\r\n            );\r\n        }\r\n    }\r\n\r\n    // Return reward multiplier over the given _from to _to block.\r\n    function getCrossMultiplier(uint256 _from, uint256 currentblock) public view returns (uint256) {\r\n        uint256 multiplier;\r\n        if (currentblock > _from) {\r\n            multiplier = currentblock.sub(_from);\r\n        } else {\r\n            multiplier = _from.sub(currentblock);\r\n        }\r\n        return multiplier;\r\n    }\r\n    \r\n    // Return extra reward multiplier over the given _from to _to block.\r\n    function getExtraMultiplier(uint256 _from, uint256 currentblock) public view returns (uint256) {\r\n        uint256 multiplier = getCrossMultiplier(_from, currentblock);\r\n        uint256 extraMultiplier = multiplier.mul(getTotalBlocksCovered(multiplier)).div(100);\r\n        return extraMultiplier;\r\n    }\r\n    \r\n    // get if nirvana\r\n    function getNirvanaStatus(uint256 _from) public view returns (uint256) {\r\n        uint256 multiplier = getCrossMultiplier(_from, block.number);\r\n        uint256 isNirvana = getTotalBlocksCovered(multiplier);\r\n        return isNirvana;\r\n    }\r\n    \r\n    // Set extra reward after each 8 hours(1920 block)\r\n    function getTotalBlocksCovered(uint256 _block) internal pure returns(uint256) {\r\n        if (_block >= 9600) {\r\n            return 50;\r\n        } else if (_block >= 7680) {\r\n            return 40;\r\n        } else if (_block >= 5760) {\r\n            return 30;\r\n        } else if (_block >= 3840) {\r\n            return 20;\r\n        } else if (_block >= 1920) {\r\n            return 10;\r\n        } else {\r\n            return 0;\r\n        }\r\n    }\r\n    \r\n    // Deduct tax if user withdraw before nirvana at different stage\r\n    function deductTaxByBlock(uint256 _block) internal pure returns(uint256) {\r\n        if (_block <= 3840) {\r\n            return 20;\r\n        } else if (_block <= 7680) {\r\n            return 15;\r\n        } else if (_block <= 9600) {\r\n            return 10;\r\n        } else if (_block > 9600) {\r\n            return 0;\r\n        }\r\n    }\r\n    \r\n    // Check if amount of lp tokens is less than $20000\r\n    function countStakeAmount(address _countPair, address _stablePair, uint256 _liquiditybalance) public view returns(uint256) {\r\n        return countEthAmount(_countPair, _stablePair, _liquiditybalance);\r\n    }\r\n    \r\n    function countEthAmount(address _countPair, address _stablePair, uint256 _liquiditybalance) internal view returns(uint256) {\r\n        address countToken0 = IUniswapV2Pair(_countPair).token0();\r\n        (uint112 countReserves0, uint112 countReserves1, ) = IUniswapV2Pair(_countPair).getReserves();\r\n        uint256 countTotalSupply = IERC20(_countPair).totalSupply();\r\n        uint256 ethAmount;\r\n        uint256 tokenbalance;\r\n\r\n        if(countTotalSupply > 0) {\r\n            if(countToken0 != 0xC02aaA39b223FE8D0A0e5C4F27eAD9083C756Cc2) {\r\n                tokenbalance = _liquiditybalance.mul(countReserves0).div(countTotalSupply);\r\n                ethAmount = UniswapV2Library.getAmountOut(tokenbalance, countReserves0, countReserves1);\r\n            } else {\r\n                tokenbalance = _liquiditybalance.mul(countReserves1).div(countTotalSupply);\r\n                ethAmount = UniswapV2Library.getAmountOut(tokenbalance, countReserves1, countReserves0);\r\n            }\r\n        }\r\n        else {\r\n            return 0;\r\n        }\r\n        return countUsdtAmount(ethAmount, _stablePair);\r\n    }\r\n\r\n    function countUsdtAmount(uint256 ethAmount, address _stablePair) internal view returns(uint256) {\r\n        address usdttoken0 = IUniswapV2Pair(_stablePair).token0();\r\n        (uint112 stableReserves0, uint112 stableReserves1, ) = IUniswapV2Pair(_stablePair).getReserves();\r\n\r\n        uint256 stableOutAmount;\r\n        if (usdttoken0 == 0xC02aaA39b223FE8D0A0e5C4F27eAD9083C756Cc2) { // WETH Mainnet\r\n            stableOutAmount = UniswapV2Library.getAmountOut(getEthDivider(), stableReserves0, stableReserves1);\r\n        } else {\r\n            stableOutAmount = UniswapV2Library.getAmountOut(getEthDivider(), stableReserves1, stableReserves0);\r\n        }\r\n        uint256 totalAmount = ((ethAmount.div(getEthDivider())).mul(stableOutAmount.div(getStableDivider()))).mul(2);\r\n        return totalAmount;\r\n    }\r\n    \r\n    // Safe chill transfer function, just in case if rounding error causes pool to not have enough CHILLs.\r\n    function safeChillTransfer(address _to, uint256 _amount) internal {\r\n        uint256 chillBal = chill.balanceOf(address(this));\r\n        if (_amount > chillBal) {\r\n            chill.transfer(_to, chillBal);\r\n        } else {\r\n            chill.transfer(_to, _amount);\r\n        }\r\n    }\r\n    \r\n    // if specific lp pool is supported in uniswap uni pool the deposited lp token in chill finance will again deposit in uni pool and earn double reward in uni token\r\n    // and owner can withdraw extra reward from uni pool\r\n    function getUniReward(address _stakeAddress) public onlyOwner {\r\n        IUniStakingRewards(_stakeAddress).getReward();\r\n    }\r\n    \r\n    // extra uni reward only access by distributor\r\n    // distributor can be single user or any other contracts as well \r\n    function accessReward(address _uniAddress, address _to, uint256 _amount) public isDistributor(msg.sender) {\r\n        require(_amount <= IERC20(_uniAddress).balanceOf(address(this)), \"Not Enough Uni Token Balance\");\r\n        require(_to != address(0), \"Not Vaild Address\");\r\n        IERC20(_uniAddress).safeTransfer(_to, _amount);\r\n    }\r\n    \r\n    // withdraw extra uni reward and lp token as well from uni pool\r\n    function getUniRewardAndExit(address _stakeAddress) public onlyOwner {\r\n        IUniStakingRewards(_stakeAddress).exit();\r\n    }\r\n    \r\n    // to give support to specific pool to deposit again in uni pool to generate extra reward in uni token \r\n    function addStakeUniPool(address _uniV2Pool, address _stakingRewardAddress) public onlyOwner {\r\n        require(!stakingUniPools[_uniV2Pool], \"This pool is already exist.\");\r\n        uint256 _amount = IERC20(_uniV2Pool).balanceOf(address(this));\r\n        if(_amount > 0) {\r\n            stakeInUni(_amount, address(_uniV2Pool), address(_stakingRewardAddress));\r\n        }\r\n        stakingUniPools[_uniV2Pool] = true;\r\n        uniRewardAddresses[_uniV2Pool] = _stakingRewardAddress;\r\n    }\r\n\r\n    // to remove support of uni pool for specific pool\r\n    function removeStakeUniPool(address _uniV2Pool) public onlyOwner {\r\n        require(stakingUniPools[_uniV2Pool], \"This pool is not exist.\");\r\n        uint256 _amount = IUniStakingRewards(uniRewardAddresses[address(_uniV2Pool)]).balanceOf(address(this));\r\n        if (_amount > 0) {\r\n            IUniStakingRewards(uniRewardAddresses[address(_uniV2Pool)]).withdraw(_amount);\r\n        }\r\n        stakingUniPools[_uniV2Pool] = false;\r\n        uniRewardAddresses[_uniV2Pool] = address(0);\r\n    }\r\n    \r\n    // dev adderess can only change by dev\r\n    function dev(address _devaddr) public {\r\n        require(msg.sender == devaddr, \"dev adddress is not valid\");\r\n        devaddr = _devaddr;\r\n    }\r\n\r\n    // to set flag for count $20000 worth asset for specific pool\r\n    function setCheckInitialPeriod(uint256 _pid, bool _isCheck) public onlyOwner {\r\n        isCheckInitialPeriod[_pid] = _isCheck;\r\n    }\r\n\r\n    // to set flag for count $20000 worth asset for all pool\r\n    function setCheckInitialPeriodAllPool(bool _isCheck) public onlyOwner {\r\n        uint256 length = poolInfo.length;\r\n        for (uint256 pid = 0; pid < length; ++pid) {\r\n            isCheckInitialPeriod[pid] = _isCheck;\r\n        }\r\n    }\r\n\r\n    // to get flag is enabled for to check is asset is worth of $20000\r\n    function getCheckInitialPeriod(uint256 _pid) public view returns(bool) {\r\n        return isCheckInitialPeriod[_pid];\r\n    }\r\n\r\n    // to set any stable reference address to caluclate $20000\r\n    // usdt pair has 6 decimals so divider will be 1000000 or 1e6 \r\n    function setStablePairAddress(address _stablePair, uint256 _stableDivider) public onlyOwner {\r\n        stablePair = _stablePair;\r\n        stableDivider = _stableDivider;\r\n    }\r\n\r\n    // to get stable pair\r\n    function getStablePairAddress() public view returns(address) {\r\n        return stablePair;\r\n    }\r\n\r\n    // to get stable devider\r\n    function getStableDivider() public view returns(uint256) {\r\n        return stableDivider;\r\n    }\r\n    \r\n    // to set stable eth divider like 1e18\r\n    function setEthDivider(uint256 _ethDivider) public onlyOwner {\r\n        ethDivider = _ethDivider;\r\n    }\r\n\r\n    // to get stable eth divider \r\n    function getEthDivider() public view returns(uint256) {\r\n        return ethDivider;\r\n    }\r\n\r\n    // set chill per block for particular phase\r\n    function setBlockPerPhaseByIndex(uint256 _index, uint256 _chillPerBlock) public onlyOwner {\r\n        blockPerPhase[_index] = _chillPerBlock;\r\n    }\r\n\r\n    // get chill per block for particular phase\r\n    function getBlockPerPhaseByIndex(uint256 _index) public view returns(uint256) {\r\n        return blockPerPhase[_index];\r\n    }\r\n\r\n    // increase any phase time by its index\r\n    function setAndEditPhaseTime(uint256 _index, uint256 _time) public onlyOwner {\r\n        if(_index == 0) {\r\n            phase1time = phase1time.add(_time);\r\n        } else if(_index == 1) {\r\n            phase2time = phase2time.add(_time);\r\n        } else if(_index == 2) {\r\n            phase3time = phase3time.add(_time);\r\n        } else if(_index == 3) {\r\n            phase4time = phase4time.add(_time);\r\n        } else if(_index == 4) {\r\n            phase5time = phase5time.add(_time);\r\n        }\r\n    }\r\n\r\n    // get current phase with its chill per block\r\n    function getPhaseTimeAndBlocks() public view returns(uint256, uint256) {\r\n        if (block.number <= phase1time) {\r\n            return ( phase1time, blockPerPhase[0] );\r\n        } else if (block.number <= phase2time) {\r\n            return ( phase2time, blockPerPhase[1] );\r\n        } else if (block.number <= phase3time) {\r\n            return ( phase3time, blockPerPhase[2] );\r\n        } else if (block.number <= phase4time) {\r\n            return ( phase4time, blockPerPhase[3] );\r\n        } else {\r\n            return ( phase5time, blockPerPhase[4] );\r\n        }\r\n    }\r\n\r\n    // to set reward distibutor for extra uni token\r\n    function setRewardDistributor(address _distributor, bool _isdistributor) public onlyOwner {\r\n        distributors[_distributor] = _isdistributor;\r\n    }\r\n}",
  "sourcePath": "C:/AComputer/freelancer/formefreelance/chillfinance/chill_backend/contracts/chill/ChillFinance.sol",
  "compiler": {
    "name": "solc",
    "version": "0.6.12+commit.27d51765.Emscripten.clang"
  },
  "schemaVersion": "3.3.1",
  "updatedAt": "2020-10-30T14:24:06.748Z",
  "networkType": "ethereum",
  "devdoc": {
    "kind": "dev",
    "methods": {
      "owner()": {
        "details": "Returns the address of the current owner."
      },
      "renounceOwnership()": {
        "details": "Leaves the contract without owner. It will not be possible to call `onlyOwner` functions anymore. Can only be called by the current owner. NOTE: Renouncing ownership will leave the contract without an owner, thereby removing any functionality that is only available to the owner."
      },
      "transferOwnership(address)": {
        "details": "Transfers ownership of the contract to a new account (`newOwner`). Can only be called by the current owner."
      }
    },
    "version": 1
  },
  "userdoc": {
    "kind": "user",
    "methods": {},
    "version": 1
  }
}