{
  "contractName": "ChillFinance",
  "abi": [
    {
      "inputs": [
        {
          "internalType": "contract ChillToken",
          "name": "_chill",
          "type": "address"
        },
        {
          "internalType": "address",
          "name": "_devaddr",
          "type": "address"
        },
        {
          "internalType": "address",
          "name": "_stablePair",
          "type": "address"
        }
      ],
      "stateMutability": "nonpayable",
      "type": "constructor"
    },
    {
      "anonymous": false,
      "inputs": [
        {
          "indexed": true,
          "internalType": "address",
          "name": "user",
          "type": "address"
        },
        {
          "indexed": true,
          "internalType": "uint256",
          "name": "pid",
          "type": "uint256"
        },
        {
          "indexed": false,
          "internalType": "uint256",
          "name": "amount",
          "type": "uint256"
        }
      ],
      "name": "Deposit",
      "type": "event"
    },
    {
      "anonymous": false,
      "inputs": [
        {
          "indexed": true,
          "internalType": "address",
          "name": "user",
          "type": "address"
        },
        {
          "indexed": true,
          "internalType": "uint256",
          "name": "pid",
          "type": "uint256"
        },
        {
          "indexed": false,
          "internalType": "uint256",
          "name": "amount",
          "type": "uint256"
        }
      ],
      "name": "EmergencyWithdraw",
      "type": "event"
    },
    {
      "anonymous": false,
      "inputs": [
        {
          "indexed": true,
          "internalType": "address",
          "name": "previousOwner",
          "type": "address"
        },
        {
          "indexed": true,
          "internalType": "address",
          "name": "newOwner",
          "type": "address"
        }
      ],
      "name": "OwnershipTransferred",
      "type": "event"
    },
    {
      "anonymous": false,
      "inputs": [
        {
          "indexed": true,
          "internalType": "address",
          "name": "user",
          "type": "address"
        },
        {
          "indexed": true,
          "internalType": "uint256",
          "name": "pid",
          "type": "uint256"
        },
        {
          "indexed": false,
          "internalType": "uint256",
          "name": "amount",
          "type": "uint256"
        }
      ],
      "name": "Withdraw",
      "type": "event"
    },
    {
      "inputs": [],
      "name": "BONUS_MULTIPLIER",
      "outputs": [
        {
          "internalType": "uint256",
          "name": "",
          "type": "uint256"
        }
      ],
      "stateMutability": "view",
      "type": "function",
      "constant": true
    },
    {
      "inputs": [
        {
          "internalType": "uint256",
          "name": "",
          "type": "uint256"
        }
      ],
      "name": "blockPerPhase",
      "outputs": [
        {
          "internalType": "uint256",
          "name": "",
          "type": "uint256"
        }
      ],
      "stateMutability": "view",
      "type": "function",
      "constant": true
    },
    {
      "inputs": [],
      "name": "bonusEndBlock",
      "outputs": [
        {
          "internalType": "uint256",
          "name": "",
          "type": "uint256"
        }
      ],
      "stateMutability": "view",
      "type": "function",
      "constant": true
    },
    {
      "inputs": [],
      "name": "chill",
      "outputs": [
        {
          "internalType": "contract ChillToken",
          "name": "",
          "type": "address"
        }
      ],
      "stateMutability": "view",
      "type": "function",
      "constant": true
    },
    {
      "inputs": [],
      "name": "devaddr",
      "outputs": [
        {
          "internalType": "address",
          "name": "",
          "type": "address"
        }
      ],
      "stateMutability": "view",
      "type": "function",
      "constant": true
    },
    {
      "inputs": [
        {
          "internalType": "uint256",
          "name": "",
          "type": "uint256"
        }
      ],
      "name": "isCheckInitialPeriod",
      "outputs": [
        {
          "internalType": "bool",
          "name": "",
          "type": "bool"
        }
      ],
      "stateMutability": "view",
      "type": "function",
      "constant": true
    },
    {
      "inputs": [
        {
          "internalType": "uint256",
          "name": "",
          "type": "uint256"
        },
        {
          "internalType": "address",
          "name": "",
          "type": "address"
        }
      ],
      "name": "isUserExist",
      "outputs": [
        {
          "internalType": "bool",
          "name": "",
          "type": "bool"
        }
      ],
      "stateMutability": "view",
      "type": "function",
      "constant": true
    },
    {
      "inputs": [],
      "name": "owner",
      "outputs": [
        {
          "internalType": "address",
          "name": "",
          "type": "address"
        }
      ],
      "stateMutability": "view",
      "type": "function",
      "constant": true
    },
    {
      "inputs": [],
      "name": "phase1time",
      "outputs": [
        {
          "internalType": "uint256",
          "name": "",
          "type": "uint256"
        }
      ],
      "stateMutability": "view",
      "type": "function",
      "constant": true
    },
    {
      "inputs": [],
      "name": "phase2time",
      "outputs": [
        {
          "internalType": "uint256",
          "name": "",
          "type": "uint256"
        }
      ],
      "stateMutability": "view",
      "type": "function",
      "constant": true
    },
    {
      "inputs": [],
      "name": "phase3time",
      "outputs": [
        {
          "internalType": "uint256",
          "name": "",
          "type": "uint256"
        }
      ],
      "stateMutability": "view",
      "type": "function",
      "constant": true
    },
    {
      "inputs": [],
      "name": "phase4time",
      "outputs": [
        {
          "internalType": "uint256",
          "name": "",
          "type": "uint256"
        }
      ],
      "stateMutability": "view",
      "type": "function",
      "constant": true
    },
    {
      "inputs": [],
      "name": "phase5time",
      "outputs": [
        {
          "internalType": "uint256",
          "name": "",
          "type": "uint256"
        }
      ],
      "stateMutability": "view",
      "type": "function",
      "constant": true
    },
    {
      "inputs": [
        {
          "internalType": "uint256",
          "name": "",
          "type": "uint256"
        }
      ],
      "name": "poolInfo",
      "outputs": [
        {
          "internalType": "contract IERC20",
          "name": "lpToken",
          "type": "address"
        },
        {
          "internalType": "uint256",
          "name": "allocPoint",
          "type": "uint256"
        },
        {
          "internalType": "uint256",
          "name": "lastRewardBlock",
          "type": "uint256"
        },
        {
          "internalType": "uint256",
          "name": "accChillPerShare",
          "type": "uint256"
        },
        {
          "internalType": "uint256",
          "name": "totalPoolBalance",
          "type": "uint256"
        }
      ],
      "stateMutability": "view",
      "type": "function",
      "constant": true
    },
    {
      "inputs": [
        {
          "internalType": "uint256",
          "name": "",
          "type": "uint256"
        },
        {
          "internalType": "uint256",
          "name": "",
          "type": "uint256"
        }
      ],
      "name": "poolUsers",
      "outputs": [
        {
          "internalType": "address",
          "name": "",
          "type": "address"
        }
      ],
      "stateMutability": "view",
      "type": "function",
      "constant": true
    },
    {
      "inputs": [],
      "name": "renounceOwnership",
      "outputs": [],
      "stateMutability": "nonpayable",
      "type": "function"
    },
    {
      "inputs": [
        {
          "internalType": "address",
          "name": "",
          "type": "address"
        }
      ],
      "name": "stakingUniPools",
      "outputs": [
        {
          "internalType": "bool",
          "name": "",
          "type": "bool"
        }
      ],
      "stateMutability": "view",
      "type": "function",
      "constant": true
    },
    {
      "inputs": [],
      "name": "startBlockOfChill",
      "outputs": [
        {
          "internalType": "uint256",
          "name": "",
          "type": "uint256"
        }
      ],
      "stateMutability": "view",
      "type": "function",
      "constant": true
    },
    {
      "inputs": [],
      "name": "totalAllocPoint",
      "outputs": [
        {
          "internalType": "uint256",
          "name": "",
          "type": "uint256"
        }
      ],
      "stateMutability": "view",
      "type": "function",
      "constant": true
    },
    {
      "inputs": [
        {
          "internalType": "address",
          "name": "newOwner",
          "type": "address"
        }
      ],
      "name": "transferOwnership",
      "outputs": [],
      "stateMutability": "nonpayable",
      "type": "function"
    },
    {
      "inputs": [
        {
          "internalType": "address",
          "name": "",
          "type": "address"
        }
      ],
      "name": "uniRewardAddresses",
      "outputs": [
        {
          "internalType": "address",
          "name": "",
          "type": "address"
        }
      ],
      "stateMutability": "view",
      "type": "function",
      "constant": true
    },
    {
      "inputs": [
        {
          "internalType": "uint256",
          "name": "",
          "type": "uint256"
        },
        {
          "internalType": "address",
          "name": "",
          "type": "address"
        }
      ],
      "name": "userInfo",
      "outputs": [
        {
          "internalType": "uint256",
          "name": "amount",
          "type": "uint256"
        },
        {
          "internalType": "uint256",
          "name": "rewardDebt",
          "type": "uint256"
        },
        {
          "internalType": "uint256",
          "name": "startedBlock",
          "type": "uint256"
        }
      ],
      "stateMutability": "view",
      "type": "function",
      "constant": true
    },
    {
      "inputs": [],
      "name": "poolLength",
      "outputs": [
        {
          "internalType": "uint256",
          "name": "",
          "type": "uint256"
        }
      ],
      "stateMutability": "view",
      "type": "function",
      "constant": true
    },
    {
      "inputs": [
        {
          "internalType": "uint256",
          "name": "_pid",
          "type": "uint256"
        }
      ],
      "name": "userPoollength",
      "outputs": [
        {
          "internalType": "uint256",
          "name": "",
          "type": "uint256"
        }
      ],
      "stateMutability": "view",
      "type": "function",
      "constant": true
    },
    {
      "inputs": [
        {
          "internalType": "uint256",
          "name": "_allocPoint",
          "type": "uint256"
        },
        {
          "internalType": "contract IERC20",
          "name": "_lpToken",
          "type": "address"
        },
        {
          "internalType": "bool",
          "name": "_withUpdate",
          "type": "bool"
        }
      ],
      "name": "add",
      "outputs": [],
      "stateMutability": "nonpayable",
      "type": "function"
    },
    {
      "inputs": [
        {
          "internalType": "uint256",
          "name": "_pid",
          "type": "uint256"
        },
        {
          "internalType": "uint256",
          "name": "_allocPoint",
          "type": "uint256"
        },
        {
          "internalType": "bool",
          "name": "_withUpdate",
          "type": "bool"
        }
      ],
      "name": "set",
      "outputs": [],
      "stateMutability": "nonpayable",
      "type": "function"
    },
    {
      "inputs": [],
      "name": "massUpdatePools",
      "outputs": [],
      "stateMutability": "nonpayable",
      "type": "function"
    },
    {
      "inputs": [
        {
          "internalType": "uint256",
          "name": "_pid",
          "type": "uint256"
        },
        {
          "internalType": "uint256",
          "name": "_amount",
          "type": "uint256"
        }
      ],
      "name": "deposit",
      "outputs": [],
      "stateMutability": "nonpayable",
      "type": "function"
    },
    {
      "inputs": [
        {
          "internalType": "uint256",
          "name": "_pid",
          "type": "uint256"
        },
        {
          "internalType": "uint256",
          "name": "_amount",
          "type": "uint256"
        }
      ],
      "name": "withdraw",
      "outputs": [],
      "stateMutability": "nonpayable",
      "type": "function"
    },
    {
      "inputs": [
        {
          "internalType": "uint256",
          "name": "_pid",
          "type": "uint256"
        }
      ],
      "name": "updatePool",
      "outputs": [],
      "stateMutability": "nonpayable",
      "type": "function"
    },
    {
      "inputs": [
        {
          "internalType": "uint256",
          "name": "_pid",
          "type": "uint256"
        }
      ],
      "name": "getExtraReward",
      "outputs": [
        {
          "internalType": "uint256",
          "name": "",
          "type": "uint256"
        }
      ],
      "stateMutability": "nonpayable",
      "type": "function"
    },
    {
      "inputs": [
        {
          "internalType": "uint256",
          "name": "_pid",
          "type": "uint256"
        },
        {
          "internalType": "address",
          "name": "_user",
          "type": "address"
        }
      ],
      "name": "pendingChill",
      "outputs": [
        {
          "internalType": "uint256",
          "name": "",
          "type": "uint256"
        }
      ],
      "stateMutability": "view",
      "type": "function",
      "constant": true
    },
    {
      "inputs": [
        {
          "internalType": "uint256",
          "name": "_from",
          "type": "uint256"
        },
        {
          "internalType": "uint256",
          "name": "_to",
          "type": "uint256"
        }
      ],
      "name": "getMultiplier",
      "outputs": [
        {
          "internalType": "uint256",
          "name": "",
          "type": "uint256"
        }
      ],
      "stateMutability": "view",
      "type": "function",
      "constant": true
    },
    {
      "inputs": [
        {
          "internalType": "uint256",
          "name": "_from",
          "type": "uint256"
        },
        {
          "internalType": "uint256",
          "name": "currentblock",
          "type": "uint256"
        }
      ],
      "name": "getCrossMultiplier",
      "outputs": [
        {
          "internalType": "uint256",
          "name": "",
          "type": "uint256"
        }
      ],
      "stateMutability": "view",
      "type": "function",
      "constant": true
    },
    {
      "inputs": [
        {
          "internalType": "uint256",
          "name": "_from",
          "type": "uint256"
        },
        {
          "internalType": "uint256",
          "name": "currentblock",
          "type": "uint256"
        }
      ],
      "name": "getExtraMultiplier",
      "outputs": [
        {
          "internalType": "uint256",
          "name": "",
          "type": "uint256"
        }
      ],
      "stateMutability": "view",
      "type": "function",
      "constant": true
    },
    {
      "inputs": [
        {
          "internalType": "uint256",
          "name": "_from",
          "type": "uint256"
        }
      ],
      "name": "getNirvanaStatus",
      "outputs": [
        {
          "internalType": "uint256",
          "name": "",
          "type": "uint256"
        }
      ],
      "stateMutability": "view",
      "type": "function",
      "constant": true
    },
    {
      "inputs": [
        {
          "internalType": "address",
          "name": "_countPair",
          "type": "address"
        },
        {
          "internalType": "address",
          "name": "_stablePair",
          "type": "address"
        },
        {
          "internalType": "uint256",
          "name": "_liquiditybalance",
          "type": "uint256"
        }
      ],
      "name": "countStakeAmount",
      "outputs": [
        {
          "internalType": "uint256",
          "name": "",
          "type": "uint256"
        }
      ],
      "stateMutability": "view",
      "type": "function",
      "constant": true
    },
    {
      "inputs": [
        {
          "internalType": "address",
          "name": "_stakeAddress",
          "type": "address"
        }
      ],
      "name": "getUniReward",
      "outputs": [],
      "stateMutability": "nonpayable",
      "type": "function"
    },
    {
      "inputs": [
        {
          "internalType": "address",
          "name": "_uniAddress",
          "type": "address"
        },
        {
          "internalType": "address",
          "name": "_to",
          "type": "address"
        },
        {
          "internalType": "uint256",
          "name": "_amount",
          "type": "uint256"
        }
      ],
      "name": "accessReward",
      "outputs": [],
      "stateMutability": "nonpayable",
      "type": "function"
    },
    {
      "inputs": [
        {
          "internalType": "address",
          "name": "_stakeAddress",
          "type": "address"
        }
      ],
      "name": "getUniRewardAndExit",
      "outputs": [],
      "stateMutability": "nonpayable",
      "type": "function"
    },
    {
      "inputs": [
        {
          "internalType": "address",
          "name": "_uniV2Pool",
          "type": "address"
        },
        {
          "internalType": "address",
          "name": "_stakingRewardAddress",
          "type": "address"
        }
      ],
      "name": "addStakeUniPool",
      "outputs": [],
      "stateMutability": "nonpayable",
      "type": "function"
    },
    {
      "inputs": [
        {
          "internalType": "address",
          "name": "_uniV2Pool",
          "type": "address"
        }
      ],
      "name": "removeStakeUniPool",
      "outputs": [],
      "stateMutability": "nonpayable",
      "type": "function"
    },
    {
      "inputs": [
        {
          "internalType": "address",
          "name": "_devaddr",
          "type": "address"
        }
      ],
      "name": "dev",
      "outputs": [],
      "stateMutability": "nonpayable",
      "type": "function"
    },
    {
      "inputs": [
        {
          "internalType": "uint256",
          "name": "_pid",
          "type": "uint256"
        },
        {
          "internalType": "bool",
          "name": "_isCheck",
          "type": "bool"
        }
      ],
      "name": "setCheckInitialPeriod",
      "outputs": [],
      "stateMutability": "nonpayable",
      "type": "function"
    },
    {
      "inputs": [
        {
          "internalType": "bool",
          "name": "_isCheck",
          "type": "bool"
        }
      ],
      "name": "setCheckInitialPeriodAllPool",
      "outputs": [],
      "stateMutability": "nonpayable",
      "type": "function"
    },
    {
      "inputs": [
        {
          "internalType": "uint256",
          "name": "_pid",
          "type": "uint256"
        }
      ],
      "name": "getCheckInitialPeriod",
      "outputs": [
        {
          "internalType": "bool",
          "name": "",
          "type": "bool"
        }
      ],
      "stateMutability": "view",
      "type": "function",
      "constant": true
    },
    {
      "inputs": [
        {
          "internalType": "address",
          "name": "_stablePair",
          "type": "address"
        },
        {
          "internalType": "uint256",
          "name": "_stableDivider",
          "type": "uint256"
        }
      ],
      "name": "setStablePairAddress",
      "outputs": [],
      "stateMutability": "nonpayable",
      "type": "function"
    },
    {
      "inputs": [],
      "name": "getStablePairAddress",
      "outputs": [
        {
          "internalType": "address",
          "name": "",
          "type": "address"
        }
      ],
      "stateMutability": "view",
      "type": "function",
      "constant": true
    },
    {
      "inputs": [],
      "name": "getStableDivider",
      "outputs": [
        {
          "internalType": "uint256",
          "name": "",
          "type": "uint256"
        }
      ],
      "stateMutability": "view",
      "type": "function",
      "constant": true
    },
    {
      "inputs": [
        {
          "internalType": "uint256",
          "name": "_ethDivider",
          "type": "uint256"
        }
      ],
      "name": "setEthDivider",
      "outputs": [],
      "stateMutability": "nonpayable",
      "type": "function"
    },
    {
      "inputs": [],
      "name": "getEthDivider",
      "outputs": [
        {
          "internalType": "uint256",
          "name": "",
          "type": "uint256"
        }
      ],
      "stateMutability": "view",
      "type": "function",
      "constant": true
    },
    {
      "inputs": [
        {
          "internalType": "uint256",
          "name": "_index",
          "type": "uint256"
        },
        {
          "internalType": "uint256",
          "name": "_chillPerBlock",
          "type": "uint256"
        }
      ],
      "name": "setBlockPerPhaseByIndex",
      "outputs": [],
      "stateMutability": "nonpayable",
      "type": "function"
    },
    {
      "inputs": [
        {
          "internalType": "uint256",
          "name": "_index",
          "type": "uint256"
        }
      ],
      "name": "getBlockPerPhaseByIndex",
      "outputs": [
        {
          "internalType": "uint256",
          "name": "",
          "type": "uint256"
        }
      ],
      "stateMutability": "view",
      "type": "function",
      "constant": true
    },
    {
      "inputs": [
        {
          "internalType": "uint256",
          "name": "_index",
          "type": "uint256"
        },
        {
          "internalType": "uint256",
          "name": "_time",
          "type": "uint256"
        }
      ],
      "name": "setAndEditPhaseTime",
      "outputs": [],
      "stateMutability": "nonpayable",
      "type": "function"
    },
    {
      "inputs": [],
      "name": "getPhaseTimeAndBlocks",
      "outputs": [
        {
          "internalType": "uint256",
          "name": "",
          "type": "uint256"
        },
        {
          "internalType": "uint256",
          "name": "",
          "type": "uint256"
        }
      ],
      "stateMutability": "view",
      "type": "function",
      "constant": true
    },
    {
      "inputs": [
        {
          "internalType": "address",
          "name": "_distributor",
          "type": "address"
        },
        {
          "internalType": "bool",
          "name": "_isdistributor",
          "type": "bool"
        }
      ],
      "name": "setRewardDistributor",
      "outputs": [],
      "stateMutability": "nonpayable",
      "type": "function"
    }
  ],
  "bytecode": "0x608060405260006005553480156200001657600080fd5b506040516200634e3803806200634e833981810160405260608110156200003c57600080fd5b81019080805190602001909291908051906020019092919080519060200190929190505050600062000073620003f960201b60201c565b9050806000806101000a81548173ffffffffffffffffffffffffffffffffffffffff021916908373ffffffffffffffffffffffffffffffffffffffff1602179055508073ffffffffffffffffffffffffffffffffffffffff16600073ffffffffffffffffffffffffffffffffffffffff167f8be0079c531659141344cd1fd0a4f28419497f9722a3daafe3b4186f6b6457e060405160405180910390a35082600160006101000a81548173ffffffffffffffffffffffffffffffffffffffff021916908373ffffffffffffffffffffffffffffffffffffffff16021790555081600260006101000a81548173ffffffffffffffffffffffffffffffffffffffff021916908373ffffffffffffffffffffffffffffffffffffffff16021790555080600e60006101000a81548173ffffffffffffffffffffffffffffffffffffffff021916908373ffffffffffffffffffffffffffffffffffffffff160217905550620001ef6000436200040160201b62004aab1790919060201c565b600681905550620002106000436200040160201b62004aab1790919060201c565b60048190555062000232617080436200040160201b62004aab1790919060201c565b600f819055506010680410d586a20a4c00009080600181540180825580915050600190039060005260206000200160009091909190915055601068056bc75e2d63100000908060018154018082558091505060019003906000526020600020016000909190919091505560106802b5e3af16b18800009080600181540180825580915050600190039060005260206000200160009091909190915055601068015af1d78b58c4000090806001815401808255809150506001900390600052602060002001600090919091909150556010600090806001815401808255809150506001900390600052602060002001600090919091909150556200034762013b00436200040160201b62004aab1790919060201c565b6013819055506200036a6203de00436200040160201b62004aab1790919060201c565b6014819055506200038d62068100436200040160201b62004aab1790919060201c565b601581905550620003b0620bc700436200040160201b62004aab1790919060201c565b601681905550620003d16000436200040160201b62004aab1790919060201c565b601781905550620f4240601281905550670de0b6b3a76400006011819055505050506200048a565b600033905090565b60008082840190508381101562000480576040517f08c379a000000000000000000000000000000000000000000000000000000000815260040180806020018281038252601b8152602001807f536166654d6174683a206164646974696f6e206f766572666c6f77000000000081525060200191505060405180910390fd5b8091505092915050565b615eb4806200049a6000396000f3fe608060405234801561001057600080fd5b50600436106103785760003560e01c80637e3c45e2116101d3578063b74e5a4211610104578063e1b6b3d4116100a2578063eed011391161007c578063eed0113914611014578063ef18129414611032578063f2fde38b146110a0578063ff3ab3c6146110e457610378565b8063e1b6b3d414610f53578063e2bbb15814610fb7578063ebbb462714610fef57610378565b8063c8d22620116100de578063c8d2262014610e55578063ce7e939014610e8f578063d49e77cd14610ed3578063e074f6bd14610f0757610378565b8063b74e5a4214610d7b578063c24cdaff14610ddd578063c4a9bf9f14610dfb57610378565b80638e58440711610171578063afa6d11e1161014b578063afa6d11e14610cb5578063b15abece14610cf9578063b236b4a214610d17578063b44e49f314610d4b57610378565b80638e58440714610c0957806393f1a40b14610c27578063942d2ddf14610c9757610378565b80638c94e549116101ad5780638c94e54914610b015780638d88a90e14610b455780638da5cb5b14610b895780638dbb1e3a14610bbd57610378565b80637e3c45e214610a4f57806380e59f8d14610a935780638aa2855014610ae357610378565b806337edc9e8116102ad5780635a8cd4c81161024b57806366aa11a71161022557806366aa11a7146109ab578063715018a6146109e3578063719175d5146109ed578063746c10cd14610a0b57610378565b80635a8cd4c814610911578063630b5ba11461095d57806364482f791461096757610378565b8063505a4c2811610287578063505a4c281461081d578063506e72ce1461085f57806351eb05a6146108a157806354eea1e1146108cf57610378565b806337edc9e814610775578063441a3e70146107a357806348852fc4146107db57610378565b80631aed65531161031a578063280ad59a116102f4578063280ad59a1461060d578063289f61971461065b5780632b8a3ae6146106bf5780632c1b4b31146106f357610378565b80631aed65531461055d5780631eaaa0451461057b578063271e48c8146105d557610378565b80630f2b7cc9116103565780630f2b7cc9146104275780630f904016146104895780631526fe27146104cb57806317caf6f11461053f57610378565b8063066e95341461037d578063081e3eda1461039b5780630c6c3856146103b9575b600080fd5b610385611102565b6040518082815260200191505060405180910390f35b6103a3611108565b6040518082815260200191505060405180910390f35b6103fb600480360360208110156103cf57600080fd5b81019080803573ffffffffffffffffffffffffffffffffffffffff169060200190929190505050611115565b604051808273ffffffffffffffffffffffffffffffffffffffff16815260200191505060405180910390f35b61045d6004803603604081101561043d57600080fd5b810190808035906020019092919080359060200190929190505050611148565b604051808273ffffffffffffffffffffffffffffffffffffffff16815260200191505060405180910390f35b6104b56004803603602081101561049f57600080fd5b8101908080359060200190929190505050611193565b6040518082815260200191505060405180910390f35b6104f7600480360360208110156104e157600080fd5b81019080803590602001909291905050506111b4565b604051808673ffffffffffffffffffffffffffffffffffffffff1681526020018581526020018481526020018381526020018281526020019550505050505060405180910390f35b610547611217565b6040518082815260200191505060405180910390f35b61056561121d565b6040518082815260200191505060405180910390f35b6105d36004803603606081101561059157600080fd5b8101908080359060200190929190803573ffffffffffffffffffffffffffffffffffffffff169060200190929190803515159060200190929190505050611223565b005b61060b600480360360408110156105eb57600080fd5b81019080803590602001909291908035906020019092919050505061140d565b005b6106596004803603604081101561062357600080fd5b81019080803573ffffffffffffffffffffffffffffffffffffffff169060200190929190803590602001909291905050506115a6565b005b6106a76004803603604081101561067157600080fd5b8101908080359060200190929190803573ffffffffffffffffffffffffffffffffffffffff1690602001909291905050506116ba565b60405180821515815260200191505060405180910390f35b6106c76116e9565b604051808273ffffffffffffffffffffffffffffffffffffffff16815260200191505060405180910390f35b61075f6004803603606081101561070957600080fd5b81019080803573ffffffffffffffffffffffffffffffffffffffff169060200190929190803573ffffffffffffffffffffffffffffffffffffffff1690602001909291908035906020019092919050505061170f565b6040518082815260200191505060405180910390f35b6107a16004803603602081101561078b57600080fd5b8101908080359060200190929190505050611725565b005b6107d9600480360360408110156107b957600080fd5b8101908080359060200190929190803590602001909291905050506117f7565b005b610807600480360360208110156107f157600080fd5b8101908080359060200190929190505050611f86565b6040518082815260200191505060405180910390f35b6108496004803603602081101561083357600080fd5b8101908080359060200190929190505050611fac565b6040518082815260200191505060405180910390f35b61088b6004803603602081101561087557600080fd5b8101908080359060200190929190505050611fcd565b6040518082815260200191505060405180910390f35b6108cd600480360360208110156108b757600080fd5b8101908080359060200190929190505050611fed565b005b6108fb600480360360208110156108e557600080fd5b8101908080359060200190929190505050612483565b6040518082815260200191505060405180910390f35b6109476004803603604081101561092757600080fd5b8101908080359060200190929190803590602001909291905050506127d3565b6040518082815260200191505060405180910390f35b61096561281f565b005b6109a96004803603606081101561097d57600080fd5b81019080803590602001909291908035906020019092919080351515906020019092919050505061284c565b005b6109e1600480360360408110156109c157600080fd5b810190808035906020019092919080359060200190929190505050612996565b005b6109eb612a7e565b005b6109f5612c04565b6040518082815260200191505060405180910390f35b610a4d60048036036020811015610a2157600080fd5b81019080803573ffffffffffffffffffffffffffffffffffffffff169060200190929190505050612c0a565b005b610a9160048036036020811015610a6557600080fd5b81019080803573ffffffffffffffffffffffffffffffffffffffff169060200190929190505050612d35565b005b610ae160048036036040811015610aa957600080fd5b81019080803573ffffffffffffffffffffffffffffffffffffffff169060200190929190803515159060200190929190505050612e60565b005b610aeb612f83565b6040518082815260200191505060405180910390f35b610b2d60048036036020811015610b1757600080fd5b8101908080359060200190929190505050612f88565b60405180821515815260200191505060405180910390f35b610b8760048036036020811015610b5b57600080fd5b81019080803573ffffffffffffffffffffffffffffffffffffffff169060200190929190505050612fb2565b005b610b916130b9565b604051808273ffffffffffffffffffffffffffffffffffffffff16815260200191505060405180910390f35b610bf360048036036040811015610bd357600080fd5b8101908080359060200190929190803590602001909291905050506130e2565b6040518082815260200191505060405180910390f35b610c11613194565b6040518082815260200191505060405180910390f35b610c7360048036036040811015610c3d57600080fd5b8101908080359060200190929190803573ffffffffffffffffffffffffffffffffffffffff16906020019092919050505061319a565b60405180848152602001838152602001828152602001935050505060405180910390f35b610c9f6131d1565b6040518082815260200191505060405180910390f35b610cf760048036036020811015610ccb57600080fd5b81019080803573ffffffffffffffffffffffffffffffffffffffff1690602001909291905050506131d7565b005b610d01613612565b6040518082815260200191505060405180910390f35b610d1f613618565b604051808273ffffffffffffffffffffffffffffffffffffffff16815260200191505060405180910390f35b610d7960048036036020811015610d6157600080fd5b81019080803515159060200190929190505050613642565b005b610dc760048036036040811015610d9157600080fd5b8101908080359060200190929190803573ffffffffffffffffffffffffffffffffffffffff16906020019092919050505061375a565b6040518082815260200191505060405180910390f35b610de5613afc565b6040518082815260200191505060405180910390f35b610e3d60048036036020811015610e1157600080fd5b81019080803573ffffffffffffffffffffffffffffffffffffffff169060200190929190505050613b06565b60405180821515815260200191505060405180910390f35b610e8d60048036036040811015610e6b57600080fd5b8101908080359060200190929190803515159060200190929190505050613b26565b005b610ebb60048036036020811015610ea557600080fd5b8101908080359060200190929190505050613c1d565b60405180821515815260200191505060405180910390f35b610edb613c3d565b604051808273ffffffffffffffffffffffffffffffffffffffff16815260200191505060405180910390f35b610f3d60048036036040811015610f1d57600080fd5b810190808035906020019092919080359060200190929190505050613c63565b6040518082815260200191505060405180910390f35b610fb560048036036040811015610f6957600080fd5b81019080803573ffffffffffffffffffffffffffffffffffffffff169060200190929190803573ffffffffffffffffffffffffffffffffffffffff169060200190929190505050613ca8565b005b610fed60048036036040811015610fcd57600080fd5b810190808035906020019092919080359060200190929190505050613fc6565b005b610ff761456e565b604051808381526020018281526020019250505060405180910390f35b61101c61464e565b6040518082815260200191505060405180910390f35b61109e6004803603606081101561104857600080fd5b81019080803573ffffffffffffffffffffffffffffffffffffffff169060200190929190803573ffffffffffffffffffffffffffffffffffffffff16906020019092919080359060200190929190505050614654565b005b6110e2600480360360208110156110b657600080fd5b81019080803573ffffffffffffffffffffffffffffffffffffffff169060200190929190505050614896565b005b6110ec614aa1565b6040518082815260200191505060405180910390f35b60135481565b6000600380549050905090565b600b6020528060005260406000206000915054906101000a900473ffffffffffffffffffffffffffffffffffffffff1681565b6008602052816000526040600020818154811061116157fe5b906000526020600020016000915091509054906101000a900473ffffffffffffffffffffffffffffffffffffffff1681565b6000601082815481106111a257fe5b90600052602060002001549050919050565b600381815481106111c157fe5b90600052602060002090600502016000915090508060000160009054906101000a900473ffffffffffffffffffffffffffffffffffffffff16908060010154908060020154908060030154908060040154905085565b60055481565b60045481565b61122b614b33565b73ffffffffffffffffffffffffffffffffffffffff1660008054906101000a900473ffffffffffffffffffffffffffffffffffffffff1673ffffffffffffffffffffffffffffffffffffffff16146112eb576040517f08c379a00000000000000000000000000000000000000000000000000000000081526004018080602001828103825260208152602001807f4f776e61626c653a2063616c6c6572206973206e6f7420746865206f776e657281525060200191505060405180910390fd5b80156112fa576112f961281f565b5b6000600654431161130d5760065461130f565b435b905061132684600554614aab90919063ffffffff16565b60058190555060036040518060a001604052808573ffffffffffffffffffffffffffffffffffffffff168152602001868152602001838152602001600081526020016000815250908060018154018082558091505060019003906000526020600020906005020160009091909190915060008201518160000160006101000a81548173ffffffffffffffffffffffffffffffffffffffff021916908373ffffffffffffffffffffffffffffffffffffffff16021790555060208201518160010155604082015181600201556060820151816003015560808201518160040155505050505050565b611415614b33565b73ffffffffffffffffffffffffffffffffffffffff1660008054906101000a900473ffffffffffffffffffffffffffffffffffffffff1673ffffffffffffffffffffffffffffffffffffffff16146114d5576040517f08c379a00000000000000000000000000000000000000000000000000000000081526004018080602001828103825260208152602001807f4f776e61626c653a2063616c6c6572206973206e6f7420746865206f776e657281525060200191505060405180910390fd5b60008214156114fe576114f381601354614aab90919063ffffffff16565b6013819055506115a2565b60018214156115275761151c81601454614aab90919063ffffffff16565b6014819055506115a1565b60028214156115505761154581601554614aab90919063ffffffff16565b6015819055506115a0565b60038214156115795761156e81601654614aab90919063ffffffff16565b60168190555061159f565b600482141561159e5761159781601754614aab90919063ffffffff16565b6017819055505b5b5b5b5b5050565b6115ae614b33565b73ffffffffffffffffffffffffffffffffffffffff1660008054906101000a900473ffffffffffffffffffffffffffffffffffffffff1673ffffffffffffffffffffffffffffffffffffffff161461166e576040517f08c379a00000000000000000000000000000000000000000000000000000000081526004018080602001828103825260208152602001807f4f776e61626c653a2063616c6c6572206973206e6f7420746865206f776e657281525060200191505060405180910390fd5b81600e60006101000a81548173ffffffffffffffffffffffffffffffffffffffff021916908373ffffffffffffffffffffffffffffffffffffffff160217905550806012819055505050565b60096020528160005260406000206020528060005260406000206000915091509054906101000a900460ff1681565b600160009054906101000a900473ffffffffffffffffffffffffffffffffffffffff1681565b600061171c848484614b3b565b90509392505050565b61172d614b33565b73ffffffffffffffffffffffffffffffffffffffff1660008054906101000a900473ffffffffffffffffffffffffffffffffffffffff1673ffffffffffffffffffffffffffffffffffffffff16146117ed576040517f08c379a00000000000000000000000000000000000000000000000000000000081526004018080602001828103825260208152602001807f4f776e61626c653a2063616c6c6572206973206e6f7420746865206f776e657281525060200191505060405180910390fd5b8060118190555050565b60006003838154811061180657fe5b9060005260206000209060050201905060006007600085815260200190815260200160002060003373ffffffffffffffffffffffffffffffffffffffff1673ffffffffffffffffffffffffffffffffffffffff168152602001908152602001600020905082816000015410156118e4576040517f08c379a00000000000000000000000000000000000000000000000000000000081526004018080602001828103825260158152602001807f7769746864726177206973206e6f742076616c6964000000000000000000000081525060200191505060405180910390fd5b60008160020154116118fa574381600201819055505b600a60008360000160009054906101000a900473ffffffffffffffffffffffffffffffffffffffff1673ffffffffffffffffffffffffffffffffffffffff1673ffffffffffffffffffffffffffffffffffffffff16815260200190815260200160002060009054906101000a900460ff1680156119775750600083115b15611a2f57611a2e8260000160009054906101000a900473ffffffffffffffffffffffffffffffffffffffff16600b60008560000160009054906101000a900473ffffffffffffffffffffffffffffffffffffffff1673ffffffffffffffffffffffffffffffffffffffff1673ffffffffffffffffffffffffffffffffffffffff16815260200190815260200160002060009054906101000a900473ffffffffffffffffffffffffffffffffffffffff1685614e32565b5b611a3884611fed565b6000611a828260010154611a7464e8d4a51000611a6687600301548760000154614ea290919063ffffffff16565b614f2890919063ffffffff16565b614f7290919063ffffffff16565b90506000611a9c611a97846002015443613c63565b614fbc565b90506000611ac66064611ab88486614ea290919063ffffffff16565b614f2890919063ffffffff16565b90506000611ad388612483565b9050611b0d611aec600284614f2890919063ffffffff16565b611aff8387614aab90919063ffffffff16565b614f7290919063ffffffff16565b9350611b19338561500d565b6000821115611e5d57600160009054906101000a900473ffffffffffffffffffffffffffffffffffffffff1673ffffffffffffffffffffffffffffffffffffffff166340c10f19600260009054906101000a900473ffffffffffffffffffffffffffffffffffffffff16611b97600286614f2890919063ffffffff16565b6040518363ffffffff1660e01b8152600401808373ffffffffffffffffffffffffffffffffffffffff16815260200182815260200192505050600060405180830381600087803b158015611bea57600080fd5b505af1158015611bfe573d6000803e3d6000fd5b50505050611c16600283614f2890919063ffffffff16565b600160009054906101000a900473ffffffffffffffffffffffffffffffffffffffff1673ffffffffffffffffffffffffffffffffffffffff166370a08231306040518263ffffffff1660e01b8152600401808273ffffffffffffffffffffffffffffffffffffffff16815260200191505060206040518083038186803b158015611c9f57600080fd5b505afa158015611cb3573d6000803e3d6000fd5b505050506040513d6020811015611cc957600080fd5b810190808051906020019092919050505010611d9e57600160009054906101000a900473ffffffffffffffffffffffffffffffffffffffff1673ffffffffffffffffffffffffffffffffffffffff16639dc29fac30611d32600286614f2890919063ffffffff16565b6040518363ffffffff1660e01b8152600401808373ffffffffffffffffffffffffffffffffffffffff16815260200182815260200192505050600060405180830381600087803b158015611d8557600080fd5b505af1158015611d99573d6000803e3d6000fd5b505050505b600160009054906101000a900473ffffffffffffffffffffffffffffffffffffffff1673ffffffffffffffffffffffffffffffffffffffff16639dc29fac33611df1600286614f2890919063ffffffff16565b6040518363ffffffff1660e01b8152600401808373ffffffffffffffffffffffffffffffffffffffff16815260200182815260200192505050600060405180830381600087803b158015611e4457600080fd5b505af1158015611e58573d6000803e3d6000fd5b505050505b611e74878660000154614f7290919063ffffffff16565b8560000181905550611eae64e8d4a51000611ea088600301548860000154614ea290919063ffffffff16565b614f2890919063ffffffff16565b8560010181905550438560020181905550611ed6878760040154614f7290919063ffffffff16565b8660040181905550611f2d33888860000160009054906101000a900473ffffffffffffffffffffffffffffffffffffffff1673ffffffffffffffffffffffffffffffffffffffff166152869092919063ffffffff16565b873373ffffffffffffffffffffffffffffffffffffffff167ff279e6a1f5e320cca91135676d9cb6e44ca8a08c0b88342bcdb1144f6511b568896040518082815260200191505060405180910390a35050505050505050565b600080611f938343613c63565b90506000611fa082615328565b90508092505050919050565b60108181548110611fb957fe5b906000526020600020016000915090505481565b600060086000838152602001908152602001600020805490509050919050565b600060038281548110611ffc57fe5b9060005260206000209060050201905060006007600084815260200190815260200160002060003373ffffffffffffffffffffffffffffffffffffffff1673ffffffffffffffffffffffffffffffffffffffff168152602001908152602001600020905081600201544311612072575050612480565b60008260040154141561208f574382600201819055505050612480565b6000806120a08460020154436130e2565b90506013544311612107576121006005546120f286600101546120e460106000815481106120ca57fe5b906000526020600020015486614ea290919063ffffffff16565b614ea290919063ffffffff16565b614f2890919063ffffffff16565b9150612291565b601454431161216c576121656005546121578660010154612149601060018154811061212f57fe5b906000526020600020015486614ea290919063ffffffff16565b614ea290919063ffffffff16565b614f2890919063ffffffff16565b9150612290565b60155443116121d1576121ca6005546121bc86600101546121ae601060028154811061219457fe5b906000526020600020015486614ea290919063ffffffff16565b614ea290919063ffffffff16565b614f2890919063ffffffff16565b915061228f565b60165443116122365761222f600554612221866001015461221360106003815481106121f957fe5b906000526020600020015486614ea290919063ffffffff16565b614ea290919063ffffffff16565b614f2890919063ffffffff16565b915061228e565b61228b60055461227d866001015461226f601060048154811061225557fe5b906000526020600020015486614ea290919063ffffffff16565b614ea290919063ffffffff16565b614f2890919063ffffffff16565b91505b5b5b5b600082111561242657600160009054906101000a900473ffffffffffffffffffffffffffffffffffffffff1673ffffffffffffffffffffffffffffffffffffffff166340c10f19600260009054906101000a900473ffffffffffffffffffffffffffffffffffffffff1661230f600a86614f2890919063ffffffff16565b6040518363ffffffff1660e01b8152600401808373ffffffffffffffffffffffffffffffffffffffff16815260200182815260200192505050600060405180830381600087803b15801561236257600080fd5b505af1158015612376573d6000803e3d6000fd5b50505050600160009054906101000a900473ffffffffffffffffffffffffffffffffffffffff1673ffffffffffffffffffffffffffffffffffffffff166340c10f1930846040518363ffffffff1660e01b8152600401808373ffffffffffffffffffffffffffffffffffffffff16815260200182815260200192505050600060405180830381600087803b15801561240d57600080fd5b505af1158015612421573d6000803e3d6000fd5b505050505b61246a612457856004015461244964e8d4a5100086614ea290919063ffffffff16565b614f2890919063ffffffff16565b8560030154614aab90919063ffffffff16565b8460030181905550438460020181905550505050505b50565b6000806003838154811061249357fe5b9060005260206000209060050201905060006007600085815260200190815260200160002060003373ffffffffffffffffffffffffffffffffffffffff1673ffffffffffffffffffffffffffffffffffffffff168152602001908152602001600020905060008260040154141561250f576000925050506127ce565b6000806125208360020154436127d3565b91506013544311612587576125806005546125728660010154612564601060008154811061254a57fe5b906000526020600020015487614ea290919063ffffffff16565b614ea290919063ffffffff16565b614f2890919063ffffffff16565b9050612711565b60145443116125ec576125e56005546125d786600101546125c960106001815481106125af57fe5b906000526020600020015487614ea290919063ffffffff16565b614ea290919063ffffffff16565b614f2890919063ffffffff16565b9050612710565b60155443116126515761264a60055461263c866001015461262e601060028154811061261457fe5b906000526020600020015487614ea290919063ffffffff16565b614ea290919063ffffffff16565b614f2890919063ffffffff16565b905061270f565b60165443116126b6576126af6005546126a18660010154612693601060038154811061267957fe5b906000526020600020015487614ea290919063ffffffff16565b614ea290919063ffffffff16565b614f2890919063ffffffff16565b905061270e565b61270b6005546126fd86600101546126ef60106004815481106126d557fe5b906000526020600020015487614ea290919063ffffffff16565b614ea290919063ffffffff16565b614f2890919063ffffffff16565b90505b5b5b5b60008111156127c657600160009054906101000a900473ffffffffffffffffffffffffffffffffffffffff1673ffffffffffffffffffffffffffffffffffffffff166340c10f1930836040518363ffffffff1660e01b8152600401808373ffffffffffffffffffffffffffffffffffffffff16815260200182815260200192505050600060405180830381600087803b1580156127ad57600080fd5b505af11580156127c1573d6000803e3d6000fd5b505050505b809450505050505b919050565b6000806127e08484613c63565b9050600061281260646128046127f585615328565b85614ea290919063ffffffff16565b614f2890919063ffffffff16565b9050809250505092915050565b6000600380549050905060005b818110156128485761283d81611fed565b80600101905061282c565b5050565b612854614b33565b73ffffffffffffffffffffffffffffffffffffffff1660008054906101000a900473ffffffffffffffffffffffffffffffffffffffff1673ffffffffffffffffffffffffffffffffffffffff1614612914576040517f08c379a00000000000000000000000000000000000000000000000000000000081526004018080602001828103825260208152602001807f4f776e61626c653a2063616c6c6572206973206e6f7420746865206f776e657281525060200191505060405180910390fd5b80156129235761292261281f565b5b6129688261295a6003868154811061293757fe5b906000526020600020906005020160010154600554614f7290919063ffffffff16565b614aab90919063ffffffff16565b600581905550816003848154811061297c57fe5b906000526020600020906005020160010181905550505050565b61299e614b33565b73ffffffffffffffffffffffffffffffffffffffff1660008054906101000a900473ffffffffffffffffffffffffffffffffffffffff1673ffffffffffffffffffffffffffffffffffffffff1614612a5e576040517f08c379a00000000000000000000000000000000000000000000000000000000081526004018080602001828103825260208152602001807f4f776e61626c653a2063616c6c6572206973206e6f7420746865206f776e657281525060200191505060405180910390fd5b8060108381548110612a6c57fe5b90600052602060002001819055505050565b612a86614b33565b73ffffffffffffffffffffffffffffffffffffffff1660008054906101000a900473ffffffffffffffffffffffffffffffffffffffff1673ffffffffffffffffffffffffffffffffffffffff1614612b46576040517f08c379a00000000000000000000000000000000000000000000000000000000081526004018080602001828103825260208152602001807f4f776e61626c653a2063616c6c6572206973206e6f7420746865206f776e657281525060200191505060405180910390fd5b600073ffffffffffffffffffffffffffffffffffffffff1660008054906101000a900473ffffffffffffffffffffffffffffffffffffffff1673ffffffffffffffffffffffffffffffffffffffff167f8be0079c531659141344cd1fd0a4f28419497f9722a3daafe3b4186f6b6457e060405160405180910390a360008060006101000a81548173ffffffffffffffffffffffffffffffffffffffff021916908373ffffffffffffffffffffffffffffffffffffffff160217905550565b60175481565b612c12614b33565b73ffffffffffffffffffffffffffffffffffffffff1660008054906101000a900473ffffffffffffffffffffffffffffffffffffffff1673ffffffffffffffffffffffffffffffffffffffff1614612cd2576040517f08c379a00000000000000000000000000000000000000000000000000000000081526004018080602001828103825260208152602001807f4f776e61626c653a2063616c6c6572206973206e6f7420746865206f776e657281525060200191505060405180910390fd5b8073ffffffffffffffffffffffffffffffffffffffff1663e9fad8ee6040518163ffffffff1660e01b8152600401600060405180830381600087803b158015612d1a57600080fd5b505af1158015612d2e573d6000803e3d6000fd5b5050505050565b612d3d614b33565b73ffffffffffffffffffffffffffffffffffffffff1660008054906101000a900473ffffffffffffffffffffffffffffffffffffffff1673ffffffffffffffffffffffffffffffffffffffff1614612dfd576040517f08c379a00000000000000000000000000000000000000000000000000000000081526004018080602001828103825260208152602001807f4f776e61626c653a2063616c6c6572206973206e6f7420746865206f776e657281525060200191505060405180910390fd5b8073ffffffffffffffffffffffffffffffffffffffff16633d18b9126040518163ffffffff1660e01b8152600401600060405180830381600087803b158015612e4557600080fd5b505af1158015612e59573d6000803e3d6000fd5b5050505050565b612e68614b33565b73ffffffffffffffffffffffffffffffffffffffff1660008054906101000a900473ffffffffffffffffffffffffffffffffffffffff1673ffffffffffffffffffffffffffffffffffffffff1614612f28576040517f08c379a00000000000000000000000000000000000000000000000000000000081526004018080602001828103825260208152602001807f4f776e61626c653a2063616c6c6572206973206e6f7420746865206f776e657281525060200191505060405180910390fd5b80600d60008473ffffffffffffffffffffffffffffffffffffffff1673ffffffffffffffffffffffffffffffffffffffff16815260200190815260200160002060006101000a81548160ff0219169083151502179055505050565b600a81565b6000600c600083815260200190815260200160002060009054906101000a900460ff169050919050565b600260009054906101000a900473ffffffffffffffffffffffffffffffffffffffff1673ffffffffffffffffffffffffffffffffffffffff163373ffffffffffffffffffffffffffffffffffffffff1614613075576040517f08c379a00000000000000000000000000000000000000000000000000000000081526004018080602001828103825260198152602001807f646576206164646472657373206973206e6f742076616c69640000000000000081525060200191505060405180910390fd5b80600260006101000a81548173ffffffffffffffffffffffffffffffffffffffff021916908373ffffffffffffffffffffffffffffffffffffffff16021790555050565b60008060009054906101000a900473ffffffffffffffffffffffffffffffffffffffff16905090565b6000600454821161311a57613113600a6131058585614f7290919063ffffffff16565b614ea290919063ffffffff16565b905061318e565b600454831061313d576131368383614f7290919063ffffffff16565b905061318e565b61318b61315560045484614f7290919063ffffffff16565b61317d600a61316f87600454614f7290919063ffffffff16565b614ea290919063ffffffff16565b614aab90919063ffffffff16565b90505b92915050565b60165481565b6007602052816000526040600020602052806000526040600020600091509150508060000154908060010154908060020154905083565b60155481565b6131df614b33565b73ffffffffffffffffffffffffffffffffffffffff1660008054906101000a900473ffffffffffffffffffffffffffffffffffffffff1673ffffffffffffffffffffffffffffffffffffffff161461329f576040517f08c379a00000000000000000000000000000000000000000000000000000000081526004018080602001828103825260208152602001807f4f776e61626c653a2063616c6c6572206973206e6f7420746865206f776e657281525060200191505060405180910390fd5b600a60008273ffffffffffffffffffffffffffffffffffffffff1673ffffffffffffffffffffffffffffffffffffffff16815260200190815260200160002060009054906101000a900460ff1661335e576040517f08c379a00000000000000000000000000000000000000000000000000000000081526004018080602001828103825260178152602001807f5468697320706f6f6c206973206e6f742065786973742e00000000000000000081525060200191505060405180910390fd5b6000600b60008373ffffffffffffffffffffffffffffffffffffffff1673ffffffffffffffffffffffffffffffffffffffff16815260200190815260200160002060009054906101000a900473ffffffffffffffffffffffffffffffffffffffff1673ffffffffffffffffffffffffffffffffffffffff166370a08231306040518263ffffffff1660e01b8152600401808273ffffffffffffffffffffffffffffffffffffffff16815260200191505060206040518083038186803b15801561342657600080fd5b505afa15801561343a573d6000803e3d6000fd5b505050506040513d602081101561345057600080fd5b81019080805190602001909291905050509050600081111561353757600b60008373ffffffffffffffffffffffffffffffffffffffff1673ffffffffffffffffffffffffffffffffffffffff16815260200190815260200160002060009054906101000a900473ffffffffffffffffffffffffffffffffffffffff1673ffffffffffffffffffffffffffffffffffffffff16632e1a7d4d826040518263ffffffff1660e01b815260040180828152602001915050600060405180830381600087803b15801561351e57600080fd5b505af1158015613532573d6000803e3d6000fd5b505050505b6000600a60008473ffffffffffffffffffffffffffffffffffffffff1673ffffffffffffffffffffffffffffffffffffffff16815260200190815260200160002060006101000a81548160ff0219169083151502179055506000600b60008473ffffffffffffffffffffffffffffffffffffffff1673ffffffffffffffffffffffffffffffffffffffff16815260200190815260200160002060006101000a81548173ffffffffffffffffffffffffffffffffffffffff021916908373ffffffffffffffffffffffffffffffffffffffff1602179055505050565b60145481565b6000600e60009054906101000a900473ffffffffffffffffffffffffffffffffffffffff16905090565b61364a614b33565b73ffffffffffffffffffffffffffffffffffffffff1660008054906101000a900473ffffffffffffffffffffffffffffffffffffffff1673ffffffffffffffffffffffffffffffffffffffff161461370a576040517f08c379a00000000000000000000000000000000000000000000000000000000081526004018080602001828103825260208152602001807f4f776e61626c653a2063616c6c6572206973206e6f7420746865206f776e657281525060200191505060405180910390fd5b6000600380549050905060005b818110156137555782600c600083815260200190815260200160002060006101000a81548160ff021916908315150217905550806001019050613717565b505050565b6000806003848154811061376a57fe5b9060005260206000209060050201905060006007600086815260200190815260200160002060008573ffffffffffffffffffffffffffffffffffffffff1673ffffffffffffffffffffffffffffffffffffffff16815260200190815260200160002090506000826003015490506000836004015414613aad5760008060006137f68660020154436130e2565b90506138068560020154436127d3565b925061381b8382614aab90919063ffffffff16565b905060135443116138825761387b60055461386d886001015461385f601060008154811061384557fe5b906000526020600020015486614ea290919063ffffffff16565b614ea290919063ffffffff16565b614f2890919063ffffffff16565b9150613a0c565b60145443116138e7576138e06005546138d288600101546138c460106001815481106138aa57fe5b906000526020600020015486614ea290919063ffffffff16565b614ea290919063ffffffff16565b614f2890919063ffffffff16565b9150613a0b565b601554431161394c576139456005546139378860010154613929601060028154811061390f57fe5b906000526020600020015486614ea290919063ffffffff16565b614ea290919063ffffffff16565b614f2890919063ffffffff16565b9150613a0a565b60165443116139b1576139aa60055461399c886001015461398e601060038154811061397457fe5b906000526020600020015486614ea290919063ffffffff16565b614ea290919063ffffffff16565b614f2890919063ffffffff16565b9150613a09565b613a066005546139f888600101546139ea60106004815481106139d057fe5b906000526020600020015486614ea290919063ffffffff16565b614ea290919063ffffffff16565b614f2890919063ffffffff16565b91505b5b5b5b6000613a24613a1f876002015443613c63565b614fbc565b90506000613a4e6064613a408487614ea290919063ffffffff16565b614f2890919063ffffffff16565b9050613a638185614f7290919063ffffffff16565b9350613aa5613a968960040154613a8864e8d4a5100088614ea290919063ffffffff16565b614f2890919063ffffffff16565b87614aab90919063ffffffff16565b955050505050505b613af18260010154613ae364e8d4a51000613ad5858760000154614ea290919063ffffffff16565b614f2890919063ffffffff16565b614f7290919063ffffffff16565b935050505092915050565b6000601254905090565b600a6020528060005260406000206000915054906101000a900460ff1681565b613b2e614b33565b73ffffffffffffffffffffffffffffffffffffffff1660008054906101000a900473ffffffffffffffffffffffffffffffffffffffff1673ffffffffffffffffffffffffffffffffffffffff1614613bee576040517f08c379a00000000000000000000000000000000000000000000000000000000081526004018080602001828103825260208152602001807f4f776e61626c653a2063616c6c6572206973206e6f7420746865206f776e657281525060200191505060405180910390fd5b80600c600084815260200190815260200160002060006101000a81548160ff0219169083151502179055505050565b600c6020528060005260406000206000915054906101000a900460ff1681565b600260009054906101000a900473ffffffffffffffffffffffffffffffffffffffff1681565b60008083831115613c8857613c818484614f7290919063ffffffff16565b9050613c9e565b613c9b8385614f7290919063ffffffff16565b90505b8091505092915050565b613cb0614b33565b73ffffffffffffffffffffffffffffffffffffffff1660008054906101000a900473ffffffffffffffffffffffffffffffffffffffff1673ffffffffffffffffffffffffffffffffffffffff1614613d70576040517f08c379a00000000000000000000000000000000000000000000000000000000081526004018080602001828103825260208152602001807f4f776e61626c653a2063616c6c6572206973206e6f7420746865206f776e657281525060200191505060405180910390fd5b600a60008373ffffffffffffffffffffffffffffffffffffffff1673ffffffffffffffffffffffffffffffffffffffff16815260200190815260200160002060009054906101000a900460ff1615613e30576040517f08c379a000000000000000000000000000000000000000000000000000000000815260040180806020018281038252601b8152602001807f5468697320706f6f6c20697320616c72656164792065786973742e000000000081525060200191505060405180910390fd5b60008273ffffffffffffffffffffffffffffffffffffffff166370a08231306040518263ffffffff1660e01b8152600401808273ffffffffffffffffffffffffffffffffffffffff16815260200191505060206040518083038186803b158015613e9957600080fd5b505afa158015613ead573d6000803e3d6000fd5b505050506040513d6020811015613ec357600080fd5b810190808051906020019092919050505090506000811115613eeb57613eea81848461538e565b5b6001600a60008573ffffffffffffffffffffffffffffffffffffffff1673ffffffffffffffffffffffffffffffffffffffff16815260200190815260200160002060006101000a81548160ff02191690831515021790555081600b60008573ffffffffffffffffffffffffffffffffffffffff1673ffffffffffffffffffffffffffffffffffffffff16815260200190815260200160002060006101000a81548173ffffffffffffffffffffffffffffffffffffffff021916908373ffffffffffffffffffffffffffffffffffffffff160217905550505050565b600060038381548110613fd557fe5b9060005260206000209060050201905060006007600085815260200190815260200160002060003373ffffffffffffffffffffffffffffffffffffffff1673ffffffffffffffffffffffffffffffffffffffff1681526020019081526020016000209050600c600085815260200190815260200160002060009054906101000a900460ff161561412b57600f5443116140fd57614e206140a18360000160009054906101000a900473ffffffffffffffffffffffffffffffffffffffff1661409b613618565b8661170f565b11156140f8576040517f08c379a0000000000000000000000000000000000000000000000000000000008152600401808060200182810382526033815260200180615dae6033913960400191505060405180910390fd5b61412a565b6000600c600086815260200190815260200160002060006101000a81548160ff0219169083151502179055505b5b6000816002015411614141574381600201819055505b61414a84611fed565b6000816000015411156141d25760006141a1826001015461419364e8d4a5100061418587600301548760000154614ea290919063ffffffff16565b614f2890919063ffffffff16565b614f7290919063ffffffff16565b905060006141ae86612483565b90506141c38183614aab90919063ffffffff16565b91506141cf338361500d565b50505b6142233330858560000160009054906101000a900473ffffffffffffffffffffffffffffffffffffffff1673ffffffffffffffffffffffffffffffffffffffff166154ab909392919063ffffffff16565b61423a838360040154614aab90919063ffffffff16565b8260040181905550614259838260000154614aab90919063ffffffff16565b816000018190555061429364e8d4a5100061428584600301548460000154614ea290919063ffffffff16565b614f2890919063ffffffff16565b8160010181905550438160020181905550600a60008360000160009054906101000a900473ffffffffffffffffffffffffffffffffffffffff1673ffffffffffffffffffffffffffffffffffffffff1673ffffffffffffffffffffffffffffffffffffffff16815260200190815260200160002060009054906101000a900460ff1680156143215750600083115b156143d9576143d8838360000160009054906101000a900473ffffffffffffffffffffffffffffffffffffffff16600b60008660000160009054906101000a900473ffffffffffffffffffffffffffffffffffffffff1673ffffffffffffffffffffffffffffffffffffffff1673ffffffffffffffffffffffffffffffffffffffff16815260200190815260200160002060009054906101000a900473ffffffffffffffffffffffffffffffffffffffff1661538e565b5b6009600085815260200190815260200160002060003373ffffffffffffffffffffffffffffffffffffffff1673ffffffffffffffffffffffffffffffffffffffff16815260200190815260200160002060009054906101000a900460ff166145195760016009600086815260200190815260200160002060003373ffffffffffffffffffffffffffffffffffffffff1673ffffffffffffffffffffffffffffffffffffffff16815260200190815260200160002060006101000a81548160ff02191690831515021790555060086000858152602001908152602001600020339080600181540180825580915050600190039060005260206000200160009091909190916101000a81548173ffffffffffffffffffffffffffffffffffffffff021916908373ffffffffffffffffffffffffffffffffffffffff1602179055505b833373ffffffffffffffffffffffffffffffffffffffff167f90890809c654f11d6e72a28fa60149770a0d11ec6c92319d6ceb2bb0a4ea1a15856040518082815260200191505060405180910390a350505050565b600080601354431161459f57601354601060008154811061458b57fe5b90600052602060002001549150915061464a565b60145443116145cd5760145460106001815481106145b957fe5b90600052602060002001549150915061464a565b60155443116145fb5760155460106002815481106145e757fe5b90600052602060002001549150915061464a565b601654431161462957601654601060038154811061461557fe5b90600052602060002001549150915061464a565b601754601060048154811061463a57fe5b9060005260206000200154915091505b9091565b60065481565b33600d60008273ffffffffffffffffffffffffffffffffffffffff1673ffffffffffffffffffffffffffffffffffffffff16815260200190815260200160002060009054906101000a900460ff166146ab57600080fd5b8373ffffffffffffffffffffffffffffffffffffffff166370a08231306040518263ffffffff1660e01b8152600401808273ffffffffffffffffffffffffffffffffffffffff16815260200191505060206040518083038186803b15801561471257600080fd5b505afa158015614726573d6000803e3d6000fd5b505050506040513d602081101561473c57600080fd5b81019080805190602001909291905050508211156147c2576040517f08c379a000000000000000000000000000000000000000000000000000000000815260040180806020018281038252601c8152602001807f4e6f7420456e6f75676820556e6920546f6b656e2042616c616e63650000000081525060200191505060405180910390fd5b600073ffffffffffffffffffffffffffffffffffffffff168373ffffffffffffffffffffffffffffffffffffffff161415614865576040517f08c379a00000000000000000000000000000000000000000000000000000000081526004018080602001828103825260118152602001807f4e6f74205661696c64204164647265737300000000000000000000000000000081525060200191505060405180910390fd5b61489083838673ffffffffffffffffffffffffffffffffffffffff166152869092919063ffffffff16565b50505050565b61489e614b33565b73ffffffffffffffffffffffffffffffffffffffff1660008054906101000a900473ffffffffffffffffffffffffffffffffffffffff1673ffffffffffffffffffffffffffffffffffffffff161461495e576040517f08c379a00000000000000000000000000000000000000000000000000000000081526004018080602001828103825260208152602001807f4f776e61626c653a2063616c6c6572206973206e6f7420746865206f776e657281525060200191505060405180910390fd5b600073ffffffffffffffffffffffffffffffffffffffff168173ffffffffffffffffffffffffffffffffffffffff1614156149e4576040517f08c379a0000000000000000000000000000000000000000000000000000000008152600401808060200182810382526026815260200180615d886026913960400191505060405180910390fd5b8073ffffffffffffffffffffffffffffffffffffffff1660008054906101000a900473ffffffffffffffffffffffffffffffffffffffff1673ffffffffffffffffffffffffffffffffffffffff167f8be0079c531659141344cd1fd0a4f28419497f9722a3daafe3b4186f6b6457e060405160405180910390a3806000806101000a81548173ffffffffffffffffffffffffffffffffffffffff021916908373ffffffffffffffffffffffffffffffffffffffff16021790555050565b6000601154905090565b600080828401905083811015614b29576040517f08c379a000000000000000000000000000000000000000000000000000000000815260040180806020018281038252601b8152602001807f536166654d6174683a206164646974696f6e206f766572666c6f77000000000081525060200191505060405180910390fd5b8091505092915050565b600033905090565b6000808473ffffffffffffffffffffffffffffffffffffffff16630dfe16816040518163ffffffff1660e01b815260040160206040518083038186803b158015614b8457600080fd5b505afa158015614b98573d6000803e3d6000fd5b505050506040513d6020811015614bae57600080fd5b810190808051906020019092919050505090506000808673ffffffffffffffffffffffffffffffffffffffff16630902f1ac6040518163ffffffff1660e01b815260040160606040518083038186803b158015614c0a57600080fd5b505afa158015614c1e573d6000803e3d6000fd5b505050506040513d6060811015614c3457600080fd5b81019080805190602001909291908051906020019092919080519060200190929190505050509150915060008773ffffffffffffffffffffffffffffffffffffffff166318160ddd6040518163ffffffff1660e01b815260040160206040518083038186803b158015614ca657600080fd5b505afa158015614cba573d6000803e3d6000fd5b505050506040513d6020811015614cd057600080fd5b810190808051906020019092919050505090506000806000831115614e095773c02aaa39b223fe8d0a0e5c4f27ead9083c756cc273ffffffffffffffffffffffffffffffffffffffff168673ffffffffffffffffffffffffffffffffffffffff1614614d9f57614d6b83614d5d876dffffffffffffffffffffffffffff168b614ea290919063ffffffff16565b614f2890919063ffffffff16565b9050614d9881866dffffffffffffffffffffffffffff16866dffffffffffffffffffffffffffff1661556c565b9150614e04565b614dd483614dc6866dffffffffffffffffffffffffffff168b614ea290919063ffffffff16565b614f2890919063ffffffff16565b9050614e0181856dffffffffffffffffffffffffffff16876dffffffffffffffffffffffffffff1661556c565b91505b614e18565b60009650505050505050614e2b565b614e22828a61569c565b96505050505050505b9392505050565b8173ffffffffffffffffffffffffffffffffffffffff16632e1a7d4d826040518263ffffffff1660e01b815260040180828152602001915050600060405180830381600087803b158015614e8557600080fd5b505af1158015614e99573d6000803e3d6000fd5b50505050505050565b600080831415614eb55760009050614f22565b6000828402905082848281614ec657fe5b0414614f1d576040517f08c379a0000000000000000000000000000000000000000000000000000000008152600401808060200182810382526021815260200180615e096021913960400191505060405180910390fd5b809150505b92915050565b6000614f6a83836040518060400160405280601a81526020017f536166654d6174683a206469766973696f6e206279207a65726f0000000000008152506158e1565b905092915050565b6000614fb483836040518060400160405280601e81526020017f536166654d6174683a207375627472616374696f6e206f766572666c6f7700008152506159a7565b905092915050565b6000610f008211614fd05760149050615008565b611e008211614fe257600f9050615008565b6125808211614ff457600a9050615008565b6125808211156150075760009050615008565b5b919050565b6000600160009054906101000a900473ffffffffffffffffffffffffffffffffffffffff1673ffffffffffffffffffffffffffffffffffffffff166370a08231306040518263ffffffff1660e01b8152600401808273ffffffffffffffffffffffffffffffffffffffff16815260200191505060206040518083038186803b15801561509857600080fd5b505afa1580156150ac573d6000803e3d6000fd5b505050506040513d60208110156150c257600080fd5b81019080805190602001909291905050509050808211156151b157600160009054906101000a900473ffffffffffffffffffffffffffffffffffffffff1673ffffffffffffffffffffffffffffffffffffffff1663a9059cbb84836040518363ffffffff1660e01b8152600401808373ffffffffffffffffffffffffffffffffffffffff16815260200182815260200192505050602060405180830381600087803b15801561517057600080fd5b505af1158015615184573d6000803e3d6000fd5b505050506040513d602081101561519a57600080fd5b810190808051906020019092919050505050615281565b600160009054906101000a900473ffffffffffffffffffffffffffffffffffffffff1673ffffffffffffffffffffffffffffffffffffffff1663a9059cbb84846040518363ffffffff1660e01b8152600401808373ffffffffffffffffffffffffffffffffffffffff16815260200182815260200192505050602060405180830381600087803b15801561524457600080fd5b505af1158015615258573d6000803e3d6000fd5b505050506040513d602081101561526e57600080fd5b8101908080519060200190929190505050505b505050565b6153238363a9059cbb60e01b8484604051602401808373ffffffffffffffffffffffffffffffffffffffff16815260200182815260200192505050604051602081830303815290604052907bffffffffffffffffffffffffffffffffffffffffffffffffffffffff19166020820180517bffffffffffffffffffffffffffffffffffffffffffffffffffffffff8381831617835250505050615a67565b505050565b6000612580821061533c5760329050615389565b611e00821061534e5760289050615389565b611680821061536057601e9050615389565b610f0082106153725760149050615389565b610780821061538457600a9050615389565b600090505b919050565b8173ffffffffffffffffffffffffffffffffffffffff1663095ea7b382856040518363ffffffff1660e01b8152600401808373ffffffffffffffffffffffffffffffffffffffff16815260200182815260200192505050602060405180830381600087803b1580156153ff57600080fd5b505af1158015615413573d6000803e3d6000fd5b505050506040513d602081101561542957600080fd5b8101908080519060200190929190505050508073ffffffffffffffffffffffffffffffffffffffff1663a694fc3a846040518263ffffffff1660e01b815260040180828152602001915050600060405180830381600087803b15801561548e57600080fd5b505af11580156154a2573d6000803e3d6000fd5b50505050505050565b615566846323b872dd60e01b858585604051602401808473ffffffffffffffffffffffffffffffffffffffff1681526020018373ffffffffffffffffffffffffffffffffffffffff1681526020018281526020019350505050604051602081830303815290604052907bffffffffffffffffffffffffffffffffffffffffffffffffffffffff19166020820180517bffffffffffffffffffffffffffffffffffffffffffffffffffffffff8381831617835250505050615a67565b50505050565b60008084116155c6576040517f08c379a000000000000000000000000000000000000000000000000000000000815260040180806020018281038252602b815260200180615e54602b913960400191505060405180910390fd5b6000831180156155d65750600082115b61562b576040517f08c379a0000000000000000000000000000000000000000000000000000000008152600401808060200182810382526028815260200180615de16028913960400191505060405180910390fd5b60006156426103e586614ea290919063ffffffff16565b905060006156598483614ea290919063ffffffff16565b90506000615684836156766103e889614ea290919063ffffffff16565b614aab90919063ffffffff16565b905080828161568f57fe5b0493505050509392505050565b6000808273ffffffffffffffffffffffffffffffffffffffff16630dfe16816040518163ffffffff1660e01b815260040160206040518083038186803b1580156156e557600080fd5b505afa1580156156f9573d6000803e3d6000fd5b505050506040513d602081101561570f57600080fd5b810190808051906020019092919050505090506000808473ffffffffffffffffffffffffffffffffffffffff16630902f1ac6040518163ffffffff1660e01b815260040160606040518083038186803b15801561576b57600080fd5b505afa15801561577f573d6000803e3d6000fd5b505050506040513d606081101561579557600080fd5b810190808051906020019092919080519060200190929190805190602001909291905050505091509150600073c02aaa39b223fe8d0a0e5c4f27ead9083c756cc273ffffffffffffffffffffffffffffffffffffffff168473ffffffffffffffffffffffffffffffffffffffff1614156158425761583b615814614aa1565b846dffffffffffffffffffffffffffff16846dffffffffffffffffffffffffffff1661556c565b9050615877565b61587461584d614aa1565b836dffffffffffffffffffffffffffff16856dffffffffffffffffffffffffffff1661556c565b90505b60006158d160026158c361589b61588c613afc565b86614f2890919063ffffffff16565b6158b56158a6614aa1565b8d614f2890919063ffffffff16565b614ea290919063ffffffff16565b614ea290919063ffffffff16565b9050809550505050505092915050565b6000808311829061598d576040517f08c379a00000000000000000000000000000000000000000000000000000000081526004018080602001828103825283818151815260200191508051906020019080838360005b83811015615952578082015181840152602081019050615937565b50505050905090810190601f16801561597f5780820380516001836020036101000a031916815260200191505b509250505060405180910390fd5b50600083858161599957fe5b049050809150509392505050565b6000838311158290615a54576040517f08c379a00000000000000000000000000000000000000000000000000000000081526004018080602001828103825283818151815260200191508051906020019080838360005b83811015615a195780820151818401526020810190506159fe565b50505050905090810190601f168015615a465780820380516001836020036101000a031916815260200191505b509250505060405180910390fd5b5060008385039050809150509392505050565b6060615ac9826040518060400160405280602081526020017f5361666545524332303a206c6f772d6c6576656c2063616c6c206661696c65648152508573ffffffffffffffffffffffffffffffffffffffff16615b569092919063ffffffff16565b9050600081511115615b5157808060200190516020811015615aea57600080fd5b8101908080519060200190929190505050615b50576040517f08c379a000000000000000000000000000000000000000000000000000000000815260040180806020018281038252602a815260200180615e2a602a913960400191505060405180910390fd5b5b505050565b6060615b658484600085615b6e565b90509392505050565b6060615b7985615d74565b615beb576040517f08c379a000000000000000000000000000000000000000000000000000000000815260040180806020018281038252601d8152602001807f416464726573733a2063616c6c20746f206e6f6e2d636f6e747261637400000081525060200191505060405180910390fd5b600060608673ffffffffffffffffffffffffffffffffffffffff1685876040518082805190602001908083835b60208310615c3b5780518252602082019150602081019050602083039250615c18565b6001836020036101000a03801982511681845116808217855250505050505090500191505060006040518083038185875af1925050503d8060008114615c9d576040519150601f19603f3d011682016040523d82523d6000602084013e615ca2565b606091505b50915091508115615cb7578092505050615d6c565b600081511115615cca5780518082602001fd5b836040517f08c379a00000000000000000000000000000000000000000000000000000000081526004018080602001828103825283818151815260200191508051906020019080838360005b83811015615d31578082015181840152602081019050615d16565b50505050905090810190601f168015615d5e5780820380516001836020036101000a031916815260200191505b509250505060405180910390fd5b949350505050565b600080823b90506000811191505091905056fe4f776e61626c653a206e6577206f776e657220697320746865207a65726f2061646472657373416d6f756e74206d757374206265206c657373207468616e206f7220657175616c20746f20323030303020646f6c6c6172732e556e697377617056324c6962726172793a20494e53554646494349454e545f4c4951554944495459536166654d6174683a206d756c7469706c69636174696f6e206f766572666c6f775361666545524332303a204552433230206f7065726174696f6e20646964206e6f742073756363656564556e697377617056324c6962726172793a20494e53554646494349454e545f494e5055545f414d4f554e54a26469706673582212203714711aae1c61a413400fedb8825a1c15f77a49285140332ee988162bb90c9c64736f6c634300060c0033",
  "immutableReferences": {},
  "source": "pragma solidity ^0.6.0;\r\n\r\nimport \"../helper/SafeERC20.sol\";\r\nimport \"../helper/SafeMath.sol\";\r\nimport \"../helper/Ownable.sol\";\r\nimport \"./ChillToken.sol\";\r\nimport \"../uniswap/UniswapV2Library.sol\";\r\nimport \"../interfaces/IUniswapV2Pair.sol\";\r\nimport \"../interfaces/IUniStakingRewards.sol\";\r\n\r\n// eth-dai 0xBbB8eeA618861940FaDEf3071e79458d4c2B42e3\r\ncontract ChillFinance is Ownable {\r\n    \r\n    using SafeMath for uint256;\r\n    using SafeERC20 for IERC20;\r\n\r\n    struct UserInfo {\r\n        uint256 amount;\r\n        uint256 rewardDebt;\r\n        uint256 startedBlock;\r\n    }\r\n    \r\n    struct PoolInfo {\r\n        IERC20 lpToken;           \r\n        uint256 allocPoint;       \r\n        uint256 lastRewardBlock;  \r\n        uint256 accChillPerShare;\r\n        uint256 totalPoolBalance;\r\n    }\r\n\r\n    ChillToken public chill;\r\n    address public devaddr;\r\n    PoolInfo[] public poolInfo;\r\n    uint256 public bonusEndBlock;\r\n    uint256 public constant BONUS_MULTIPLIER = 10;\r\n    uint256 public totalAllocPoint = 0;\r\n    uint256 public startBlockOfChill;\r\n    mapping (uint256 => mapping (address => UserInfo)) public userInfo;\r\n    mapping (uint256 => address[]) public poolUsers;\r\n    mapping (uint256 => mapping(address => bool)) public isUserExist;\r\n    mapping (address => bool) public stakingUniPools;\r\n    mapping (address => address) public uniRewardAddresses;\r\n    mapping (uint256 => bool) public isCheckInitialPeriod;\r\n    mapping (address => bool) private distributors;\r\n\r\n    address stablePair;    \r\n    uint256 initialPeriod;\r\n    uint256[] public blockPerPhase;\r\n    uint256 private ethDivider;\r\n    uint256 private stableDivider;\r\n\r\n    uint256 public phase1time;\r\n    uint256 public phase2time;\r\n    uint256 public phase3time;\r\n    uint256 public phase4time;\r\n    uint256 public phase5time;\r\n\r\n    event Deposit(address indexed user, uint256 indexed pid, uint256 amount);\r\n    event Withdraw(address indexed user, uint256 indexed pid, uint256 amount);\r\n    event EmergencyWithdraw(address indexed user, uint256 indexed pid, uint256 amount);\r\n\r\n    modifier isDistributor(address _isDistributor) {\r\n        require(distributors[_isDistributor]);\r\n        _;\r\n    }\r\n\r\n    constructor(\r\n        ChillToken _chill,\r\n        address _devaddr,\r\n        address _stablePair\r\n    ) public {\r\n        chill = _chill;\r\n        devaddr = _devaddr;\r\n        stablePair = _stablePair;\r\n        \r\n        startBlockOfChill = block.number.add(0);\r\n        bonusEndBlock = block.number.add(0);\r\n        initialPeriod = block.number.add(28800); // 5 days (5*24*60*60)/15\r\n        \r\n        blockPerPhase.push(75e18);\r\n        blockPerPhase.push(100e18);\r\n        blockPerPhase.push(50e18);\r\n        blockPerPhase.push(25e18);\r\n        blockPerPhase.push(0);\r\n\r\n        phase1time = block.number.add(80640); // 14 days (14*24*60*60)/15\r\n        phase2time = block.number.add(253440); // 44 - 14 = 30 days (44*24*60*60)/15 \r\n        phase3time = block.number.add(426240); // 74 - 44 = 30 days (74*24*60*60)/15\r\n        phase4time = block.number.add(771840); // 134 - 74 = 60 days (134*24*60*60)/15\r\n        phase5time = block.number.add(0); // 134 - 74 = 60 days (134*24*60*60)/15\r\n\r\n        stableDivider = 1e6;\r\n        ethDivider = 1e18;\r\n    }\r\n\r\n    function poolLength() external view returns (uint256) {\r\n        return poolInfo.length;\r\n    }\r\n    function userPoollength(uint256 _pid) external view returns (uint256) {\r\n        return poolUsers[_pid].length;\r\n    }\r\n\r\n    // Add Function to give support new uniswap lp pool by only owner\r\n    // for allocpoint will be 100 and if you want to generate more chill for specific pool then you need to increase allocpoint\r\n    // like for, 1x=>100, 2x=>200, 3x=>300 etc.\r\n    function add(uint256 _allocPoint, IERC20 _lpToken, bool _withUpdate) public onlyOwner {\r\n        if (_withUpdate) {\r\n            massUpdatePools();\r\n        }\r\n        uint256 lastRewardBlock = block.number > startBlockOfChill ? block.number : startBlockOfChill;\r\n        totalAllocPoint = totalAllocPoint.add(_allocPoint);\r\n        poolInfo.push(PoolInfo({\r\n            lpToken: _lpToken,\r\n            allocPoint: _allocPoint,\r\n            lastRewardBlock: lastRewardBlock,\r\n            accChillPerShare: 0,\r\n            totalPoolBalance: 0\r\n        }));\r\n    }\r\n    \r\n    // increase alloc point for specific pool\r\n    function set(uint256 _pid, uint256 _allocPoint, bool _withUpdate) public onlyOwner {\r\n        if (_withUpdate) {\r\n            massUpdatePools();\r\n        }\r\n        totalAllocPoint = totalAllocPoint.sub(poolInfo[_pid].allocPoint).add(_allocPoint);\r\n        poolInfo[_pid].allocPoint = _allocPoint;\r\n    }\r\n    \r\n    function massUpdatePools() public {\r\n        uint256 length = poolInfo.length;\r\n        for (uint256 pid = 0; pid < length; ++pid) {\r\n            updatePool(pid);\r\n        }\r\n    }\r\n    \r\n    // user can deposit lp for specific pool\r\n    function deposit(uint256 _pid, uint256 _amount) public {\r\n        PoolInfo storage pool = poolInfo[_pid];\r\n        UserInfo storage user = userInfo[_pid][msg.sender];\r\n\r\n        if (isCheckInitialPeriod[_pid]) {\r\n            if (block.number <= initialPeriod) {\r\n                require(countStakeAmount(address(pool.lpToken), getStablePairAddress(), _amount) <= 20000, \"Amount must be less than or equal to 20000 dollars.\");\r\n            } else {\r\n                isCheckInitialPeriod[_pid] = false;\r\n            }\r\n        }\r\n        \r\n        if (user.startedBlock <= 0) {\r\n            user.startedBlock = block.number;\r\n        }\r\n        \r\n        updatePool(_pid);\r\n        if (user.amount > 0) {\r\n            uint256 pending = user.amount.mul(pool.accChillPerShare).div(1e12).sub(user.rewardDebt);\r\n            uint256 extraReward = getExtraReward(_pid);\r\n            pending = pending.add(extraReward);\r\n            safeChillTransfer(msg.sender, pending);\r\n        }\r\n\r\n        pool.lpToken.safeTransferFrom(address(msg.sender), address(this), _amount);\r\n        pool.totalPoolBalance = pool.totalPoolBalance.add(_amount);\r\n        user.amount = user.amount.add(_amount);\r\n        user.rewardDebt = user.amount.mul(pool.accChillPerShare).div(1e12);\r\n        user.startedBlock = block.number;\r\n\r\n        if (stakingUniPools[address(pool.lpToken)] && _amount > 0) {\r\n            stakeInUni(_amount, address(pool.lpToken), uniRewardAddresses[address(pool.lpToken)]);\r\n        }\r\n\r\n        if (!isUserExist[_pid][msg.sender]) {\r\n            isUserExist[_pid][msg.sender] = true;\r\n            poolUsers[_pid].push(msg.sender);\r\n        }\r\n        emit Deposit(msg.sender, _pid, _amount);\r\n    }\r\n    \r\n    // it will be call if spicific pool uniswap uni pool supported in chill finance\r\n    // and if you want to support uniswap pool then you need to add in addStakeUniPool\r\n    function stakeInUni(uint256 amount, address v2address, address _stakeAddress) private {\r\n        IERC20(v2address).approve(address(_stakeAddress), amount);\r\n        IUniStakingRewards(_stakeAddress).stake(amount);\r\n    }\r\n\r\n    // user can withdraw their lp token from specific pool \r\n    function withdraw(uint256 _pid, uint256 _amount) public {\r\n        PoolInfo storage pool = poolInfo[_pid];\r\n        UserInfo storage user = userInfo[_pid][msg.sender];\r\n        require(user.amount >= _amount, \"withdraw is not valid\");\r\n        \r\n        if (user.startedBlock <= 0) {\r\n            user.startedBlock = block.number;\r\n        }\r\n        \r\n        if (stakingUniPools[address(pool.lpToken)]  && _amount > 0) {\r\n            withdrawUni(address(pool.lpToken), uniRewardAddresses[address(pool.lpToken)], _amount);\r\n        }\r\n\r\n        updatePool(_pid);\r\n        uint256 pending = user.amount.mul(pool.accChillPerShare).div(1e12).sub(user.rewardDebt);\r\n        uint256 tax = deductTaxByBlock(getCrossMultiplier(user.startedBlock, block.number));\r\n        uint256 pendingtax = pending.mul(tax).div(100);\r\n        uint256 extraReward = getExtraReward(_pid);\r\n        pending = pending.add(extraReward).sub(pendingtax.div(2));\r\n        safeChillTransfer(msg.sender, pending);\r\n\r\n        if (pendingtax > 0) {\r\n            chill.mint(devaddr, pendingtax.div(2));\r\n            if (chill.balanceOf(address(this)) >= pendingtax.div(2)) {\r\n                chill.burn(address(this), pendingtax.div(2));\r\n            }\r\n            chill.burn(msg.sender, pendingtax.div(2));\r\n        }\r\n\r\n        user.amount = user.amount.sub(_amount);\r\n        user.rewardDebt = user.amount.mul(pool.accChillPerShare).div(1e12);\r\n        user.startedBlock = block.number;\r\n        pool.totalPoolBalance = pool.totalPoolBalance.sub(_amount);\r\n        pool.lpToken.safeTransfer(address(msg.sender), _amount);\r\n        emit Withdraw(msg.sender, _pid, _amount);\r\n    }\r\n    \r\n    function withdrawUni(address v2address, address _stakeAddress, uint256 _amount) private {\r\n        IUniStakingRewards(_stakeAddress).withdraw(_amount);\r\n    }\r\n    \r\n    // Reward will genrate in update pool function and call will be happen internally by deposit and withdraw function\r\n    function updatePool(uint256 _pid) public {\r\n        PoolInfo storage pool = poolInfo[_pid];\r\n        UserInfo storage user = userInfo[_pid][msg.sender];\r\n\r\n        if (block.number <= pool.lastRewardBlock) {\r\n            return;\r\n        }\r\n\r\n        if (pool.totalPoolBalance == 0) {\r\n            pool.lastRewardBlock = block.number;\r\n            return;\r\n        }\r\n        \r\n        uint256 chillReward;\r\n        uint256 multiplier = getMultiplier(pool.lastRewardBlock, block.number);\r\n        if (block.number <= phase1time) {\r\n            chillReward = multiplier.mul(blockPerPhase[0]).mul(pool.allocPoint).div(totalAllocPoint);\r\n        } else if (block.number <= phase2time) {\r\n            chillReward = multiplier.mul(blockPerPhase[1]).mul(pool.allocPoint).div(totalAllocPoint);\r\n        } else if (block.number <= phase3time) {\r\n            chillReward = multiplier.mul(blockPerPhase[2]).mul(pool.allocPoint).div(totalAllocPoint);\r\n        } else if (block.number <= phase4time) {\r\n            chillReward = multiplier.mul(blockPerPhase[3]).mul(pool.allocPoint).div(totalAllocPoint);\r\n        } else {\r\n            chillReward = multiplier.mul(blockPerPhase[4]).mul(pool.allocPoint).div(totalAllocPoint);\r\n        }\r\n        \r\n        if (chillReward > 0) {\r\n            chill.mint(devaddr, chillReward.div(10));\r\n            chill.mint(address(this), chillReward);\r\n        }\r\n        pool.accChillPerShare = pool.accChillPerShare.add(chillReward.mul(1e12).div(pool.totalPoolBalance));\r\n        pool.lastRewardBlock = block.number;\r\n    }\r\n    \r\n    // GetExtraReward will calculate extra reward if you pass certain hours with your deposit token\r\n    // then you will get extra chill token\r\n    function getExtraReward(uint256 _pid) public returns(uint256) {\r\n        PoolInfo storage pool = poolInfo[_pid];\r\n        UserInfo storage user = userInfo[_pid][msg.sender];\r\n        if (pool.totalPoolBalance == 0) {\r\n            return 0;\r\n        }\r\n        \r\n        uint256 multiplier;\r\n        uint256 chillReward;\r\n        multiplier = getExtraMultiplier(user.startedBlock, block.number);\r\n        if (block.number <= phase1time) {\r\n            chillReward = multiplier.mul(blockPerPhase[0]).mul(pool.allocPoint).div(totalAllocPoint);\r\n        } else if (block.number <= phase2time) {\r\n            chillReward = multiplier.mul(blockPerPhase[1]).mul(pool.allocPoint).div(totalAllocPoint);\r\n        } else if (block.number <= phase3time) {\r\n            chillReward = multiplier.mul(blockPerPhase[2]).mul(pool.allocPoint).div(totalAllocPoint);\r\n        } else if (block.number <= phase4time) {\r\n            chillReward = multiplier.mul(blockPerPhase[3]).mul(pool.allocPoint).div(totalAllocPoint);\r\n        } else {\r\n            chillReward = multiplier.mul(blockPerPhase[4]).mul(pool.allocPoint).div(totalAllocPoint);\r\n        }\r\n        \r\n        if (chillReward > 0) {\r\n            chill.mint(address(this), chillReward);\r\n        }\r\n        return chillReward;\r\n    }\r\n    \r\n    // For user interface to claimable token\r\n    function pendingChill(uint256 _pid, address _user) external view returns (uint256) {\r\n        PoolInfo storage pool = poolInfo[_pid];\r\n        UserInfo storage user = userInfo[_pid][_user];\r\n        uint256 accChillPerShare = pool.accChillPerShare;\r\n        if (pool.totalPoolBalance != 0) {\r\n            uint256 extraMultiplier;\r\n            uint256 chillReward;\r\n            uint256 multiplier = getMultiplier(pool.lastRewardBlock, block.number);\r\n            extraMultiplier = getExtraMultiplier(user.startedBlock, block.number);\r\n            multiplier = multiplier.add(extraMultiplier);\r\n            if (block.number <= phase1time) {\r\n                chillReward = multiplier.mul(blockPerPhase[0]).mul(pool.allocPoint).div(totalAllocPoint);\r\n            } else if (block.number <= phase2time) {\r\n                chillReward = multiplier.mul(blockPerPhase[1]).mul(pool.allocPoint).div(totalAllocPoint);\r\n            } else if (block.number <= phase3time) {\r\n                chillReward = multiplier.mul(blockPerPhase[2]).mul(pool.allocPoint).div(totalAllocPoint);\r\n            } else if (block.number <= phase4time) {\r\n                chillReward = multiplier.mul(blockPerPhase[3]).mul(pool.allocPoint).div(totalAllocPoint);\r\n            } else {\r\n                chillReward = multiplier.mul(blockPerPhase[4]).mul(pool.allocPoint).div(totalAllocPoint);\r\n            }\r\n            uint256 tax = deductTaxByBlock(getCrossMultiplier(user.startedBlock, block.number));\r\n            uint256 pendingtax = chillReward.mul(tax).div(100);\r\n            chillReward = chillReward.sub(pendingtax);\r\n            accChillPerShare = accChillPerShare.add(chillReward.mul(1e12).div(pool.totalPoolBalance));\r\n        }\r\n        return user.amount.mul(accChillPerShare).div(1e12).sub(user.rewardDebt);\r\n    }\r\n\r\n    // Return reward multiplier over the given _from to _to block.\r\n    function getMultiplier(uint256 _from, uint256 _to) public view returns (uint256) {\r\n        if (_to <= bonusEndBlock) {\r\n            return _to.sub(_from).mul(BONUS_MULTIPLIER);\r\n        } else if (_from >= bonusEndBlock) {\r\n            return _to.sub(_from);\r\n        } else {\r\n            return bonusEndBlock.sub(_from).mul(BONUS_MULTIPLIER).add(\r\n                _to.sub(bonusEndBlock)\r\n            );\r\n        }\r\n    }\r\n\r\n    // Return reward multiplier over the given _from to _to block.\r\n    function getCrossMultiplier(uint256 _from, uint256 currentblock) public view returns (uint256) {\r\n        uint256 multiplier;\r\n        if (currentblock > _from) {\r\n            multiplier = currentblock.sub(_from);\r\n        } else {\r\n            multiplier = _from.sub(currentblock);\r\n        }\r\n        return multiplier;\r\n    }\r\n    \r\n    // Return extra reward multiplier over the given _from to _to block.\r\n    function getExtraMultiplier(uint256 _from, uint256 currentblock) public view returns (uint256) {\r\n        uint256 multiplier = getCrossMultiplier(_from, currentblock);\r\n        uint256 extraMultiplier = multiplier.mul(getTotalBlocksCovered(multiplier)).div(100);\r\n        return extraMultiplier;\r\n    }\r\n    \r\n    // get if nirvana\r\n    function getNirvanaStatus(uint256 _from) public view returns (uint256) {\r\n        uint256 multiplier = getCrossMultiplier(_from, block.number);\r\n        uint256 isNirvana = getTotalBlocksCovered(multiplier);\r\n        return isNirvana;\r\n    }\r\n    \r\n    // Set extra reward after each 8 hours(1920 block)\r\n    function getTotalBlocksCovered(uint256 _block) internal pure returns(uint256) {\r\n        if (_block >= 9600) {\r\n            return 50;\r\n        } else if (_block >= 7680) {\r\n            return 40;\r\n        } else if (_block >= 5760) {\r\n            return 30;\r\n        } else if (_block >= 3840) {\r\n            return 20;\r\n        } else if (_block >= 1920) {\r\n            return 10;\r\n        } else {\r\n            return 0;\r\n        }\r\n    }\r\n    \r\n    // Deduct tax if user withdraw before nirvana at different stage\r\n    function deductTaxByBlock(uint256 _block) internal pure returns(uint256) {\r\n        if (_block <= 3840) {\r\n            return 20;\r\n        } else if (_block <= 7680) {\r\n            return 15;\r\n        } else if (_block <= 9600) {\r\n            return 10;\r\n        } else if (_block > 9600) {\r\n            return 0;\r\n        }\r\n    }\r\n    \r\n    // Check if amount of lp tokens is less than $20000\r\n    function countStakeAmount(address _countPair, address _stablePair, uint256 _liquiditybalance) public view returns(uint256) {\r\n        return countEthAmount(_countPair, _stablePair, _liquiditybalance);\r\n    }\r\n    \r\n    function countEthAmount(address _countPair, address _stablePair, uint256 _liquiditybalance) internal view returns(uint256) {\r\n        address countToken0 = IUniswapV2Pair(_countPair).token0();\r\n        (uint112 countReserves0, uint112 countReserves1, ) = IUniswapV2Pair(_countPair).getReserves();\r\n        uint256 countTotalSupply = IERC20(_countPair).totalSupply();\r\n        uint256 ethAmount;\r\n        uint256 tokenbalance;\r\n\r\n        if(countTotalSupply > 0) {\r\n            if(countToken0 != 0xC02aaA39b223FE8D0A0e5C4F27eAD9083C756Cc2) {\r\n                tokenbalance = _liquiditybalance.mul(countReserves0).div(countTotalSupply);\r\n                ethAmount = UniswapV2Library.getAmountOut(tokenbalance, countReserves0, countReserves1);\r\n            } else {\r\n                tokenbalance = _liquiditybalance.mul(countReserves1).div(countTotalSupply);\r\n                ethAmount = UniswapV2Library.getAmountOut(tokenbalance, countReserves1, countReserves0);\r\n            }\r\n        }\r\n        else {\r\n            return 0;\r\n        }\r\n        return countUsdtAmount(ethAmount, _stablePair);\r\n    }\r\n\r\n    function countUsdtAmount(uint256 ethAmount, address _stablePair) internal view returns(uint256) {\r\n        address usdttoken0 = IUniswapV2Pair(_stablePair).token0();\r\n        (uint112 stableReserves0, uint112 stableReserves1, ) = IUniswapV2Pair(_stablePair).getReserves();\r\n\r\n        uint256 stableOutAmount;\r\n        if (usdttoken0 == 0xC02aaA39b223FE8D0A0e5C4F27eAD9083C756Cc2) { // WETH Mainnet\r\n            stableOutAmount = UniswapV2Library.getAmountOut(getEthDivider(), stableReserves0, stableReserves1);\r\n        } else {\r\n            stableOutAmount = UniswapV2Library.getAmountOut(getEthDivider(), stableReserves1, stableReserves0);\r\n        }\r\n        uint256 totalAmount = ((ethAmount.div(getEthDivider())).mul(stableOutAmount.div(getStableDivider()))).mul(2);\r\n        return totalAmount;\r\n    }\r\n    \r\n    // Safe chill transfer function, just in case if rounding error causes pool to not have enough CHILLs.\r\n    function safeChillTransfer(address _to, uint256 _amount) internal {\r\n        uint256 chillBal = chill.balanceOf(address(this));\r\n        if (_amount > chillBal) {\r\n            chill.transfer(_to, chillBal);\r\n        } else {\r\n            chill.transfer(_to, _amount);\r\n        }\r\n    }\r\n    \r\n    // if specific lp pool is supported in uniswap uni pool the deposited lp token in chill finance will again deposit in uni pool and earn double reward in uni token\r\n    // and owner can withdraw extra reward from uni pool\r\n    function getUniReward(address _stakeAddress) public onlyOwner {\r\n        IUniStakingRewards(_stakeAddress).getReward();\r\n    }\r\n    \r\n    // extra uni reward only access by distributor\r\n    // distributor can be single user or any other contracts as well \r\n    function accessReward(address _uniAddress, address _to, uint256 _amount) public isDistributor(msg.sender) {\r\n        require(_amount <= IERC20(_uniAddress).balanceOf(address(this)), \"Not Enough Uni Token Balance\");\r\n        require(_to != address(0), \"Not Vaild Address\");\r\n        IERC20(_uniAddress).safeTransfer(_to, _amount);\r\n    }\r\n    \r\n    // withdraw extra uni reward and lp token as well from uni pool\r\n    function getUniRewardAndExit(address _stakeAddress) public onlyOwner {\r\n        IUniStakingRewards(_stakeAddress).exit();\r\n    }\r\n    \r\n    // to give support to specific pool to deposit again in uni pool to generate extra reward in uni token \r\n    function addStakeUniPool(address _uniV2Pool, address _stakingRewardAddress) public onlyOwner {\r\n        require(!stakingUniPools[_uniV2Pool], \"This pool is already exist.\");\r\n        uint256 _amount = IERC20(_uniV2Pool).balanceOf(address(this));\r\n        if(_amount > 0) {\r\n            stakeInUni(_amount, address(_uniV2Pool), address(_stakingRewardAddress));\r\n        }\r\n        stakingUniPools[_uniV2Pool] = true;\r\n        uniRewardAddresses[_uniV2Pool] = _stakingRewardAddress;\r\n    }\r\n\r\n    // to remove support of uni pool for specific pool\r\n    function removeStakeUniPool(address _uniV2Pool) public onlyOwner {\r\n        require(stakingUniPools[_uniV2Pool], \"This pool is not exist.\");\r\n        uint256 _amount = IUniStakingRewards(uniRewardAddresses[address(_uniV2Pool)]).balanceOf(address(this));\r\n        if (_amount > 0) {\r\n            IUniStakingRewards(uniRewardAddresses[address(_uniV2Pool)]).withdraw(_amount);\r\n        }\r\n        stakingUniPools[_uniV2Pool] = false;\r\n        uniRewardAddresses[_uniV2Pool] = address(0);\r\n    }\r\n    \r\n    // dev adderess can only change by dev\r\n    function dev(address _devaddr) public {\r\n        require(msg.sender == devaddr, \"dev adddress is not valid\");\r\n        devaddr = _devaddr;\r\n    }\r\n\r\n    // to set flag for count $20000 worth asset for specific pool\r\n    function setCheckInitialPeriod(uint256 _pid, bool _isCheck) public onlyOwner {\r\n        isCheckInitialPeriod[_pid] = _isCheck;\r\n    }\r\n\r\n    // to set flag for count $20000 worth asset for all pool\r\n    function setCheckInitialPeriodAllPool(bool _isCheck) public onlyOwner {\r\n        uint256 length = poolInfo.length;\r\n        for (uint256 pid = 0; pid < length; ++pid) {\r\n            isCheckInitialPeriod[pid] = _isCheck;\r\n        }\r\n    }\r\n\r\n    // to get flag is enabled for to check is asset is worth of $20000\r\n    function getCheckInitialPeriod(uint256 _pid) public view returns(bool) {\r\n        return isCheckInitialPeriod[_pid];\r\n    }\r\n\r\n    // to set any stable reference address to caluclate $20000\r\n    // usdt pair has 6 decimals so divider will be 1000000 or 1e6 \r\n    function setStablePairAddress(address _stablePair, uint256 _stableDivider) public onlyOwner {\r\n        stablePair = _stablePair;\r\n        stableDivider = _stableDivider;\r\n    }\r\n\r\n    // to get stable pair\r\n    function getStablePairAddress() public view returns(address) {\r\n        return stablePair;\r\n    }\r\n\r\n    // to get stable devider\r\n    function getStableDivider() public view returns(uint256) {\r\n        return stableDivider;\r\n    }\r\n    \r\n    // to set stable eth divider like 1e18\r\n    function setEthDivider(uint256 _ethDivider) public onlyOwner {\r\n        ethDivider = _ethDivider;\r\n    }\r\n\r\n    // to get stable eth divider \r\n    function getEthDivider() public view returns(uint256) {\r\n        return ethDivider;\r\n    }\r\n\r\n    // set chill per block for particular phase\r\n    function setBlockPerPhaseByIndex(uint256 _index, uint256 _chillPerBlock) public onlyOwner {\r\n        blockPerPhase[_index] = _chillPerBlock;\r\n    }\r\n\r\n    // get chill per block for particular phase\r\n    function getBlockPerPhaseByIndex(uint256 _index) public view returns(uint256) {\r\n        return blockPerPhase[_index];\r\n    }\r\n\r\n    // increase any phase time by its index\r\n    function setAndEditPhaseTime(uint256 _index, uint256 _time) public onlyOwner {\r\n        if(_index == 0) {\r\n            phase1time = phase1time.add(_time);\r\n        } else if(_index == 1) {\r\n            phase2time = phase2time.add(_time);\r\n        } else if(_index == 2) {\r\n            phase3time = phase3time.add(_time);\r\n        } else if(_index == 3) {\r\n            phase4time = phase4time.add(_time);\r\n        } else if(_index == 4) {\r\n            phase5time = phase5time.add(_time);\r\n        }\r\n    }\r\n\r\n    // get current phase with its chill per block\r\n    function getPhaseTimeAndBlocks() public view returns(uint256, uint256) {\r\n        if (block.number <= phase1time) {\r\n            return ( phase1time, blockPerPhase[0] );\r\n        } else if (block.number <= phase2time) {\r\n            return ( phase2time, blockPerPhase[1] );\r\n        } else if (block.number <= phase3time) {\r\n            return ( phase3time, blockPerPhase[2] );\r\n        } else if (block.number <= phase4time) {\r\n            return ( phase4time, blockPerPhase[3] );\r\n        } else {\r\n            return ( phase5time, blockPerPhase[4] );\r\n        }\r\n    }\r\n\r\n    // to set reward distibutor for extra uni token\r\n    function setRewardDistributor(address _distributor, bool _isdistributor) public onlyOwner {\r\n        distributors[_distributor] = _isdistributor;\r\n    }\r\n}",
  "sourcePath": "C:/AComputer/freelancer/formefreelance/chillfinance/chill_backend/contracts/chill/ChillFinance.sol",
  "compiler": {
    "name": "solc",
    "version": "0.6.12+commit.27d51765.Emscripten.clang"
  },
  "schemaVersion": "3.3.1",
  "updatedAt": "2020-10-31T11:01:39.227Z",
  "networkType": "ethereum",
  "devdoc": {
    "kind": "dev",
    "methods": {
      "owner()": {
        "details": "Returns the address of the current owner."
      },
      "renounceOwnership()": {
        "details": "Leaves the contract without owner. It will not be possible to call `onlyOwner` functions anymore. Can only be called by the current owner. NOTE: Renouncing ownership will leave the contract without an owner, thereby removing any functionality that is only available to the owner."
      },
      "transferOwnership(address)": {
        "details": "Transfers ownership of the contract to a new account (`newOwner`). Can only be called by the current owner."
      }
    },
    "version": 1
  },
  "userdoc": {
    "kind": "user",
    "methods": {},
    "version": 1
  }
}